:020000040800F2
:1000000000000220611900087D43000883430008B6
:10001000A1430008A7430008AD430008000000000A
:100020000000000000000000000000000D82000839
:10003000C119000800000000258200088985000819
:10004000C1190008C1190008C1190008C119000828
:10005000C1190008C1190008F92300081D2400086F
:10006000412400086524000889240008C1190008FB
:1000700041630008C119000869620008C11900083D
:10008000F962000821620008C1190008C1190008BE
:10009000C1190008C1190008C1190008AD240008E1
:1000A000C1190008C119000839870008C1190008E2
:1000B000C1190008C1190008C1190008C1190008B8
:1000C000C1190008C1190008C1190008C1190008A8
:1000D000C1190008496100086161000879610008E0
:1000E0000D250008C1190008C1190008C119000830
:1000F000C1190008C1190008C1190008C119000878
:10010000C1190008C11900082D830008C119000891
:1001100091610008A9610008C1190008C11900080F
:10012000C1190008C1190008C1190008C119000847
:10013000C1190008C1190008C1190008C119000837
:10014000C1190008C1190008C1190008C119000827
:10015000B1620008C1190008D9610008C161000836
:10016000C1190008C1190008C1190008C119000807
:10017000C1190008C1190008C1190008C1190008F7
:0C018000C1190008C119000800000008A7
:1001900081F0004102E000BF83F0004330B54FEA38
:1001A00041044FEA430594EA050F08BF90EA020FA5
:1001B0001FBF54EA000C55EA020C7FEA645C7FEA38
:1001C000655C00F0E2804FEA5454D4EB5555B8BF5B
:1001D0006D420CDD2C4480EA020281EA030382EACC
:1001E000000083EA010180EA020281EA0303362D5E
:1001F00088BF30BD11F0004F4FEA01314FF4801C31
:100200004CEA113102D0404261EB410113F0004F42
:100210004FEA03334CEA133302D0524263EB4303F9
:1002200094EA050F00F0A780A4F10104D5F1200E97
:100230000DDB02FA0EFC22FA05F2801841F10001F2
:1002400003FA0EF2801843FA05F359410EE0A5F1C6
:1002500020050EF1200E012A03FA0EFC28BF4CF0F7
:10026000020C43FA05F3C01851EBE37101F00045AD
:1002700007D54FF0000EDCF1000C7EEB00006EEBBA
:100280000101B1F5801F1BD3B1F5001F0CD3490844
:100290005FEA30004FEA3C0C04F101044FEA44529B
:1002A00012F5800F80F09A80BCF1004F08BF5FEA22
:1002B000500C50F1000041EB045141EA050130BD02
:1002C0005FEA4C0C404141EB010111F4801FA4F1A5
:1002D0000104E9D191F0000F04BF01460020B1FAFA
:1002E00081F308BF2033A3F10B03B3F120020CDA32
:1002F0000C3208DD02F1140CC2F10C0201FA0CF010
:1003000021FA02F10CE002F11402D8BFC2F1200C74
:1003100001FA02F120FA0CFCDCBF41EA0C0190402A
:10032000E41AA2BF01EB0451294330BD6FEA040473
:100330001F3C1CDA0C340EDC04F11404C4F120025E
:1003400020FA04F001FA02F340EA030021FA04F370
:1003500045EA030130BDC4F10C04C4F1200220FAC7
:1003600002F001FA04F340EA0300294630BD21FA05
:1003700004F0294630BD94F0000F83F4801306BFCB
:1003800081F480110134013D4EE77FEA645C18BFBF
:100390007FEA655C29D094EA050F08BF90EA020F56
:1003A00005D054EA000C04BF1946104630BD91EA4E
:1003B000030F1EBF0021002030BD5FEA545C05D151
:1003C0004000494128BF41F0004130BD14F5800490
:1003D0003CBF01F5801130BD01F0004545F0FE4104
:1003E00041F470014FF0000030BD7FEA645C1ABF39
:1003F000194610467FEA655C1CBF0B46024650EA70
:10040000013406BF52EA033591EA030F41F400219B
:1004100030BD00BF90F0000F04BF0021704730B521
:100420004FF4806404F132044FF000054FF00001F6
:1004300050E700BF90F0000F04BF0021704730B5B7
:100440004FF4806404F1320410F0004548BF40428C
:100450004FF000013EE700BF42004FEAE2014FEAE1
:1004600031014FEA02701FBF12F07F4393F07F4FBC
:1004700081F06051704732F07F4208BF704793F0BF
:100480007F4F04BF41F40021704730B54FF46074D2
:1004900001F0004521F000411CE700BF50EA0102D5
:1004A00008BF704730B54FF000050AE050EA01027E
:1004B00008BF704730B511F0004502D5404261EBEE
:1004C00041014FF4806404F132045FEA915C3FF42F
:1004D000D8AE4FF003025FEADC0C18BF03325FEACC
:1004E000DC0C18BF033202EBDC02C2F1200300FA7D
:1004F00003FC20FA02F001FA03FE40EA0E0021FAA2
:1005000002F11444BDE600BF70B54FF0FF0C4CF48F
:10051000E06C1CEA11541DBF1CEA135594EA0C0F41
:1005200095EA0C0F00F0DEF82C4481EA030621EA7C
:100530004C5123EA4C5350EA013518BF52EA0335B7
:1005400041F4801143F4801338D0A0FB02CE4FF069
:100550000005E1FB02E506F00042E0FB03E54FF099
:100560000006E1FB03569CF0000F18BF4EF0010E91
:10057000A4F1FF04B6F5007F64F5407404D25FEA8D
:100580004E0E6D4146EB060642EAC62141EA555140
:100590004FEAC52040EA5E504FEACE2EB4F1FD0C82
:1005A00088BFBCF5E06F1ED8BEF1004F08BF5FEA00
:1005B000500E50F1000041EB045170BD06F00046B2
:1005C00046EA010140EA020081EA0301B4EB5C045F
:1005D000C2BFD4EB0C0541EA045170BD41F4801157
:1005E0004FF0000E013C00F3AB8014F1360FDEBF7C
:1005F000002001F0004170BDC4F10004203C35DA58
:100600000C341BDC04F11404C4F1200500FA05F3DA
:1006100020FA04F001FA05F240EA020001F000427B
:1006200021F0004110EBD37021FA04F642EB0601F1
:100630005EEA430E08BF20EAD37070BDC4F10C041B
:10064000C4F1200500FA04F320FA05F001FA04F2DF
:1006500040EA020001F0004110EBD37041F10001CB
:100660005EEA430E08BF20EAD37070BDC4F12005D6
:1006700000FA05F24EEA020E20FA04F301FA05F23E
:1006800043EA020321FA04F001F0004121FA04F2E6
:1006900020EA020000EBD3705EEA430E08BF20EAB6
:1006A000D37070BD94F0000F0FD101F000464000F0
:1006B00041EB010111F4801F08BF013CF7D041EA72
:1006C000060195F0000F18BF704703F00046520076
:1006D00043EB030313F4801F08BF013DF7D043EA47
:1006E0000603704794EA0C0F0CEA135518BF95EAFD
:1006F0000C0F0CD050EA410618BF52EA4306D1D184
:1007000081EA030101F000414FF0000070BD50EAA2
:10071000410606BF1046194652EA430619D094EA2C
:100720000C0F02D150EA013613D195EA0C0F05D116
:1007300052EA03361CBF104619460AD181EA03016A
:1007400001F0004141F0FE4141F470014FF0000022
:1007500070BD41F0FE4141F4780170BD70B54FF0BD
:10076000FF0C4CF4E06C1CEA11541DBF1CEA13553D
:1007700094EA0C0F95EA0C0F00F0A7F8A4EB05041F
:1007800081EA030E52EA03354FEA013100F0888016
:100790004FEA03334FF0805545EA131343EA1263DF
:1007A0004FEA022245EA111545EA10654FEA002694
:1007B0000EF000419D4208BF964244F1FD0404F54D
:1007C000407402D25B084FEA3202B61A65EB0305A9
:1007D0005B084FEA32024FF480104FF4002CB6EB66
:1007E000020E75EB030E22BFB61A754640EA0C00E6
:1007F0005B084FEA3202B6EB020E75EB030E22BF26
:10080000B61A754640EA5C005B084FEA3202B6EB66
:10081000020E75EB030E22BFB61A754640EA9C0025
:100820005B084FEA3202B6EB020E75EB030E22BFF5
:10083000B61A754640EADC0055EA060E18D04FEAB3
:10084000051545EA16754FEA06164FEAC30343EA53
:1008500052734FEAC2025FEA1C1CC0D111F4801F20
:100860000BD141EA00014FF000004FF0004CB6E719
:1008700011F4801F04BF01430020B4F1FD0C88BFB8
:10088000BCF5E06F3FF6AFAEB5EB030C04BFB6EBC3
:10089000020C5FEA500C50F1000041EB045170BDB6
:1008A0000EF0004E4EEA113114EB5C04C2BFD4EBE3
:1008B0000C0541EA045170BD41F480114FF0000E67
:1008C000013C90E645EA060E8DE60CEA135594EAE3
:1008D0000C0F08BF95EA0C0F3FF43BAF94EA0C0FE6
:1008E0000AD150EA01347FF434AF95EA0C0F7FF45B
:1008F00025AF104619462CE795EA0C0F06D152EAAF
:1009000003353FF4FDAE1046194622E750EA410692
:1009100018BF52EA43067FF4C5AE50EA41047FF4A3
:100920000DAF52EA43057FF4EBAE12E74FF0FF3C08
:1009300006E000BF4FF0010C02E000BF4FF0010CD9
:100940004DF804CD4FEA410C7FEA6C5C4FEA430C52
:1009500018BF7FEA6C5C1BD001B050EA410C0CBFA1
:1009600052EA430C91EA030F02BF90EA020F002003
:10097000704710F1000F91EA030F58BF994208BF6A
:1009800090422CBFD8176FEAE37040F00100704727
:100990004FEA410C7FEA6C5C02D150EA013C07D17E
:1009A0004FEA430C7FEA6C5CD6D152EA033CD3D0C9
:1009B0005DF8040B704700BF8446104662468C46C3
:1009C0001946634600E000BF01B5FFF7B7FF0028F6
:1009D00048BF10F1000F01BD4DF808EDFFF7F4FF1F
:1009E0000CBF012000205DF808FB00BF4DF808EDAA
:1009F000FFF7EAFF34BF012000205DF808FB00BFCD
:100A00004DF808EDFFF7E0FF94BF012000205DF8EE
:100A100008FB00BF4DF808EDFFF7CEFF94BF0120A3
:100A200000205DF808FB00BF4DF808EDFFF7C4FF9C
:100A300034BF012000205DF808FB00BF4A0011D23E
:100A400012F5001211D20DD56FF47873B3EB625228
:100A50000ED44FEAC12343F0004343EA505323FA34
:100A600002F070474FF00000704750EA013002D1A9
:100A70004FF0FF3070474FF0000070477BB972B9FC
:100A80000029BEBF00204FF0004106E008BF00284B
:100A90001CBF6FF000414FF0FF3000F0F5B9ADF131
:100AA000080C6DE904CE002909DB002B1ADB00F0ED
:100AB00083F8DDF804E0DDE9022304B0704740422A
:100AC00061EB4101002B1BDB00F076F8DDF804E060
:100AD000DDE9022304B0404261EB4101524263EB85
:100AE00043037047524263EB430300F065F8DDF8BF
:100AF00004E0DDE9022304B0404261EB41017047AC
:100B0000524263EB430300F057F8DDF804E0DDE9FF
:100B1000022304B0524263EB4303704753B94AB90E
:100B2000002908BF00281CBF4FF0FF314FF0FF30F5
:100B300000F0AAB9ADF1080C6DE904CE00F03CF864
:100B4000DDF804E0DDE9022304B0704738B5002287
:100B5000002304460D46FFF749FF28B920462946E1
:100B6000BDE8384000F00AB8204605F1004100F029
:100B700005F8404261EB410138BD00BFD0B500220D
:100B80000B4B06460F46FFF7BFFCFFF757FF044627
:100B9000FFF740FC0022074BFFF7B6FC02460B466E
:100BA00030463946FFF7F8FAFFF748FF2146D0BD37
:100BB0000000F03D0000F0412DE9F047089E04469A
:100BC0008846002B40F085808A42154648D9B2FA03
:100BD00082F24AB1C2F1200701FA02F320FA07F7C4
:100BE000954047EA030894404FEA154E230CB8FBA2
:100BF000FEF71FFA85FC0EFB178843EA084307FB44
:100C00000CF1994209D9EB1807F1FF3080F0E3802D
:100C1000994240F2E080023F2B445B1AA4B2B3FB3E
:100C2000FEF00EFB103344EA034400FB0CFCA44529
:100C300009D92C1900F1FF3380F0CB80A44540F294
:100C4000C88002382C4440EA0740A4EB0C0400277B
:100C50001EB1D4400023C6E900433946BDE8F08701
:100C6000002A53D0B2FA82F2002A40F0B680491B23
:100C70004FEA154E1FFA85F80127B1FBFEFC230C45
:100C80000EFB1C1143EA014308FB0CF1994207D902
:100C9000EB180CF1FF3002D2994200F2EC8084464E
:100CA000591AA3B2B1FBFEF00EFB101443EA044440
:100CB00008FB00F8A04507D92C1900F1FF3302D238
:100CC000A04500F2DC801846A4EB080440EA0C4082
:100CD000BEE78B4208D9002E78D00027C6E9000174
:100CE00038463946BDE8F087B3FA83F77FB98B42BF
:100CF00002D3824200F2BD80841A61EB030301201B
:100D00009846002EA9D0C6E90048A6E7FFDEC7F145
:100D10002005BB4022FA05FC4CEA030C01FA07F45B
:100D200020FA05F821FA05F34FEA1C4E48EA0404BC
:100D3000B3FBFEF9210C0EFB19331FFA8CF841EAC4
:100D4000034309FB08FA9A4502FA07F200FA07F191
:100D50000BD91CEB030309F1FF3080F088809A4522
:100D600040F28580A9F102096344A3EB0A03A4B20F
:100D7000B3FBFEF00EFB103344EA034400FB08F81B
:100D8000A04508D91CEB040400F1FF336BD2A04549
:100D900069D90238644440EA0940A4EB0804A0FB86
:100DA00002894C45C6464B4654D351D0002E69D0DB
:100DB000B1EB0E0264EB030404FA05F522FA07F323
:100DC000FC401D43C6E90054002746E7374630463D
:100DD00043E7184637E707461FE7C2F1200320FA2A
:100DE00003F7954001FA02F021FA03F34FEA154E9A
:100DF0003843010CB3FBFEF71FFA85F80EFB1733DF
:100E000041EA034107FB08F38B4204FA02F407D9D5
:100E1000691807F1FF3C28D28B4226D9023F2944AA
:100E2000CB1A81B2B3FBFEF00EFB103341EA034153
:100E300000FB08F38B4207D9691800F1FF3C10D280
:100E40008B420ED902382944C91A40EA074714E7F1
:100E50004145ABD2B8EB020E69EB0C0201381346E8
:100E6000A4E76046F0E7184695E76746D8E781466D
:100E70007BE7384645E7ACF1020C2B4410E702381B
:100E80002C4421E73746E8E6704700BF80B582B0C2
:100E900000AF78602C4800F0DDF92C4800F0DAF95A
:100EA0002B4800F0D7F92B4800F0D4F90123012298
:100EB0000121294801F080F800230122012127485F
:100EC00001F07AF8002301220121254801F074F88D
:100ED0004FF47A724FF47A71224801F08DFB4FF48F
:100EE0007A724FF47A71204801F086FB4FF47A72DF
:100EF0004FF47A711D4801F07FFB4FF47A724FF482
:100F00007A711B4801F078FB4FF47A724FF47A71D2
:100F1000184801F071FB4FF47A724FF47A71164859
:100F200001F06AFB4FF47A724FF47A71134801F0C2
:100F300063FB4FF47A724FF47A71114801F05CFB55
:100F400000BF0837BD4680BD8C8C0008A48C00080B
:100F5000C48C0008DC8C00085800002074000020BD
:100F600090000020AC000020C8000020E400002019
:100F7000000100201C010020380100205401002045
:100F80007001002080B483B000AF786000BF0C37E0
:100F9000BD465DF8047B704780B582B000AF7860D5
:100FA00078684FF4FA636422054903F073FD054A3B
:100FB0007B681A607B6818460837BD4680BD00BF55
:100FC000008D0008A893000880B582B000AF78605B
:100FD000054A7B681A607B68184603F0C9FD7B6888
:100FE00018460837BD4680BDA893000880B582B07A
:100FF00000AF78607868FFF7E7FF5021786800F06D
:10100000D1F97B6818460837BD4680BD80B582B0EF
:1010100000AF786039607B68012B38D13B684FF6B0
:10102000FF72934233D13A211B4800F097FF3821D9
:101030001A4800F093FF2B21194800F08FFF0F2171
:10104000184801F0B5FA0E21174801F0B1FA0D2148
:10105000164801F0ADFA0C21154801F0A9FA032158
:10106000144801F0A5FA0221134801F0A1FA012168
:10107000124801F09DFA0021114801F099FA114837
:10108000FFF78AFF104A11490E4807F0F9FD00BF2B
:101090000837BD4680BD00BF580000207400002006
:1010A00090000020AC000020C8000020E4000020D8
:1010B000000100201C010020380100205401002004
:1010C000700100209001002044020020C90F000898
:1010D00080B500AF4FF6FF710120FFF797FF80BD8D
:1010E00080B483B000AF786000BF0C37BD465DF8B8
:1010F000047B704780B582B000AF7860034800F091
:10110000A9F800BF0837BD4680BD00BF108D00089C
:1011100080B582B000AF786078684FF4FA636422DB
:10112000054903F0B7FC054A7B681A607B681846DE
:101130000837BD4680BD00BF208D0008C093000861
:1011400080B582B000AF7860054A7B681A607B6822
:10115000184603F00DFD7B6818460837BD4680BD74
:10116000C093000880B582B000AF78607868FFF760
:10117000E7FF5021786800F015F97B6818460837BA
:10118000BD4680BD80B582B000AF786039607B68B5
:10119000012B0CD13B684FF6FF72934207D10648F2
:1011A000FFF7B6FF054A0649034807F069FD00BF8F
:1011B0000837BD4680BD00BFE0010020440200208A
:1011C0004111000880B500AF4FF6FF710120FFF715
:1011D000D9FF80BD80B483B000AF7860044A7B68DB
:1011E0001A607B6818460C37BD465DF8047B704773
:1011F000D893000880B582B000AF78607868FFF7B8
:10120000E9FF0821786800F0CDF87B6818460837B8
:10121000BD4680BD80B582B000AF78600B46FB70E4
:1012200097F90330184603F0C7F800BF0837BD46EA
:1012300080BD000080B483B000AF7860044A7B6852
:101240001A607B6818460C37BD465DF8047B704712
:10125000D89300080FB480B582B000AF1D4B1B6857
:10126000002B30D03B461846FFF7E4FF07F114038C
:101270007B60194B1B68002B05D0174B1B68194668
:10128000164800F019FB03F0F3FA034683F001035C
:10129000DBB2002B05D03B463969184600F08EF8CA
:1012A0000AE00F4803F02FFB3B463969184600F06F
:1012B00085F80B4803F086FB03F0C1F83B4618465F
:1012C000FFF788FF00E000BF0837BD46BDE880405B
:1012D00004B070470400002030020020388D000860
:1012E0003402002080B582B000AF7860074A7B6886
:1012F000136079680648FFF7ADFF064B1B680133A2
:10130000044A136000BF0837BD4680BD00000020BE
:101310004C8D00083002002080B582B000AF7860AC
:1013200039607B68012B07D13B684FF6FF7293420F
:1013300002D1034803F0D0FA00BF0837BD4680BD94
:101340003402002080B500AF4FF6FF710120FFF797
:10135000E3FF80BD80B485B000AF78600023FB6000
:101360007B68002B01D100230CE07B6893F90030EF
:10137000002B06D0FB680133FB607B6801337B6088
:10138000F3E7FB6818461437BD465DF8047B7047E9
:1013900080B483B000AF786000BF0C37BD465DF805
:1013A000047B704780B582B000AF786039607868A0
:1013B000FFF7EEFF00BF0837BD4680BD90B595B082
:1013C00000AF786039603B685A1C3A6093F900308E
:1013D00087F84F3097F84F30002B14BF01230023BC
:1013E000DBB2002B00F06182002387F84E3000232F
:1013F00087F84D30002387F84C30002387F84B30B6
:1014000097F84F30252B09D07B681B6808331B6881
:1014100097F94F2011467868984745E23B685A1C77
:101420003A6093F9003087F84F30002387F8433053
:10143000202387F84230032387F8413097F84F3054
:10144000302B0AD197F84F3087F842303B685A1C4E
:101450003A6093F9003087F84F3097F84F302F2BD0
:101460000FD997F84F30392B0BD897F84F30303BC6
:1014700087F843303B685A1C3A6093F9003087F88C
:101480004F3097F84F302E2B12D13B685A1C3A60E0
:1014900093F9003087F84F3097F84F30303B87F89A
:1014A00041303B685A1C3A6093F9003087F84F305E
:1014B00097F84F306C2B09D1012387F84D303B68EA
:1014C0005A1C3A6093F9003087F84F3097F84F3044
:1014D0006C2B09D1012387F84C303B685A1C3A60C9
:1014E00093F9003087F84F3097F84F30623B162B56
:1014F00038D801A252F823F0ED1500085515000860
:10150000D715000865150008D115000865150008F5
:1015100065150008651500086515000865150008C3
:10152000651500086515000865150008BB1500085D
:10153000651500086515000865150008791500088F
:1015400065150008DD15000865150008651500081B
:10155000E51500087B681A1D1368191D11601B68CA
:1015600087F84F307B681B6808331B6897F94F205A
:1015700011467868984797E17B681A1D1368191D12
:1015800011601B687B647B6C5A1C7A641B7887F83B
:101590004F3097F84F30002B14BF01230023DBB2EC
:1015A000002B00F080817B681B6808331B6897F96B
:1015B0004F20114678689847E5E70823A7F8483098
:1015C0007B681B6808331B6830217868984711E0F6
:1015D000012387F84B30012387F84E300A23A7F800
:1015E000483007E01023A7F8483003E00223A7F8AB
:1015F000483000BF4FF000034FF00004C7E90C343F
:101600004FF000034FF00004C7E90A3497F84B305D
:10161000002B15D07B681A1D1368073323F00703CE
:1016200003F108011160D3E90034C7E90A34D7E9AE
:101630000A01FFF78BFA03460C46C7E90C342AE08F
:1016400097F84C30002B0DD07B681A1D13680733B8
:1016500023F0070303F108011160D3E90034C7E95F
:101660000C3418E097F84D30002B0AD07B681A1D17
:101670001368191D11601B684FEAE374C7E90C3445
:1016800009E07B681A1D1368191D11601B684FEA79
:10169000E374C7E90C3497F84E30002B2DD0D7E90E
:1016A0000C34002B74F100030ADB4FF000024FF002
:1016B0000003D7E90A01FFF799F90346002B1CD074
:1016C000D7E90C345B4264EB4404C7E90C34BB6AD1
:1016D000BB62FB6A83F00043FB627B681B680833D4
:1016E0001B682D217868984797F84330002B04D069
:1016F00097F84330013B87F8433097F84C30002B84
:1017000004D0D7E90C34C7E90E340EE097F84D3019
:10171000002B05D03B6B4FF00004C7E90E3404E00A
:101720003B6B4FF00004C7E90E3407F10C031A338A
:101730007B647B6C013B7B647B6C00221A70B7F886
:1017400048304FF00004D7E90E011A462346FFF750
:10175000E5F91C461346DBB23033DBB287F827309D
:1017600097F92730392B05DD97F827300733DBB29F
:1017700087F827307B6C013B7B6497F827207B6CD4
:101780001A70B7F848304FF000041A462346D7E9DC
:101790000E01FFF7C3F903460C46C7E90E3497F86C
:1017A0004330002B04D097F84330013B87F8433097
:1017B000D7E90E34234300D0C1E797F843305A1ECF
:1017C00087F84320002B14BF01230023DBB2002B3A
:1017D00007D07B6C013B7B647B6C97F842201A70CE
:1017E000EBE77B6C5A1C7A641B7887F84F3097F8CC
:1017F0004F30002B14BF01230023DBB2002B09D094
:101800007B681B6808331B6897F94F20114678687E
:101810009847E6E797F84B30002B3FF4D4AD7B6850
:101820001B6808331B682E217868984797F8413069
:101830005A1E87F84120002B14BF01230023DBB27E
:10184000002B3FF4C0ADD7E90C01FEF72FFE034695
:101850000C461A462346D7E90A01FEF79DFC0346CB
:101860000C46C7E90A344FF00002124BD7E90A01CF
:10187000FEF74AFE03460C46C7E90A34D7E90A01D7
:10188000FFF764F903460C46C7E90C347B681B6814
:1018900008331B6897F830203032D2B252B211466A
:1018A00078689847C2E700BF8DE500BF5437BD4652
:1018B00090BD00BF000024400FB480B582B000AFDF
:1018C0000D4B1B68002B10D03B461846FFF7B2FCAF
:1018D00007F114037B603B4639691846FFF76EFD3C
:1018E0003B461846FFF776FC00E000BF0837BD46D0
:1018F000BDE8804004B070470400002080B582B08D
:1019000000AF0D4B7B6008E07B681B6898473B6825
:1019100001333B607B6804337B607B68074A9342FA
:10192000F2D13B6801333B603B68013B3B6000BF49
:101930000837BD4680BD00BFDC9500080096000852
:1019400080B485B000AFF860B9607A6000231846B3
:101950001437BD465DF8047B704780B400AFFEE7E6
:10196000002103E00F4B5B58435004310E480F4BEE
:1019700042189A42F6D30E4A02E0002342F8043B92
:101980000C4B9A42F9D30C4A02E0002342F8043B84
:101990000A4B9A42F9D302F059FDFFF7AFFF03F06B
:1019A00057FE7047009600080000002058000020F5
:1019B000580000200CB500200000001000000010AE
:1019C00002F0F7FCFCE780B483B000AF78603960C8
:1019D0003B6818460C37BD465DF8047B70470FB472
:1019E00080B400AF00231846BD465DF8047B04B008
:1019F00070470FB480B400AF00231846BD465DF8B1
:101A0000047B04B070470FB480B400AF00231846C5
:101A1000BD465DF8047B04B070470FB480B400AFDE
:101A200000231846BD465DF8047B04B070470FB430
:101A300080B400AF00231846BD465DF8047B04B0B7
:101A400070470FB480B400AF00231846BD465DF860
:101A5000047B04B0704780B483B000AF786001238A
:101A600018460C37BD465DF8047B704780B483B0E0
:101A700000AF7860012318460C37BD465DF8047B43
:101A80007047000080B483B000AF0346FB7197F944
:101A9000073003F01F03012202FA03F1054A97F908
:101AA00007305B0942F8231000BF0C37BD465DF8D4
:101AB000047B704700E100E080B483B000AF0346D0
:101AC000FB7197F90730DBB203F01F03012202FA22
:101AD00003F1064A97F907305B09603342F8231097
:101AE00000BF0C37BD465DF8047B704700E100E0A5
:101AF00080B500AF124B1B7883F00103DBB2002BE3
:101B00001CD00F4B01221A7001214FF4804001F0CC
:101B1000DDFC0620FFF7B6FF0720FFF7B3FF082024
:101B2000FFF7B0FF0920FFF7ADFF0A20FFF7AAFF7C
:101B30001720FFF7A7FF2820FFF7A4FF00BF80BDF5
:101B40004802002080B582B000AF78600846114698
:101B50001A4603467B800B467B7013463B707B68BE
:101B60007A881A807B687A781A727B683A785A7217
:101B7000786800F023F8B7F90230184600F00AF947
:101B800002467B685A617B680C33184601F016FBED
:101B90007B685B891A467B68DA607B6802225A742C
:101BA0007B6800221A747B6800221A767B68002208
:101BB0005A767B6818460837BD4680BD80B483B02E
:101BC00000AF78607B681B7A1A467B68B3F90030F7
:101BD0009BB203F00F031344102B0DDD7B68B3F9A8
:101BE00000309BB203F00F034FF6FF7202FA03F3CB
:101BF0009AB27B685A8118E07B681B7AC3F11003A4
:101C00004FF6FF7242FA03F39AB27B685A817B68FF
:101C10005B891A467B68B3F900309BB203F00F036F
:101C200002FA03F39AB27B685A8100BF0C37BD46B3
:101C30005DF8047B7047000080B582B000AF78602B
:101C40007B6801225A767B685B681A467B685B6812
:101C50001B6830331B68104698477B68B3F9003027
:101C60005A4203F00F0302F00F0258BF53421BB257
:101C70001A46012303FA02F2024B5A6100BF0837E9
:101C8000BD4680BD003C014080B485B000AF7860A7
:101C90000023FB607B685B087B607B68002B14BFC4
:101CA00001230023DBB2002B03D0FB680133FB6070
:101CB000F0E7FB6818461437BD465DF8047B7047B3
:101CC00080B483B000AF78607B68274A934234D0F9
:101CD000254A934213D8254A934228D0234A934257
:101CE00006D8234A93421ED0224A93421DD033E0A5
:101CF000214A93421DD0214A93421CD02CE0204A15
:101D0000934220D01E4A934206D81E4A934216D0D0
:101D10001D4A934215D01FE01C4A934216D01C4A1C
:101D2000934216D018E0012317E0022315E00423A4
:101D300013E0082311E010230FE020230DE04023DF
:101D40000BE0802309E04FF4807306E04FF400734A
:101D500003E04FF4806300E0002318460C37BD46D3
:101D60005DF8047B704700BF001402400008024089
:101D70000000024000040240000C0240001002403B
:101D80000020024000180240001C024000240240D3
:101D90000028024080B483B000AF0346FB80B7F94F
:101DA00006300F2B01DC1C4B30E0B7F906301F2B3F
:101DB00001DC1A4B2AE0B7F906302F2B01DC184B57
:101DC00024E0B7F906303F2B01DC164B1EE0B7F9D3
:101DD00006304F2B01DC144B18E0B7F906305F2BAF
:101DE00001DC124B12E0B7F906306F2B01DC104B0F
:101DF0000CE0B7F906307F2B01DC0E4B06E0B7F99B
:101E000006308B2B01DC0C4B00E0002318460C370E
:101E1000BD465DF8047B70470000024000040240AC
:101E200000080240000C0240001002400014024072
:101E300000180240001C02400020024080B483B021
:101E400000AF0346FB80FB8803F00F03012202FA78
:101E500003F39BB218460C37BD465DF8047B704710
:101E600080B586B000AF03460A46FB8013467B71FF
:101E7000B7F90630002B03DBB7F906308B2B02DDF8
:101E80004FF0FF3337E0B7F906301846FFF782FF0F
:101E90007861B7F906301846FFF7D0FF03467B821A
:101EA0007869FFF70DFF03460121184601F0CEFACD
:101EB0007869FFF705FF03460021184601F026FB6D
:101EC0007B8A1846FFF7E0FE03469BB27A791946F3
:101ED000786901F0B8F907F10803184601F06EF9C6
:101EE00002233B737B8ABB6007F1080319467869BC
:101EF00001F0D6F8002318461837BD4680BD80B5DE
:101F000084B000AF0346FB80B7F90630002B03DB3B
:101F1000B7F906308B2B02DD4FF0FF331AE007F1E3
:101F20000803184601F04AF900233B73B7F906305D
:101F30001846FFF783FF0346BB60B7F90630184623
:101F4000FFF728FF024607F108031946104601F083
:101F5000A7F8002318461037BD4680BD90B583B062
:101F600000AF78600B467B807B68184603F066F90B
:101F7000104A7B681A601C2003F0D8FB02467B687D
:101F80009A617B689B6919461C20FFF71CFD04467B
:101F9000B7F90210002301222046FFF7D3FD7B682A
:101FA0009C617B689B697A685A607B6818460C372D
:101FB000BD4690BDEC93000880B584B000AFF860DA
:101FC0007A603B600B46FB727B68002B04D0FB6899
:101FD0009B697A68D2B21A72FB689B69FA7A5A7264
:101FE000FB689B691846FFF7E9FDFB689B695B6925
:101FF000002B02D14FF0FF3321E0FB689B695B6946
:102000001846FFF75DFE03460121184601F01EFA4F
:10201000FB689B695B7A002B09D001220021F868DC
:1020200000F012F83968F86800F0CDF804E00022FA
:102030000021F86800F008F8FFF75AFD0023184661
:102040001037BD4680BD000080B584B000AFF86099
:102050000B467A60FB72FB7A042B00F29B8001A294
:1020600052F823F079200008B92000080321000865
:102070003F2100087B2100087B68002B08D0FB680B
:102080009B6901225A72FB689B6901221A7407E05E
:10209000FB689B6900225A72FB689B6900221A74D4
:1020A000FB689B695A69FB689B690C3319461046AB
:1020B00000F0F6FF00236FE07B68002B1ED07B68EA
:1020C000FF2B1BD8FB689B697A68D2B21A72FB6837
:1020D0009B691846FFF772FDFB689B695A89FB688C
:1020E0009B69DA60FB689B695A69FB689B690C33E2
:1020F0001946104600F0D4FF00234DE04FF0FF33A7
:102100004AE07B68002B17D07B68002B04D0FB686B
:102110009B690122DA7403E0FB689B690022DA7490
:10212000FB689B695A69FB689B690C33194610462A
:1021300000F0B6FF00232FE04FF0FF332CE07B6868
:10214000002B17D07B68002B04D0FB689B69022210
:10215000DA7403E0FB689B690022DA74FB689B6910
:102160005A69FB689B690C331946104600F098FFCA
:10217000002311E04FF0FF330EE07B68022B06D8FE
:10218000FB689B697A68D2B21A76002304E04FF0AC
:10219000FF3301E04FF0FF3318461037BD4680BDD6
:1021A00080B582B000AF78600021786800F066F8F2
:1021B0007B689B69B3F900301846FFF7A0FE00BFAB
:1021C0000837BD4680BD80B584B000AF7860396007
:1021D00000237B817B689B695B7A002B3DD040F2BA
:1021E000EB3003F036FB03460133FB60FB68002B4A
:1021F00033D07B689B695B69184600F0F9FF0346A2
:102200001AB27B689B695B891BB2DB431BB213402C
:102210001BB27B817B689B69B3F900309BB203F0F2
:102220000F033A6802FA03F39AB27B689B695B89F1
:1022300013409AB27B8913437B817B689B695B69FE
:102240007A891146184600F0EFFFFB68013B1846FB
:1022500003F0FFFA0023FB60C8E700BF1037BD465C
:1022600080BD80B483B000AF78607B689B695B7E83
:1022700018460C37BD465DF8047B704780B586B0C4
:1022800000AF78600B46FB707B689B69B3F9003048
:10229000002B00DA0F331B111BB27B617B689B693B
:1022A000B3F900305A4203F00F0302F00F0258BF97
:1022B00053421BB23B613B69FB60FB78002B60D053
:1022C000494AFB6852F823207B689B699A4200F0D8
:1022D0008780454AFB6852F82330002B4DD17B683C
:1022E0009B691B7A012B03D94048FEF7FBFF78E07E
:1022F0007B69DBB23A69D2B21146184601F0A0F907
:102300007B689B691B7E012B04D07B689B691B7ECD
:10231000002B09D1364B9B6801213A6901FA02F280
:102320001146334A0B4393607B689B691B7E022BEB
:1023300004D07B689B691B7E002B09D12C4BDB688A
:1023400001213A6901FA02F21146294A0B43D3608E
:102350007B689A692449FB6841F823207B689B6964
:1023600000225A76224B1B6801213A6901FA02F2D7
:1023700011461F4A0B43136033E01E48FEF7B2FFBD
:102380002FE0194AFB6852F823207B689B699A4228
:1023900027D1174B1B6801213A6901FA02F2D24397
:1023A0001146134A0B401360114B9B6801213A6997
:1023B00001FA02F2D24311460D4A0B4093600C4BD6
:1023C000DB6801213A6901FA02F2D2431146084A58
:1023D0000B40D360044AFB68002142F8231000E060
:1023E00000BF1837BD4680BD4C020020788D000824
:1023F000003C01409C8D000880B500AF064B1B6877
:10240000002B04D0044B1B681846FFF715FC062070
:10241000FFF752FB00BF80BD4C02002080B500AF2B
:10242000064B5B68002B04D0044B5B681846FFF733
:1024300003FC0720FFF740FB00BF80BD4C020020DB
:1024400080B500AF064B9B68002B04D0044B9B6803
:102450001846FFF7F1FB0820FFF72EFB00BF80BDF9
:102460004C02002080B500AF064BDB68002B04D087
:10247000044BDB681846FFF7DFFB0920FFF71CFB66
:1024800000BF80BD4C02002080B500AF064B1B6929
:10249000002B04D0044B1B691846FFF7CDFB0A2024
:1024A000FFF70AFB00BF80BD4C02002080B582B060
:1024B00000AF144B5B693B6005237B607B68092B95
:1024C00018DC3A687B6822FA03F303F00103002B5F
:1024D0000CD00D4A7B6852F82330002B06D00A4AF4
:1024E0007B6852F823301846FFF7A6FB7B68013360
:1024F0007B60E3E71720FFF7DFFA00BF0837BD4630
:1025000080BD00BF003C01404C02002080B582B07D
:1025100000AF144B5B693B600A237B607B680F2B29
:1025200018DC3A687B6822FA03F303F00103002BFE
:102530000CD00D4A7B6852F82330002B06D00A4A93
:102540007B6852F823301846FFF776FB7B6801332F
:102550007B60E3E72820FFF7AFFA00BF0837BD46EE
:1025600080BD00BF003C01404C02002080B483B01D
:1025700000AF7860002318460C37BD465DF8047B39
:10258000704780B483B000AF7860002318460C37E2
:10259000BD465DF8047B704780B483B000AF7860BF
:1025A000012318460C37BD465DF8047B70470000D8
:1025B00090B583B000AF78600B46FB707B6818461F
:1025C00002F03CFE0B4A7B681A60242003F0AEF850
:1025D000034619462420FFF7F6F90446FB7819460E
:1025E000204600F06DFC7B689C617B6818460C37C8
:1025F000BD4690BD2894000880B58EB000AFF8604D
:10260000B9607A60FB689B691B6A002B04DBFB687E
:102610009B691B6A0F2B02DD4FF0FF331EE3012382
:1026200087F83730002387F8363007F11C03184647
:1026300000F062FE00233B63FB689B691B69A44AB0
:10264000934202D1BB6A3B6301E07B6A3B633A6A17
:102650003B6BB2FBF3F3012B03D9022387F836302F
:1026600002E0012387F8363097F83620FB689B6933
:10267000396B01FB02F25A61FB689B69BA685A60C8
:10268000FB689B695A69FB689B695B68B2FBF3F363
:10269000FB62FB689B691B6A032B04DDFB689B697B
:1026A0001B6A072B06DDFB6AB3F5803F02DB4FF6A2
:1026B000FF73FB627A68FB6A9A4201DDFB6A7B600A
:1026C000FB689B697A681A60FB689B6901229A60C3
:1026D00007F11403184600F071FD01233B76002337
:1026E000BB7603237B760023FB76FB689B691B6923
:1026F000774A934240F094800121102000F0A6FE1A
:102700000021102000F002FFFB689B691B7B032B5C
:102710007ED801A252F823F0292700086327000879
:102720009D270008D72700084FF400737B61FB68E2
:102730009B697A699A61FB689B69664ADA61FB6802
:102740009B69DB6907F114021146184600F0A8FCEA
:10275000FB689B69DB6901220921184600F073FDC3
:1027600056E04FF400637B61FB689B697A699A616C
:10277000FB689B69574ADA61FB689B69DB6907F173
:1027800014021146184600F08BFCFB689B69DB695C
:1027900001220B21184600F056FD39E04FF400539A
:1027A0007B61FB689B697A699A61FB689B69494A0E
:1027B000DA61FB689B69DB6907F114021146184670
:1027C00000F06EFCFB689B69DB6901220D21184655
:1027D00000F039FD1CE04FF480437B61FB689B698E
:1027E0007A699A61FB689B693A4ADA61FB689B697E
:1027F000DB6907F114021146184600F051FCFB6832
:102800009B69DB6901220E21184600F01CFD00BF08
:102810000121012000F05AFE012387F83730DFE163
:10282000FB689B691B69B3F1804F40F097800121E1
:10283000012000F00BFE0021012000F067FEFB6884
:102840009B691B7B032B00F2818001A252F823F0CD
:102850006128000899280008DD28000815290008CB
:1028600001237B61FB689B697A699A61FB689B69BC
:10287000194ADA61FB689B69DB6907F114021146AA
:10288000184600F00DFCFB689B69DB690122002102
:10289000184600F0D8FC59E002237B61FB689B6975
:1028A0007A699A61FB689B690B4ADA61FB689B69EC
:1028B000DB6907F114021146184600F0F1FBFB68D2
:1028C0009B69DB6901220121184600F0BCFC3DE058
:1028D00000000140001002400000024004237B6120
:1028E000FB689B697A699A61FB689B69A24ADA6115
:1028F000FB689B69DB6907F114021146184600F07A
:10290000CFFBFB689B69DB6901220221184600F0BE
:102910009AFC1BE008237B61FB689B697A699A61DA
:10292000FB689B69944ADA61FB689B69DB69012259
:102930000321184600F087FCFB689B69DB6907F1FF
:1029400014021146184600F0ABFB00BF0121012024
:1029500000F09CFD022387F8373041E1FB689B695A
:102960001B69864A934240F091800121072000F0C4
:102970006DFD0021072000F0C9FDFB689B691B7BF2
:10298000032B7BD801A252F823F000BF9D29000839
:10299000D52900080D2A0008452A000840237B613C
:1029A000FB689B697A699A61FB689B69724ADA6184
:1029B000FB689B69DB6907F114021146184600F0B9
:1029C0006FFBFB689B69DB6902220621184600F059
:1029D0003AFC53E080237B61FB689B697A699A61CA
:1029E000FB689B69664ADA61FB689B69DB6907F1F2
:1029F00014021146184600F053FBFB689B69DB6923
:102A000002220721184600F01EFC37E001237B61FB
:102A1000FB689B697A699A61FB689B69594ADA612C
:102A2000FB689B69DB6907F114021146184600F048
:102A300037FBFB689B69DB6902220021184600F026
:102A400002FC1BE002237B61FB689B697A699A6147
:102A5000FB689B694B4ADA61FB689B69DB6907F19C
:102A600014021146184600F01BFBFB689B69DB69EA
:102A700002220121184600F0E6FB00BF01210220DE
:102A800000F004FD032387F83730A9E0FB689B6959
:102A90001B693D4A934240F0A08001210A2000F0CA
:102AA000D5FC00210A2000F031FDFB689B691B7BEF
:102AB000032B00F28A8001A252F823F0CD2A0008ED
:102AC000072B00083F2B0008912B00084FF4805380
:102AD0007B61FB689B697A699A61FB689B692B4AF9
:102AE000DA61FB689B69DB6907F11402114618463D
:102AF00000F0D6FAFB689B69DB6902220C211846BC
:102B000000F0A1FB61E080237B61FB689B697A692F
:102B10009A61FB689B691B4ADA61FB689B69DB6908
:102B200007F114021146184600F0BAFAFB689B69D7
:102B3000DB6902220721184600F085FB45E04FF4CF
:102B400080437B61FB689B697A699A61FB689B693A
:102B50000E4ADA61FB689B69DB6907F114021146D2
:102B6000184600F09DFAFB689B69DB6902220E2182
:102B7000184600F068FB28E0000002400004004016
:102B8000000802400004024000080040000C02401F
:102B90004FF400437B61FB689B697A699A61FB682B
:102BA0009B69304ADA61FB689B69DB6907F11402B3
:102BB0001146184600F074FAFB689B69DB69022233
:102BC0000F21184600F03FFB00BF0121042000F058
:102BD0005DFC042387F8373002E04FF0FF333DE01F
:102BE000FB689B69DA69FB689B699B699BB2194624
:102BF000104600F00AFB97F93730013B1A4AD356CA
:102C0000002B0BD1FB689B691B69184600F05AFD2D
:102C100097F93730013B144A0121D154FB689B6975
:102C20001B69124A934206D1FB689B691B6901210B
:102C3000184601F0D5F9FB689B691B69184601F03D
:102C400054FAFB689B69184600F0A6F9FB689B697B
:102C50001B690121184600F0BDFE002318463837D5
:102C6000BD4680BD000C02408C02002000000140E7
:102C700080B584B000AF78607B689B691B6A002BCD
:102C8000C0F20A817B689B691B6A0F2B00F30481E9
:102C90007B689B691B69184600F014FD07F1080367
:102CA000184600F08BFA00233B737B689B691B6915
:102CB0007B4A934239D17B689B691B7B032B00F2D3
:102CC000EC8001A252F823F0D92C0008ED2C00086A
:102CD000012D0008152D00084FF40073BB6007F1AB
:102CE000080319466F4800F0DBF9D6E04FF40063A3
:102CF000BB6007F1080319466A4800F0D1F9CCE03F
:102D00004FF40053BB6007F108031946654800F013
:102D1000C7F9C2E04FF48043BB6007F108031946CE
:102D2000604800F0BDF900BFB7E07B689B691B6994
:102D3000B3F1804F35D17B689B691B7B032B00F27D
:102D4000AC8001A252F823F0592D00086B2D000829
:102D50007D2D00088F2D00080123BB6007F10803BB
:102D60001946514800F09CF997E00223BB6007F137
:102D7000080319464C4800F093F98EE00423BB6029
:102D800007F108031946484800F08AF985E008234E
:102D9000BB6007F108031946434800F081F900BF02
:102DA0007BE07B689B691B69404A934235D17B6815
:102DB0009B691B7B032B70D801A252F823F000BF44
:102DC000D12D0008E32D0008F52D0008072E00087E
:102DD0004023BB6007F108031946334800F060F94F
:102DE0005BE08023BB6007F108031946304800F020
:102DF00057F952E00123BB6007F1080319462D483B
:102E000000F04EF949E00223BB6007F108031946C0
:102E1000284800F045F900BF3FE07B689B691B69CB
:102E2000254A934239D17B689B691B7B032B34D89D
:102E300001A252F823F000BF492E00085D2E0008C1
:102E40006F2E0008832E00084FF48053BB6007F1FB
:102E500008031946194800F023F91EE08023BB60DF
:102E600007F108031946134800F01AF915E04FF46A
:102E70008043BB6007F108031946104800F010F9C1
:102E80000BE04FF40043BB6007F1080319460B4801
:102E900000F006F900BF00E000BF1037BD4680BD5E
:102EA0000000014000100240000002400004004009
:102EB000000802400004024000080040000C0240EC
:102EC00080B582B000AF78600B46FB707B68022251
:102ED0001A607B6801229A607B6800225A607B68D6
:102EE0004FF0FF321A627B6800221A617B68002271
:102EF0001A737B6800225A617B6800229A617B68A2
:102F00000022DA61FB780F2B03D91F48FEF7EAF99C
:102F100035E0FA787B681A627B681B6A002B00DA5E
:102F200003339B10032B29D801A252F823F000BFD2
:102F3000412F0008492F0008532F00085B2F00087D
:102F40007B68124A1A610CE07B684FF080421A617C
:102F500007E07B680E4A1A6103E07B680D4A1A613C
:102F600000BF7B681B6A5A4203F0030302F00302AE
:102F700058BF5342DAB27B681A7300E000BF7B6827
:102F800018460837BD4680BDD08D000800000140BE
:102F9000000400400008004080B58CB000AF7860AD
:102FA0007B685B68002B06D17B681B69082118468B
:102FB00000F0F4FC71E07B681B690021184600F00A
:102FC000EDFC7B685A697B685B687968096801FB7E
:102FD00003F3B2FBF3F3013BFB62FB6A002B01DA64
:102FE0000023FB62FB6A9BB23B847B681B687B62AD
:102FF00000237B8400233B85002387F82A307B68ED
:103000001B6907F120021146184600F03BFC07F14E
:103010000C03184600F0EEFE6023BB810123FB8108
:103020007B681B687A6892689B1A7B6102233B83EA
:103030007B681B7B032B2FD801A252F823F000BF23
:1030400051300008633000087530000887300008F0
:103050007B681B6907F10C021146184600F0DAFC88
:103060001BE07B681B6907F10C021146184600F053
:103070004BFD12E07B681B6907F10C0211461846F4
:1030800000F0CAFD09E07B681B6907F10C021146DC
:10309000184600F047FE00E000BF3037BD4680BD57
:1030A00080B487B000AF7860396000237B61002373
:1030B0003B610023FB6000237B6176E001227B699A
:1030C00002FA03F33B613B681B683A691340FB60FB
:1030D000FA683B699A4265D17B681A687B695B0034
:1030E000032101FA03F3DB431A407B681A607B6813
:1030F0001A683B681B7919467B695B0001FA03F388
:103100001A437B681A603B681B79012B03D03B682C
:103110001B79022B2ED17B689A687B695B000321A7
:1031200001FA03F3DB431A407B689A607B689A6874
:103130003B685B7919467B695B0001FA03F31A432C
:103140007B689A607B685A687B699BB21946012349
:103150008B40DB431A407B685A607B685B683A6847
:10316000927911467A6992B201FA02F292B21A4346
:103170007B685A607B68DA687B699BB25B000321DD
:1031800001FA03F3DB431A407B68DA607B68DA6894
:103190003B68DB7919467B695B0001FA03F31A434C
:1031A0007B68DA607B6901337B617B690F2B85D992
:1031B00000BF1C37BD465DF8047B704780B483B008
:1031C00000AF78607B684FF6FF721A607B68002260
:1031D0001A717B6800225A717B6800229A717B68A1
:1031E0000022DA7100BF0C37BD465DF8047B7047E2
:1031F00080B483B000AF78607B685B699BB218468F
:103200000C37BD465DF8047B704780B483B000AFD7
:1032100078600B467B807B687A885A8300BF0C37C6
:10322000BD465DF8047B704780B483B000AF786022
:103230000B467B807A887B685A6100BF0C37BD469D
:103240005DF8047B704780B485B000AF78600B46B2
:103250007B8013467B700023FB600023BB607A7881
:103260007B8803F007039B0002FA03F3FB607B8873
:10327000DB089BB21A467B68083253F822207B8811
:1032800003F007039B000F2101FA03F3DB43798866
:10329000C90889B2084602EA03017B6800F1080206
:1032A00043F822107B88DB089BB21A467B68083201
:1032B00053F82230FA681343BB607B88DB089BB26B
:1032C0001A467B680832B96843F8221000BF1437E9
:1032D000BD465DF8047B704780B483B000AF034601
:1032E000FB71044AFB79136000BF0C37BD465DF8E3
:1032F000047B7047800E474280B489B000AF78608D
:103300000023BB6100237B610023FB6102233B613F
:103310000023FB600223BB60484B9B6803F00C0357
:10332000BB61BB69042B09D0BB69082B0AD0BB6900
:10333000002B3DD17B68424A1A603DE07B68414AE0
:103340001A6039E03D4B5B689B0D03F00103FB60A5
:103350003A4B5B6803F03F03BB60FB68002B0CD06B
:10336000384ABB68B2FBF3F3344A52689209C2F39D
:10337000080202FB03F3FB610BE0314ABB68B2FBBE
:10338000F3F32E4A52689209C2F3080202FB03F3D8
:10339000FB612A4B5B681B0C03F0030301335B00EA
:1033A0003B61FA693B69B2FBF3F27B681A6003E0A8
:1033B0007B68234A1A6000BF204B9B6803F0F00330
:1033C000BB61BB691B09BB611F4ABB6913441B7806
:1033D000DBB27B617B681A687B69DA407B685A6084
:1033E000164B9B6803F4E053BB61BB699B0ABB614E
:1033F000154ABB6913441B78DBB27B617B685A6852
:103400007B69DA407B689A600C4B9B6803F46043ED
:10341000BB61BB695B0BBB610B4ABB6913441B7887
:10342000DBB27B617B685A687B69DA407B68DA6073
:1034300000BF2437BD465DF8047B7047003802406A
:103440000024F40000127A000800002080B483B049
:1034500000AF78600B46FB70FB78002B06D00A4B60
:103460001A6B09497B6813430B6306E0064B1A6B22
:103470007B68DB43044913400B6300BF0C37BD4638
:103480005DF8047B704700BF0038024080B483B011
:1034900000AF78600B46FB70FB78002B06D00A4B20
:1034A0001A6C09497B6813430B6406E0064B1A6CDF
:1034B0007B68DB43044913400B6400BF0C37BD46F7
:1034C0005DF8047B704700BF0038024080B483B0D1
:1034D00000AF78600B46FB70FB78002B06D00A4BE0
:1034E0005A6C09497B6813434B6406E0064B5A6CDF
:1034F0007B68DB43044913404B6400BF0C37BD4677
:103500005DF8047B704700BF0038024080B483B090
:1035100000AF78600B46FB70FB78002B06D00A4B9F
:103520001A6909497B6813430B6106E0064B1A6967
:103530007B68DB43044913400B6100BF0C37BD4679
:103540005DF8047B704700BF0038024080B483B050
:1035500000AF78600B46FB70FB78002B06D00A4B5F
:103560001A6A09497B6813430B6206E0064B1A6A24
:103570007B68DB43044913400B6200BF0C37BD4638
:103580005DF8047B704700BF0038024080B483B010
:1035900000AF78600B46FB70FB78002B06D00A4B1F
:1035A0005A6A09497B6813434B6206E0064B5A6A24
:1035B0007B68DB43044913404B6200BF0C37BD46B8
:1035C0005DF8047B704700BF0038024080B487B0CC
:1035D00000AF0346FB710023FB6000237B610023E7
:1035E000FB74FB795B09DBB2FB60FB68012B03D149
:1035F000124B1B687B6109E0FB68022B03D10F4B68
:103600001B6F7B6102E00D4B5B6F7B61FB7903F00D
:103610001F03FB607A69FB6822FA03F303F00103DE
:10362000002B02D00123FB7401E00023FB74FB7C20
:1036300018461C37BD465DF8047B704700380240D1
:1036400080B485B000AF03460A46FB711346BB71D8
:103650000023FB60BB7903F003039B000F2202FAF7
:1036600003F3FB60164ABB799B08DBB2023352F8C6
:103670002320FB68DB431248B9798908C9B21A4094
:103680008B1C40F823200E4ABB799B08DBB2023327
:1036900052F82320F979BB7903F003039B0001FA68
:1036A00003F30748B9798908C9B21A438B1C40F85B
:1036B000232000BF1437BD465DF8047B704700BF70
:1036C0000038014080B582B000AF78607B68604A06
:1036D000934208D101210120FFF758FF002101206A
:1036E000FFF754FFAFE07B68B3F1804F08D10121B1
:1036F0000120FFF72BFF00210120FFF727FFA2E0A9
:103700007B68544A934208D101210220FFF71EFF33
:1037100000210220FFF71AFF95E07B684E4A934292
:1037200008D101210420FFF711FF00210420FFF739
:103730000DFF88E07B68494A934208D101210820A7
:10374000FFF704FF00210820FFF700FF7BE07B6804
:10375000434A934208D101211020FFF7F7FE0021D0
:103760001020FFF7F3FE6EE07B683E4A934208D1DB
:1037700001212020FFF7EAFE00212020FFF7E6FECE
:1037800061E07B68384A934208D101210220FFF7AB
:10379000FDFE00210220FFF7F9FE54E07B68334A6A
:1037A00093420AD101214FF48030FFF7EFFE002150
:1037B0004FF48030FFF7EAFE45E07B682C4A9342E5
:1037C0000AD101214FF40030FFF7E0FE00214FF451
:1037D0000030FFF7DBFE36E07B68264A93420AD1D1
:1037E00001214FF48020FFF7D1FE00214FF480200B
:1037F000FFF7CCFE27E07B681F4A934208D10121E6
:103800004020FFF7A3FE00214020FFF79FFE1AE0B3
:103810007B681A4A934208D101218020FFF796FE67
:1038200000218020FFF792FE0DE07B68144A93424E
:1038300009D101214FF48070FFF788FE00214FF479
:103840008070FFF783FE00BF0837BD4680BD00BF14
:10385000000001400004004000080040000C00404F
:1038600000100040001400400004014000400140EE
:10387000004401400048014000180040001C004086
:103880000020004080B485B000AF7860396000232C
:10389000FB817B681B88FB817B68294A934213D09C
:1038A0007B68284A93420FD07B68B3F1804F0BD0DE
:1038B0007B68254A934207D07B68244A934203D011
:1038C0007B68234A934208D1FB8923F07003FB8174
:1038D0003B685A88FB891343FB817B681D4A9342EE
:1038E0000CD07B681C4A934208D0FB8923F44073B8
:1038F000FB813B681A89FB891343FB817B68FA894A
:103900001A803B685A687B68DA623B681A887B6871
:103910001A857B680A4A934203D07B68094A93421E
:1039200004D13B689B7A9AB27B681A867B68012235
:103930009A8200BF1437BD465DF8047B704700BF14
:103940000000014000040140000400400008004065
:10395000000C0040001000400014004080B483B010
:1039600000AF78600B467B8013463B807B687A888B
:103970001A857B683A889A8200BF0C37BD465DF88D
:10398000047B704780B483B000AF78607B685B6A6B
:1039900018460C37BD465DF8047B704780B483B091
:1039A00000AF78600B467B807B681B889BB223F05E
:1039B00008039AB27B681A807B681B889AB27B885E
:1039C00013439AB27B681A8000BF0C37BD465DF87E
:1039D000047B704780B483B000AF78600B46FB7007
:1039E000FB78002B08D07B681B889BB243F0010357
:1039F0009AB27B681A8007E07B681B889BB223F031
:103A000001039AB27B681A8000BF0C37BD465DF88F
:103A1000047B704780B485B000AF786039600023C4
:103A20007B810023FB810023BB817B681B8C9BB2C5
:103A300023F001039AB27B681A847B681B8CFB819C
:103A40007B689B88BB817B681B8B7B817B8923F098
:103A500070037B817B8923F003037B813B681A8899
:103A60007B8913437B81FB8923F00203FB813B6845
:103A70009A89FB891343FB813B685A88FB8913436E
:103A8000FB817B681E4A934203D07B681D4A9342A8
:103A900023D1FB8923F00803FB813B68DA89FB898A
:103AA0001343FB81FB8923F00403FB813B689A8865
:103AB000FB891343FB81BB8923F48073BB81BB89E2
:103AC00023F40073BB813B681A8ABB891343BB8113
:103AD0003B685A8ABB891343BB817B68BA899A8049
:103AE0007B687A891A833B689A687B685A637B682B
:103AF000FA891A8400BF1437BD465DF8047B70470D
:103B0000000001400004014080B485B000AF78603F
:103B1000396000237B810023FB810023BB817B680C
:103B20001B8C9BB223F010039AB27B681A847B68CB
:103B30001B8CFB817B689B88BB817B681B8B7B819B
:103B40007B8923F4E0437B817B8923F440737B8171
:103B50003B681B881B029AB27B8913437B81FB89DC
:103B600023F02003FB813B689B891B019AB2FB89F0
:103B70001343FB813B685B881B019AB2FB891343AB
:103B8000FB817B68224A934203D07B68214A93429F
:103B90002BD1FB8923F08003FB813B68DB891B0170
:103BA0009AB2FB891343FB81FB8923F04003FB811D
:103BB0003B689B881B019AB2FB891343FB81BB893D
:103BC00023F48063BB81BB8923F40063BB813B6822
:103BD0001B8A9B009AB2BB891343BB813B685B8AFB
:103BE0009B009AB2BB891343BB817B68BA899A80D8
:103BF0007B687A891A833B689A687B689A637B68DA
:103C0000FA891A8400BF1437BD465DF8047B7047FB
:103C1000000001400004014080B485B000AF78602E
:103C2000396000237B810023FB810023BB817B68FB
:103C30001B8C9BB223F480739AB27B681A847B68D6
:103C40001B8CFB817B689B88BB817B689B8B7B810A
:103C50007B8923F070037B817B8923F003037B81C5
:103C60003B681A887B8913437B81FB8923F40073AB
:103C7000FB813B689B891B029AB2FB891343FB8142
:103C80003B685B881B029AB2FB891343FB817B680C
:103C9000224A934203D07B68214A93422BD1FB896D
:103CA00023F40063FB813B68DB891B029AB2FB892A
:103CB0001343FB81FB8923F48063FB813B689B8872
:103CC0001B029AB2FB891343FB81BB8923F4805307
:103CD000BB81BB8923F40053BB813B681B8A1B015A
:103CE0009AB2BB891343BB813B685B8A1B019AB2C2
:103CF000BB891343BB817B68BA899A807B687A89C8
:103D00009A833B689A687B68DA637B68FA891A84CD
:103D100000BF1437BD465DF8047B704700000140CA
:103D20000004014080B485B000AF786039600023A2
:103D3000BB8100237B810023FB817B681B8C9BB2B2
:103D400023F480539AB27B681A847B681B8C7B8136
:103D50007B689B88FB817B689B8BBB81BB8923F441
:103D6000E043BB81BB8923F44073BB813B681B8864
:103D70001B029AB2BB891343BB817B8923F4005396
:103D80007B813B689B891B039AB27B8913437B81B0
:103D90003B685B881B039AB27B8913437B817B68FA
:103DA000124A934203D07B68114A93420AD1FB899D
:103DB00023F48043FB813B681B8A9B019AB2FB89F9
:103DC0001343FB817B68FA899A807B68BA899A835E
:103DD0003B689A687B681A647B687A891A8400BF9A
:103DE0001437BD465DF8047B704700BF00000140FA
:103DF0000004014080B483B000AF78607B6800228B
:103E00001A807B6800225A807B6800229A807B6837
:103E100000229A607B6800229A817B680022DA8106
:103E20007B6800221A827B6800225A8200BF0C370E
:103E3000BD465DF8047B704780B582B000AF786006
:103E400039603B681B88002B0FD13B6859883B6861
:103E50009A883B681B89786800F069F93B68DB88C1
:103E60001946786800F048F836E03B681B88042B58
:103E70000FD13B6859883B689A883B681B897868F2
:103E800000F098F93B68DB881946786800F050F834
:103E900022E03B681B88082B0FD13B6859883B68A0
:103EA0009A883B681B89786800F0D1F93B68DB8809
:103EB0001946786800F05AF80EE03B6859883B686C
:103EC0009A883B681B89786800F009FA3B68DB88B0
:103ED0001946786800F066F800BF0837BD4680BD17
:103EE00080B483B000AF78607B681B6C18460C37D9
:103EF000BD465DF8047B704780B483B000AF786046
:103F00000B467B807B681B8B9BB223F00C039AB221
:103F10007B681A837B681B8B9AB27B8813439AB2A7
:103F20007B681A8300BF0C37BD465DF8047B704781
:103F300080B483B000AF78600B467B807B681B8BBE
:103F40009BB223F440639AB27B681A837B681B8B15
:103F50009AB27B881B029BB213439AB27B681A8386
:103F600000BF0C37BD465DF8047B704780B483B05A
:103F700000AF78600B467B807B689B8B9BB223F005
:103F80000C039AB27B689A837B689B8B9AB27B887E
:103F900013439AB27B689A8300BF0C37BD465DF825
:103FA000047B704780B483B000AF78600B467B80A1
:103FB0007B689B8B9BB223F440639AB27B689A83A5
:103FC0007B689B8B9AB27B881B029BB213439AB28D
:103FD0007B689A8300BF0C37BD465DF8047B704751
:103FE00080B483B000AF78600B46FB70FB78002B89
:103FF0000CD07B68B3F844309BB26FEA43436FEA5E
:1040000053439AB27B68A3F8442009E07B68B3F875
:1040100044309BB2C3F30E039AB27B68A3F84420EA
:1040200000BF0C37BD465DF8047B704780B483B099
:1040300000AF78600B467B8013467B707B78002B4B
:1040400008D07B689B899AB27B8813439AB27B68BD
:104050009A8109E07B689B899AB27B88DB439BB29B
:1040600013409AB27B689A8100BF0C37BD465DF859
:10407000047B704780B485B000AF78600B467B80CE
:104080000023FB730023BB8100237B817B681B8A99
:104090009AB27B881340BB817B689B899AB27B88EC
:1040A00013407B81BB89002B05D07B89002B02D07C
:1040B0000123FB7301E00023FB73FB7B18461437DD
:1040C000BD465DF8047B704780B483B000AF786074
:1040D0000B467B807B88DB439AB27B681A8200BFE9
:1040E0000C37BD465DF8047B704780B483B000AFE9
:1040F00078607B681B899BB223F007039AB27B68C8
:104100001A8100BF0C37BD465DF8047B704780B450
:1041100083B000AF78600B467B807B687A88A3F819
:10412000502000BF0C37BD465DF8047B704780B45B
:1041300087B000AFF860084611461A4603467B81F7
:104140000B463B811346FB800023FB820023BB828E
:10415000FB681B8C9BB223F001039AB2FB681A84A4
:10416000FB681B8BFB82FB681B8CBB82FB8A23F0EA
:10417000F303FB82FB881B019AB23B8913439AB27B
:10418000FB8A1343FB82BB8A23F00A03BB827A8932
:10419000BB8A13439BB243F00103BB82FB68FA8ADC
:1041A0001A83FB68BA8A1A8400BF1C37BD465DF8C3
:1041B000047B704780B487B000AFF86008461146B2
:1041C0001A4603467B810B463B811346FB80002346
:1041D000FB820023BB8200237B82FB681B8C9BB28B
:1041E00023F010039AB2FB681A84FB681B8BFB82D6
:1041F000FB681B8CBB827B891B017B82FB8A23F4BF
:1042000040731B051B0DFB82FB881B039AB2FB8AC4
:104210001343FB823B891B029AB2FB8A1343FB8246
:10422000BB8A23F0A003BB827A8ABB8A13439BB26A
:1042300043F01003BB82FB68FA8A1A83FB68BA8AD0
:104240001A8400BF1C37BD465DF8047B704780B4FC
:1042500087B000AFF860084611461A4603467B81D6
:104260000B463B811346FB800023FB820023BB826D
:1042700000237B82FB681B8C9BB223F480739AB271
:10428000FB681A84FB689B8BFB82FB681B8CBB82E0
:104290007B891B027B82FB8A23F0F303FB82FB8872
:1042A0001B019AB23B8913439AB2FB8A1343FB82E8
:1042B000BB8A23F42063BB827A8ABB8A13439BB2F6
:1042C00043F48073BB82FB68FA8A9A83FB68BA8ADC
:1042D0001A8400BF1C37BD465DF8047B704780B46C
:1042E00087B000AFF860084611461A4603467B8146
:1042F0000B463B811346FB800023FB820023BB82DD
:1043000000237B82FB681B8C9BB223F480539AB200
:10431000FB681A84FB689B8BFB82FB681B8CBB824F
:104320007B891B037B82FB8A23F440731B051B0DD7
:10433000FB823B891B029AB2FB8A1343FB82FB88F8
:104340001B039AB2FB8A1343FB82BB8A23F40053FC
:104350005B045B0CBB827A8ABB8A13439BB243F437
:104360008053BB82FB68FA8A9A83FB68BA8A1A84F4
:1043700000BF1C37BD465DF8047B704780B400AFBA
:10438000FEE780B400AF04205FEA0E01084202D0CD
:10439000EFF3098001E0EFF30880416900BEFEE71A
:1043A00080B400AFFEE780B400AFFEE780B400AF9A
:1043B000FEE780B400AFFEE780B584B000AF786060
:1043C0007B68FB7397F90F300A2B02D10D20FFF7A2
:1043D000F3FF97F90F301946144802F069FA0346C3
:1043E000B3F1FF3F0CBF01230023DBB2002B16D03B
:1043F00000F03EFA0346002B07D04FF0FF326FF07B
:1044000000430A4800F036FFE3E7084802F0D5FA17
:10441000034683F00103DBB2002BDAD0F5E797F90E
:104420000F3018461037BD4680BD00BFCCB4002009
:1044300080B400AF00BFBD465DF8047B704780B418
:1044400000AF00BFBD465DF8047B704780B500AF8C
:10445000194B5B68184A23F080435360174BD3F81D
:104460008830164A43F47003C2F88830144B1B6836
:10447000134A43F001031360114B00229A60104B62
:104480001B680F4A23F0847323F4803313600C4BB2
:104490000C4A5A600A4B1B68094A23F480231360B4
:1044A000074B0022DA6000F08DF8044B4FF00062F9
:1044B0009A6000BF80BD00BF30EF00E000ED00E07B
:1044C000003802401030002480B487B000AF0023D1
:1044D0003B6100237B610223FB600023BB6002235E
:1044E0007B60334B9B6803F00C033B613B69042BFF
:1044F00009D03B69082B0AD03B69002B3DD12D4BDD
:104500002D4A1A603DE02B4B2C4A1A6039E0284BAB
:104510005B689B0D03F00103BB60254B5B6803F0F8
:104520003F037B60BB68002B0CD0244A7B68B2FB46
:10453000F3F31F4A52689209C2F3080202FB03F325
:104540007B610BE01C4A7B68B2FBF3F3184A5268AC
:104550009209C2F3080202FB03F37B61144B5B6810
:104560001B0C03F0030301335B00FB607A69FB68FB
:10457000B2FBF3F30F4A136003E00E4B0E4A1A60CE
:1045800000BF0B4B9B681B0903F00F030C4AD35C65
:10459000DBB23B61074B1A683B6922FA03F3054A19
:1045A000136000BF1C37BD465DF8047B704700BF39
:1045B00000380240180000200024F40000127A00A5
:1045C0001C00002080B483B000AF00237B60002378
:1045D0003B60694B1B68684A43F480331360664B49
:1045E0001B6803F400333B607B6801337B603B68EE
:1045F000002B03D17B68B3F5A04FF0D15E4B1B6855
:1046000003F40033002B02D001233B6001E00023C0
:104610003B603B68012B43D1574B1B6C564A43F020
:1046200080531364554B1B68544A43F44043136052
:10463000514B514A9B6893604F4B9B684E4A43F4E1
:10464000004393604C4B9B684B4A43F4A0539360E8
:10465000494B4B4A5A60484B1B68474A43F08073AA
:10466000136000BF444B1B6803F00073002BF9D0AC
:10467000444B40F205721A603F4B9B683E4A23F060
:10468000030393603C4B9B683B4A43F002039360F7
:1046900000BF394B9B6803F00C03082BF9D165E090
:1046A000354B1B6C344A43F080531364334B1B6807
:1046B000324A43F4004313602F4B1B6C2E4A43F0E5
:1046C0008053136400BF2C4B1B6803F00203002BC4
:1046D000F9D02A4B1B68294A43F080031360264B0C
:1046E0001B68254A23F08073136000BF224B1B68B0
:1046F00003F00073002BF9D11F4B234A5A601E4B65
:104700001B681D4A43F08073136000BF1A4B1B687F
:1047100003F00073002BF9D01A4B40F202721A60BA
:10472000184B1B6803F00F03022B00D0FEE7124B5F
:104730009B68114A43F00203936000BF0E4B9B68D5
:1047400003F00803082BF9D10B4B9B680A4A23F0AE
:10475000F0039360084B9B68074A43F480539360CF
:10476000054B9B68044A23F46043936000BF0C37F9
:10477000BD465DF8047B7047003802400070004081
:1047800008544027003C02401054002780B582B0F6
:1047900000AF7860044B1B687A681A6200F026F854
:1047A00000BF0837BD4680BD0803002098B500AFA4
:1047B0000B4B1A684FF000034FF00004C2E90A34B3
:1047C000074B1B68074A1360074B01221A60044B12
:1047D0001B68184600F032FA03F00CFD00BF98BDCC
:1047E0003000002008030020C8B4002090B585B038
:1047F00000AF1C4BD3E90034591C44F10002194BA3
:10480000C3E90012184BD3E90034C7E90234D7E9F1
:104810000234234303D101F0F5F8C7E90201124A3B
:104820004FF000034FF00004C2E900340F4B1B6847
:104830007B607B68002B04D1D7E9020100F06CFBA0
:1048400078600A4B00221A60064BD3E900347A687C
:10485000C2E91234786800F0F1F900BF1437BD46A0
:1048600090BD00BF98020020A8020020A0020020F6
:1048700080B400AF054B1B68002BCCBF0123002385
:10488000DBB21846BD465DF8047B7047C8B4002013
:1048900080B483B000AF786039607B68012B09D1A8
:1048A0003B684FF6FF72934204D1054B23F0070398
:1048B000044A136000BF0C37BD465DF8047B7047A7
:1048C0008C0200209002002080B500AF4FF6FF71EF
:1048D0000120FFF7DDFF80BD80B483B000AF7860BA
:1048E0007B6800221A607B6800225A607B68002285
:1048F0009A607B680022DA607B6818460C37BD46F8
:104900005DF8047B704780B586B000AF786000F03A
:10491000D7F93861386900F0B9F9F86040F2EB3046
:1049200000F097FF034601337B617B69002B43D086
:104930007B681B68002B2CD07B681B683A699A4205
:1049400027D07B681B68184600F0A0F90246FB6878
:104950009342CCBF01230023DBB2002B05D07B6840
:104960001B68F968184600F09DF97B681B68002BEE
:104970000CD07B681B683A699A4207D07A684FF07E
:10498000FF306FF0004100F0C3F9EEE77B680022D2
:10499000DA607B683A691A607B68FA685A607B68FB
:1049A000DB685A1C7B68DA607B69013B184600F0C3
:1049B00050FF00237B61B8E700F008F900BF18370B
:1049C000BD4680BD80B586B000AF786000F078F954
:1049D000F86000237B617B681B68FA689A423BD1D0
:1049E0007B68DB685A1E7B68DA607B68DB68002BBB
:1049F00034DC40F2EB3000F02CFF034601333B6126
:104A00003B69002B1ED07B685B6801333B617B6890
:104A100000225A607B6800221A60786800F054FB1C
:104A200078617B69002B05D07B687A691A607869A8
:104A300000F052F93B69013B184600F00AFF0023E1
:104A40003B61DDE77B69002B09D07B685B68002B4D
:104A500005D100F0BBF802E000BF00E000BF18374E
:104A6000BD4680BD80B483B000AF78607B681B68B2
:104A700018460C37BD465DF8047B704780B483B0A0
:104A800000AF78607B685B6818460C37BD465DF800
:104A9000047B704790B587B000AFF860B9607A606A
:104AA0003B60FB68181D0023BA682E4900F076FCB5
:104AB0002D4AFB681A60FB683A685A61FB685B69BB
:104AC000184600F033FE0246FB68DA61FB68DA69DB
:104AD000FB685B69043B134423F007031A46FB6839
:104AE0009A61FB689B697B61FB68DB691A467B699D
:104AF0009A4206D87B691D4A1A607B69043B7B6138
:104B0000F2E7FB689B69F968184603F041FB02462F
:104B1000FB681A62FA684FF000034FF00004C2E924
:104B20001234FB687A685A62FA684FF000034FF05B
:104B30000004C2E90A34FB6800221A63FA684FF0E5
:104B4000FF336FF00044C2E90E34FA684FF00003FF
:104B50004FF00004C2E91034FB6818461C37BD460C
:104B600090BD00BF0C0300207C940008EFBEADDEBA
:104B700080B582B000AF78600C4A7B681A607B68B1
:104B800004331846FFF77AFF034619460848FCF736
:104B900061FB0848FCF7A6FB7B680433184600F06D
:104BA00045FC7B6818460837BD4680BD7C940008EC
:104BB000E48D0008E88D000880B483B000AF786011
:104BC00000BF0C37BD465DF8047B704790B585B0DB
:104BD00000AF174B1B7883F00103DBB2002B20D111
:104BE00000F010FFC7E90201D7E9020100F094F9D3
:104BF000786000F065F802467B6893420CBF0123A1
:104C00000023DBB2002B0ED10A4A7B6813600A4AEC
:104C1000D7E90234C2E9003403F076FD03F030FB3B
:104C200002E000BF00E000BF1437BD4690BD00BFEA
:104C30002C000020A0020020A802002080B582B035
:104C400000AF78600E4A7B6813600E4B1B680E4AFB
:104C50009342D4BF01230023DBB2002B04D0094BC5
:104C60001B680133074A136003F026FD7B681B6A4B
:104C7000184603F0F5FA00BF0837BD4680BD00BFF7
:104C800008030020C8B40020FEFF0F0080B483B0EA
:104C900000AF78607B685B6A18460C37BD465DF8EC
:104CA000047B704780B483B000AF786039607B6864
:104CB0003A685A6200BF0C37BD465DF8047B704706
:104CC00080B400AF034B1B681846BD465DF8047BFB
:104CD000704700BF0803002090B482B000AF786036
:104CE0000A4A4FF000034FF00004C2E900347B6829
:104CF00000221A637A684FF000034FF00004C2E903
:104D00000A3400BF0837BD4690BC7047B00200208F
:104D100090B587B000AFC7E902017A60FFF7D0FF16
:104D2000386140F2EB3000F094FD034601337B61C3
:104D30007B69002B0FD03B697A681A633A69D7E91F
:104D40000234C2E90A347B69013B184600F081FD58
:104D500000237B61ECE7FFF739FF3B6900221A6310
:104D60003B69D3E90A342343002B0CBF0123002302
:104D7000DBB2002B01D0012300E0002318461C37D2
:104D8000BD4690BDB0B582B000AF2E48FCF794FD93
:104D90002D4B1B68002B03D02B4B1B68043B00E002
:104DA00000237B607B68002B28D07B685C6A7B6873
:104DB0005D697B6804331846FFF760FE03462A46A8
:104DC00021462248FCF778FD7B681B680C331B6882
:104DD000786898477A684FF000034FF00004C2E902
:104DE0000A347B6804331846FFF73CFE0346002B69
:104DF00001D0043B00E000237B60D3E71448FCF7BC
:104E00005BFD114B1B68002B03D00F4B1B68043B51
:104E100000E000233B603B68002B0FD03868FFF7B1
:104E2000CBFE3B6804331846FFF71CFE0346002BFD
:104E300001D0043B00E000233B60ECE700BF0837F3
:104E4000BD46B0BDF88D00080C0300200C8E000894
:104E5000308E000890B583B000AF78600C4A7B6854
:104E600013607A684FF000034FF00004C2E90A347F
:104E70007B681B6808331B68786898477A684FF02E
:104E8000FF336FF00044C2E90A34FFF79FFEF5E7F5
:104E90000803002080B582B000AF786078684FF4D6
:104EA000FA6300220549FFF7F5FD054A7B681A60A1
:104EB0007B6818460837BD4680BD00BF348E0008A9
:104EC00064940008F0B583B000AF7860094BD3E973
:104ED00000345D1C44F10006064BC3E900567B68B4
:104EE00000211846FFF7DEFEFFF7A2FAFFF76EFE7D
:104EF000ECE700BF2003002080B582B000AF7860EF
:104F00000348FCF7D9FC00BF0837BD4680BD00BF91
:104F1000408E000800000000F0B585B000AFC7E982
:104F20000001634BFB60D7E900345FA2D2E90012B5
:104F30005D1844EB02065F4BC3E900565E4B1B68ED
:104F4000002B03D05C4B1B68043B00E00023BB60DC
:104F5000BB68002B6FD0BB68D3E90A12D7E90034D5
:104F6000994272EB0403B4BF01230023DBB2002B90
:104F700031D0B868FFF78AFE0446F868FFF786FE6E
:104F800003469C42CCBF01230023DBB2002B01D09F
:104F9000BB68FB60B868FFF779FE0446F868FFF766
:104FA00075FE03469C420CBF01230023DBB2002B9D
:104FB00034D0BB68D3E91212FB68D3E91234A242A1
:104FC00008BF994234BF01230023DBB2002B25D058
:104FD000BB68FB6022E0B868FFF758FE0446F8683B
:104FE000FFF754FE03469C42ACBF01230023DBB213
:104FF000002B13D0BB68D3E90A342E4AD2E9001241
:10500000994272EB040303DA2A4BD3E9003402E03D
:10501000BB68D3E90A34274AC2E90034BB680433C9
:105020001846FFF71FFD0346002B01D0043B00E0AC
:105030000023BB608CE7FB681B6A1A46FB68DB69D0
:10504000D31AB3F5967F13DAF968FB681B6A1A4620
:10505000FB68DB69D31A1A461848FCF72DFCFA687E
:105060004FF0FF336FF00044C2E90A34104BFB608D
:10507000FB68DB691B68124A93420DD0FB68194636
:105080001048FCF719FCFA684FF0FF336FF000444A
:10509000C2E90A34064BFB60FB6818461437BD466C
:1050A000F0BD00BFAFF3008000E1F5050000000097
:1050B000B8020020B00200200C030020548E00082B
:1050C000EFBEADDE808E000890B585B000AF786091
:1050D0002E4BFB602E4B1B68002B03D02C4B1B6808
:1050E000043B00E00023BB60BB68002B43D0BB68DF
:1050F0001B6B7A689A4231D1B868FFF7C7FD044646
:10510000F868FFF7C3FD03469C42CCBF0123002390
:10511000DBB2002B02D0BB68FB601FE0B868FFF772
:10512000B5FD0446F868FFF7B1FD03469C420CBF8D
:1051300001230023DBB2002B10D0BB68D3E912128D
:10514000FB68D3E91234A24208BF994234BF01235D
:105150000023DBB2002B01D0BB68FB60BB680433CB
:105160001846FFF77FFC0346002B01D0043B00E00C
:105170000023BB60B8E7FB68044A934201D10023D7
:1051800000E0FB6818461437BD4690BDB802002009
:105190000C03002080B582B000AF7860054A7B68C0
:1051A0001A607B681846FFF7E3FC7B6818460837EF
:1051B000BD4680BD6494000880B582B000AF7860C1
:1051C0007868FFF7E7FF50217868FCF7EBF87B6819
:1051D00018460837BD4680BD80B582B000AF786004
:1051E00039607B68012B0CD13B684FF6FF7293420C
:1051F00007D10648FFF74EFE054A0649034803F06B
:105200003FFD00BF0837BD4680BD00BFB80200208B
:10521000440200209551000880B500AF4FF6FF71A1
:105220000120FFF7D9FF80BD80B483B000AF786064
:1052300000BF0C37BD465DF8047B704780B483B077
:1052400000AF78600A4A7B681A607B6800221A61A6
:105250007B6800225A607B6800229A607B6800228B
:10526000DA607B6818460C37BD465DF8047B7047F2
:105270009494000890B585B000AFF860C7E90023AA
:1052800002F076FFFB681B6810331B68F8689847CC
:105290000346002B02D002F073FF0EE0FFF710FD73
:1052A0000246FB689A60FB689A68D7E90034C2E955
:1052B0000A3402F065FFFFF789FC1437BD4690BD44
:1052C00080B582B000AF78607B689B68002B04D00B
:1052D0007B689B681846FFF7FFFC7B6800229A609A
:1052E0007B681B69002B07D07B681A697B681B6988
:1052F0001B681B681046984700BF0837BD4680BD35
:1053000080B582B000AF78607B685B68002B04D00A
:105310007B685B681846FFF7DFFC7B6800225A60F9
:105320007B681B69002B08D07B681A697B681B6946
:105330001B6804331B681046984700BF0837BD46FA
:1053400080BD80B582B000AF78607B68DB68002BE1
:1053500004D07B68DB681846FFF7BEFC7B68002240
:10536000DA607B681B69002B08D07B681A697B6850
:105370001B691B6808331B681046984700BF083735
:10538000BD4680BD80B400AF034B1B681846BD46C8
:105390005DF8047B704700BF3400002080B584B006
:1053A00000AFF860B9607A603B60FB683A68DA6029
:1053B000FB687A685A60084B1B685A1C06490A60E9
:1053C000FA689360B968F86800F008F8FB68184656
:1053D0001037BD4680BD00BF2803002080B582B0D5
:1053E00000AF786039603B681A687B681A603B6878
:1053F0007A681A600A4B1B68002B14BF0123002334
:10540000DBB2002B08D00748FBF76CFF7B685B68BA
:1054100019460548FBF71EFF00BF0837BD4680BD93
:10542000C8B40020A88E0008DC8E000880B582B0C9
:1054300000AF78600348FBF755FF7B6818460837D4
:10544000BD4680BD008F000880B588B000AF012345
:105450003B6097F90330012B0CBF01230023DAB224
:105460006E4B1A7003F042FA6D48FCF725FA6D4B4B
:105470001B68002B03D06B4B1B68043B00E0002330
:10548000FB61FB69002B11D0FB691B681B68F86985
:105490009847FB6904331846FFF7E4FA0346002BEC
:1054A00001D0043B00E00023FB61EAE75E4B1B6890
:1054B000002B03D05C4B1B68043B00E00023BB6166
:1054C000BB69002B12D0BB691B6808331B68B86925
:1054D0009847BB6904331846FFF7C4FA0346002B0C
:1054E00001D0043B00E00023BB61E9E74F48FCF733
:1054F000E3F94F4B1B68002B03D04D4B1B68043B5B
:1055000000E000237B617B69002B22D07B690433A0
:105510001846FFF7A7FA0346002B01D0043B00E032
:105520000023BB607B691B7F002B06D07B690433A3
:1055300040491846FFF752FF08E07B691A1D7B6956
:105540005B69143319461046FFF748FFBB687B615F
:10555000D9E7394B1B68002B4DD03848FCF7ACF924
:10556000354B1B68002B03D0334B1B68043B00E01A
:1055700000233B613B69002B3DD03B690433184657
:10558000FFF77CFA01463B69DA693B691B6A2C48E4
:10559000FCF792F93B695B69002B03D03B695B69BF
:1055A000043B00E00023FB60FB68002B16D0FB6887
:1055B00004331846FFF762FA034619462148FCF700
:1055C0007BF9FB6804331846FFF74CFA0346002BBF
:1055D00001D0043B00E00023FB60E5E73B690433B6
:1055E0001846FFF73FFA0346002B01D0043B00E0CA
:1055F00000233B61BEE71448FCF75EF900F0B0F908
:1056000078607B68002B03D079681048FCF754F968
:10561000FFF7B8FB00BF2037BD4680BD3003002038
:10562000148F00081403002008B50020448F0008E0
:105630001803002090A300202C030020688F00088E
:10564000848F0008B08F0008BC8F0008D08F00083E
:105650002DE9F04184B002AF78603960254A7B685B
:105660001360254A3B68136002F040FD234A244939
:105670002448FCF721F903F0C5F9FFF7E5FE02F035
:10568000D5FC03461D4602F0EFFC064602F0F6FC90
:10569000804602F0D7FC044602F0DDFC034601938D
:1056A00000944346324629461748FCF705F9FFF7B0
:1056B00069FE0446FFF766FE03461A462146134874
:1056C000FCF7FAF81248FCF7F7F800F025F842F278
:1056D00010704FF0000103F01DF802F0C7FF0D48F5
:1056E000FCF7EAF8FFF762F8002318460837BD46D2
:1056F000BDE8F0813403002038030020EC8F00085F
:10570000049000081090000840900008A490000841
:10571000C4900008FC90000880B500AF0248FCF778
:10572000CBF800BF80BD00BF3091000880B584B0C9
:1057300000AF78607B68002B01DA002331E07B68E2
:10574000073323F007037B607B68B3F5204F04DD4C
:105750001648FBF7C7FD002323E0154B1B68002B01
:1057600014BF01230023DBB2002B02D01148FBF74A
:10577000B9FD114B1A687B681344B3F5204F04DB65
:105780000A48FBF7AFFD00230BE00B4B1B680B4AED
:105790001344FB60084B1A687B681344064A136085
:1057A000FB6818461037BD4680BD00BF4891000811
:1057B000C8B400205C9100083CA300203C030020FA
:1057C00090B484B000AFF860C7E90023FA68D7E965
:1057D0000034C2E90E34FA68D7E90634C2E910345D
:1057E00000BF1037BD4690BC7047F0B587B002AF20
:1057F00078607B68D3E91034234307D100224FF04F
:10580000FF306FF00041FFF783FAF2E77B68D3E9DE
:105810000E34002218462146FFF77AFA00F0F2F81B
:10582000C7E902017B68D3E90E017B68D3E9105612
:10583000D7E90234CDE900342A46334600F0EBF8CC
:1058400003460C467A68C2E90E3400BF1437BD46E1
:10585000F0BD80B584B000AF7860FFF731FAF86032
:10586000F868FFF713FAB8607968F868FFF71AFA72
:10587000BB6818461037BD4680BD00002DE9F043D7
:1058800087B002AFC7E900010023FB60334B1B6800
:10589000002B03D0314B1B68043B00E00023BB60AE
:1058A000BB68002B53D0BB68D3E90612D7E900349C
:1058B000994272EB04033DDABB68D3E90834234311
:1058C00007D1BA684FF0FF336FF00044C2E90634E5
:1058D00027E0BB68D3E90612BB68D3E90834CD18CA
:1058E00042EB0406BB68C3E90656BB68D3E906125F
:1058F000D7E90034994272EB040312DABB68D3E9AA
:105900000601BB68D3E90889D7E90034CDE9003442
:1059100042464B4600F07FF803460C46BA68C2E99F
:105920000634BB681B6808331B68B8689847FB6877
:105930000133FB60BB6804331846FFF793F8034656
:10594000002B01D0043B00E00023BB60A8E7FB680C
:1059500018461437BD46BDE8F08300BF1003002091
:1059600080B582B000AF00237B60144B1B68002B16
:1059700003D0124B1B68043B00E000233B603B68F4
:10598000002B15D03B681B680C331B6838689847A0
:105990007B6801337B603B6804331846FFF762F88D
:1059A0000346002B01D0043B00E000233B60E6E708
:1059B0007B6818460837BD4680BD00BF1003002035
:1059C00090B482B000AF78607A684FF000034FF077
:1059D0000004C2E900347A684FF000034FF000047D
:1059E000C2E902347A684FF000034FF00004C2E9C4
:1059F00004347B6811229A617B6818460837BD46DB
:105A000090BC704798B500AF02F00EFF03460C46FD
:105A10001846214698BD2DE9B04F84B000AFC7E9C4
:105A20000201C7E90023D7E90223D7E90C0190421C
:105A300071EB030302DAD7E902892DE0D7E90023ED
:105A4000134304D14FF0FF386FF0004924E0D7E949
:105A50000C01D7E90223B0EB020A61EB030BD7E993
:105A6000002350465946FBF709F802460B46541CE2
:105A700043F100053B6805FB03F27B6804FB03F37D
:105A80001A443B68A3FB043422441446D7E90212AB
:105A900013EB010844EB020943464C4618462146E5
:105AA0001037BD46BDE8B08F80B582B000AF7860DA
:105AB00039607B68012B07D13B684FF6FF72934238
:105AC00002D10348FFF77CFF00BF0837BD4680BD09
:105AD00040A3002080B500AF4FF6FF710120FFF713
