:020000040800F2
:10000000000002200D75000835FB00083BFB0008CE
:1000100059FB00085FFB000865FB000800000000BA
:1000200000000000000000000000000035F400089F
:100030006D750008000000004DF40008B1F70008DD
:100040006D7500086D7500086D7500086D75000808
:100050006D7500086D75000889870008AD87000878
:10006000D1870008F5870008198800086D75000819
:1000700099B800086D750008C1B700086D750008D3
:1000800051B8000879B700086D7500086D75000853
:100090006D7500086D7500086D7500083D880008D5
:1000A0006D7500086D75000861F900086D75000830
:1000B0006D7500086D7500086D7500086D75000898
:1000C0006D7500086D7500086D7500086D75000888
:1000D0006D750008A1B60008B9B60008D1B60008D1
:1000E0009D8800086D7500086D7500086D75000825
:1000F0006D7500086D7500086D7500086D75000858
:100100006D7500086D75000855F500086D750008DF
:10011000E9B6000801B700086D7500086D750008A4
:100120006D7500086D7500086D7500086D75000827
:100130006D7500086D7500086D7500086D75000817
:100140006D7500086D7500086D7500086D75000807
:1001500009B800086D75000831B7000819B7000824
:100160006D7500086D7500086D7500086D750008E7
:100170006D7500086D7500086D7500086D750008D7
:0C0180006D7500086D7500080000000897
:1001C000844641EA000313F003036DD1403A41D362
:1001D00051F8043B40F8043B51F8043B40F8043B21
:1001E00051F8043B40F8043B51F8043B40F8043B11
:1001F00051F8043B40F8043B51F8043B40F8043B01
:1002000051F8043B40F8043B51F8043B40F8043BF0
:1002100051F8043B40F8043B51F8043B40F8043BE0
:1002200051F8043B40F8043B51F8043B40F8043BD0
:1002300051F8043B40F8043B51F8043B40F8043BC0
:1002400051F8043B40F8043B51F8043B40F8043BB0
:10025000403ABDD2303211D351F8043B40F8043B50
:1002600051F8043B40F8043B51F8043B40F8043B90
:1002700051F8043B40F8043B103AEDD20C3205D360
:1002800051F8043B40F8043B043AF9D2043208D058
:10029000D2071CBF11F8013B00F8013B01D30B88CA
:1002A00003806046704700BF082A13D38B078DD0A8
:1002B00010F003038AD0C3F10403D21ADB071CBF7A
:1002C00011F8013B00F8013B80D331F8023B20F8E4
:1002D000023B7BE7043AD9D3013A11F8013B00F81D
:1002E000013BF9D20B7803704B7843708B788370A5
:1002F00060467047000000000000000000000000A1
:1003000090F800F06DE9024520F007016FF0000C55
:1003100010F0070491F820F040F049804FF00004FD
:100320006FF00700D1E9002391F840F000F10800D8
:1003300082FA4CF2A4FA8CF283FA4CF3A2FA8CF310
:100340004BBBD1E9022382FA4CF200F10800A4FA77
:100350008CF283FA4CF3A2FA8CF3E3B9D1E90423CB
:1003600082FA4CF200F10800A4FA8CF283FA4CF302
:10037000A2FA8CF37BB9D1E9062301F1200182FABC
:100380004CF200F10800A4FA8CF283FA4CF3A2FAC2
:100390008CF3002BC6D0002A04BF04301A4612BAD0
:1003A000B2FA82F2FDE8024500EBD2007047D1E9D3
:1003B000002304F00305C4F100004FEAC50514F062
:1003C000040F91F840F00CFA05F562EA05021CBF33
:1003D00063EA050362464FF00004A9E781F000419B
:1003E00002E000BF83F0004330B54FEA41044FEA1A
:1003F000430594EA050F08BF90EA020F1FBF54EAB5
:10040000000C55EA020C7FEA645C7FEA655C00F050
:10041000E2804FEA5454D4EB5555B8BF6D420CDD21
:100420002C4480EA020281EA030382EA000083EAA4
:10043000010180EA020281EA0303362D88BF30BD44
:1004400011F0004F4FEA01314FF4801C4CEA11319A
:1004500002D0404261EB410113F0004F4FEA0333F9
:100460004CEA133302D0524263EB430394EA050F84
:1004700000F0A780A4F10104D5F1200E0DDB02FAF3
:100480000EFC22FA05F2801841F1000103FA0EF287
:10049000801843FA05F359410EE0A5F120050EF14D
:1004A000200E012A03FA0EFC28BF4CF0020C43FA7E
:1004B00005F3C01851EBE37101F0004507D54FF08B
:1004C000000EDCF1000C7EEB00006EEB0101B1F5DB
:1004D000801F1BD3B1F5001F0CD349085FEA300021
:1004E0004FEA3C0C04F101044FEA445212F5800F2C
:1004F00080F09A80BCF1004F08BF5FEA500C50F1C9
:10050000000041EB045141EA050130BD5FEA4C0CAB
:10051000404141EB010111F4801FA4F10104E9D134
:1005200091F0000F04BF01460020B1FA81F308BF2B
:100530002033A3F10B03B3F120020CDA0C3208DDF7
:1005400002F1140CC2F10C0201FA0CF021FA02F1D2
:100550000CE002F11402D8BFC2F1200C01FA02F142
:1005600020FA0CFCDCBF41EA0C019040E41AA2BF67
:1005700001EB0451294330BD6FEA04041F3C1CDA2F
:100580000C340EDC04F11404C4F1200220FA04F04F
:1005900001FA02F340EA030021FA04F345EA0301F9
:1005A00030BDC4F10C04C4F1200220FA02F001FABB
:1005B00004F340EA0300294630BD21FA04F029463D
:1005C00030BD94F0000F83F4801306BF81F48011D6
:1005D0000134013D4EE77FEA645C18BF7FEA655C49
:1005E00029D094EA050F08BF90EA020F05D054EA1B
:1005F000000C04BF1946104630BD91EA030F1EBF20
:100600000021002030BD5FEA545C05D14000494123
:1006100028BF41F0004130BD14F580043CBF01F516
:10062000801130BD01F0004545F0FE4141F47001FC
:100630004FF0000030BD7FEA645C1ABF19461046D7
:100640007FEA655C1CBF0B46024650EA013406BFD8
:1006500052EA033591EA030F41F4002130BD00BF97
:1006600090F0000F04BF0021704730B54FF4806454
:1006700004F132044FF000054FF0000150E700BFD5
:1006800090F0000F04BF0021704730B54FF4806434
:1006900004F1320410F0004548BF40424FF0000121
:1006A0003EE700BF42004FEAE2014FEA31014FEA64
:1006B00002701FBF12F07F4393F07F4F81F06051B3
:1006C000704732F07F4208BF704793F07F4F04BFFE
:1006D00041F40021704730B54FF4607401F00045DB
:1006E00021F000411CE700BF50EA010208BF70473B
:1006F00030B54FF000050AE050EA010208BF70472C
:1007000030B511F0004502D5404261EB41014FF494
:10071000806404F132045FEA915C3FF4D8AE4FF09C
:1007200003025FEADC0C18BF03325FEADC0C18BF7F
:10073000033202EBDC02C2F1200300FA03FC20FAD0
:1007400002F001FA03FE40EA0E0021FA02F114441D
:10075000BDE600BF70B54FF0FF0C4CF4E06C1CEA36
:1007600011541DBF1CEA135594EA0C0F95EA0C0FA7
:1007700000F0DEF82C4481EA030621EA4C5123EA1A
:100780004C5350EA013518BF52EA033541F4801149
:1007900043F4801338D0A0FB02CE4FF00005E1FBFC
:1007A00002E506F00042E0FB03E54FF00006E1FB46
:1007B00003569CF0000F18BF4EF0010EA4F1FF0489
:1007C000B6F5007F64F5407404D25FEA4E0E6D41C9
:1007D00046EB060642EAC62141EA55514FEAC520DA
:1007E00040EA5E504FEACE2EB4F1FD0C88BFBCF556
:1007F000E06F1ED8BEF1004F08BF5FEA500E50F107
:10080000000041EB045170BD06F0004646EA0101CC
:1008100040EA020081EA0301B4EB5C04C2BFD4EBFE
:100820000C0541EA045170BD41F480114FF0000EF7
:10083000013C00F3AB8014F1360FDEBF002001F065
:10084000004170BDC4F10004203C35DA0C341BDCDF
:1008500004F11404C4F1200500FA05F320FA04F0B1
:1008600001FA05F240EA020001F0004221F00041E5
:1008700010EBD37021FA04F642EB06015EEA430E58
:1008800008BF20EAD37070BDC4F10C04C4F1200588
:1008900000FA04F320FA05F001FA04F240EA02003B
:1008A00001F0004110EBD37041F100015EEA430E0C
:1008B00008BF20EAD37070BDC4F1200500FA05F22C
:1008C0004EEA020E20FA04F301FA05F243EA0203AB
:1008D00021FA04F001F0004121FA04F220EA0200BA
:1008E00000EBD3705EEA430E08BF20EAD37070BD00
:1008F00094F0000F0FD101F00046400041EB0101E0
:1009000011F4801F08BF013CF7D041EA060195F0C1
:10091000000F18BF704703F00046520043EB03037B
:1009200013F4801F08BF013DF7D043EA0603704768
:1009300094EA0C0F0CEA135518BF95EA0C0F0CD073
:1009400050EA410618BF52EA4306D1D181EA0301B9
:1009500001F000414FF0000070BD50EA410606BFB3
:100960001046194652EA430619D094EA0C0F02D1F8
:1009700050EA013613D195EA0C0F05D152EA03363D
:100980001CBF104619460AD181EA030101F000415B
:1009900041F0FE4141F470014FF0000070BD41F0A4
:1009A000FE4141F4780170BD70B54FF0FF0C4CF47E
:1009B000E06C1CEA11541DBF1CEA135594EA0C0F9D
:1009C00095EA0C0F00F0A7F8A4EB050481EA030EEA
:1009D00052EA03354FEA013100F088804FEA0333D1
:1009E0004FF0805545EA131343EA12634FEA02229F
:1009F00045EA111545EA10654FEA00260EF0004160
:100A00009D4208BF964244F1FD0404F5407402D2B1
:100A10005B084FEA3202B61A65EB03055B084FEA42
:100A200032024FF480104FF4002CB6EB020E75EB3F
:100A3000030E22BFB61A754640EA0C005B084FEA67
:100A40003202B6EB020E75EB030E22BFB61A7546E4
:100A500040EA5C005B084FEA3202B6EB020E75EB2F
:100A6000030E22BFB61A754640EA9C005B084FEAA7
:100A70003202B6EB020E75EB030E22BFB61A7546B4
:100A800040EADC0055EA060E18D04FEA051545EAA3
:100A900016754FEA06164FEAC30343EA52734FEA4C
:100AA000C2025FEA1C1CC0D111F4801F0BD141EAC5
:100AB00000014FF000004FF0004CB6E711F4801F2A
:100AC00004BF01430020B4F1FD0C88BFBCF5E06F0A
:100AD0003FF6AFAEB5EB030C04BFB6EB020C5FEA1A
:100AE000500C50F1000041EB045170BD0EF0004E6F
:100AF0004EEA113114EB5C04C2BFD4EB0C0541EAA1
:100B0000045170BD41F480114FF0000E013C90E69D
:100B100045EA060E8DE60CEA135594EA0C0F08BF61
:100B200095EA0C0F3FF43BAF94EA0C0F0AD150EA60
:100B300001347FF434AF95EA0C0F7FF425AF1046F3
:100B400019462CE795EA0C0F06D152EA03353FF41B
:100B5000FDAE1046194622E750EA410618BF52EA98
:100B600043067FF4C5AE50EA41047FF40DAF52EA6C
:100B700043057FF4EBAE12E74FF0FF3C06E000BF09
:100B80004FF0010C02E000BF4FF0010C4DF804CD16
:100B90004FEA410C7FEA6C5C4FEA430C18BF7FEAD6
:100BA0006C5C1BD001B050EA410C0CBF52EA430C04
:100BB00091EA030F02BF90EA020F0020704710F184
:100BC000000F91EA030F58BF994208BF90422CBF13
:100BD000D8176FEAE37040F0010070474FEA410C0C
:100BE0007FEA6C5C02D150EA013C07D14FEA430C2A
:100BF0007FEA6C5CD6D152EA033CD3D05DF8040B9B
:100C0000704700BF8446104662468C4619466346CC
:100C100000E000BF01B5FFF7B7FF002848BF10F1A3
:100C2000000F01BD4DF808EDFFF7F4FF0CBF0120E8
:100C300000205DF808FB00BF4DF808EDFFF7EAFF64
:100C400034BF012000205DF808FB00BF4DF808ED1F
:100C5000FFF7E0FF94BF012000205DF808FB00BF14
:100C60004DF808EDFFF7CEFF94BF012000205DF89E
:100C700008FB00BF4DF808EDFFF7C4FF34BF0120AB
:100C800000205DF808FB00BF4FEA410212F5001298
:100C900015D211D56FF47873B3EB625212D94FEAC3
:100CA000C12343F0004343EA505311F0004F23FAAD
:100CB00002F018BF404270474FF00000704750EA02
:100CC000013005D111F0004008BF6FF000407047BF
:100CD0004FF00000704700BF4A0011D212F5001219
:100CE00011D20DD56FF47873B3EB62520ED44FEA84
:100CF000C12343F0004343EA505323FA02F0704704
:100D00004FF00000704750EA013002D14FF0FF3041
:100D100070474FF0000070474FEA4102B2F1E043E4
:100D200024BFB3F5001CDCF1FE5C0DD901F0004CD2
:100D30004FEAC0024CEA5070B2F1004F40EB830022
:100D400008BF20F00100704711F0804F21D113F14E
:100D50003872BCBF01F00040704741F480114FEA87
:100D60005252C2F11802C2F1200C10FA0CF320FA10
:100D700002F018BF40F001004FEAC1234FEAD3232D
:100D800003FA0CFC40EA0C0023FA02F34FEA430397
:100D9000CCE77FEA625307D150EA01331EBF4FF020
:100DA000FE4040F44000704701F0004040F0FE403B
:100DB00040F40000704700BF7BB972B90029BEBF84
:100DC00000204FF0004106E008BF00281CBF6FF074
:100DD00000414FF0FF3000F0F5B9ADF1080C6DE9BE
:100DE00004CE002909DB002B1ADB00F083F8DDF8C4
:100DF00004E0DDE9022304B07047404261EB4101A9
:100E0000002B1BDB00F076F8DDF804E0DDE90223BF
:100E100004B0404261EB4101524263EB430370472F
:100E2000524263EB430300F065F8DDF804E0DDE9CE
:100E3000022304B0404261EB41017047524263EB30
:100E4000430300F057F8DDF804E0DDE9022304B0C5
:100E5000524263EB4303704753B94AB9002908BFB4
:100E600000281CBF4FF0FF314FF0FF3000F0AAB94F
:100E7000ADF1080C6DE904CE00F03CF8DDF804E0BB
:100E8000DDE9022304B0704738B500220023044690
:100E90000D46FFF7D1FE28B920462946BDE8384067
:100EA00000F00AB8204605F1004100F005F8404284
:100EB00061EB410138BD00BFD0B500220B4B0646A7
:100EC0000F46FFF747FCFFF707FF0446FFF7C8FB95
:100ED0000022074BFFF73EFC02460B4630463946E0
:100EE000FFF780FAFFF7F8FE2146D0BD0000F03D85
:100EF0000000F0412DE9F047089E04468846002B8B
:100F000040F085808A42154648D9B2FA82F24AB149
:100F1000C2F1200701FA02F320FA07F7954047EAE9
:100F2000030894404FEA154E230CB8FBFEF71FFA56
:100F300085FC0EFB178843EA084307FB0CF1994236
:100F400009D9EB1807F1FF3080F0E380994240F2B5
:100F5000E080023F2B445B1AA4B2B3FBFEF00EFB11
:100F6000103344EA034400FB0CFCA44509D92C19B6
:100F700000F1FF3380F0CB80A44540F2C8800238F6
:100F80002C4440EA0740A4EB0C0400271EB1D440D7
:100F90000023C6E900433946BDE8F087002A53D054
:100FA000B2FA82F2002A40F0B680491B4FEA154E91
:100FB0001FFA85F80127B1FBFEFC230C0EFB1C1168
:100FC00043EA014308FB0CF1994207D9EB180CF1F5
:100FD000FF3002D2994200F2EC808446591AA3B243
:100FE000B1FBFEF00EFB101443EA044408FB00F8CA
:100FF000A04507D92C1900F1FF3302D2A04500F219
:10100000DC801846A4EB080440EA0C40BEE78B42A3
:1010100008D9002E78D00027C6E9000138463946A5
:10102000BDE8F087B3FA83F77FB98B4202D38242DF
:1010300000F2BD80841A61EB030301209846002E64
:10104000A9D0C6E90048A6E7FFDEC7F12005BB40EE
:1010500022FA05FC4CEA030C01FA07F420FA05F821
:1010600021FA05F34FEA1C4E48EA0404B3FBFEF9EB
:10107000210C0EFB19331FFA8CF841EA034309FBDC
:1010800008FA9A4502FA07F200FA07F10BD91CEBAD
:10109000030309F1FF3080F088809A4540F2858093
:1010A000A9F102096344A3EB0A03A4B2B3FBFEF067
:1010B0000EFB103344EA034400FB08F8A04508D9AE
:1010C0001CEB040400F1FF336BD2A04569D9023850
:1010D000644440EA0940A4EB0804A0FB02894C45A3
:1010E000C6464B4654D351D0002E69D0B1EB0E0208
:1010F00064EB030404FA05F522FA07F3FC401D43F0
:10110000C6E90054002746E73746304643E718460D
:1011100037E707461FE7C2F1200320FA03F795409F
:1011200001FA02F021FA03F34FEA154E3843010C9D
:10113000B3FBFEF71FFA85F80EFB173341EA0341B4
:1011400007FB08F38B4204FA02F407D9691807F188
:10115000FF3C28D28B4226D9023F2944CB1A81B2C8
:10116000B3FBFEF00EFB103341EA034100FB08F332
:101170008B4207D9691800F1FF3C10D28B420ED97F
:1011800002382944C91A40EA074714E74145ABD25F
:10119000B8EB020E69EB0C0201381346A4E7604677
:1011A000F0E7184695E76746D8E781467BE738467B
:1011B00045E7ACF1020C2B4410E702382C4421E740
:1011C0003746E8E6704700BF80B500AF002103480E
:1011D00007F00EFA0123184680BD00BF900A0020D8
:1011E00080B582B000AF78600121034807F000FAB3
:1011F00000BF0837BD4680BD900A00202DE9F04FA2
:1012000087B000AFF86005F0D9FB82468B46FB68DB
:101210001D464FF000062B4634464FF000014FF0BC
:101220000002620142EAD36259010B4614465B1B7D
:1012300064EB06044FF000014FF00002620242EA44
:10124000D35259020B4614465B1946EB04044FF087
:1012500000014FF00002A20142EA93629901C91A0B
:1012600062EB040211EB050842EB06091AEB0803D6
:101270003B604BEB09037B60D7E90034C7E90434DA
:101280000022D7E904010FF04BF900BF1C37BD461F
:10129000BDE8F08F80B584B000AFF860B9607A60C7
:1012A0003B600021194807F048F9194809F040FE51
:1012B000034683F00103DBB2002B00D0F5E7FA68A8
:1012C000B968134809F04AFE114809F031FE034697
:1012D00083F00103DBB2002B00D0F5E77A683968B0
:1012E0000B4809F03BFE0A4809F022FE034683F052
:1012F0000103DBB2002B00D0F5E70121034807F022
:101300001CF900BF1037BD4680BD00BF740A002025
:10131000580A002080B584B000AFF860B9607A60E8
:101320003B600021194807F008F9194809F000FE50
:10133000034683F00103DBB2002B00D0F5E7BA6867
:10134000F968134809F00AFE114809F0F1FD034657
:1013500083F00103DBB2002B00D0F5E73A6879682F
:101360000B4809F091FE0A4809F0EDFD034683F0B1
:101370000103DBB2002B00D0F5E70121034807F0A1
:10138000DCF8002318461037BD4680BD740A0020E3
:10139000580A002080B584B000AFB9607A603B6025
:1013A0000346FB81F8893B687A68B968FFF772FFEA
:1013B000002318461037BD4680BD80B584B000AF0D
:1013C000B9607A603B600346FB81F9897B683A68C3
:1013D000B868FFF79FFF002318461037BD4680BD51
:1013E00080B584B002AF786039607B68012B14D17E
:1013F0003B684FF6FF7293420FD1072300930623F9
:1014000005220121074809F06FFA0421064806F079
:101410005FFF2821054806F05BFF00BF0837BD4687
:1014200080BD00BF580A0020740A0020900A0020E6
:1014300080B500AF4FF6FF710120FFF7D1FF80BDEF
:1014400080B500AF012301220121074806F06EFF9D
:10145000064809F03FFC064B1B680022194603486A
:1014600009F084FA00BF80BD740A0020580A0020E9
:101470000000002080B584B000AF0346FB71074B2D
:101480001A68FB79B2FBF3F3FB60FA6800210448A9
:1014900009F0D6FC00BF1037BD4680BD000000201B
:1014A000580A002080B584B000AF0346FB710B469C
:1014B000BB801346BB71BB79DB01DBB25AB2FB794F
:1014C0005BB213435BB2DBB2FB7100211E4807F035
:1014D00034F8BB88002B2CD0FB7943F04003DBB2FF
:1014E000BB7307F10C03023301221946174809F0B8
:1014F00035FDBB887F2B11D9BB88DBB263F07F033E
:10150000DBB23B73BB88DB11DBB27B7307F10C03EF
:10151000022219460D4809F021FD10E0BB88DBB21C
:101520003B7307F10C0301221946084809F016FD28
:1015300005E0FB1D01221946044809F00FFD00BF1C
:101540001037BD4680BD00BF740A0020580A002035
:1015500080B584B000AFBA607B600346FB730B4676
:10156000BB81B989FB7B00221846FFF79BFF7B6894
:101570001A46B968054809F087FD0121044806F0BC
:10158000DCFF00BF1037BD4680BD00BF580A0020F9
:10159000740A002080B584B000AF03460A46FB7190
:1015A0001346BB8007F10F02B988F8790123FFF7D2
:1015B000CFFFFB7B18461037BD4680BD80B584B099
:1015C00000AFBA607B600346FB730B46BB81B989F1
:1015D000FB7B01221846FFF765FF7B681A46B96856
:1015E000054809F0BBFC0121044806F0A6FF00BF36
:1015F0001037BD4680BD00BF580A0020740A002085
:1016000080B582B000AF0346FB710B46BB8013462A
:10161000BB71BA1DB988F8790123FFF7CFFF00BF6E
:101620000837BD4680BD80B500AFFFF709FF00BF9A
:1016300080BDF0B585B000AF00213620FFF7AAFFCE
:101640000346FB73FB7B23F00303DBB243F0010390
:10165000FB73FB7B1A4600213620FFF7D1FF0321E5
:101660003620FFF797FF0346FB73FB7B03F00F0366
:10167000FB73FB7B1A4603213620FFF7C1FF05F001
:101680009DF90A46014642F210734FF00004CD184E
:1016900042EB0406C7E9005605F090F90A460146F8
:1016A000D7E90034994272EB0403B4BF012300234D
:1016B000DBB2002B00D0EFE7FB7B63F00F03FB7383
:1016C000FB7B1A4603213620FFF79AFF00BF143731
:1016D000BD46F0BD80B500AF2020FFF7CBFE00BFB8
:1016E00080BD80B500AF0120FFF7C4FE00BF80BD04
:1016F00080B586B000AF0346FB8004237B730023D4
:10170000FB8200233B614F4B00225A754D4B002258
:101710001A634C4B002283F825204A4B002283F8A1
:101720002C20484B00229A83464B00225A63454B9B
:1017300000229A6300F08AF80246424B1A60414B3D
:101740001B68414A934202D04FF0FF3375E00020FE
:1017500000F004FD07F10D0301220021242000F018
:101760007DFA1E2000F0C6FB0346FB82FB8A1B0AA3
:101770009BB2DAB2334B9A73042000F0BBFB3861A2
:101780003B69DBB2002B0FD002233B7307F10C0344
:10179000012212212D2000F061FA2A4B9B8B43F489
:1017A00080539AB2274B9A83062000F0A3FB02468F
:1017B000244B5A60072000F09DFB0246214B9A60A3
:1017C000FB8ADBB203F01F03DAB21E4B1A751D4B06
:1017D0001B7D002B02D11B4B10221A75194B1B7D50
:1017E000184600F0B0FEFB8803F00103002B09D07F
:1017F00000F0F0FB134B9B8B43F400639AB2114B48
:101800009A830FE00521362000F00BFB0346FB8195
:10181000FB8923F40073FB81FB891A4605213620DE
:1018200000F021FB012000F099FC0021042000F0D1
:10183000CCFA0246034B9A61002318461837BD467E
:1018400080BD00BFAC0A00203001CADE80B500AF09
:101850000021002000F0B9FA0346184680BD0000C0
:1018600080B586B000AF78600023FB750023BB75A0
:101870007B681B78FB747B685B791A46A14B33F855
:101880001230BB827B685B78013B9F4A13639E4B9F
:101890001B6BBB74FB7C042B02D0FB7C072B01D1A0
:1018A000012300E000237B747B681A78964B1A733F
:1018B0007B68DB79002B09D1934B9B6943F4800350
:1018C000914A9361BB8ADB08BB8205E08E4B9B6922
:1018D00023F480038C4A93617B681A7A8A4B5A738B
:1018E000894B9A697B681B7A1B0403F440331343CA
:1018F000854A9361844B9B691A460021042000F0BD
:10190000D0FABB8A1A4642F604012E2000F0ABFA48
:10191000BB7C184600F03AFBFB7C7C4AD35C1A4641
:1019200013469B0013447A4A1344052207212B20B7
:1019300000F094F97B7C774A134401220B21282084
:1019400000F08CF9FB7C714AD35C1A46724B53F859
:1019500022301A460C21282000F0A3FA7B68DB799C
:1019600018467B689B7919466C4A43000B4432F851
:1019700013301A460221272000F075FABB7C684A12
:1019800032F813301A460421272000F06CFA7B68E5
:10199000DB79002B05D164220621272000F063FAB1
:1019A00020E07B689B78042B0ED11023FB72102261
:1019B0000621272000F057FA07F10B030122262108
:1019C000272000F04BF90DE02823BB7220220621CE
:1019D000272000F048FA07F10A03012226212720D8
:1019E00000F03CF9BB7C7A68D27811464D4A9B00E6
:1019F0000B4452F823301A460821272000F051FAF0
:101A00007B68B3F809309BB2002B08D17B680022B9
:101A100042F041025A72002242F010029A727B6830
:101A2000B3F809309BB21A462021272000F01BFA98
:101A30003D4B1B681A460C21232000F032FABB7C78
:101A4000394A5B0013449B881A460421232000F086
:101A50000AFA7B689B79002B0DD07B68DB791A46EC
:101A6000324B134401220021212000F0F7F8032318
:101A7000FB750123BB75FB7C03F00F02FB7C1B0194
:101A8000DBB21A437B685B789B0403F440231A4360
:101A9000FB7D1B0503F440131A43BB7D5B0403F479
:101AA00000331A437B681B799B0503F0F8631343EB
:101AB0007A685279D2061343FB60FA6800211F202E
:101AC00000F0EFF97B689A787B685B781343DBB2B0
:101AD0001B041A460C4B1A610B4B1B697A68D279AE
:101AE0005203134343F40043074A1361064B1B6937
:101AF0001A460021082000F0D4F9002318461837B0
:101B0000BD4680BDF8470108AC0A002078470108AF
:101B100098470108B847010880470108C8470108ED
:101B2000D4470108D8470108BC470108C447010849
:101B300080B582B000AF0346FB80FB881A4641F6B1
:101B400004012E2000F08FF900BF0837BD4680BD8C
:101B500080B582B000AF0346FB80FB881A460021A7
:101B6000182000F080F900BF0837BD4680BD80B561
:101B700082B000AF03463960FB801346BB80BA8851
:101B8000FB881344B3F5806F02DD4FF0FF3308E0AC
:101B9000FB88023B1A46B9883B68092000F05EF8D2
:101BA000002318460837BD4680BD000080B584B0CC
:101BB00000AF03460A46FB801346BB80084B1A69F8
:101BC000FB881343BA8892051343FB60FA6800212F
:101BD000082000F066F9002318461037BD4680BD86
:101BE000AC0A002080B582B000AF78600B467B80E5
:101BF00013463B807A8839887B68112000F08BF887
:101C000000BF0837BD4680BD80B582B000AF7860A8
:101C10007B6805220021172000F07DF800BF0837FF
:101C2000BD4680BD80B582B000AF78607B6805227C
:101C30000021152000F06FF800BF0837BD4680BDB9
:101C400080B582B000AF78607B6805220021062055
:101C500000F061F800BF0837BD4680BD80B586B092
:101C600000AFBA607B600346FB810B46BB8100235B
:101C70007B61BB89002B0DD1FB89DAB27B69591CD2
:101C8000796162F07F02D2B207F118010B4403F8C8
:101C9000082C33E0FB89DAB27B69591C796162F068
:101CA0003F02D2B207F118010B4403F8082CBB899C
:101CB0007F2B0AD87B695A1C7A61BA89D2B207F1A4
:101CC00018010B4403F8082C18E0BB89DAB27B69D1
:101CD000591C796162F07F02D2B207F118010B44FE
:101CE00003F8082CBB89DB0999B27B695A1C7A611D
:101CF000CAB207F118010B4403F8082C7B6998B2AB
:101D000007F110017B68BA68FFF744FB03461846E9
:101D10001837BD4680BD80B586B000AFBA607B6025
:101D20000346FB810B46BB8100237B61BB89002BF3
:101D30000AD17B695A1C7A61FA89D2B207F118017B
:101D40000B4403F8082C33E0FB89DAB27B69591C99
:101D5000796142F04002D2B207F118010B4403F856
:101D6000082CBB897F2B0AD87B695A1C7A61BA89F7
:101D7000D2B207F118010B4403F8082C18E0BB8914
:101D8000DAB27B69591C796162F07F02D2B207F145
:101D900018010B4403F8082CBB89DB0999B27B6955
:101DA0005A1C7A61CAB207F118010B4403F8082CD7
:101DB0007B6998B207F110017B68BA68FFF7FDFAFA
:101DC000034618461837BD4680BD80B586B000AFC3
:101DD000786039604FF0FF337B617B6898B23B6875
:101DE00099B207F108030422FFF795FFF860FB683A
:101DF000002B11D103233B610BE07B691B0207F130
:101E000008013A690A44127813447B613B69013B3B
:101E10003B613B69002BF0DA7B6918461837BD46F9
:101E200080BD80B586B000AF786039604FF6FF7333
:101E3000FB827B6898B23B6899B207F10C030222DF
:101E4000FFF769FF38613B69002B07D17B7B9BB2B1
:101E50001B029AB23B7B9BB21344FB82FB8A18465F
:101E60001837BD4680BD80B586B000AFF860B96058
:101E70001346FB80FB88DBB23B74FB881B0A9BB2DA
:101E8000DBB27B74FB6898B2BB6899B207F11003B0
:101E90000222FFF7E3FE78617B6918461837BD46DA
:101EA00080BD80B588B000AFF860B9607A6000236B
:101EB000FB610DE07B68D9B207F11402FB691344A2
:101EC0000A461A707B681B0A7B60FB690133FB6161
:101ED000FB69032BEEDDFB6898B2BB6899B207F192
:101EE00014030422FFF7BAFEB861BB691846203715
:101EF000BD4680BD80B584B000AF78607B681B0AAA
:101F0000DBB27B727B68DBB23B7207F10803022213
:101F100004212D20FFF7A2FE03233B7207F10803E3
:101F2000012206212D20FFF799FE00233B7207F1C5
:101F30000803012206212D20FFF790FE0A212D2003
:101F4000FFF743FFF860FB6818461037BD4680BDB9
:101F500080B584B000AF786004213620FFF735FFEC
:101F6000F8607B68002B04D0FB6843F40063FB60DF
:101F700003E0FB6823F40063FB60FA680421362069
:101F8000FFF78FFF00BF1037BD4680BD80B584B01E
:101F900000AF78606D23FB7307F10F03012240F659
:101FA00006012E20FFF75AFE7B68002B07D040F277
:101FB000076241F606012E20FFF755FF06E041F2C9
:101FC000076241F606012E20FFF74DFF00BF1037D4
:101FD000BD4680BD80B582B000AF03237B71012375
:101FE0003B713B1D022200213620FFF737FE4FF4E4
:101FF000004206212D20FFF736FF0120FFF7FEF8F3
:10200000012000F0ABF800BF0837BD4680BD0000DE
:1020100080B582B000AF786000210420FFF7D5FEC4
:1020200002460E4B9A617B68002B06D00B4B9B69D6
:1020300023F48023094A936105E0084B9B6943F42C
:102040008023064A9361054B9B691A4600210420B0
:10205000FFF727FF00BF0837BD4680BDAC0A002050
:1020600080B584B000AF0346FB71FB7903F0010338
:10207000002B40D007F10C03022200212620FFF79D
:102080004AFE7B7B23F03C03DBB27B737B7B43F01C
:102090001003DBB27B733B7B03F03F03DBB23B738C
:1020A0003B7B43F04003DBB23B7307F10C0302229E
:1020B00000212620FFF7D2FD07F10C0301220221A7
:1020C0003620FFF728FE3B7B63F07B03DBB23B73DC
:1020D00007F10C03012202213620FFF7BFFD102378
:1020E0003B7301237B7307F10C0302222821362066
:1020F000FFF7B4FD17E0FB7903F00103002B12D1C9
:1021000007F10C03022200212620FFF704FE7B7B4F
:1021100023F01403DBB27B7307F10C0302220021CE
:102120002620FFF79BFDFB7903F00203002B11D063
:102130000F233B7307F10C0301222A213620FFF7FE
:102140008DFD00233B7307F10C0301222A21362069
:10215000FFF784FD00BF1037BD4680BD80B584B059
:1021600000AF786007F10C03022200213620FFF750
:10217000D2FD7B680D2B6FD801A252F823F000BF6F
:10218000C9210008B9210008DF21000859220008F0
:10219000592200085922000859220008F521000898
:1021A0001522000859220008592200082B22000895
:1021B000372200084322000800233B737B7B23F077
:1021C0000103DBB27B7348E03B7B5BB223F003038C
:1021D0005BB243F001035BB2DBB23B733DE03B7BA0
:1021E0005BB223F003035BB243F002035BB2DBB2EA
:1021F0003B7332E03B7B5BB223F04C035BB243F0BA
:1022000048035BB2DBB23B737B7B63F07F03DBB2E3
:102210007B7322E03B7B23F04C03DBB23B737B7B85
:1022200003F07F03DBB27B7317E07B7B43F0020399
:10223000DBB27B7311E07B7B23F00203DBB27B73A9
:102240000BE03B7B5BB223F030035BB243F0200337
:102250005BB2DBB23B7300E000BF07F10C0301226D
:1022600000213620FFF7FAFC07F10C0301330122AD
:1022700001213620FFF7F2FC00BF1037BD4680BDBC
:1022800080B582B000AF78607A6801210A20FFF73C
:1022900008FE00BF0837BD4680BD000080B584B091
:1022A00000AF0346FB710023FB6000237B72002319
:1022B0007B81FB7903F00203002B0CD080237B721F
:1022C00007F10903012200210D20FFF7C7FC234B72
:1022D000012283F82C20FB7903F00103002B2CD082
:1022E0007B7A43F00603DBB27B7207F1090301221C
:1022F00000210D20FFF7B2FC03210F20FFF791FD15
:1023000003467B817B8903F48063002B02D1002389
:10231000FB601EE040237B7207F1090301220021CC
:102320000D20FFF79BFC0020FFF712FE0B4B002255
:1023300083F82C204FF0FF330CE07B7A43F002034C
:10234000DBB27B7207F10903012200210D20FFF7A8
:1023500085FCFB6818461037BD4680BDAC0A0020DE
:1023600080B584B000AF4023FB7100210E20FFF741
:102370002CFDF860FEF728FFB860002200210E2037
:10238000FFF78FFDFB1D012200210D20FFF766FCEA
:102390000B4A00210F20FFF784FD00F015F8FA68C2
:1023A00000210E20FFF77DFDB868FEF719FF054BF1
:1023B000002283F82C2000BF1037BD4680BD00BF2F
:1023C000F8FF2724AC0A002080B582B000AFFB1DC7
:1023D000012203210F20FFF79EFCFB791A46FB79AF
:1023E0005B00534003F08003002B07D00123BB7137
:1023F000BB1D012203210D20FFF730FC00BF083771
:10240000BD4680BD80B584B000AF786000237B738B
:10241000FFF7DAFF4FF48073FB817B68002B03D05A
:10242000FB8943F40073FB81FB891A4600210D20D0
:10243000FFF719FD7B68002B19D007F10D0301226E
:1024400003210F20FFF767FC7B7B03F00803002BC1
:102450000DD0FFF785FF4FF48073FB81FB891A468F
:1024600000210D20FFF7FFFC4FF0FF3300E00023B9
:1024700018461037BD4680BD80B584B000AF034616
:10248000FB8007F10F03012203210420FFF743FC27
:10249000FB88002B18D0FB881A4600210C20FFF780
:1024A000E2FCFB7B43F01003DBB2FB73114B9B6937
:1024B00043F080530F4A936107F10F030122032178
:1024C0000420FFF7CBFB11E0FB7B23F01003DBB212
:1024D000FB73084B9B6923F08053064A936107F115
:1024E0000F03012203210420FFF7B8FB00BF1037C0
:1024F000BD4680BDAC0A002080B584B000AF7860D6
:102500000B46FB70FEF760FEB86000210E20FFF75F
:102510005CFCF860FB78002B04D0FA687B681343FE
:10252000FB6004E07B68DB43FA681340FB60FA68F9
:1025300000210E20FFF7B5FCB868FEF751FE00BF82
:102540001037BD4680BD80B584B000AF0346FB7137
:1025500007F10F0301220E212B20FFF7DCFBFB7B91
:1025600023F01F03DBB2FB73FB7903F01F03DAB226
:10257000FB7B1343DBB2FB7307F10F0301220E2138
:102580002B20FFF76BFB00BF1037BD4680BDB0B4FA
:1025900085B000AF78607B68002B6BD07B685B6890
:1025A000002B67D07B681B6803F00103002B61D010
:1025B0007B681B68012B5DD90023FB6042E07B68D0
:1025C0005A68FB681B01134400221A607B68596833
:1025D000FB6801337A681268B3FBF2F002FB00F289
:1025E0009B1A1A017B685868FB681B0103440A4464
:1025F0005A607B685968FB6801337A681268B3FBDC
:10260000F2F002FB00F29B1A1A017B685868FB6823
:102610001B0103440A449A607B685868FB681901EF
:102620007B685C68FB6801337A681268B3FBF2F57B
:1026300002FB05F29B1A1B0123444218DA60FB6877
:102640000133FB607B681B68FA689A42B7D37B68EA
:102650005A687B689A607B685A687B68DA607B6836
:102660005A687B681B685B081B011A447B681A6107
:10267000002301E04FF0FF3318461437BD46B0BCCD
:10268000704780B487B000AF786039607B689A6823
:102690007B68DB689A4204D17B68DB689A687B6858
:1026A000DA607B689A687B681B699A4207D07B680E
:1026B0009B681A687B681B691B689A4204DD7B680B
:1026C0001B69DA687B681A617B689B68FB60FB6842
:1026D0003A681A607B689A687B689B689B68D268D6
:1026E000DA607B689A687B689B68DB6892689A60AE
:1026F0007B689B685A687B689A607B68DB683B6193
:1027000000237B6111E03B691B683A689A4206DA54
:102710007B69002B10D17B68FA68DA600CE03B69BA
:102720009B683B617B6901337B617B681B68013B74
:102730007A699A42E7D300E000BF3B69DB68FA6838
:102740009A603B69DA68FB68DA603B69FA68DA60CC
:10275000FB683A699A607B681B685B087A699A42F1
:1027600004D37B681B699A687B681A617B681B6964
:102770001B6818461C37BD465DF8047B704780B562
:1027800084B000AF03463960FB800023FB73FB88F5
:102790003A6840F20F11184600F0B8FB03461A469B
:1027A000FB7B1343FB73FB7B18461037BD4680BD94
:1027B00080B584B000AF0346FB800023FB73012388
:1027C0007B7300237B8107F10902FB88E521184612
:1027D00000F0D8FB03461A46FB7B1343FB737B7A5E
:1027E000032B02D100237B730BE07B89B3F57A7F47
:1027F00003D27B8901337B8103E000237B73FF23BA
:10280000FB73FB880121184600F06AFC7B7B012BDF
:1028100000D1D8E72D23BB73BB7B872B12D8BB7BA2
:1028200099B2BB7B2D3B444AD25CFB88184600F032
:10283000D3FB03461A46FB7B1343FB73BB7B01337D
:10284000BB73E9E7FB8840228721184600F0C4FBF0
:1028500003461A46FB7B1343FB7300237B81012352
:102860007B7307F10902FB881146184600F0C6F891
:1028700003461A46FB7B1343FB737B7A012B02D181
:1028800000237B730BE07B89B3F57A7F03D27B89CE
:1028900001337B8103E000237B73FF23FB73FB8801
:1028A0000121184600F01CFC7B7B012B00D1D8E7EE
:1028B000FB88184600F042F803461A46FB7B134398
:1028C000FB73FB88184600F082F803461A46FB7B30
:1028D0001343FB73FB8809220821184600F07CFB98
:1028E00003461A46FB7B1343FB73FB8800220B2134
:1028F000184600F071FB03461A46FB7B1343FB733B
:10290000FB884FF4A0622421184600F093FB034695
:102910001A46FB7B1343FB73FB88002232211846C7
:1029200000F0B0F803461A46FB7B1343FB73FB7BB6
:1029300018461037BD4680BD2C48010880B584B0CC
:1029400000AF0346FB800023FB73FB880122862136
:10295000184600F041FB03461A46FB7B1343FB730A
:10296000FB7B18461037BD4680BD80B584B000AFF4
:102970000346FB800023FB7307F10802FB886C21F0
:10298000184600F085FA03461A46FB7B1343FB7397
:10299000BB68002B0BD1FB8821228721184600F051
:1029A0001BFB03461A46FB7B1343FB730AE0FB88C1
:1029B00040228721184600F00FFB03461A46FB7B96
:1029C0001343FB73FB7B18461037BD4680BD80B5B3
:1029D00084B000AF0346FB800023FB73FB8800221A
:1029E0008721184600F0F8FA03461A46FB7B13438A
:1029F000FB73FB7B18461037BD4680BD80B584B0A5
:102A000000AF03463960FB800023BB7307F10D0262
:102A1000FB883021184600F0B5FA03461A46BB7B06
:102A20001343BB737B7B03F01003DBB27B737B7BB5
:102A30001B11DBB27B737B7B012B02D10023FB7369
:102A400001E00123FB7307F10D02FB8831211846D9
:102A500000F098FA03461A46BB7B1343BB737B7B9B
:102A600003F00102FB7B9A4203D13B6801221A70FA
:102A700002E03B6800221A70BB7B18461037BD4647
:102A800080BD000080B58CB000AF0346B9607A60AD
:102A9000FB81002387F82F300023BB6200237B6279
:102AA000864BFB6107F11402FB890621184600F0F2
:102AB0002DFA03461A4697F82F30134387F82F3024
:102AC000BB8A002B12D0BB684FF47A7202FB03F36F
:102AD0007B62BB8A1A464FF08043B3FBF2F2134687
:102AE000DB0013441B029B09BB6205E097F82F3003
:102AF00063F0010387F82F30BB68092B06D9BB6848
:102B0000C82B03D897F82F30002B06D097F82F301A
:102B100063F0010387F82F305EE07B68002B11D152
:102B2000FB8900226C21184600F0AEFA03461A46D3
:102B300097F82F30134387F82F307B6AA3F6C4131E
:102B40007B6249E07A68BB689A423FD907F1160276
:102B5000FB89DE21184600F0D9F903461A4697F89A
:102B60002F30134387F82F30FB8AC3F309039BB23E
:102B7000FB827B6807EE903AB8EE677AD7ED077A6A
:102B800027EE277AFB8A07EE903AF8EE677A67EE2F
:102B9000277AC7ED077AD7ED077AFCEEE77AFB894B
:102BA00017EE902A6C21184600F06EFA03461A467A
:102BB00097F82F30134387F82F307B6AA3F586539D
:102BC0000C3B7B627B6A5B087B6205E097F82F30E9
:102BD00063F0010387F82F3097F82F30FE2B67D072
:102BE0000023BB857B6A1B037B62BB6A1B01BB6145
:102BF000BB69DA097B6A1A44BB699B09B2FBF3F330
:102C0000013B3B623B6A23F0FF03002B06D03B6A8B
:102C10005B083B62BB8D0133BB85F3E7BB8D1B02B9
:102C20009AB23B6A9BB2DBB29BB21344BB85BA8DAE
:102C3000FB895E21184600F0FDF903461A4697F815
:102C40002F30134387F82F300023BB85BA6A134611
:102C50005B0013449B00BB61BB69DA097B6A1A44C1
:102C6000BB699B09B2FBF3F3013B3B623B6A23F078
:102C7000FF03002B06D03B6A5B083B62BB8D013330
:102C8000BB85F3E7BB8D1B029AB23B6A9BB2DBB2FA
:102C90009BB21344BB85BA8DFB896121184600F0B5
:102CA000C9F903461A4697F82F30134387F82F3097
:102CB00097F82F3018463037BD4680BD3D0A873F14
:102CC000B0B58AB000AF03463960FB80002387F8B7
:102CD0002730524B07F108041D460FCD0FC495E86D
:102CE000030084E8030007F12302FB8889211846CA
:102CF00000F048F903461A4697F82730134387F83F
:102D0000273097F8233003F01F03DBB287F8233016
:102D100097F82330172B08D897F8233007F12802AB
:102D2000134413F8203C87F8233097F823203B689E
:102D30001A7007F12402FB888C21184600F0E6F88F
:102D400003461A4697F82730134387F82730BB8C81
:102D50001B0A9AB23B689A8107F12402FB888E21F4
:102D6000184600F0D3F803461A4697F82730134365
:102D700087F82730BB8CDB009AB23B681A8107F1D9
:102D80002402FB889021184600F0C0F803461A463A
:102D900097F82730134387F82730BB8CDB009AB2B3
:102DA0003B689A8007F12402FB889221184600F0C4
:102DB000ADF803461A4697F82730134387F82730B3
:102DC000BB8C9B089AB23B68DA8107F12402FB882E
:102DD0009621184600F09AF803461A4697F82730CD
:102DE000134387F82730BA8C3B685A803B681A89AE
:102DF0003B689B89B2FBF3F39AB23B685A813B680C
:102E00009A883B689B89B2FBF3F39AB23B68DA80FD
:102E100097F8273018462837BD46B0BD5C3B0108FF
:102E200080B500AF0249034805F0CCFD00BF80BD6E
:102E3000A0860100E80A002080B584B000AF0346F8
:102E40000A46FB711346BB800023FB73BB88BB7330
:102E5000FB79032B01D9FF2314E0FB79012202FA4D
:102E600003F3DBB23B7307F10C02B97B0123074884
:102E700005F0FEFE0346012B01D1002300E0FF23F5
:102E8000FB73FB7B18461037BD4680BDE80A002067
:102E900080B588B002AF03463A60FB800B46BB802A
:102EA000FB88FB750023BB7500233B610023BB81BE
:102EB000BB88DBB27B7307F10C02F97D042301931D
:102EC00007F11003009302230F4805F003FF0346A8
:102ED000042B01D1002300E0FF23BB75BB7D002B39
:102EE0000DD1FB7C1A46BB7C1B021A437B7C1B0466
:102EF0001A433B7C1B0613431A463B681A60BB7D92
:102F000018461837BD4680BDE80A002080B586B057
:102F100002AF03463A60FB800B46BB80FB88FB7325
:102F20000023BB7300233B7300237B7300233B818F
:102F3000BB88DBB27B7207F10802F97B02230193A5
:102F400007F10C03009302230D4805F0C3FE03466E
:102F5000022B01D1002300E0FF23BB73BB7B002BBE
:102F600009D17B7B1AB23B7B1B021BB213431BB202
:102F70009AB23B681A80BB7B18461037BD4680BDAD
:102F8000E80A002080B586B002AF03463A60FB80B5
:102F90000B46BB80FB88FB730023BB730023BB8104
:102FA000BB88DBB27B7307F10C02F97B0123019331
:102FB0003B6800930223074805F08CFE0346012B73
:102FC00001D1002300E0FF23BB73BB7B1846103701
:102FD000BD4680BDE80A002080B584B000AF03463E
:102FE000FB800B46BB801346FB70FB88FB73002302
:102FF000BB7307F1080300210A461A800A469A703B
:10300000BB88DBB27B72FB78BB7207F10802F97BED
:103010000323074805F02CFE0346032B01D10023B0
:1030200000E0FF23BB73BB7B18461037BD4680BD55
:10303000E80A002080B584B000AF0346FB800B4651
:10304000BB8013467B80FB88FB730023BB7300238C
:10305000BB60BB88DBB27B727B88DBB2FB7207F1A3
:103060000802F97B0423074805F002FE0346042BFF
:1030700001D1002300E0FF23BB73BB7B1846103750
:10308000BD4680BDE80A002080B584B000AF03468D
:103090003A60FB800B46BB80FB88FB730023BB734D
:1030A00007F1080300221A609A80BB88DBB27B72AA
:1030B0003B68DBB27B7307F10802F97B0623074804
:1030C00005F0D6FD0346062B01D1002300E0FF23C7
:1030D000BB73BB7B18461037BD4680BDE80A002095
:1030E00080B485B000AF03463960FB800023FB73DA
:1030F000FB7B18461437BD465DF8047B7047000023
:1031000080B582B000AF786039607B68012B0AD14E
:103110003B684FF6FF72934205D117231622012117
:10312000034805F007FC00BF0837BD4680BD00BF5F
:10313000E80A002080B500AF4FF6FF710120FFF7CD
:10314000DFFF80BD80B582B000AF7860074A7B6842
:103150001A60074803F0BEF87B680433184603F092
:103160006BFA7B6818460837BD4680BD0C4A0108DB
:10317000743B010880B582B000AF78607868FFF7D3
:10318000E1FF3021786803F0DAFA7B6818460837E7
:10319000BD4680BD80B483B000AF7860044A7B68D0
:1031A0001A607B6818460C37BD465DF8047B704793
:1031B000E448010880B582B000AF78607868FFF716
:1031C000E9FF0421786803F0BAFA7B6818460837EB
:1031D000BD4680BD80B584B000AFF860B9607A604C
:1031E0003B60044803F076F8002318461037BD46CC
:1031F00080BD00BF883B010880B483B000AF786019
:1032000000BF0C37BD465DF8047B704780B483B0C7
:1032100000AF786000BF0C37BD465DF8047B704797
:1032200080B483B000AF786000BF0C37BD465DF856
:10323000047B704780B483B000AF7860044A7B6839
:103240001A607B6818460C37BD465DF8047B7047F2
:10325000D048010880B582B000AF786039607868E6
:103260004FF4FA634FF47A7239680DF01BF87B68FB
:1032700050331846FFF7DEFF054A7B681A60054A9F
:103280007B681A657B6818460837BD4680BD00BF5D
:10329000A4480108BC48010880B584B000AF78603C
:1032A00003F076F9F860FB680A4A934204D0FB68A1
:1032B000094A934205D009E07B68002283F89020F8
:1032C00004E07B68012283F8902000BF00BF103724
:1032D000BD4680BD54002C0052004B000000000091
:1032E0002DE9F04F85B000AF78607B6893F890309F
:1032F00019463B4802F0A6FF3A4802F0FBFB03F0F8
:103300005DFB03460C467A68C2E922340020FEF7D2
:103310007FFE354A00211E20FEF7C3FD7B6893F82F
:103320009030002B20D17B68D3E922AB03F046FB21
:1033300003460C46534574EB0B03ACBF012300233B
:10334000DBB2002B10D00121786800F071F803F097
:1033500035FB0A4601461EA4D4E90034CD1842EBE1
:1033600004067B68C3E9225602211920FEF759FDA5
:103370000346FB81FB8903F00403002B02D10020EC
:10338000FFF740F87B6893F89030002B08D17B68FA
:10339000D3E922341A462346144803F071F80FE0AB
:1033A00003F00CFB0A4601460BA4D4E9003411EBF0
:1033B000030842EB040942464B460C4803F060F810
:1033C0000A4805F0D3F9786800F014FAA6E700BFC0
:1033D00080B2E60E0000000000CA9A3B0000000028
:1033E000103C010804000020009A9A00900A002076
:1033F00080B586B002AFF860B9601346FB7107F183
:10340000080304221946084803F064F9FB6893F89E
:103410009000F979002300930E23044A02F0A6FCE1
:1034200000BF1037BD4680BD4C0000204400002086
:1034300090B585B002AF78600B46FB707B6893F85F
:103440009000F978002300930A23074A02F08EFCCB
:1034500002F07CFB03460C467A68C2E9163400BFD2
:103460000C37BD4690BD00BF1000002090B585B060
:1034700002AF78600B46FB707B6893F89000F97898
:10348000002300930A23074A02F070FC02F05EFB5F
:1034900003460C467A68C2E91A3400BF0C37BD46B1
:1034A00090BD00BF1C0000202DE9F04389B002AFA1
:1034B00078600B46FB7002F01CFC0A46014626A40D
:1034C000D4E9003411EB030842EB0409C7E904898D
:1034D000D7E904124FF000034FF000040B0A43EA4F
:1034E0000263140A1846FEF7CBFED7E9043444F20F
:1034F00034014FF000025D1844EB0206C7E90256A2
:103500007B68D3E916341A4623460F4802F08EFB37
:103510007B68D3E91C341A4623460C4802F086FB2C
:10352000D7E902230A4802F081FB7B6893F89000F8
:10353000F978012300931923064A02F017FC00BF13
:103540001C37BD46BDE8F083300000203500002068
:103550003A0000202800002001006D0B0000000050
:103560002DE9F04FA1B000AFF86302F027FB0A4647
:103570000146FB6BC3E92012FB6B583319469A488E
:1035800002F079FBFB6B70331946984802F073FB2D
:10359000FB6B78331946964802F06DFB4FF0FF3312
:1035A0004FF0FF04C7E91E34FB6BD3E91C12FB6B21
:1035B000D3E91634A24208BF994213D2FB6BD3E978
:1035C0001C3413F1FF3544F1FF06FB6BC3E91C56B5
:1035D000FB6BD3E91E3413F1FF3844F1FF09FB6B99
:1035E000C3E91E89FB6BD3E91E12FB6BD3E91C34C4
:1035F000A24208BF994209D2FB6BD3E91E3413F1F2
:10360000FF3A44F1FF0BFB6BC3E91EABFB6BD3E945
:103610001A12FB6BD3E91834A24208BF99421BD29D
:10362000FB6BD3E91A3413F1FF323A6344F1FF0321
:103630007B63FB6BD7E90C12C3E91A12FB6BD3E96E
:10364000203413F1FF32BA6244F1FF03FB62FB6BDB
:10365000D7E90A12C3E92012FB6BD3E92012FB6BF6
:10366000D3E91A34A24208BF99420DD2FB6BD3E9C9
:10367000203413F1FF323A6244F1FF037B62FB6BAB
:10368000D7E90812C3E92012FB6BD3E91C12FB6BCC
:10369000D3E91634C81AB86162EB0403FB61D7E9B9
:1036A0000601FDF721F803460C46C7E91C34FB6B05
:1036B000D3E92012FB6BD3E91A34C81A386162EBE4
:1036C00004037B61D7E90401FDF70EF803460C46BD
:1036D000C7E91A34FB6BD3E91E12FB6BD3E91C3428
:1036E000C81AB86062EB0403FB60D7E90201FCF77B
:1036F000FBFF03460C46C7E91834FB6BD3E91A12EB
:10370000FB6BD3E91834C81A386062EB04037B60A2
:10371000D7E90001FCF7E8FF03460C46C7E9163479
:10372000D7E91A23D7E91C01FDF714F803460C4624
:1037300025461C46D7E91623D7E91801FDF70AF8F4
:1037400002460B4620462946FCF74CFE03460C4633
:1037500025461C46D7E91A23D7E91C01FCF744FE8D
:1037600002460B4610461946D7E91823FCF73CFEE3
:1037700002460B4610461946D7E91623FCF734FEDD
:1037800002460B4620462946FDF70EF903460C4635
:10379000C7E9143410A3D3E90023D7E91401FCF7D7
:1037A000D9FF03460C46C7E912340DA3D3E9002321
:1037B000D7E91201FCF7CEFF03460C46C7E91034E7
:1037C000D7E91001FDF7A8FA034618468437BD462D
:1037D000BDE8F08FAFF30080FA48CE3B1835B13D1D
:1037E0003333331319DDB141280B00202D0B00209A
:1037F000320B002090B587B000AF78603C4802F0F3
:1038000005FB0346002B6FD0394B5B79FB75384BBA
:103810009B79BB75364B9B787B75354BDB79203BB1
:10382000032B58D801A252F823F000BF3D380008FE
:103830006338000889380008AB3800087B6893F8C3
:103840009030BA7D9A4248D102F0B8F903460C464E
:103850007A68C2E91834FB7D19467868FFF706FEDE
:103860003BE07B6893F89030BA7D9A4237D102F002
:10387000A5F903460C467A68C2E91C34FB7D19465B
:103880007868FFF711FE2AE07B6893F89030BA7DE4
:103890009A4226D17868FFF763FE3861FB7D1A46AD
:1038A00039697868FFF7A4FD1BE07B6893F89030D6
:1038B000BA7D9A4217D107F10C0304220D4918462C
:1038C00002F008FFFB680C4A536001220A490B48CA
:1038D00000F058F807E000BF06E000BF04E000BFBA
:1038E00002E000BF00E000BF00BF1C37BD4690BD36
:1038F000200B0020280B0020B00B0020101500200A
:1039000080B483B000AF7860044A7B681A607B683B
:1039100018460C37BD465DF8047B7047E448010843
:1039200090B583B000AF78607B681846FFF7E8FF7A
:10393000134A7B681A607B681A1D7B68DA617B68B2
:1039400003F10C027B681A627B6803F114027B6846
:103950005A627B68002283F828207A684FF00003BF
:103960004FF00004C2E90E347B68D3E90E347A6864
:10397000C2E90C347B6818460C37BD4690BD00BFC9
:103980009048010880B584B000AFF860B960134674
:10399000FB71F868FA790023B96803F0EDF8034683
:1039A00018461037BD4680BD80B582B000AF786044
:1039B000054A7B681A607B681846FFF7EBFB7B685B
:1039C00018460837BD4680BD9048010880B582B0D2
:1039D00000AF78607868FFF7E7FF4021786802F071
:1039E000AEFE7B6818460837BD4680BD80B582B004
:1039F00000AF7860074A7B681A60074A7B681A65DF
:103A00007B6818460CF0BCFC7B6818460837BD463E
:103A100080BD00BFA4480108BC48010880B582B041
:103A200000AF78607868FFF7E1FF9821786802F0CE
:103A300086FE7B6818460837BD4680BD80B584B0D9
:103A400002AF786039607B68012B2DD13B684FF65F
:103A5000FF72934228D140F2D1721549154802F005
:103A60000DFB154A154913480DF082FB1448FFF76A
:103A700057FF114A134912480DF07AFB00230093B7
:103A8000114B0F4A1149124802F066FE0A4A1149C9
:103A90000F480DF06DFB10491048FFF7DBFB064A9D
:103AA0000F490E480DF064FB00BF0837BD4680BDCE
:103AB000203C0108040B002094160020BD60000883
:103AC000400B0020A9390008443C010810150020D3
:103AD000800B002045310008583C0108B80B00203D
:103AE000ED39000880B584B000AFF860B9607A6045
:103AF0003B607B68082B04D9064802F0EBFB0023EF
:103B000004E03968F86800F007F801231846103718
:103B1000BD4680BD843C0108F0B484B000AF78603D
:103B200039607B68DB693A6892E8030083E8030048
:103B30007B681B6AFB607B68DA697B681A627B685A
:103B4000FA68DA617B6893F82830DBB2002B09D081
:103B50007B68DB69FB607B685A6A7B68DA617B683B
:103B6000FA685A627B68D3E90C345D1C44F10006A4
:103B70007B68C3E90C5600BF1037BD46F0BC7047E8
:103B800080B500AF4FF6FF710120FFF757FF80BDF2
:103B900090B583B000AF786039603868FCF782FD7B
:103BA00003460C461A462346114802F04BFBD7ED5C
:103BB000007AF5EEC07AF1EE10FA12DBD7ED007A5A
:103BC0009FED0C7AF4EEC77AF1EE10FA09D5D7ED35
:103BD000007AFCEEE77A17EE901A786806F0E2FABF
:103BE00002E0054802F02EFB00BF0C37BD4690BD39
:103BF000343D010800008044403D010880B582B09A
:103C000000AF786039603B68012B02D03B68002B25
:103C100005D13B681946786804F08FFC02E0034840
:103C200002F010FB00BF0837BD4680BD603D0108B3
:103C300090B589B000AF786039603968924802F079
:103C400001FB02F0BBFE03460C4618462146FCF77A
:103C500053FD8BA3D3E90023FCF7A6FE03460C46D5
:103C6000C7E9023402F0AAFE03460C461846214674
:103C7000FCF742FD82A3D3E90023FCF795FE03463F
:103C80000C46C7E9063402F099FE03460C46184676
:103C90002146FCF731FD7AA3D3E90023FCF784FE2B
:103CA00003460C4618462146D7E90223FCF79AFB47
:103CB00003460C4618462146FCF7E6FF0346194624
:103CC000724802F0BFFA02F079FE03460C4618462D
:103CD0002146FCF711FD6AA3D3E90023FCF764FE3B
:103CE00003460C4618462146D7E90223FCF77AFB27
:103CF00003460C4618462146FCF7C6FF03467B6187
:103D00007A693B689A4200F3B08002F057FE03469E
:103D10000C4618462146FCF7EFFC59A3D3E90023D3
:103D2000FCF742FE03460C4618462146D7E9062317
:103D3000FCF758FB03460C461846214601231C4657
:103D40004FF000024FF08043FCF780FF0346002B4A
:103D500001D100231C46E3B2002B07D00121786873
:103D600004F0EBFB4A4802F06DFA60E002F026FE38
:103D700003460C4618462146FCF7BEFC40A3D3E997
:103D80000023FCF711FE03460C4618462146D7E9EE
:103D90000623FCF727FB03460C46184621464FF046
:103DA00000024FF08043FCF765FF0346002B22D052
:103DB00002F004FE03460C4618462146FCF79CFC24
:103DC0002FA3D3E90023FCF7EFFD03460C4618466A
:103DD0002146D7E90623FCF705FB03460C461846A7
:103DE00021464FF000022B4BFCF730FF0346002B1F
:103DF00001D0012300E00023002B07D0264802F069
:103E000021FA0021786804F098FB10E002F0D6FD5A
:103E100003460C4618462146FCF76EFC18A3D3E96E
:103E20000023FCF7C1FD03460C46C7E9063402F047
:103E3000C5FD03460C4618462146FCF75DFC10A361
:103E4000D3E90023FCF7B0FD03460C461846214693
:103E5000D7E90223FCF7C6FA03460C46184621466A
:103E6000FCF712FF03467B614AE70021786804F003
:103E700064FB00BF2437BD4690BD00BFAFF3008098
:103E80000000000065CDCD416C3D0108883D010872
:103E9000983D010800001040A03D010880B483B0A7
:103EA00000AF786039600F4A7B681A603B685A68D7
:103EB0007B685A603B689A687B689A603B68DA68FE
:103EC0007B68DA603B681A697B681A613B685A69EB
:103ED0007B685A617B6818460C37BD465DF8047BE9
:103EE000704700BFD049010880B582B000AF78604C
:103EF00039607B683A6811461846FFF7CFFF064ADB
:103F00007B681A603B689A697B689A617B6818468F
:103F10000837BD4680BD00BF0C4B010880B5BAB064
:103F200000AF786039607B68013B032B00F2E880CA
:103F300001A252F823F000BF493F0008B73F000834
:103F40002540000893400008D7ED007AF5EEC07ACE
:103F5000F1EE10FA1AD507F108036B491846FFF77E
:103F6000C3FFD7ED007AF1EE677A17EE902A07F1DA
:103F7000080311461846FFF70BFE0121634804F0C1
:103F8000DCFA0021624804F0D8FAB9E007F1240312
:103F90005D491846FFF7A8FF07F124033968184662
:103FA000FFF7F6FD0021594804F0C7FA01215848EF
:103FB00004F0C3FAA4E0D7ED007AF5EEC07AF1EE92
:103FC00010FA1AD507F1400352491846FFF78CFF43
:103FD000D7ED007AF1EE677A17EE902A07F14003E9
:103FE00011461846FFF7D4FD01214B4804F0A5FA0D
:103FF00000214A4804F0A1FA82E007F15C03454938
:104000001846FFF771FF07F15C0339681846FFF7A0
:10401000BFFD0021404804F090FA01213F4804F020
:104020008CFA6DE0D7ED007AF5EEC07AF1EE10FA79
:104030001AD507F178033A491846FFF755FFD7ED2F
:10404000007AF1EE677A17EE902A07F178031146AD
:104050001846FFF79DFD0121324804F06EFA002159
:10406000314804F06AFA4BE007F194032C491846F2
:10407000FFF73AFF07F1940339681846FFF788FD08
:104080000021284804F059FA0121274804F055FA84
:1040900036E0D7ED007AF5EEC07AF1EE10FA1AD5D7
:1040A00007F1B00321491846FFF71EFFD7ED007A4C
:1040B000F1EE677A17EE902A07F1B0031146184621
:1040C000FFF766FD01211A4804F037FA002119486C
:1040D00004F033FA13E007F1CC0314491846FFF754
:1040E00003FF07F1CC0339681846FFF751FD0021A3
:1040F0000F4804F022FA01210E4804F01EFA00BF16
:1041000000BFE837BD4680BDDC0F0020FC0E00205C
:10411000180F0020F80F0020340F0020500F00204F
:10412000141000206C0F0020880F00203010002099
:10413000A40F0020C00F002090B583B000AF0E2167
:10414000254803F0D1FB07EE900AF8EEE77A9FEDE1
:10415000237AC7EE876A16EE900AFCF7A3FA1AA331
:10416000D3E90023FCF7F6FA03460C46184621462D
:10417000FCF7D2FD03467B607868FCF793FA0346B0
:104180000C461A462346164802F05CF87868FCF79D
:1041900089FA0FA3D3E90023FCF7DCFA03460C46A7
:1041A00018462146FCF7B8FD03463B603868FCF72B
:1041B00079FA03460C461A4623460A4802F042F8AA
:1041C00000BF0C37BD4690BD6666666666660A40EF
:1041D000C3F5285C8FC21240841000200000804587
:1041E000D03D0108E43D010880B584B000AF03462E
:1041F000FB710023FB73614B1B78012B15D0022B45
:104200002BD0002B40F0AF805D4B00221A705D4B2D
:1042100000221A705C4B00221A70FB79242B40F0AC
:10422000A680564B01221A70A1E0554B00221A704D
:10423000544B00221A70544B00221A70FB79242B25
:1042400003D14E4B01221A7092E097F907204F4B91
:104250001A704A4B02221A708AE0FB792B2B02D08B
:10426000FB792D2B1FD1464B1B78002B17D1464BCA
:104270001B78002B13D1424B01221A70424B1B7842
:104280001A4697F90710424B99543F4B1B7801335C
:10429000DAB23D4B1A70394B02221A7062E0374B8A
:1042A00000221A705EE0FB792E2B1BD1354B1B7858
:1042B000002B13D1334B01221A70334B1B781A4653
:1042C00097F90710324B99542F4B1B780133DAB210
:1042D0002D4B1A70294B02221A7049E0274B0022FD
:1042E0001A7045E0FB792F2B1BD9FB79392B18D895
:1042F000254B1B781A4697F90710254B9954224BEA
:104300001B780133DAB2204B1A701F4B1B780C2B31
:1043100003D91A4B00221A7024E0184B02221A709B
:1043200020E0FB79242B03D1144B01221A701FE0EB
:10433000FB79232B12D1144B1B781A46144B002106
:104340009954124B93F90030DBB2184600F03CF858
:104350000346FB73094B00221A7009E0074B002249
:104360001A7005E004E0054B00221A7000E000BF5F
:10437000FB7B18461037BD4680BD00BF7C0D00207A
:104380007D0D00207E0D00207F0D0020800D00207F
:10439000840D002080B582B000AF786039607B6802
:1043A0003A6811461846FFF779FD064A7B681A609D
:1043B0003B689A697B689A617B6818460837BD46F6
:1043C00080BD00BF944A010890B5C5B000AF024659
:1043D000FB1D1A70D44801F035FF0922D249D34899
:1043E00007F056FCFB1D1B78423B2A2B00F2DC81B8
:1043F00001A252F823F000BFCF450008A9470008EA
:1044000035460008A9470008A9470008A947000841
:10441000D7440008A9470008A9470008A947000891
:10442000A9470008A9470008A9470008A9470008AC
:10443000A9470008A9470008A9470008A94700089C
:10444000A5440008A9470008A9470008A947000893
:10445000A9470008A9470008A9470008A94700087C
:10446000A9470008A9470008A9470008A94700086C
:10447000A9470008A9470008A94700089547000870
:10448000A9470008A9470008A9470008A94700084C
:104490006745000875460008B1460008ED4600086B
:1044A00059470008A2480CF069FE03460C4618461E
:1044B0002146FCF731FC0346C7F80C31D7F80C0154
:1044C000FCF7F0F803460C461A462346994801F0DB
:1044D000B9FE012369E196480CF050FE03460C46F4
:1044E00018462146FCF7D0FB0346C7F80831D7F839
:1044F0000811914801F0A6FED7F80831B3F1FF3F4B
:1045000023D18E4801F09EFE4FF000010120FFF7FD
:1045100005FD4FF000010220FFF700FD4FF0000104
:104520000320FFF7FBFC4FF000010420FFF7F6FC2F
:1045300007F1340382491846FFF72CFF07F13403D3
:1045400000211846FFF75AFB0BE007F150037C49A6
:104550001846FFF71FFF07F1500301211846FFF728
:104560004DFB012321E172480CF008FE03460C4686
:1045700018462146FCF788FB0346C7F80431D7F8F4
:1045800004116D4801F05EFED7F80431B3F1FF3F2E
:104590000FD16C4801F056FE07F16C036A491846CA
:1045A000FFF7F8FE07F16C0300211846FFF726FB22
:1045B0000BE007F1880364491846FFF7EBFE07F1AB
:1045C000880301211846FFF719FB0123EDE0584845
:1045D0000CF0D4FD03460C4618462146FCF754FB6C
:1045E0000346C7F80031D7F80011534801F02AFEFE
:1045F000D7F80031012B0FD1544801F023FE07F109
:10460000A40353491846FFF7C5FE07F1A403002190
:104610001846FFF7F3FA0BE007F1C0034C491846C0
:10462000FFF7B8FE07F1C00301211846FFF7E6FACD
:104630000123BAE03E480CF0A1FD03460C461846A3
:104640002146FCF721FB0346C7F8FC30D7F8FC10E5
:10465000394801F0F7FD07F1DC033E491846FFF742
:1046600099FE07F1DC03D7F8FC101846FFF7E0FAD3
:1046700001239AE02E480CF081FD03460C461846B3
:104680002146FCF749FB0346C7F8F830D7F8F81085
:104690000120FFF743FCD7F8F800FCF703F80346C6
:1046A0000C461A462346234801F0CCFD01237CE04A
:1046B0001F480CF063FD03460C4618462146FCF7E4
:1046C0002BFB0346C7F8F830D7F8F8100220FFF7A5
:1046D00025FCD7F8F800FBF7E5FF03460C461A4621
:1046E0002346144801F0AEFD01235EE010480CF0B3
:1046F00045FD03460C4618462146FCF70DFB0346D4
:10470000C7F8F830D7F8F8100320FFF707FCD7F800
:10471000F800FBF7C7FF03460C461A462346054838
:1047200001F090FD012340E0F03D01084C10002015
:10473000840D0020FC3D01080C3E01081C3E0108D0
:10474000C80D0020303E0108AC0D0020483E010895
:10475000E40D0020000E002016480CF00FFD03466B
:104760000C4618462146FCF7D7FA0346C7F8F8303E
:10477000D7F8F8100420FFF7D1FBD7F8F800FBF7C3
:1047800091FF03460C461A4623460B4801F05AFD9A
:1047900001230AE0094801F055FD0A2208490948A9
:1047A00007F076FA012300E00023184607F58A7720
:1047B000BD4690BD840D0020FC3D0108683E010807
:1047C000803E01084C10002080B582B000AF7860B8
:1047D0000023012201215A4803F0A8FD00230122F1
:1047E0000121584803F0A2FD00230122012156486F
:1047F00003F09CFD002301220121544803F096FDA3
:10480000002301220121524803F090FD00230122E0
:104810000121504803F08AFD0023012201214E4866
:1048200003F084FD0023012201214C4803F07EFDAA
:104830000023012201214A4803F078FD01230122CF
:104840000121484803F072FD00230122012146485E
:1048500003F06CFD0A21454802F032FF0B2143486A
:1048600002F02EFF0C21414802F02AFF0D213F48A3
:1048700002F026FF0C2200213D4802F08BFF0E21A2
:104880003B4802F01DFF002301220121394803F0BB
:104890004DFD002301220121374803F047FD00238D
:1048A00001220121354803F041FD002301220121AD
:1048B000334803F03BFD002301220121314803F07E
:1048C00035FD0023012201212F4803F02FFD002395
:1048D000012201212D4803F029FD0023012201219D
:1048E0002B4803F023FD002301220121294803F076
:1048F0001DFD002301220121274803F017FD4FF47D
:104900007A7242F21071254804F0E6FF4FF47A7291
:1049100042F21071224804F0DFFF4FF47A7242F243
:104920001071204804F0D8FF4FF47A7242F21071EF
:104930001D4804F0D1FF00BF0837BD4680BD00BF51
:104940001C0E0020380E0020540E0020700E002097
:104950008C0E0020A80E0020C40E0020E00E0020C7
:10496000C80D0020900D0020E40D002068100020EC
:1049700084100020AC0D0020000E0020FC0E002052
:10498000180F0020340F0020500F00206C0F002063
:10499000880F0020A40F0020C00F0020DC0F002093
:1049A000F80F00201410002030100020000000003C
:1049B0002DE9F04383B000AF78604F4801F042FC2E
:1049C0004E4801F03FFC4E4801F03CFC01214D48AF
:1049D00003F0B3FD01214C4803F0AFFD01214B482A
:1049E00003F0ABFD01214A4803F0A7FD012149482E
:1049F00003F0A3FD0121484803F09FFD0121474832
:104A000003F09BFD0121464803F097FD01F0D6FF1E
:104A10000A46014636A4D4E9003411EB030842EB00
:104A200004090022404649460BF07AFD0021354832
:104A300003F083FD0021344803F07FFD002133485B
:104A400003F07BFD0021324803F077FD002131485F
:104A500003F073FD0021304803F06FFD00212F4863
:104A600003F06BFD00212E4803F067FD01F0A6FF67
:104A70000A4601461EA4D4E90034CD1842EB0406D0
:104A80000022284631460BF04BFD2649264800F00F
:104A90006DF92649264800F089F9224B5B681846D3
:104AA000FBF700FE03460C461A462346214801F058
:104AB000C9FB1E4BB3F9003019461F4801F0C2FB79
:104AC0001A4BB3F9023019461C4801F0BBFB174BD7
:104AD000B3F9043019461A4801F0B4FB134BB3F98B
:104AE00006301946174801F0ADFBFFF725FB6DE7CF
:104AF00000CA9A3B000000008C3E0108A43E010859
:104B0000C43E01081C0E0020380E0020540E002068
:104B1000700E00208C0E0020A80E0020C40E002075
:104B2000E00E0020C00C0020500C0020500D002092
:104B3000C80C0020E83E0108FC3E01080C3F0108BB
:104B4000143F01081C3F010880B582B000AF7860B7
:104B500078684FF4FA63642205490BF0A3FB054A19
:104B60007B681A607B6818460837BD4680BD00BF69
:104B7000243F01082849010880B483B000AF786061
:104B800000BF0C37BD465DF8047B704780B584B02C
:104B900000AF78604FF0FF326FF00043084801F03B
:104BA0006FFC07F10F0301221946054807F005F8CD
:104BB00097F90F30DBB21846FFF716FBEAE700BFA4
:104BC0004429002080B582B000AF786078684FF447
:104BD000FA63642205490BF065FB054A7B681A609D
:104BE0007B6818460837BD4680BD00BF243F0108DA
:104BF0001049010890B585B000AFF860B960C7E909
:104C00000023F8684FF4FA636422B9680BF04AFB9A
:104C1000064AFB681A60FA68D7E90034C2E914341E
:104C2000FB6818461437BD4690BD00BFF848010820
:104C300080B582B000AF78604FF4E131034806F0F0
:104C40004FFE00BF0837BD4680BD00BF4C1000209E
:104C5000B0B588B000AF7860134B07F108041D466B
:104C60000FCD0FC495E8030020600434217007F1D4
:104C7000080314221946786800F01AF84FF0FF3242
:104C80006FF00043094801F0FBFB07F11F0301220D
:104C90001946064806F091FF97F91F30DBB2184617
:104CA000FFF7A2FAEAE700BF343F01084C100020EA
:104CB00080B586B000AFF860B9607A6000237B6190
:104CC0007A697B689A4216DA7B69BA68D1187A6881
:104CD0007B69D31A1A460A4806F0DAFF38613B6945
:104CE000002B03DA074801F0ADFAE9E77A693B697E
:104CF00013447B61E4E700BF1837BD4680BD00BFA9
:104D00004C1000204C3F010890B583B000AF786094
:104D10007B681846FEF7F4FD134A7B681A607B68CF
:104D200003F108027B689A637B6803F118027B68D1
:104D3000DA637B6803F128027B681A647B680022CF
:104D400083F844207A684FF000034FF00004C2E972
:104D500014347B68D3E914347A68C2E912347B686E
:104D600018460C37BD4690BD4049010890B583B048
:104D700000AF786039607B68D3E90C347A68D2E997
:104D80000E12A24208BF99420BD23968786800F02F
:104D90002DF87B68D3E90C347A68C2E90E3401231C
:104DA00000E0002318460C37BD4690BD90B583B097
:104DB00000AF786039607B68D3E912347A68D2E951
:104DC0001412A24208BF99420BD23968786800F0E9
:104DD00031F87B68D3E912347A68C2E914340123CC
:104DE00000E0002318460C37BD4690BDF0B484B0F7
:104DF00000AF786039607B68012283F828207B68E7
:104E00001B6AFB603B68FA6892E8030083E80300D2
:104E10007B68002283F828207B68D3E90E345D1C70
:104E200044F100067B68C3E90E5600BF1037BD464B
:104E3000F0BC7047F0B484B000AF786039607B6834
:104E4000012283F844207B68DB6BFB603A68FB68D7
:104E500014460FCB84E80F007B68002283F84420BF
:104E60007B68D3E914345D1C44F100067B68C3E918
:104E7000145600BF1037BD46F0BC704780B582B0F5
:104E800000AF7860054A7B681A607B6818460BF0B3
:104E900077FA7B6818460837BD4680BDF848010898
:104EA00080B582B000AF78607868FFF7E7FF5821DF
:104EB000786801F044FC7B6818460837BD4680BD21
:104EC00080B582B000AF7860054A7B681A607B6865
:104ED00018460BF055FA7B6818460837BD4680BD6A
:104EE0001049010880B582B000AF78607868FFF79C
:104EF000E7FF5021786801F022FC7B6818460837EC
:104F0000BD4680BD80B582B000AF7860054A7B6841
:104F10001A607B6818460BF033FA7B68184608372E
:104F2000BD4680BD2849010880B582B000AF7860D9
:104F30007868FFF7E7FF5021786801F000FC7B6894
:104F400018460837BD4680BD80B582B000AF786096
:104F5000054A7B681A607B681846FEF71BF97B6878
:104F600018460837BD4680BD4049010880B582B06B
:104F700000AF78607868FFF7E7FF5821786801F0A4
:104F8000DEFB7B6818460837BD4680BD0000000088
:104F900080B584B002AF786039607B68012B40F047
:104FA000CF803B684FF6FF72934240F0C98068485B
:104FB000FEF7B6FC674A684965480CF0D9F800234B
:104FC0000093664B624A6649664801F0C5FB614A38
:104FD000654964480CF0CCF86448FFF795FE5D4ADB
:104FE000634962480CF0C4F8002300935B4B5F4AAE
:104FF0006049614801F0B0FB564A5B495E480CF0DD
:10500000B7F840F2D1725D495D4801F037F8514A76
:105010005C495B480CF0ACF83A215B4803F058F966
:105020003B215A4803F054F93821594803F050F90C
:105030002621584803F04CF92B21574803F048F932
:105040003021564803F044F93121554803F040F926
:105050003221544803F03CF93321534803F038F926
:105060003421524803F034F93521514803F030F926
:105070003621504803F02CF937214F4803F028F926
:105080003F214E4803F024F93E214D4803F020F91A
:105090003D214C4803F01CF93C214B4803F018F922
:1050A0004C214A4803F014F94B21494803F010F908
:1050B0004A21484803F00CF94921474803F008F910
:1050C0000421464804F0E4FB0521454804F0E0FBD8
:1050D0000621444804F0DCFB0721434804F0D8FBD8
:1050E0004FF0FF3301934FF0FF3300931B231A223D
:1050F00003213E4806F08EFA03213D4802F0AEFA45
:1051000001213C4802F0AAFA3B48FFF71DFD114A75
:105110003A4939480CF02CF83948FFF753FD0D4A4D
:10512000384937480CF024F807A3D3E9002336495F
:105130003648FFF75FFD074A354934480CF018F848
:1051400000BF0837BD4680BD00E1F5050000000046
:10515000500C002094160020A9390008603F010877
:1051600010150020900C002045310008C80C0020CC
:10517000494F000834150020200D0020743F01081D
:10518000600D0020BD600008900D0020AC0D0020D7
:10519000C80D0020E40D0020000E00201C0E002091
:1051A000380E0020540E0020700E00208C0E0020BF
:1051B000A80E0020C40E0020E00E0020FC0E0020EF
:1051C000180F0020340F0020500F00206C0F00201B
:1051D000880F0020A40F0020C00F0020DC0F00204B
:1051E000F80F002014100020301000204C10002078
:1051F0006810002084100020A0100020054F000837
:10520000F0100020C14E00087C3F01084011002032
:105210007D4E000880B584B000AFF860B9607A6058
:105220003B607B68102B04D9064801F053F800233B
:1052300004E03968F86800F007F8012318461037D1
:10524000BD4680BD843F0108F0B484B000AF7860F3
:1052500039607B689A6B3B6814460FCB84E80F007B
:105260007B68DB6BFB607B689A6B7B68DA637B68CF
:10527000FA689A637B6893F84430DBB2002B09D05C
:105280007B689B6BFB607B681A6C7B689A637B68AE
:10529000FA681A647B68D3E912345D1C44F1000695
:1052A0007B68C3E9125600BF1037BD46F0BC70479B
:1052B00080B500AF4FF6FF710120FFF769FE80BD9A
:1052C00080B582B000AF7860396078684FF4FA63D7
:1052D000642239680AF0E6FF034A7B681A607B683B
:1052E00018460837BD4680BD5449010880B582B0D4
:1052F00000AF7860FDF794FD7B682922A3F8502069
:1053000070210020FDF798FD03461A467B6883F85C
:1053100052207B68B3F850207B68563319461046FC
:10532000FDF72DFA03461A467B6883F852207B6806
:1053300093F85230002B04D17B684EF6AA32A3F8C2
:1053400056200123002B0DD07B6893F8523019466C
:105350007B68B3F856301A467B68B3F850309848EB
:1053600000F070FF7B6893F85230002B03D0954813
:1053700000F068FF1BE0944800F064FF7B68B3F81E
:1053800050301846FDF714FA03461A467B6883F836
:1053900052208E4800F056FF7B68B3F85030184614
:1053A000FDF7E3FA03461A467B6883F85220702122
:1053B0000120FDF741FD03461A467B6883F8522021
:1053C0007B68B3F850207B68563319461046FDF7CA
:1053D000D6F903461A467B6883F852207B6893F817
:1053E0005230002B04D17B684EF6AA32A3F8562027
:1053F0000123002B0DD07B6893F8523019467B684F
:10540000B3F856301A467B68B3F850306C4800F059
:1054100019FF7B6893F85230002B03D0694800F0E5
:1054200011FF1BE0684800F00DFF7B68B3F85030B7
:105430001846FDF7BDF903461A467B6883F85220EB
:10544000624800F0FFFE7B68B3F850301846FDF765
:105450008CFA03461A467B6883F85220702102209A
:10546000FDF7EAFC03461A467B6883F852207B6806
:10547000B3F850207B68563319461046FDF77FF984
:1054800003461A467B6883F852207B6893F85230B3
:10549000002B04D17B684EF6AA32A3F856200123D4
:1054A000002B0DD07B6893F8523019467B68B3F817
:1054B00056301A467B68B3F85030414800F0C2FEBF
:1054C0007B6893F85230002B03D03E4800F0BAFEC0
:1054D0001BE03D4800F0B6FE7B68B3F8503018463C
:1054E000FDF766F903461A467B6883F85220374871
:1054F00000F0A8FE7B68B3F850301846FDF735FA87
:1055000003461A467B6883F8522070210320FDF77A
:1055100093FC03461A467B6883F852207B68B3F8F5
:1055200050207B68563319461046FDF728F903468C
:105530001A467B6883F852207B6893F85230002B20
:1055400004D17B684EF6AA32A3F856200123002B23
:105550000DD07B6893F8523019467B68B3F856300B
:105560001A467B68B3F85030154800F06BFE7B6834
:1055700093F85230002B03D0124800F063FE1BE07A
:10558000114800F05FFE7B68B3F850301846FDF715
:105590000FF903461A467B6883F852200B4800F047
:1055A00051FE7B68B3F850301846FDF7DEF903462C
:1055B0001A467B6883F8522000BF0837BD4680BD7D
:1055C000983F0108DC3F0108FC3F01081440010836
:1055D0002DE9F04F85B000AFF8600B46FB72FB6819
:1055E00093F85230002B03D0A74800F02BFEC7E100
:1055F000FB7A032B00F2C48101A252F823F000BF12
:1056000011560008E5560008B7570008B1580008C1
:105610009E4B09221A609D4B9D4A5A609B48FCF79D
:10562000B6FFFB68002283F85320FB6893F85330E1
:10563000042B51D8FB68B3F85020FB68543319464B
:105640001046FDF7DBF903461A46FB6883F8522043
:10565000FB6893F85430002B05D0FB68B3F850304A
:105660001846FDF76BF9FB68B3F85020FB685A3316
:1056700019461046FDF724FBFB68B3F85C30194669
:105680008248FCF7FEFF03461AB2824B1A80814B18
:10569000B3F90030002B05D1FB68B3F85C301AB2C7
:1056A0007C4B1A80FB6893F853300133DAB2FB6805
:1056B00083F8532001F082F90A460146764B4FF0F9
:1056C0000004C818386042EB04037B600022D7E96D
:1056D00000010AF025FFA8E701226E496F4800F09B
:1056E00091F94DE16E4B09221A606D4B6D4A5A607B
:1056F0006B48FCF74CFFFB68002283F85320FB68E3
:1057000093F85330042B50D8FB68B3F85020FB6853
:10571000543319461046FDF771F903461A46FB68E3
:1057200083F85220FB6893F85430002B05D0FB68B7
:10573000B3F850301846FDF701F9FB68B3F8502074
:10574000FB686A3319461046FDF7BAFAFB68B3F8EE
:105750006C3019465248FCF794FF03461AB24D4B81
:105760005A804C4BB3F90230002B05D1FB68B3F8DB
:105770006C301AB2474B5A80FB6893F853300133B0
:10578000DAB2FB6883F8532001F018F90A460146A3
:10579000414B4FF0000411EB030A42EB040B0022D3
:1057A000504659460AF0BCFEA9E7012239493B4858
:1057B00000F028F9E4E03C4B09221A603A4B3B4ADE
:1057C0005A603948FCF7E3FEFB68002283F8532057
:1057D000FB6893F85330042B50D8FB68B3F8502083
:1057E000FB68543319461046FDF708F903461A467C
:1057F000FB6883F85220FB6893F85430002B05D0E7
:10580000FB68B3F850301846FDF798F8FB68B3F81A
:105810005020FB687A3319461046FDF751FAFB68B1
:10582000B3F87C3019462048FCF72BFF03461AB228
:10583000184B9A80174BB3F90430002B05D1FB6845
:10584000B3F87C301AB2134B9A80FB6893F853304C
:105850000133DAB2FB6883F8532001F0AFF80A464F
:1058600001460D4B4FF0000411EB030842EB040915
:105870000022404649460AF053FEA9E701220549A5
:10588000064800F0BFF87BE0DC3F0108D0110020A3
:10589000201200206014002080841E003415002097
:1058A000E4110020B0120020F81100204013002065
:1058B000394B09221A60384B384A5A603648FCF78F
:1058C00066FEFB68002283F85320FB6893F8533090
:1058D000042B4FD8FB68B3F85020FB6854331946AB
:1058E0001046FDF78BF803461A46FB6883F85220F2
:1058F000FB6893F85430002B05D0FB68B3F85030A8
:105900001846FDF71BF8FB68B3F85020FB688A3394
:1059100019461046FDF7D4F9FB68B3F88C301946E8
:105920001D48FCF7AEFE03461AB21D4BDA801C4B35
:10593000B3F90630002B05D1FB68B3F88C301AB2EE
:10594000174BDA80FB6893F853300133DAB2FB6807
:1059500083F8532001F032F80A4601460CA4D4E93A
:105960000034CD1842EB04060022284631460AF0E6
:10597000D7FDAAE701220A490A4800F043F800BF10
:1059800000BF1437BD46BDE8F08F00BFAFF3008005
:1059900000C2EB0B000000000C120020D01300200E
:1059A000601400203415002080B582B000AF78600C
:1059B0000B46FB70FB7870211846FDF73DFA034655
:1059C0001A467B6883F85220FB7819467868FFF7FF
:1059D000FFFD00BF0837BD4680BD80B582B000AF77
:1059E000786000217868FFF7DFFF01217868FFF712
:1059F000DBFF02217868FFF7D7FF03217868FFF704
:105A0000D3FFEEE780B584B000AFF860B96013460D
:105A1000FB71F868FA790023B96801F0ADF8034624
:105A200018461037BD4680BD80B582B000AF7860A3
:105A3000054A7B681A607B6818460AF0A1FC7B68FF
:105A400018460837BD4680BD5449010880B582B06C
:105A500000AF78607868FFF7E7FFA021786800F072
:105A60006EFE7B6818460837BD4680BD80B582B0A3
:105A700000AF786039607B68012B1ED13B684FF620
:105A8000FF72934219D11723162201210D4802F00B
:105A900051FF40F2D1720C490C4800F0EFFA0C4A69
:105AA0000C490A480BF064FB0B490C48FFF708FC53
:105AB000074A0B4909480BF05BFB00BF0837BD469E
:105AC00080BD00BF9811002030400108B4110020B3
:105AD00094160020BD6000083840010870140020B2
:105AE000295A000880B500AF4FF6FF710120FFF77B
:105AF000BDFF80BD80B582B000AF7860FBF793FD3D
:105B0000FBF797FDFBF7E6FD0120FBF7F1FDFBF747
