:020000040800F2
:1000000000000220357700085DFD000863FD000850
:1000100081FD000887FD00088DFD0008000000003C
:100020000000000000000000000000005DF6000875
:10003000957700080000000075F60008D9F900085F
:100040009577000895770008957700089577000860
:100050009577000895770008B1890008D5890008D0
:10006000F98900081D8A0008418A00089577000870
:10007000C1BA000895770008E9B90008957700082B
:1000800079BA0008A1B900089577000895770008AB
:10009000957700089577000895770008658A00082D
:1000A000957700089577000889FB00089577000888
:1000B00095770008957700089577000895770008F0
:1000C00095770008957700089577000895770008E0
:1000D00095770008C9B80008E1B80008F9B8000829
:1000E000C58A00089577000895770008957700087D
:1000F00095770008957700089577000895770008B0
:1001000095770008957700087DF700089577000837
:1001100011B9000829B900089577000895770008FB
:10012000957700089577000895770008957700087F
:10013000957700089577000895770008957700086F
:10014000957700089577000895770008957700085F
:1001500031BA00089577000859B9000841B900087C
:10016000957700089577000895770008957700083F
:10017000957700089577000895770008957700082F
:0C01800095770008957700080000000843
:1001C00001F0FF01102A2BDB10F0070F08D010F808
:1001D000013B013A8B422DD010F0070F42B3F6D10C
:1001E000F0B441EA012141EA014122F007047FF025
:1001F00000070023F0E80256083C85EA010586EA7C
:10020000010685FA47F5A3FA87F586FA47F6A5FAB7
:1002100087F68EB9EED1F0BC01F0FF0102F00702C3
:1002200032B110F8013B013A83EA010313B1F8D16E
:100230000020704701387047002D06BF354603384F
:10024000073815F0010F07D1013015F4807F02BF88
:10025000013015F4C03F0130F0BC0138704700BFD9
:10026000844641EA000313F003036DD1403A41D3C1
:1002700051F8043B40F8043B51F8043B40F8043B80
:1002800051F8043B40F8043B51F8043B40F8043B70
:1002900051F8043B40F8043B51F8043B40F8043B60
:1002A00051F8043B40F8043B51F8043B40F8043B50
:1002B00051F8043B40F8043B51F8043B40F8043B40
:1002C00051F8043B40F8043B51F8043B40F8043B30
:1002D00051F8043B40F8043B51F8043B40F8043B20
:1002E00051F8043B40F8043B51F8043B40F8043B10
:1002F000403ABDD2303211D351F8043B40F8043BB0
:1003000051F8043B40F8043B51F8043B40F8043BEF
:1003100051F8043B40F8043B103AEDD20C3205D3BF
:1003200051F8043B40F8043B043AF9D2043208D0B7
:10033000D2071CBF11F8013B00F8013B01D30B8829
:1003400003806046704700BF082A13D38B078DD007
:1003500010F003038AD0C3F10403D21ADB071CBFD9
:1003600011F8013B00F8013B80D331F8023B20F843
:10037000023B7BE7043AD9D3013A11F8013B00F87C
:10038000013BF9D20B7803704B7843708B78837004
:100390006046704700000000000000000000000000
:1003A000000000000000000000000000000000004D
:1003B000000000000000000000000000000000003D
:1003C00090F800F06DE9024520F007016FF0000C95
:1003D00010F0070491F820F040F049804FF000043D
:1003E0006FF00700D1E9002391F840F000F1080018
:1003F00082FA4CF2A4FA8CF283FA4CF3A2FA8CF350
:100400004BBBD1E9022382FA4CF200F10800A4FAB6
:100410008CF283FA4CF3A2FA8CF3E3B9D1E904230A
:1004200082FA4CF200F10800A4FA8CF283FA4CF341
:10043000A2FA8CF37BB9D1E9062301F1200182FAFB
:100440004CF200F10800A4FA8CF283FA4CF3A2FA01
:100450008CF3002BC6D0002A04BF04301A4612BA0F
:10046000B2FA82F2FDE8024500EBD2007047D1E912
:10047000002304F00305C4F100004FEAC50514F0A1
:10048000040F91F840F00CFA05F562EA05021CBF72
:1004900063EA050362464FF00004A9E781F00041DA
:1004A00002E000BF83F0004330B54FEA41044FEA59
:1004B000430594EA050F08BF90EA020F1FBF54EAF4
:1004C000000C55EA020C7FEA645C7FEA655C00F090
:1004D000E2804FEA5454D4EB5555B8BF6D420CDD61
:1004E0002C4480EA020281EA030382EA000083EAE4
:1004F000010180EA020281EA0303362D88BF30BD84
:1005000011F0004F4FEA01314FF4801C4CEA1131D9
:1005100002D0404261EB410113F0004F4FEA033338
:100520004CEA133302D0524263EB430394EA050FC3
:1005300000F0A780A4F10104D5F1200E0DDB02FA32
:100540000EFC22FA05F2801841F1000103FA0EF2C6
:10055000801843FA05F359410EE0A5F120050EF18C
:10056000200E012A03FA0EFC28BF4CF0020C43FABD
:1005700005F3C01851EBE37101F0004507D54FF0CA
:10058000000EDCF1000C7EEB00006EEB0101B1F51A
:10059000801F1BD3B1F5001F0CD349085FEA300060
:1005A0004FEA3C0C04F101044FEA445212F5800F6B
:1005B00080F09A80BCF1004F08BF5FEA500C50F108
:1005C000000041EB045141EA050130BD5FEA4C0CEB
:1005D000404141EB010111F4801FA4F10104E9D174
:1005E00091F0000F04BF01460020B1FA81F308BF6B
:1005F0002033A3F10B03B3F120020CDA0C3208DD37
:1006000002F1140CC2F10C0201FA0CF021FA02F111
:100610000CE002F11402D8BFC2F1200C01FA02F181
:1006200020FA0CFCDCBF41EA0C019040E41AA2BFA6
:1006300001EB0451294330BD6FEA04041F3C1CDA6E
:100640000C340EDC04F11404C4F1200220FA04F08E
:1006500001FA02F340EA030021FA04F345EA030138
:1006600030BDC4F10C04C4F1200220FA02F001FAFA
:1006700004F340EA0300294630BD21FA04F029467C
:1006800030BD94F0000F83F4801306BF81F4801115
:100690000134013D4EE77FEA645C18BF7FEA655C88
:1006A00029D094EA050F08BF90EA020F05D054EA5A
:1006B000000C04BF1946104630BD91EA030F1EBF5F
:1006C0000021002030BD5FEA545C05D14000494163
:1006D00028BF41F0004130BD14F580043CBF01F556
:1006E000801130BD01F0004545F0FE4141F470013C
:1006F0004FF0000030BD7FEA645C1ABF1946104617
:100700007FEA655C1CBF0B46024650EA013406BF17
:1007100052EA033591EA030F41F4002130BD00BFD6
:1007200090F0000F04BF0021704730B54FF4806493
:1007300004F132044FF000054FF0000150E700BF14
:1007400090F0000F04BF0021704730B54FF4806473
:1007500004F1320410F0004548BF40424FF0000160
:100760003EE700BF42004FEAE2014FEA31014FEAA3
:1007700002701FBF12F07F4393F07F4F81F06051F2
:10078000704732F07F4208BF704793F07F4F04BF3D
:1007900041F40021704730B54FF4607401F000451A
:1007A00021F000411CE700BF50EA010208BF70477A
:1007B00030B54FF000050AE050EA010208BF70476B
:1007C00030B511F0004502D5404261EB41014FF4D4
:1007D000806404F132045FEA915C3FF4D8AE4FF0DC
:1007E00003025FEADC0C18BF03325FEADC0C18BFBF
:1007F000033202EBDC02C2F1200300FA03FC20FA10
:1008000002F001FA03FE40EA0E0021FA02F114445C
:10081000BDE600BF70B54FF0FF0C4CF4E06C1CEA75
:1008200011541DBF1CEA135594EA0C0F95EA0C0FE6
:1008300000F0DEF82C4481EA030621EA4C5123EA59
:100840004C5350EA013518BF52EA033541F4801188
:1008500043F4801338D0A0FB02CE4FF00005E1FB3B
:1008600002E506F00042E0FB03E54FF00006E1FB85
:1008700003569CF0000F18BF4EF0010EA4F1FF04C8
:10088000B6F5007F64F5407404D25FEA4E0E6D4108
:1008900046EB060642EAC62141EA55514FEAC52019
:1008A00040EA5E504FEACE2EB4F1FD0C88BFBCF595
:1008B000E06F1ED8BEF1004F08BF5FEA500E50F146
:1008C000000041EB045170BD06F0004646EA01010C
:1008D00040EA020081EA0301B4EB5C04C2BFD4EB3E
:1008E0000C0541EA045170BD41F480114FF0000E37
:1008F000013C00F3AB8014F1360FDEBF002001F0A5
:10090000004170BDC4F10004203C35DA0C341BDC1E
:1009100004F11404C4F1200500FA05F320FA04F0F0
:1009200001FA05F240EA020001F0004221F0004124
:1009300010EBD37021FA04F642EB06015EEA430E97
:1009400008BF20EAD37070BDC4F10C04C4F12005C7
:1009500000FA04F320FA05F001FA04F240EA02007A
:1009600001F0004110EBD37041F100015EEA430E4B
:1009700008BF20EAD37070BDC4F1200500FA05F26B
:100980004EEA020E20FA04F301FA05F243EA0203EA
:1009900021FA04F001F0004121FA04F220EA0200F9
:1009A00000EBD3705EEA430E08BF20EAD37070BD3F
:1009B00094F0000F0FD101F00046400041EB01011F
:1009C00011F4801F08BF013CF7D041EA060195F001
:1009D000000F18BF704703F00046520043EB0303BB
:1009E00013F4801F08BF013DF7D043EA06037047A8
:1009F00094EA0C0F0CEA135518BF95EA0C0F0CD0B3
:100A000050EA410618BF52EA4306D1D181EA0301F8
:100A100001F000414FF0000070BD50EA410606BFF2
:100A20001046194652EA430619D094EA0C0F02D137
:100A300050EA013613D195EA0C0F05D152EA03367C
:100A40001CBF104619460AD181EA030101F000419A
:100A500041F0FE4141F470014FF0000070BD41F0E3
:100A6000FE4141F4780170BD70B54FF0FF0C4CF4BD
:100A7000E06C1CEA11541DBF1CEA135594EA0C0FDC
:100A800095EA0C0F00F0A7F8A4EB050481EA030E29
:100A900052EA03354FEA013100F088804FEA033310
:100AA0004FF0805545EA131343EA12634FEA0222DE
:100AB00045EA111545EA10654FEA00260EF000419F
:100AC0009D4208BF964244F1FD0404F5407402D2F1
:100AD0005B084FEA3202B61A65EB03055B084FEA82
:100AE00032024FF480104FF4002CB6EB020E75EB7F
:100AF000030E22BFB61A754640EA0C005B084FEAA7
:100B00003202B6EB020E75EB030E22BFB61A754623
:100B100040EA5C005B084FEA3202B6EB020E75EB6E
:100B2000030E22BFB61A754640EA9C005B084FEAE6
:100B30003202B6EB020E75EB030E22BFB61A7546F3
:100B400040EADC0055EA060E18D04FEA051545EAE2
:100B500016754FEA06164FEAC30343EA52734FEA8B
:100B6000C2025FEA1C1CC0D111F4801F0BD141EA04
:100B700000014FF000004FF0004CB6E711F4801F69
:100B800004BF01430020B4F1FD0C88BFBCF5E06F49
:100B90003FF6AFAEB5EB030C04BFB6EB020C5FEA59
:100BA000500C50F1000041EB045170BD0EF0004EAE
:100BB0004EEA113114EB5C04C2BFD4EB0C0541EAE0
:100BC000045170BD41F480114FF0000E013C90E6DD
:100BD00045EA060E8DE60CEA135594EA0C0F08BFA1
:100BE00095EA0C0F3FF43BAF94EA0C0F0AD150EAA0
:100BF00001347FF434AF95EA0C0F7FF425AF104633
:100C000019462CE795EA0C0F06D152EA03353FF45A
:100C1000FDAE1046194622E750EA410618BF52EAD7
:100C200043067FF4C5AE50EA41047FF40DAF52EAAB
:100C300043057FF4EBAE12E74FF0FF3C06E000BF48
:100C40004FF0010C02E000BF4FF0010C4DF804CD55
:100C50004FEA410C7FEA6C5C4FEA430C18BF7FEA15
:100C60006C5C1BD001B050EA410C0CBF52EA430C43
:100C700091EA030F02BF90EA020F0020704710F1C3
:100C8000000F91EA030F58BF994208BF90422CBF52
:100C9000D8176FEAE37040F0010070474FEA410C4B
:100CA0007FEA6C5C02D150EA013C07D14FEA430C69
:100CB0007FEA6C5CD6D152EA033CD3D05DF8040BDA
:100CC000704700BF8446104662468C46194663460C
:100CD00000E000BF01B5FFF7B7FF002848BF10F1E3
:100CE000000F01BD4DF808EDFFF7F4FF0CBF012028
:100CF00000205DF808FB00BF4DF808EDFFF7EAFFA4
:100D000034BF012000205DF808FB00BF4DF808ED5E
:100D1000FFF7E0FF94BF012000205DF808FB00BF53
:100D20004DF808EDFFF7CEFF94BF012000205DF8DD
:100D300008FB00BF4DF808EDFFF7C4FF34BF0120EA
:100D400000205DF808FB00BF4FEA410C7FEA6C5CB5
:100D500002D150EA013C0AD14FEA430C7FEA6C5CB5
:100D600002D152EA033C02D14FF0000070474FF02D
:100D7000010070474FEA410212F5001215D211D559
:100D80006FF47873B3EB625212D94FEAC12343F088
:100D9000004343EA505311F0004F23FA02F018BF0A
:100DA000404270474FF00000704750EA013005D1D3
:100DB00011F0004008BF6FF0004070474FF0000096
:100DC000704700BF4A0011D212F5001211D20DD5A2
:100DD0006FF47873B3EB62520ED44FEAC12343F041
:100DE000004343EA505323FA02F070474FF00000EB
:100DF000704750EA013002D14FF0FF3070474FF09A
:100E0000000070474FEA4102B2F1E04324BFB3F55E
:100E1000001CDCF1FE5C0DD901F0004C4FEAC00271
:100E20004CEA5070B2F1004F40EB830008BF20F055
:100E30000100704711F0804F21D113F13872BCBF0F
:100E400001F00040704741F480114FEA5252C2F164
:100E50001802C2F1200C10FA0CF320FA02F018BFAD
:100E600040F001004FEAC1234FEAD32303FA0CFC00
:100E700040EA0C0023FA02F34FEA4303CCE77FEA8F
:100E8000625307D150EA01331EBF4FF0FE4040F4D9
:100E90004000704701F0004040F0FE4040F4000088
:100EA000704700BF7BB972B90029BEBF00204FF068
:100EB000004106E008BF00281CBF6FF000414FF062
:100EC000FF3000F0F5B9ADF1080C6DE904CE002952
:100ED00009DB002B1ADB00F083F8DDF804E0DDE924
:100EE000022304B07047404261EB4101002B1BDB41
:100EF00000F076F8DDF804E0DDE9022304B04042BA
:100F000061EB4101524263EB43037047524263EB92
:100F1000430300F065F8DDF804E0DDE9022304B0E6
:100F2000404261EB41017047524263EB430300F0E2
:100F300057F8DDF804E0DDE9022304B0524263EB28
:100F40004303704753B94AB9002908BF00281CBFA2
:100F50004FF0FF314FF0FF3000F0AAB9ADF1080CAF
:100F60006DE904CE00F03CF8DDF804E0DDE9022391
:100F700004B0704738B50022002304460D46FFF741
:100F8000BBFE28B920462946BDE8384000F00AB823
:100F9000204605F1004100F005F8404261EB4101B7
:100FA00038BD00BFD0B500220B4B06460F46FFF7F9
:100FB00031FCFFF707FF0446FFF7B2FB0022074BA7
:100FC000FFF728FC02460B4630463946FFF76AFA1F
:100FD000FFF7F8FE2146D0BD0000F03D0000F041D3
:100FE0002DE9F047089E04468846002B40F0858096
:100FF0008A42154648D9B2FA82F24AB1C2F12007B4
:1010000001FA02F320FA07F7954047EA03089440F3
:101010004FEA154E230CB8FBFEF71FFA85FC0EFBBA
:10102000178843EA084307FB0CF1994209D9EB18EA
:1010300007F1FF3080F0E380994240F2E080023F08
:101040002B445B1AA4B2B3FBFEF00EFB103344EA50
:10105000034400FB0CFCA44509D92C1900F1FF3313
:1010600080F0CB80A44540F2C88002382C4440EA8E
:101070000740A4EB0C0400271EB1D4400023C6E9AE
:1010800000433946BDE8F087002A53D0B2FA82F215
:10109000002A40F0B680491B4FEA154E1FFA85F82A
:1010A0000127B1FBFEFC230C0EFB1C1143EA01439C
:1010B00008FB0CF1994207D9EB180CF1FF3002D272
:1010C000994200F2EC808446591AA3B2B1FBFEF0BB
:1010D0000EFB101443EA044408FB00F8A04507D9AE
:1010E0002C1900F1FF3302D2A04500F2DC80184633
:1010F000A4EB080440EA0C40BEE78B4208D9002E5E
:1011000078D00027C6E9000138463946BDE8F087A7
:10111000B3FA83F77FB98B4202D3824200F2BD80DB
:10112000841A61EB030301209846002EA9D0C6E97A
:101130000048A6E7FFDEC7F12005BB4022FA05FC08
:101140004CEA030C01FA07F420FA05F821FA05F33A
:101150004FEA1C4E48EA0404B3FBFEF9210C0EFBD7
:1011600019331FFA8CF841EA034309FB08FA9A4540
:1011700002FA07F200FA07F10BD91CEB030309F19D
:10118000FF3080F088809A4540F28580A9F10209FD
:101190006344A3EB0A03A4B2B3FBFEF00EFB1033CF
:1011A00044EA034400FB08F8A04508D91CEB0404FA
:1011B00000F1FF336BD2A04569D90238644440EA9C
:1011C0000940A4EB0804A0FB02894C45C6464B46E7
:1011D00054D351D0002E69D0B1EB0E0264EB03045E
:1011E00004FA05F522FA07F3FC401D43C6E9005452
:1011F000002746E73746304643E7184637E70746B5
:101200001FE7C2F1200320FA03F7954001FA02F02C
:1012100021FA03F34FEA154E3843010CB3FBFEF7F6
:101220001FFA85F80EFB173341EA034107FB08F369
:101230008B4204FA02F407D9691807F1FF3C28D25F
:101240008B4226D9023F2944CB1A81B2B3FBFEF070
:101250000EFB103341EA034100FB08F38B4207D930
:10126000691800F1FF3C10D28B420ED90238294494
:10127000C91A40EA074714E74145ABD2B8EB020E62
:1012800069EB0C0201381346A4E76046F0E7184604
:1012900095E76746D8E781467BE7384645E7ACF1F6
:1012A000020C2B4410E702382C4421E73746E8E6CD
:1012B000704700BF80B500AF0021034807F0ACFACB
:1012C0000123184680BD00BF900A002080B582B07F
:1012D00000AF78600121034807F09EFA00BF08378D
:1012E000BD4680BD900A00202DE9F04F87B000AFC9
:1012F000F86005F077FC82468B46FB681D464FF090
:1013000000062B4634464FF000014FF00002620108
:1013100042EAD36259010B4614465B1B64EB060498
:101320004FF000014FF00002620242EAD35259022C
:101330000B4614465B1946EB04044FF000014FF0D6
:101340000002A20142EA93629901C91A62EB040207
:1013500011EB050842EB06091AEB08033B604BEB67
:1013600009037B60D7E90034C7E904340022D7E9D8
:1013700004010FF0E9F900BF1C37BD46BDE8F08F4E
:1013800080B584B000AFF860B9607A603B6000213E
:10139000194807F0E6F9194809F0DEFE034683F024
:1013A0000103DBB2002B00D0F5E7FA68B9681348F7
:1013B00009F0E8FE114809F0CFFE034683F001036F
:1013C000DBB2002B00D0F5E77A6839680B4809F0EA
:1013D000D9FE0A4809F0C0FE034683F00103DBB2E0
:1013E000002B00D0F5E70121034807F0BAF900BF50
:1013F0001037BD4680BD00BF740A0020580A002087
:1014000080B584B000AFF860B9607A603B600021BD
:10141000194807F0A6F9194809F09EFE034683F023
:101420000103DBB2002B00D0F5E7BA68F968134876
:1014300009F0A8FE114809F08FFE034683F001036E
:10144000DBB2002B00D0F5E73A6879680B4809F069
:101450002FFF0A4809F08BFE034683F00103DBB23D
:10146000002B00D0F5E70121034807F07AF90023AB
:1014700018461037BD4680BD740A0020580A002067
:1014800080B584B000AFB9607A603B600346FB81F1
:10149000F8893B687A68B968FFF772FF002318463D
:1014A0001037BD4680BD80B584B000AFB9607A60AA
:1014B0003B600346FB81F9897B683A68B868FFF7AF
:1014C0009FFF002318461037BD4680BD80B584B00D
:1014D00002AF786039607B68012B14D13B684FF60E
:1014E000FF7293420FD11F2300931E231D2202215E
:1014F000074809F00DFB1C21064806F0FDFF2721D7
:10150000054806F0F9FF00BF0837BD4680BD00BFA3
:10151000580A0020740A0020900A002080B500AF0D
:101520004FF6FF710120FFF7D1FF80BD80B500AFFE
:10153000012301220121074807F00CF8064809F0B1
:10154000DDFC064B1B6800221946034809F022FB0C
:1015500000BF80BD740A0020580A0020000000204F
:1015600080B584B000AF0346FB71074B1A68FB7966
:10157000B2FBF3F3FB60FA680021044809F074FD44
:1015800000BF1037BD4680BD00000020580A002073
:1015900080B584B000AF0346FB710B46BB80134699
:1015A000BB71BB79DB01DBB25AB2FB795BB213438F
:1015B0005BB2DBB2FB7100211E4807F0D2F8BB889A
:1015C000002B2CD0FB7943F04003DBB2BB7307F157
:1015D0000C03023301221946174809F0D3FDBB88DA
:1015E0007F2B11D9BB88DBB263F07F03DBB23B7387
:1015F000BB88DB11DBB27B7307F10C0302221946B7
:101600000D4809F0BFFD10E0BB88DBB23B7307F16A
:101610000C0301221946084809F0B4FD05E0FB1D42
:1016200001221946044809F0ADFD00BF1037BD4640
:1016300080BD00BF740A0020580A002080B584B025
:1016400000AFBA607B600346FB730B46BB81B98970
:10165000FB7B00221846FFF79BFF7B681A46B968A0
:10166000054809F025FE0121044807F07AF800BF7B
:101670001037BD4680BD00BF580A0020740A002004
:1016800080B584B000AF03460A46FB711346BB80A9
:1016900007F10F02B988F8790123FFF7CFFFFB7B31
:1016A00018461037BD4680BD80B584B000AFBA6023
:1016B0007B600346FB730B46BB81B989FB7B012230
:1016C0001846FFF765FF7B681A46B968054809F0B8
:1016D00059FD0121044807F044F800BF1037BD460A
:1016E00080BD00BF580A0020740A002080B582B077
:1016F00000AF0346FB710B46BB801346BB71BA1D9E
:10170000B988F8790123FFF7CFFF00BF0837BD463E
:1017100080BD80B500AFFFF709FF00BF80BDF0B509
:1017200085B000AF00213620FFF7AAFF0346FB7308
:10173000FB7B23F00303DBB243F00103FB73FB7B72
:101740001A4600213620FFF7D1FF03213620FFF78C
:1017500097FF0346FB73FB7B03F00F03FB73FB7BDD
:101760001A4603213620FFF7C1FF05F03BFA0A466F
:10177000014642F210734FF00004CD1842EB04060C
:10178000C7E9005605F02EFA0A460146D7E90034AB
:10179000994272EB0403B4BF01230023DBB2002B98
:1017A00000D0EFE7FB7B63F00F03FB73FB7B1A4674
:1017B00003213620FFF79AFF00BF1437BD46F0BD66
:1017C00080B500AF2020FFF7CBFE00BF80BD80B505
:1017D00000AF0120FFF7C4FE00BF80BD80B586B01A
:1017E00000AF0346FB8004237B730023FB820023AE
:1017F0003B614F4B00225A754D4B00221A634C4BF4
:10180000002283F825204A4B002283F82C20484BE5
:1018100000229A83464B00225A63454B00229A636A
:1018200000F08AF80246424B1A60414B1B68414A5D
:10183000934202D04FF0FF3375E0002000F004FD2A
:1018400007F10D0301220021242000F07DFA1E2063
:1018500000F0C6FB0346FB82FB8A1B0A9BB2DAB28E
:10186000334B9A73042000F0BBFB38613B69DBB259
:10187000002B0FD002233B7307F10C03012212212E
:101880002D2000F061FA2A4B9B8B43F480539AB2CF
:10189000274B9A83062000F0A3FB0246244B5A6094
:1018A000072000F09DFB0246214B9A60FB8ADBB2C9
:1018B00003F01F03DAB21E4B1A751D4B1B7D002B64
:1018C00002D11B4B10221A75194B1B7D184600F0D4
:1018D000B0FEFB8803F00103002B09D000F0F0FB01
:1018E000134B9B8B43F400639AB2114B9A830FE026
:1018F0000521362000F00BFB0346FB81FB8923F416
:101900000073FB81FB891A460521362000F021FB7C
:10191000012000F099FC0021042000F0CCFA0246DE
:10192000034B9A61002318461837BD4680BD00BF9F
:10193000AC0A00203001CADE80B500AF00210020D3
:1019400000F0B9FA0346184680BD000080B586B0A5
:1019500000AF78600023FB750023BB757B681B78A4
:10196000FB747B685B791A46A14B33F81230BB825B
:101970007B685B78013B9F4A13639E4B1B6BBB7478
:10198000FB7C042B02D0FB7C072B01D1012300E060
:1019900000237B747B681A78964B1A737B68DB791B
:1019A000002B09D1934B9B6943F48003914A9361C7
:1019B000BB8ADB08BB8205E08E4B9B6923F4800366
:1019C0008C4A93617B681A7A8A4B5A73894B9A695D
:1019D0007B681B7A1B0403F440331343854A9361ED
:1019E000844B9B691A460021042000F0D0FABB8A80
:1019F0001A4642F604012E2000F0ABFABB7C1846D2
:101A000000F03AFBFB7C7C4AD35C1A4613469B00F1
:101A100013447A4A1344052207212B2000F094F93D
:101A20007B7C774A134401220B21282000F08CF99B
:101A3000FB7C714AD35C1A46724B53F822301A462B
:101A40000C21282000F0A3FA7B68DB7918467B681C
:101A50009B7919466C4A43000B4432F813301A46FE
:101A60000221272000F075FABB7C684A32F8133057
:101A70001A460421272000F06CFA7B68DB79002BE2
:101A800005D164220621272000F063FA20E07B685C
:101A90009B78042B0ED11023FB72102206212720E5
:101AA00000F057FA07F10B0301222621272000F04E
:101AB0004BF90DE02823BB7220220621272000F0DD
:101AC00048FA07F10A0301222621272000F03CF9F9
:101AD000BB7C7A68D27811464D4A9B000B4452F881
:101AE00023301A460821272000F051FA7B68B3F80A
:101AF00009309BB2002B08D17B68002242F04102E2
:101B00005A72002242F010029A727B68B3F80930D0
:101B10009BB21A462021272000F01BFA3D4B1B6880
:101B20001A460C21232000F032FABB7C394A5B00B4
:101B300013449B881A460421232000F00AFA7B688C
:101B40009B79002B0DD07B68DB791A46324B13440E
:101B500001220021212000F0F7F80323FB75012367
:101B6000BB75FB7C03F00F02FB7C1B01DBB21A434D
:101B70007B685B789B0403F440231A43FB7D1B05C1
:101B800003F440131A43BB7D5B0403F400331A4390
:101B90007B681B799B0503F0F86313437A685279DD
:101BA000D2061343FB60FA6800211F2000F0EFF912
:101BB0007B689A787B685B781343DBB21B041A4618
:101BC0000C4B1A610B4B1B697A68D2795203134391
:101BD00043F40043074A1361064B1B691A46002170
:101BE000082000F0D4F9002318461837BD4680BD00
:101BF000047A0108AC0A002084790108A47901085C
:101C0000C47901088C790108D4790108E0790108C8
:101C1000E4790108C8790108D079010880B582B05B
:101C200000AF0346FB80FB881A4641F604012E20D4
:101C300000F08FF900BF0837BD4680BD80B582B087
:101C400000AF0346FB80FB881A460021182000F0F5
:101C500080F900BF0837BD4680BD80B582B000AFB7
:101C600003463960FB801346BB80BA88FB88134467
:101C7000B3F5806F02DD4FF0FF3308E0FB88023BD5
:101C80001A46B9883B68092000F05EF80023184620
:101C90000837BD4680BD000080B584B000AF034664
:101CA0000A46FB801346BB80084B1A69FB88134326
:101CB000BA8892051343FB60FA680021082000F0FF
:101CC00066F9002318461037BD4680BDAC0A0020D7
:101CD00080B582B000AF78600B467B8013463B80B6
:101CE0007A8839887B68112000F08BF800BF0837AC
:101CF000BD4680BD80B582B000AF78607B680522AC
:101D00000021172000F07DF800BF0837BD4680BDD8
:101D100080B582B000AF78607B6805220021152075
:101D200000F06FF800BF0837BD4680BD80B582B0B7
:101D300000AF78607B6805220021062000F061F882
:101D400000BF0837BD4680BD80B586B000AFBA6021
:101D50007B600346FB810B46BB8100237B61BB8913
:101D6000002B0DD1FB89DAB27B69591C796162F0D5
:101D70007F02D2B207F118010B4403F8082C33E0BC
:101D8000FB89DAB27B69591C796162F03F02D2B2F9
:101D900007F118010B4403F8082CBB897F2B0AD8E4
:101DA0007B695A1C7A61BA89D2B207F118010B44D7
:101DB00003F8082C18E0BB89DAB27B69591C7961F9
:101DC00062F07F02D2B207F118010B4403F8082C2D
:101DD000BB89DB0999B27B695A1C7A61CAB207F1E7
:101DE00018010B4403F8082C7B6998B207F1100125
:101DF0007B68BA68FFF744FB034618461837BD46B0
:101E000080BD80B586B000AFBA607B600346FB81C1
:101E10000B46BB8100237B61BB89002B0AD17B6908
:101E20005A1C7A61FA89D2B207F118010B4403F8FF
:101E3000082C33E0FB89DAB27B69591C796142F0E6
:101E40004002D2B207F118010B4403F8082CBB89F9
:101E50007F2B0AD87B695A1C7A61BA89D2B207F102
:101E600018010B4403F8082C18E0BB89DAB27B692F
:101E7000591C796162F07F02D2B207F118010B445C
:101E800003F8082CBB89DB0999B27B695A1C7A617B
:101E9000CAB207F118010B4403F8082C7B6998B209
:101EA00007F110017B68BA68FFF7FDFA0346184690
:101EB0001837BD4680BD80B586B000AF7860396008
:101EC0004FF0FF337B617B6898B23B6899B207F1B2
:101ED00008030422FFF795FFF860FB68002B11D17F
:101EE00003233B610BE07B691B0207F108013A69A0
:101EF0000A44127813447B613B69013B3B613B69B7
:101F0000002BF0DA7B6918461837BD4680BD80B5D6
:101F100086B000AF786039604FF6FF73FB827B6854
:101F200098B23B6899B207F10C030222FFF769FFF0
:101F300038613B69002B07D17B7B9BB21B029AB2B5
:101F40003B7B9BB21344FB82FB8A18461837BD4685
:101F500080BD80B586B000AFF860B9601346FB80E5
:101F6000FB88DBB23B74FB881B0A9BB2DBB27B7441
:101F7000FB6898B2BB6899B207F110030222FFF721
:101F8000E3FE78617B6918461837BD4680BD80B591
:101F900088B000AFF860B9607A600023FB610DE0A3
:101FA0007B68D9B207F11402FB6913440A461A7020
:101FB0007B681B0A7B60FB690133FB61FB69032BB8
:101FC000EEDDFB6898B2BB6899B207F114030422F6
:101FD000FFF7BAFEB861BB6918462037BD4680BD21
:101FE00080B584B000AF78607B681B0ADBB27B727F
:101FF0007B68DBB23B7207F10803022204212D202B
:10200000FFF7A2FE03233B7207F10803012206211A
:102010002D20FFF799FE00233B7207F108030122F0
:1020200006212D20FFF790FE0A212D20FFF743FF08
:10203000F860FB6818461037BD4680BD80B584B097
:1020400000AF786004213620FFF735FFF8607B6829
:10205000002B04D0FB6843F40063FB6003E0FB68E3
:1020600023F40063FB60FA6804213620FFF78FFF3A
:1020700000BF1037BD4680BD80B584B000AF78602A
:102080006D23FB7307F10F03012240F606012E209A
:10209000FFF75AFE7B68002B07D040F2076241F63B
:1020A00006012E20FFF755FF06E041F2076241F6D8
:1020B00006012E20FFF74DFF00BF1037BD4680BD43
:1020C00080B582B000AF03237B7101233B713B1DC0
:1020D000022200213620FFF737FE4FF4004206218E
:1020E0002D20FFF736FF0120FFF7FEF8012000F05A
:1020F000ABF800BF0837BD4680BD000080B582B098
:1021000000AF786000210420FFF7D5FE02460E4B99
:102110009A617B68002B06D00B4B9B6923F48023CC
:10212000094A936105E0084B9B6943F48023064A02
:102130009361054B9B691A4600210420FFF727FF96
:1021400000BF0837BD4680BDAC0A002080B584B012
:1021500000AF0346FB71FB7903F00103002B40D075
:1021600007F10C03022200212620FFF74AFE7B7BA9
:1021700023F03C03DBB27B737B7B43F01003DBB2C9
:102180007B733B7B03F03F03DBB23B733B7B43F052
:102190004003DBB23B7307F10C030222002126202F
:1021A000FFF7D2FD07F10C03012202213620FFF7D1
:1021B00028FE3B7B63F07B03DBB23B7307F10C0330
:1021C000012202213620FFF7BFFD10233B730123BC
:1021D0007B7307F10C03022228213620FFF7B4FDA0
:1021E00017E0FB7903F00103002B12D107F10C0378
:1021F000022200212620FFF704FE7B7B23F014033C
:10220000DBB27B7307F10C03022200212620FFF7CB
:102210009BFDFB7903F00203002B11D00F233B73CE
:1022200007F10C0301222A213620FFF78DFD002340
:102230003B7307F10C0301222A213620FFF784FDAE
:1022400000BF1037BD4680BD80B584B000AF786058
:1022500007F10C03022200213620FFF7D2FD7B6834
:102260000D2B6FD801A252F823F000BFB522000851
:10227000A5220008CB2200084523000845230008BA
:102280004523000845230008E12200080123000837
:1022900045230008452300081723000823230008CE
:1022A0002F23000800233B737B7B23F00103DBB269
:1022B0007B7348E03B7B5BB223F003035BB243F0EC
:1022C00001035BB2DBB23B733DE03B7B5BB223F0CF
:1022D00003035BB243F002035BB2DBB23B7332E059
:1022E0003B7B5BB223F04C035BB243F048035BB231
:1022F000DBB23B737B7B63F07F03DBB27B7322E05B
:102300003B7B23F04C03DBB23B737B7B03F07F030F
:10231000DBB27B7317E07B7B43F00203DBB27B73A2
:1023200011E07B7B23F00203DBB27B730BE03B7B92
:102330005BB223F030035BB243F020035BB2DBB24D
:102340003B7300E000BF07F10C030122002136209F
:10235000FFF7FAFC07F10C030133012201213620BB
:10236000FFF7F2FC00BF1037BD4680BD80B582B0DC
:1023700000AF78607A6801210A20FFF708FE00BFED
:102380000837BD4680BD000080B584B000AF03466D
:10239000FB710023FB6000237B7200237B81FB79B0
:1023A00003F00203002B0CD080237B7207F109039A
:1023B000012200210D20FFF7C7FC234B012283F8E7
:1023C0002C20FB7903F00103002B2CD07B7A43F007
:1023D0000603DBB27B7207F10903012200210D2005
:1023E000FFF7B2FC03210F20FFF791FD03467B812D
:1023F0007B8903F48063002B02D10023FB601EE085
:1024000040237B7207F10903012200210D20FFF711
:102410009BFC0020FFF712FE0B4B002283F82C20C0
:102420004FF0FF330CE07B7A43F00203DBB27B72A8
:1024300007F10903012200210D20FFF785FCFB684D
:1024400018461037BD4680BDAC0A002080B584B068
:1024500000AF4023FB7100210E20FFF72CFDF86038
:10246000FEF728FFB860002200210E20FFF78FFD45
:10247000FB1D012200210D20FFF766FC0B4A002105
:102480000F20FFF784FD00F015F8FA6800210E20F8
:10249000FFF77DFDB868FEF719FF054B002283F8B2
:1024A0002C2000BF1037BD4680BD00BFF8FF272499
:1024B000AC0A002080B582B000AFFB1D01220321D1
:1024C0000F20FFF79EFCFB791A46FB795B00534017
:1024D00003F08003002B07D00123BB71BB1D012239
:1024E00003210D20FFF730FC00BF0837BD4680BD3B
:1024F00080B584B000AF786000237B73FFF7DAFF0C
:102500004FF48073FB817B68002B03D0FB8943F47D
:102510000073FB81FB891A4600210D20FFF719FD8E
:102520007B68002B19D007F10D03012203210F2036
:10253000FFF767FC7B7B03F00803002B0DD0FFF750
:1025400085FF4FF48073FB81FB891A4600210D2023
:10255000FFF7FFFC4FF0FF3300E000231846103771
:10256000BD4680BD80B584B000AF0346FB8007F157
:102570000F03012203210420FFF743FCFB88002BFB
:1025800018D0FB881A4600210C20FFF7E2FCFB7BE9
:1025900043F01003DBB2FB73114B9B6943F0805394
:1025A0000F4A936107F10F03012203210420FFF773
:1025B000CBFB11E0FB7B23F01003DBB2FB73084B7A
:1025C0009B6923F08053064A936107F10F030122B0
:1025D00003210420FFF7B8FB00BF1037BD4680BDC4
:1025E000AC0A002080B584B000AF78600B46FB7069
:1025F000FEF760FEB86000210E20FFF75CFCF8607B
:10260000FB78002B04D0FA687B681343FB6004E07E
:102610007B68DB43FA681340FB60FA6800210E20F8
:10262000FFF7B5FCB868FEF751FE00BF1037BD4696
:1026300080BD80B584B000AF0346FB7107F10F0386
:1026400001220E212B20FFF7DCFBFB7B23F01F0375
:10265000DBB2FB73FB7903F01F03DAB2FB7B13439E
:10266000DBB2FB7307F10F0301220E212B20FFF7D2
:102670006BFB00BF1037BD4680BDB0B485B000AF66
:1026800078607B68002B6BD07B685B68002B67D021
:102690007B681B6803F00103002B61D07B681B681B
:1026A000012B5DD90023FB6042E07B685A68FB6820
:1026B0001B01134400221A607B685968FB680133D0
:1026C0007A681268B3FBF2F002FB00F29B1A1A015F
:1026D0007B685868FB681B0103440A445A607B68A6
:1026E0005968FB6801337A681268B3FBF2F002FBA9
:1026F00000F29B1A1A017B685868FB681B010344AF
:102700000A449A607B685868FB6819017B685C68BA
:10271000FB6801337A681268B3FBF2F502FB05F23D
:102720009B1A1B0123444218DA60FB680133FB60EB
:102730007B681B68FA689A42B7D37B685A687B68E3
:102740009A607B685A687B68DA607B685A687B6845
:102750001B685B081B011A447B681A61002301E0B7
:102760004FF0FF3318461437BD46B0BC704780B4F5
:1027700087B000AF786039607B689A687B68DB68F7
:102780009A4204D17B68DB689A687B68DA607B6870
:102790009A687B681B699A4207D07B689B681A68B5
:1027A0007B681B691B689A4204DD7B681B69DA68D9
:1027B0007B681A617B689B68FB60FB683A681A60FB
:1027C0007B689A687B689B689B68D268DA607B68E4
:1027D0009A687B689B68DB6892689A607B689B68F4
:1027E0005A687B689A607B68DB683B6100237B6189
:1027F00011E03B691B683A689A4206DA7B69002B54
:1028000010D17B68FA68DA600CE03B699B683B6139
:102810007B6901337B617B681B68013B7A699A4263
:10282000E7D300E000BF3B69DB68FA689A603B6968
:10283000DA68FB68DA603B69FA68DA60FB683A6973
:102840009A607B681B685B087A699A4204D37B684C
:102850001B699A687B681A617B681B691B6818464C
:102860001C37BD465DF8047B704780B584B000AF6F
:1028700003463960FB800023FB73FB883A6840F213
:102880000F11184600F0B8FB03461A46FB7B1343B2
:10289000FB73FB7B18461037BD4680BD80B584B006
:1028A00000AF0346FB800023FB7301237B730023EF
:1028B0007B8107F10902FB88E521184600F0D8FB6F
:1028C00003461A46FB7B1343FB737B7A032B02D12F
:1028D00000237B730BE07B89B3F57A7F03D27B897E
:1028E00001337B8103E000237B73FF23FB73FB88B1
:1028F0000121184600F06AFC7B7B012B00D1D8E750
:102900002D23BB73BB7B872B12D8BB7B99B2BB7BC0
:102910002D3B444AD25CFB88184600F0D3FB0346AB
:102920001A46FB7B1343FB73BB7B0133BB73E9E7A5
:10293000FB8840228721184600F0C4FB03461A4654
:10294000FB7B1343FB7300237B8101237B7307F124
:102950000902FB881146184600F0C6F803461A46DD
:10296000FB7B1343FB737B7A012B02D100237B7328
:102970000BE07B89B3F57A7F03D27B8901337B81BE
:1029800003E000237B73FF23FB73FB8801211846C0
:1029900000F01CFC7B7B012B00D1D8E7FB8818469C
:1029A00000F042F803461A46FB7B1343FB73FB8897
:1029B000184600F082F803461A46FB7B1343FB736C
:1029C000FB8809220821184600F07CFB03461A46C2
:1029D000FB7B1343FB73FB8800220B21184600F09E
:1029E00071FB03461A46FB7B1343FB73FB884FF4D2
:1029F000A0622421184600F093FB03461A46FB7B95
:102A00001343FB73FB8800223221184600F0B0F814
:102A100003461A46FB7B1343FB73FB7B18461037B8
:102A2000BD4680BD387A010880B584B000AF03464A
:102A3000FB800023FB73FB8801228621184600F0EF
:102A400041FB03461A46FB7B1343FB73FB7B184693
:102A50001037BD4680BD80B584B000AF0346FB8013
:102A60000023FB7307F10802FB886C21184600F075
:102A700085FA03461A46FB7B1343FB73BB68002BA6
:102A80000BD1FB8821228721184600F01BFB03464F
:102A90001A46FB7B1343FB730AE0FB884022872125
:102AA000184600F00FFB03461A46FB7B1343FB73EB
:102AB000FB7B18461037BD4680BD80B584B000AFA3
:102AC0000346FB800023FB73FB8800228721184606
:102AD00000F0F8FA03461A46FB7B1343FB73FB7BBB
:102AE00018461037BD4680BD80B584B000AF0346A0
:102AF0003960FB800023BB7307F10D02FB88302196
:102B0000184600F0B5FA03461A46BB7B1343BB7365
:102B10007B7B03F01003DBB27B737B7B1B11DBB28F
:102B20007B737B7B012B02D10023FB7301E001232C
:102B3000FB7307F10D02FB883121184600F098FA6B
:102B400003461A46BB7B1343BB737B7B03F0010236
:102B5000FB7B9A4203D13B6801221A7002E03B687A
:102B600000221A70BB7B18461037BD4680BD00009E
:102B700080B58CB000AF0346B9607A60FB8100235A
:102B800087F82F300023BB6200237B62864BFB61FA
:102B900007F11402FB890621184600F02DFA0346BE
:102BA0001A4697F82F30134387F82F30BB8A002B33
:102BB00012D0BB684FF47A7202FB03F37B62BB8ACC
:102BC0001A464FF08043B3FBF2F21346DB00134486
:102BD0001B029B09BB6205E097F82F3063F00103ED
:102BE00087F82F30BB68092B06D9BB68C82B03D8E0
:102BF00097F82F30002B06D097F82F3063F00103A1
:102C000087F82F305EE07B68002B11D1FB89002212
:102C10006C21184600F0AEFA03461A4697F82F309A
:102C2000134387F82F307B6AA3F6C4137B6249E015
:102C30007A68BB689A423FD907F11602FB89DE2108
:102C4000184600F0D9F903461A4697F82F30134377
:102C500087F82F30FB8AC3F309039BB2FB827B68A2
:102C600007EE903AB8EE677AD7ED077A27EE277A23
:102C7000FB8A07EE903AF8EE677A67EE277AC7ED9F
:102C8000077AD7ED077AFCEEE77AFB8917EE902AF0
:102C90006C21184600F06EFA03461A4697F82F305A
:102CA000134387F82F307B6AA3F586530C3B7B6276
:102CB0007B6A5B087B6205E097F82F3063F00103C5
:102CC00087F82F3097F82F30FE2B67D00023BB8575
:102CD0007B6A1B037B62BB6A1B01BB61BB69DA09B0
:102CE0007B6A1A44BB699B09B2FBF3F3013B3B626D
:102CF0003B6A23F0FF03002B06D03B6A5B083B6274
:102D0000BB8D0133BB85F3E7BB8D1B029AB23B6AD7
:102D10009BB2DBB29BB21344BB85BA8DFB895E21AB
:102D2000184600F0FDF903461A4697F82F30134372
:102D300087F82F300023BB85BA6A13465B00134423
:102D40009B00BB61BB69DA097B6A1A44BB699B09BA
:102D5000B2FBF3F3013B3B623B6A23F0FF03002B22
:102D600006D03B6A5B083B62BB8D0133BB85F3E752
:102D7000BB8D1B029AB23B6A9BB2DBB29BB213447F
:102D8000BB85BA8DFB896121184600F0C9F903465D
:102D90001A4697F82F30134387F82F3097F82F30C3
:102DA00018463037BD4680BD3D0A873FB0B58AB072
:102DB00000AF03463960FB80002387F82730524B71
:102DC00007F108041D460FCD0FC495E8030084E801
:102DD000030007F12302FB888921184600F048F917
:102DE00003461A4697F82730134387F8273097F899
:102DF000233003F01F03DBB287F8233097F823302A
:102E0000172B08D897F8233007F12802134413F83A
:102E1000203C87F8233097F823203B681A7007F18D
:102E20002402FB888C21184600F0E6F803461A4677
:102E300097F82730134387F82730BB8C1B0A9AB2C8
:102E40003B689A8107F12402FB888E21184600F026
:102E5000D3F803461A4697F82730134387F82730EC
:102E6000BB8CDB009AB23B681A8107F12402FB8815
:102E70009021184600F0C0F803461A4697F827300C
:102E8000134387F82730BB8CDB009AB23B689A80EB
:102E900007F12402FB889221184600F0ADF80346A2
:102EA0001A4697F82730134387F82730BB8C9B08C6
:102EB0009AB23B68DA8107F12402FB889621184612
:102EC00000F09AF803461A4697F82730134387F81C
:102ED0002730BA8C3B685A803B681A893B689B89CB
:102EE000B2FBF3F39AB23B685A813B689A883B681D
:102EF0009B89B2FBF3F39AB23B68DA8097F82730EC
:102F000018462837BD46B0BD646D010880B500AFD6
:102F10000249034805F06AFE00BF80BDA08601009B
:102F2000E80A002080B584B000AF03460A46FB7172
:102F30001346BB800023FB73BB88BB73FB79032B59
:102F400001D9FF2314E0FB79012202FA03F3DBB27B
:102F50003B7307F10C02B97B0123074805F09CFF86
:102F60000346012B01D1002300E0FF23FB73FB7B11
:102F700018461037BD4680BDE80A002080B588B0ED
:102F800002AF03463A60FB800B46BB80FB88FB75B3
:102F90000023BB7500233B610023BB81BB88DBB2F0
:102FA0007B7307F10C02F97D0423019307F11003F1
:102FB000009302230F4805F0A1FF0346042B01D123
:102FC000002300E0FF23BB75BB7D002B0DD1FB7CF4
:102FD0001A46BB7C1B021A437B7C1B041A433B7CB6
:102FE0001B0613431A463B681A60BB7D1846183708
:102FF000BD4680BDE80A002080B586B002AF03461A
:103000003A60FB800B46BB80FB88FB730023BB73DD
:1030100000233B7300237B7300233B81BB88DBB21F
:103020007B7207F10802F97B0223019307F10C037D
:10303000009302230D4805F061FF0346022B01D1E6
:10304000002300E0FF23BB73BB7B002B09D17B7BFC
:103050001AB23B7B1B021BB213431BB29AB23B68F2
:103060001A80BB7B18461037BD4680BDE80A002099
:1030700080B586B002AF03463A60FB800B46BB804A
:10308000FB88FB730023BB730023BB81BB88DBB2CF
:103090007B7307F10C02F97B012301933B680093DA
:1030A0000223074805F02AFF0346012B01D1002324
:1030B00000E0FF23BB73BB7B18461037BD4680BDC5
:1030C000E80A002080B584B000AF0346FB800B46C1
:1030D000BB801346FB70FB88FB730023BB7307F1B7
:1030E000080300210A461A800A469A70BB88DBB2A0
:1030F0007B72FB78BB7207F10802F97B0323074858
:1031000005F0CAFE0346032B01D1002300E0FF2394
:10311000BB73BB7B18461037BD4680BDE80A002054
:1031200080B584B000AF0346FB800B46BB801346DE
:103130007B80FB88FB730023BB730023BB60BB88D1
:10314000DBB27B727B88DBB2FB7207F10802F97B92
:103150000423074805F0A0FE0346042B01D10023F9
:1031600000E0FF23BB73BB7B18461037BD4680BD14
:10317000E80A002080B584B000AF03463A60FB80C7
:103180000B46BB80FB88FB730023BB7307F108036E
:1031900000221A609A80BB88DBB27B723B68DBB28C
:1031A0007B7307F10802F97B0623074805F074FEDC
:1031B0000346062B01D1002300E0FF23BB73BB7B3A
:1031C00018461037BD4680BDE80A002080B485B09F
:1031D00000AF03463960FB800023FB73FB7B18467E
:1031E0001437BD465DF8047B7047000080B582B09F
:1031F00000AF786039607B68012B0AD13B684FF6DD
:10320000FF72934205D1172316220121034805F0CE
:10321000A5FC00BF0837BD4680BD00BFE80A0020FE
:1032200080B500AF4FF6FF710120FFF7DFFF80BDD3
:1032300080B582B000AF7860074A7B681A600748A3
:1032400003F05CF97B680433184603F009FB7B68E4
:1032500018460837BD4680BD187C01087C6D010802
:1032600080B582B000AF78607868FFF7E1FF302169
:10327000786803F078FB7B6818460837BD4680BD48
:1032800080B483B000AF7860044A7B681A607B68C2
:1032900018460C37BD465DF8047B7047F07A01088C
:1032A00080B582B000AF78607868FFF7E9FF04214D
:1032B000786803F058FB7B6818460837BD4680BD28
:1032C00080B584B000AFF860B9607A603B600448B4
:1032D00003F014F9002318461037BD4680BD00BF27
:1032E000906D010880B483B000AF786000BF0C37E8
:1032F000BD465DF8047B704780B483B000AF786052
:1033000000BF0C37BD465DF8047B704780B483B0C6
:1033100000AF786000BF0C37BD465DF8047B704796
:1033200080B483B000AF7860044A7B681A607B6821
:1033300018460C37BD465DF8047B7047DC7A0108FF
:1033400080B582B000AF7860396078684FF4FA6376
:103350004FF47A7239680DF0B9F87B68503318462B
:10336000FFF7DEFF054A7B681A60054A7B681A652D
:103370007B6818460837BD4680BD00BFB07A01089B
:10338000C87A010880B584B000AF786003F014FA01
:10339000F8607B68002283F8902000BF1037BD469C
:1033A00080BD0000000000002DE9F04385B000AFB3
:1033B00078607B6893F8903019462B4803F056F8F4
:1033C0002A4802F0ABFC03F00DFC03460C467A6879
:1033D000C2E922340020FEF791FE254A00211E207A
:1033E000FEF7D5FD7B68D3E9228903F0FBFB03469A
:1033F0000C46434574EB0903ACBF01230023DBB249
:10340000002B10D00121786800F056F803F0EAFB99
:103410000A46014612A4D4E90034CD1842EB040652
:103420007B68C3E9225602211920FEF770FD03468E
:10343000FB81FB8903F00403002B02D10020FFF77E
:1034400057F87B68D3E922341A462346094803F02B
:103450002BF9084805F09EFA786800F00FFAC1E7EA
:1034600080B2E60E00000000186E01080400002083
:10347000009A9A00900A002080B586B002AFF860EA
:10348000B9601346FB7107F1080304221946084886
:1034900003F034FAFB6893F89000F9790023009365
:1034A0000E23044A02F076FD00BF1037BD4680BDF2
:1034B0004C0000204400002090B585B002AF786039
:1034C0000B46FB707B6893F89000F978002300931B
:1034D0000A23074A02F05EFD02F04CFC03460C464C
:1034E0007A68C2E9163400BF0C37BD4690BD00BFF4
:1034F0001000002090B585B002AF78600B46FB70DD
:103500007B6893F89000F978002300930A23074A18
:1035100002F040FD02F02EFC03460C467A68C2E938
:103520001A3400BF0C37BD4690BD00BF1C00002000
:103530002DE9F04389B002AF78600B46FB7002F0D2
:10354000ECFC0A46014626A4D4E9003411EB03083A
:1035500042EB0409C7E90489D7E904124FF00003DC
:103560004FF000040B0A43EA0263140A1846FEF700
:10357000FDFED7E9043444F234014FF000025D1837
:1035800044EB0206C7E902567B68D3E916341A46B3
:1035900023460F4802F05EFC7B68D3E91C341A46D0
:1035A00023460C4802F056FCD7E902230A4802F0F1
:1035B00051FC7B6893F89000F9780123009319235C
:1035C000064A02F0E7FC00BF1C37BD46BDE8F083A9
:1035D00030000020350000203A00002028000020A4
:1035E00001006D0B000000002DE9F04FA1B000AF0D
:1035F000F86302F0F7FB0A460146FB6BC3E92012B1
:10360000FB6B583319469A4802F049FCFB6B703348
:103610001946984802F043FCFB6B783319469648EC
:1036200002F03DFC4FF0FF334FF0FF04C7E91E34BA
:10363000FB6BD3E91C12FB6BD3E91634A24208BF23
:10364000994213D2FB6BD3E91C3413F1FF3544F1DB
:10365000FF06FB6BC3E91C56FB6BD3E91E3413F169
:10366000FF3844F1FF09FB6BC3E91E89FB6BD3E90B
:103670001E12FB6BD3E91C34A24208BF994209D247
:10368000FB6BD3E91E3413F1FF3A44F1FF0BFB6BE4
:10369000C3E91EABFB6BD3E91A12FB6BD3E91834F9
:1036A000A24208BF99421BD2FB6BD3E91A3413F133
:1036B000FF323A6344F1FF037B63FB6BD7E90C12E3
:1036C000C3E91A12FB6BD3E9203413F1FF32BA625B
:1036D00044F1FF03FB62FB6BD7E90A12C3E9201236
:1036E000FB6BD3E92012FB6BD3E91A34A24208BF6B
:1036F00099420DD2FB6BD3E9203413F1FF323A62C9
:1037000044F1FF037B62FB6BD7E90812C3E9201287
:10371000FB6BD3E91C12FB6BD3E91634C81AB861F2
:1037200062EB0403FB61D7E90601FDF73DF80346B0
:103730000C46C7E91C34FB6BD3E92012FB6BD3E9C1
:103740001A34C81A386162EB04037B61D7E90401BB
:10375000FDF72AF803460C46C7E91A34FB6BD3E998
:103760001E12FB6BD3E91C34C81AB86062EB040369
:10377000FB60D7E90201FDF717F803460C46C7E9DD
:103780001834FB6BD3E91A12FB6BD3E91834C81A4F
:10379000386062EB04037B60D7E90001FDF704F8B1
:1037A00003460C46C7E91634D7E91A23D7E91C01AA
:1037B000FDF730F803460C4625461C46D7E916238C
:1037C000D7E91801FDF726F802460B4620462946A0
:1037D000FCF768FE03460C4625461C46D7E91A232B
:1037E000D7E91C01FCF760FE02460B46104619465D
:1037F000D7E91823FCF758FE02460B461046194637
:10380000D7E91623FCF750FE02460B462046294610
:10381000FDF72AF903460C46C7E9143410A3D3E98F
:103820000023D7E91401FCF7F5FF03460C46C7E96E
:1038300012340DA3D3E90023D7E91201FCF7EAFF04
:1038400003460C46C7E91034D7E91001FDF7DAFA50
:10385000034618468437BD46BDE8F08FAFF30080BD
:10386000FA48CE3B1835B13D3333331319DDB1413E
:10387000280B00202D0B0020320B002090B587B0C4
:1038800000AF78603C4802F0D5FB0346002B6FD0B8
:10389000394B5B79FB75384B9B79BB75364B9B7805
:1038A0007B75354BDB79203B032B58D801A252F8AE
:1038B00023F000BFC5380008EB38000811390008B4
:1038C000333900087B6893F89030BA7D9A4248D12A
:1038D00002F088FA03460C467A68C2E91834FB7D88
:1038E00019467868FFF706FE3BE07B6893F8903056
:1038F000BA7D9A4237D102F075FA03460C467A68CF
:10390000C2E91C34FB7D19467868FFF711FE2AE0F6
:103910007B6893F89030BA7D9A4226D17868FFF799
:1039200063FE3861FB7D1A4639697868FFF7A4FDAC
:103930001BE07B6893F89030BA7D9A4217D107F16B
:103940000C0304220D49184602F0D8FFFB680C4A0C
:10395000536001220A490B4800F058F807E000BF05
:1039600006E000BF04E000BF02E000BF00E000BFCF
:1039700000BF1C37BD4690BD200B0020280B002047
:10398000B00B00201015002080B483B000AF786029
:10399000044A7B681A607B6818460C37BD465DF8A0
:1039A000047B7047F07A010890B583B000AF78606F
:1039B0007B681846FFF7E8FF134A7B681A607B684C
:1039C0001A1D7B68DA617B6803F10C027B681A625E
:1039D0007B6803F114027B685A627B68002283F8DB
:1039E00028207A684FF000034FF00004C2E90E343B
:1039F0007B68D3E90E347A68C2E90C347B681846D8
:103A00000C37BD4690BD00BF9C7A010880B584B0DC
:103A100000AFF860B9601346FB71F868FA790023CB
:103A2000B96803F0BDF9034618461037BD4680BD9E
:103A300080B582B000AF7860054A7B681A607B6809
:103A40001846FFF71DFC7B6818460837BD4680BD49
:103A50009C7A010880B582B000AF78607868FFF783
:103A6000E7FF4021786802F07EFF7B681846083740
:103A7000BD4680BD80B582B000AF7860074A7B68E4
:103A80001A60074A7B681A657B6818460CF08CFD43
:103A90007B6818460837BD4680BD00BFB07A010874
:103AA000C87A010880B582B000AF78607868FFF707
:103AB000E1FF9821786802F056FF7B6818460837C6
:103AC000BD4680BD80B584B002AF786039607B6848
:103AD000012B2DD13B684FF6FF72934228D140F263
:103AE000D1721549154802F0DDFB154A15491348F6
:103AF0000DF052FC1448FFF757FF114A13491248C2
:103B00000DF04AFC00230093114B0F4A1149124853
:103B100002F036FF0A4A11490F480DF03DFC1049EA
:103B20001048FFF70DFC064A0F490E480DF034FC13
:103B300000BF0837BD4680BD286E0108040B002079
:103B400094160020E5620008400B0020313A00087E
:103B50004C6E010810150020800B00203132000847
:103B6000606E0108B80B0020753A000880B584B07B
:103B700000AFF860B9607A603B607B68082B04D9BD
:103B8000064802F0BBFC002304E03968F86800F046
:103B900007F8012318461037BD4680BD8C6E01081A
:103BA000F0B484B000AF786039607B68DB693A6854
:103BB00092E8030083E803007B681B6AFB607B6874
:103BC000DA697B681A627B68FA68DA617B6893F865
:103BD0002830DBB2002B09D07B68DB69FB607B6897
:103BE0005A6A7B68DA617B68FA685A627B68D3E953
:103BF0000C345D1C44F100067B68C3E90C5600BF21
:103C00001037BD46F0BC704780B500AF4FF6FF716E
:103C10000120FFF757FF80BD90B583B000AF7860FB
:103C200039603868FCF79EFD03460C461A46234669
:103C3000114802F01BFCD7ED007AF5EEC07AF1EEE8
:103C400010FA12DBD7ED007A9FED0C7AF4EEC77A0A
:103C5000F1EE10FA09D5D7ED007AFCEEE77A17EE0F
:103C6000901A786806F0B2FB02E0054802F0FEFB0D
:103C700000BF0C37BD4690BD3C6F0108000080447A
:103C8000486F010880B582B000AF786039603B684A
:103C9000012B02D03B68002B05D13B6819467868A0
:103CA00004F05FFD02E0034802F0E0FB00BF0837CC
:103CB000BD4680BD686F010890B589B000AF7860DF
:103CC00039603968924802F0D1FB02F08BFF03465D
:103CD0000C4618462146FCF76FFD8BA3D3E9002361
:103CE000FCF7C2FE03460C46C7E9023402F07AFF35
:103CF00003460C4618462146FCF75EFD82A3D3E935
:103D00000023FCF7B1FE03460C46C7E9063402F077
:103D100069FF03460C4618462146FCF74DFD7AA381
:103D2000D3E90023FCF7A0FE03460C4618462146C3
:103D3000D7E90223FCF7B6FB03460C46184621469A
:103D4000FDF718F803461946724802F08FFB02F09F
:103D500049FF03460C4618462146FCF72DFD6AA391
:103D6000D3E90023FCF780FE03460C4618462146A3
:103D7000D7E90223FCF796FB03460C46184621467A
:103D8000FCF7F8FF03467B617A693B689A4200F3CF
:103D9000B08002F027FF03460C4618462146FCF788
:103DA0000BFD59A3D3E90023FCF75EFE03460C4646
:103DB00018462146D7E90623FCF774FB03460C4658
:103DC0001846214601231C464FF000024FF0804365
:103DD000FCF79CFF0346002B01D100231C46E3B2F5
:103DE000002B07D00121786804F0BBFC4A4802F0A0
:103DF0003DFB60E002F0F6FE03460C461846214605
:103E0000FCF7DAFC40A3D3E90023FCF72DFE0346C0
:103E10000C4618462146D7E90623FCF743FB034628
:103E20000C46184621464FF000024FF08043FCF745
:103E300081FF0346002B22D002F0D4FE03460C463D
:103E400018462146FCF7B8FC2FA3D3E90023FCF762
:103E50000BFE03460C4618462146D7E90623FCF71D
:103E600021FB03460C46184621464FF000022B4B1F
:103E7000FCF74CFF0346002B01D0012300E0002398
:103E8000002B07D0264802F0F1FA0021786804F0F0
:103E900068FC10E002F0A6FE03460C4618462146D8
:103EA000FCF78AFC18A3D3E90023FCF7DDFD0346E9
:103EB0000C46C7E9063402F095FE03460C46184648
:103EC0002146FCF779FC10A3D3E90023FCF7CCFDD5
:103ED00003460C4618462146D7E90223FCF7E2FACE
:103EE00003460C4618462146FCF744FF03467B6117
:103EF0004AE70021786804F034FC00BF2437BD464F
:103F000090BD00BFAFF300800000000065CDCD4143
:103F1000746F0108906F0108A06F01080000104045
:103F2000A86F010880B483B000AF786039600F4A91
:103F30007B681A603B685A687B685A603B689A687D
:103F40007B689A603B68DA687B68DA603B681A696C
:103F50007B681A613B685A697B685A617B681846BE
:103F60000C37BD465DF8047B704700BFDC7B010861
:103F700080B582B000AF786039607B683A681146DE
:103F80001846FFF7CFFF064A7B681A603B689A69BC
:103F90007B689A617B6818460837BD4680BD00BFC4
:103FA000187D010880B5BAB000AF786039607B68D1
:103FB000013B032B00F2E88001A252F823F000BF7E
:103FC000D13F00083F400008AD4000081B410008F9
:103FD000D7ED007AF5EEC07AF1EE10FA1AD507F1B6
:103FE00008036B491846FFF7C3FFD7ED007AF1EEDF
:103FF000677A17EE902A07F1080311461846FFF773
:104000000BFE0121634804F0ACFB0021624804F080
:10401000A8FBB9E007F124035D491846FFF7A8FFA4
:1040200007F1240339681846FFF7F6FD00215948C7
:1040300004F097FB0121584804F093FBA4E0D7ED6E
:10404000007AF5EEC07AF1EE10FA1AD507F14003C6
:1040500052491846FFF78CFFD7ED007AF1EE677AE8
:1040600017EE902A07F1400311461846FFF7D4FDDA
:1040700001214B4804F075FB00214A4804F071FB14
:1040800082E007F15C0345491846FFF771FF07F12D
:104090005C0339681846FFF7BFFD0021404804F073
:1040A00060FB01213F4804F05CFB6DE0D7ED007A36
:1040B000F5EEC07AF1EE10FA1AD507F178033A4915
:1040C0001846FFF755FFD7ED007AF1EE677A17EE45
:1040D000902A07F1780311461846FFF79DFD01214C
:1040E000324804F03EFB0021314804F03AFB4BE03B
:1040F00007F194032C491846FFF73AFF07F19403A0
:1041000039681846FFF788FD0021284804F029FB8C
:104110000121274804F025FB36E0D7ED007AF5EEC3
:10412000C07AF1EE10FA1AD507F1B003214918460A
:10413000FFF71EFFD7ED007AF1EE677A17EE902AAF
:1041400007F1B00311461846FFF766FD01211A4832
:1041500004F007FB0021194804F003FB13E007F10A
:10416000CC0314491846FFF703FF07F1CC03396865
:104170001846FFF751FD00210F4804F0F2FA012123
:104180000E4804F0EEFA00BF00BFE837BD4680BD20
:10419000DC0F0020FC0E0020180F0020F80F00207C
:1041A000340F0020500F0020141000206C0F00204E
:1041B000880F002030100020A40F0020C00F002026
:1041C0002DE9B04FA8B006AF0A215B4803F0A0FC70
:1041D00007EE900AB8EEE77ADFED586AC7EE267A66
:1041E0009FED577A67EE877AC7ED217A0B21524807
:1041F00003F08EFC07EE900AB8EEE77ADFED4F6A27
:10420000C7EE267A9FED4E7A67EE877AC7ED207A61
:104210000C21494803F07CFC07EE900AB8EEE77ADF
:10422000DFED466AC7EE267A9FED457A67EE877A1C
:10423000C7ED1F7A0D21404803F06AFC07EE900A93
:10424000B8EEE77ADFED3D6AC7EE267A9FED3C7A5D
:1042500067EE877AC7ED1E7A97ED217ADFED396A2E
:10426000C7EE267AC7ED1D7A97ED207ADFED356A25
:10427000C7EE267AC7ED1C7A97ED1F7ADFED316A1B
:10428000C7EE267AC7ED1B7A97ED1E7ADFED2D6A11
:10429000C7EE267AC7ED1A7A786FFCF763FA824682
:1042A0008B46386FFCF75EFA04460D46F86EFCF755
:1042B00059FA80468946B86EFCF754FA02460B4616
:1042C000CDE90423CDE90289CDE9004552465B469C
:1042D0001D4802F0CBF8786FFCF744FA82468B4613
:1042E000386FFCF73FFA04460D46F86EFCF73AFAD1
:1042F00080468946B86EFCF735FA02460B46381DF3
:10430000CDE90423CDE90289CDE9004552465B465B
:104310000D490DF04BF83B1D184602F0AFFA03466D
:104320001A463B1D1946094807F0C6FD00BF8837ED
:10433000BD46BDE8B08F00BF68100020000080457A
:1043400000A04D4500000C43B06F01084C10002048
:1043500090B583B000AF0E21254803F0D9FB07EEDE
:10436000900AF8EEE77A9FED237AC7EE876A16EE99
:10437000900AFCF7F7F91AA3D3E90023FCF74AFAED
:1043800003460C4618462146FCF73CFD03467B607D
:104390007868FCF7E7F903460C461A4623461648A8
:1043A00002F064F87868FCF7DDF90FA3D3E9002385
:1043B000FCF730FA03460C4618462146FCF722FD6E
:1043C00003463B603868FCF7CDF903460C461A46B5
:1043D00023460A4802F04AF800BF0C37BD4690BD9C
:1043E0006666666666660A40C3F5285C8FC2124040
:1043F0008410002000008045D86F0108EC6F010890
:1044000080B584B000AF0346FB710023FB73614BA2
:104410001B78012B15D0022B2BD0002B40F0AF8046
:104420005D4B00221A705D4B00221A705C4B00221B
:104430001A70FB79242B40F0A680564B01221A708B
:10444000A1E0554B00221A70544B00221A70544BB5
:1044500000221A70FB79242B03D14E4B01221A70D3
:1044600092E097F907204F4B1A704A4B02221A70BC
:104470008AE0FB792B2B02D0FB792D2B1FD1464BE9
:104480001B78002B17D1464B1B78002B13D1424BC6
:1044900001221A70424B1B781A4697F90710424BBB
:1044A00099543F4B1B780133DAB23D4B1A70394BAC
:1044B00002221A7062E0374B00221A705EE0FB792C
:1044C0002E2B1BD1354B1B78002B13D1334B0122E4
:1044D0001A70334B1B781A4697F90710324B9954D0
:1044E0002F4B1B780133DAB22D4B1A70294B022265
:1044F0001A7049E0274B00221A7045E0FB792F2BF8
:104500001BD9FB79392B18D8254B1B781A4697F9FC
:104510000710254B9954224B1B780133DAB2204BFC
:104520001A701F4B1B780C2B03D91A4B00221A70E0
:1045300024E0184B02221A7020E0FB79242B03D1CF
:10454000144B01221A701FE0FB79232B12D1144B5C
:104550001B781A46144B00219954124B93F90030E2
:10456000DBB2184600F03CF80346FB73094B00220F
:104570001A7009E0074B00221A7005E004E0054BB1
:1045800000221A7000E000BFFB7B18461037BD46C2
:1045900080BD00BF7C0D00207D0D00207E0D002021
:1045A0007F0D0020800D0020840D002080B582B09A
:1045B00000AF786039607B683A6811461846FFF7AB
:1045C000B1FC064A7B681A603B689A697B689A610D
:1045D0007B6818460837BD4680BD00BFA07C010837
:1045E00090B5C5B000AF0246FB1D1A70D44801F06B
:1045F0003DFF0922D249D34807F05EFCFB1D1B7822
:10460000423B2A2B00F2DC8101A252F823F000BFCA
:10461000E7470008C14900084D480008C1490008A3
:10462000C1490008C1490008EF460008C149000817
:10463000C1490008C1490008C1490008C149000832
:10464000C1490008C1490008C1490008C149000822
:10465000C1490008C1490008BD460008C149000819
:10466000C1490008C1490008C1490008C149000802
:10467000C1490008C1490008C1490008C1490008F2
:10468000C1490008C1490008C1490008C1490008E2
:10469000C1490008AD490008C1490008C1490008E6
:1046A000C1490008C14900087F4700088D4800083B
:1046B000C94800080549000871490008A2480CF0E3
:1046C00071FE03460C4618462146FCF79BFB034649
:1046D000C7F80C31D7F80C01FCF744F803460C4638
:1046E0001A462346994801F0C1FE012369E1964824
:1046F0000CF058FE03460C4618462146FCF73AFBE0
:104700000346C7F80831D7F80811914801F0AEFE0A
:10471000D7F80831B3F1FF3F23D18E4801F0A6FE50
:104720004FF000010120FFF73DFC4FF00001022097
:10473000FFF738FC4FF000010320FFF733FC4FF088
:1047400000010420FFF72EFC07F1340382491846CC
:10475000FFF72CFF07F1340300211846FFF792FA08
:104760000BE007F150037C491846FFF71FFF07F1E4
:10477000500301211846FFF785FA012321E1724811
:104780000CF010FE03460C4618462146FCF7F2FAE0
:104790000346C7F80431D7F804116D4801F066FEEE
:1047A000D7F80431B3F1FF3F0FD16C4801F05EFE42
:1047B00007F16C036A491846FFF7F8FE07F16C032E
:1047C00000211846FFF75EFA0BE007F18803644901
:1047D0001846FFF7EBFE07F1880301211846FFF7A3
:1047E00051FA0123EDE058480CF0DCFD03460C467D
:1047F00018462146FCF7BEFA0346C7F80031D7F841
:104800000011534801F032FED7F80031012B0FD1CF
:10481000544801F02BFE07F1A40353491846FFF753
:10482000C5FE07F1A40300211846FFF72BFA0BE0A1
:1048300007F1C0034C491846FFF7B8FE07F1C00363
:1048400001211846FFF71EFA0123BAE03E480CF09A
:10485000A9FD03460C4618462146FCF78BFA034691
:10486000C7F8FC30D7F8FC10394801F0FFFD07F11C
:10487000DC033E491846FFF799FE07F1DC03D7F841
:10488000FC101846FFF718FA01239AE02E480CF0A6
:1048900089FD03460C4618462146FCF7B3FA034649
:1048A000C7F8F830D7F8F8100120FFF77BFBD7F8EE
:1048B000F800FBF757FF03460C461A4623462348E9
:1048C00001F0D4FD01237CE01F480CF06BFD034692
:1048D0000C4618462146FCF795FA0346C7F8F8300F
:1048E000D7F8F8100220FFF75DFBD7F8F800FBF7C8
:1048F00039FF03460C461A462346144801F0B6FD1C
:1049000001235EE010480CF04DFD03460C461846AE
:104910002146FCF777FA0346C7F8F830D7F8F810C5
:104920000320FFF73FFBD7F8F800FBF71BFF034618
:104930000C461A462346054801F098FD012340E045
:10494000F86F01084C100020840D0020047001084D
:104950001470010824700108C80D00203870010887
:10496000AC0D002050700108E40D0020000E002066
:1049700016480CF017FD03460C4618462146FCF776
:1049800041FA0346C7F8F830D7F8F8100420FFF7CB
:1049900009FBD7F8F800FBF7E5FE03460C461A467C
:1049A00023460B4801F062FD01230AE0094801F0AB
:1049B0005DFD0A220849094807F07EFA012300E05C
:1049C0000023184607F58A77BD4690BD840D002068
:1049D0000470010870700108887001084C100020F4
:1049E00080B582B000AF78600023012201215A48CF
:1049F00003F0B0FD002301220121584803F0AAFD75
:104A0000002301220121564803F0A4FD00230122C6
:104A10000121544803F09EFD002301220121524848
:104A200003F098FD002301220121504803F092FD7C
:104A30000023012201214E4803F08CFD00230122B6
:104A400001214C4803F086FD0023012201214A4840
:104A500003F080FD012301220121484803F07AFD83
:104A6000002301220121464803F074FD0A21454834
:104A700002F03AFF0B21434802F036FF0C21414877
:104A800002F032FF0D213F4802F02EFF0C220021E0
:104A90003D4802F093FF0E213B4802F025FF002322
:104AA00001220121394803F055FD00230122012193
:104AB000374803F04FFD002301220121354803F060
:104AC00049FD002301220121334803F043FD002367
:104AD00001220121314803F03DFD00230122012183
:104AE0002F4803F037FD0023012201212D4803F058
:104AF00031FD0023012201212B4803F02BFD00236F
:104B000001220121294803F025FD00230122012172
:104B1000274803F01FFD4FF47A7242F210712548C6
:104B200004F0EEFF4FF47A7242F21071224804F062
:104B3000E7FF4FF47A7242F21071204804F0E0FF70
:104B40004FF47A7242F210711D4804F0D9FF00BF91
:104B50000837BD4680BD00BF1C0E0020380E002067
:104B6000540E0020700E00208C0E0020A80E002095
:104B7000C40E0020E00E0020C80D0020900D002083
:104B8000E40D00206810002084100020AC0D0020EF
:104B9000000E0020FC0E0020180F0020340F002013
:104BA000500F00206C0F0020880F0020A40F002061
:104BB000C00F0020DC0F0020F80F00201410002090
:104BC00030100020000000002DE9F04383B000AF5A
:104BD0007860534801F04AFC524801F047FC5248C3
:104BE00001F044FC0121514803F0BBFD0121504874
:104BF00003F0B7FD01214F4803F0B3FD01214E48FA
:104C000003F0AFFD01214D4803F0ABFD01214C48FD
:104C100003F0A7FD01214B4803F0A3FD01214A4801
:104C200003F09FFD01F0DEFF0A4601463AA4D4E9F5
:104C3000003411EB030842EB0409002240464946C8
:104C40000BF082FD0021394803F08BFD002138482C
:104C500003F087FD0021374803F083FD002136482B
:104C600003F07FFD0021354803F07BFD002134482F
:104C700003F077FD0021334803F073FD0021324833
:104C800003F06FFD01F0AEFF0A46014622A4D4E90D
:104C90000034CD1842EB04060022284631460BF0C2
:104CA00053FD2A492A4800F077F92A492A4800F09A
:104CB00093F9FFF785FA254B5B681846FBF752FD21
:104CC00003460C461A462346244801F0CFFB214BED
:104CD000B3F900301946224801F0C8FB1D4BB3F967
:104CE000023019461F4801F0C1FB1A4BB3F90430DA
:104CF00019461D4801F0BAFB164BB3F906301946A8
:104D00001A4801F0B3FBFFF723FB194801F0AEFB93
:104D100068E700BFAFF3008000CA9A3B00000000C4
:104D200094700108AC700108CC7001081C0E0020C2
:104D3000380E0020540E0020700E00208C0E002033
:104D4000A80E0020C40E0020E00E0020C00C0020A1
:104D5000500C0020500D0020C80C0020F0700108FD
:104D600004710108147101081C7101082471010803
:104D70002C71010880B582B000AF786078684FF47C
:104D8000FA63642205490BF0A1FB054A7B681A60AF
:104D90007B6818460837BD4680BD00BF30710108EA
:104DA000347B010880B483B000AF786000BF0C375B
:104DB000BD465DF8047B704780B584B000AF786075
:104DC0004FF0FF326FF00043084801F06DFC07F12F
:104DD0000F0301221946054807F003F897F90F3031
:104DE000DBB21846FFF70CFBEAE700BF44290020BE
:104DF00080B582B000AF786078684FF4FA636422BF
:104E000005490BF063FB054A7B681A607B6818460E
:104E10000837BD4680BD00BF307101081C7B01080A
:104E200090B585B000AFF860B960C7E90023F868B5
:104E30004FF4FA636422B9680BF048FB064AFB683A
:104E40001A60FA68D7E90034C2E91434FB681846DE
:104E50001437BD4690BD00BF047B010880B582B009
:104E600000AF78604FF4E131034806F04DFE00BF1B
:104E70000837BD4680BD00BF4C100020B0B588B0DB
:104E800000AF7860134B07F108041D460FCD0FC427
:104E900095E8030020600434217007F10803142210
:104EA0001946786800F01AF84FF0FF326FF00043AF
:104EB000094801F0F9FB07F11F03012219460648D2
:104EC00006F08FFF97F91F30DBB21846FFF798FA0C
:104ED000EAE700BF407101084C10002080B586B0A1
:104EE00000AFF860B9607A6000237B617A697B6803
:104EF0009A4216DA7B69BA68D1187A687B69D31A44
:104F00001A460A4806F0D8FF38613B69002B03DADD
:104F1000074801F0ABFAE9E77A693B6913447B6122
:104F2000E4E700BF1837BD4680BD00BF4C1000202D
:104F30005871010890B583B000AF78607B6818465F
:104F4000FEF722FD134A7B681A607B6803F10802B2
:104F50007B689A637B6803F118027B68DA637B687D
:104F600003F128027B681A647B68002283F84420DE
:104F70007A684FF000034FF00004C2E914347B68F4
:104F8000D3E914347A68C2E912347B6818460C37C6
:104F9000BD4690BD4C7B010890B583B000AF7860F2
:104FA00039607B68D3E90C347A68D2E90E12A242E8
:104FB00008BF99420BD23968786800F02DF87B68F9
:104FC000D3E90C347A68C2E90E34012300E00023EF
:104FD00018460C37BD4690BD90B583B000AF7860E1
:104FE00039607B68D3E912347A68D2E91412A2429C
:104FF00008BF99420BD23968786800F031F87B68B5
:10500000D3E912347A68C2E91434012300E00023A2
:1050100018460C37BD4690BDF0B484B000AF786040
:1050200039607B68012283F828207B681B6AFB605B
:105030003B68FA6892E8030083E803007B6800227B
:1050400083F828207B68D3E90E345D1C44F1000608
:105050007B68C3E90E5600BF1037BD46F0BC7047F1
:10506000F0B484B000AF786039607B68012283F8C7
:1050700044207B68DB6BFB603A68FB6814460FCB0F
:1050800084E80F007B68002283F844207B68D3E922
:1050900014345D1C44F100067B68C3E9145600BF5C
:1050A0001037BD46F0BC704780B582B000AF786065
:1050B000054A7B681A607B6818460BF075FA7B68B6
:1050C00018460837BD4680BD047B010880B582B014
:1050D00000AF78607868FFF7E7FF5821786801F043
:1050E00042FC7B6818460837BD4680BD80B582B05B
:1050F00000AF7860054A7B681A607B6818460BF041
:1051000053FA7B6818460837BD4680BD1C7B0108F2
:1051100080B582B000AF78607868FFF7E7FF502174
:10512000786801F020FC7B6818460837BD4680BDD2
:1051300080B582B000AF7860054A7B681A607B68F2
:1051400018460BF031FA7B6818460837BD4680BD1B
:10515000347B010880B582B000AF78607868FFF7D3
:10516000E7FF5021786801F0FEFB7B68184608379E
:10517000BD4680BD80B582B000AF7860054A7B68CF
:105180001A607B681846FEF77BF87B68184608377C
:10519000BD4680BD4C7B010880B582B000AF786011
:1051A0007868FFF7E7FF5821786801F0DCFB7B683F
:1051B00018460837BD4680BD80B584B002AF786020
:1051C00039607B68012B40F0CF803B684FF6FF725F
:1051D000934240F0C9806848FEF7E6FB674A684999
:1051E00065480CF0D9F800230093664B624A664983
:1051F000664801F0C5FB614A654964480CF0CCF88B
:105200006448FFF797FE5D4A634962480CF0C4F8B2
:10521000002300935B4B5F4A6049614801F0B0FB9B
:10522000564A5B495E480CF0B7F840F2D1725D49CE
:105230005D4801F037F8514A5C495B480CF0ACF826
:105240003A215B4803F058F93B215A4803F054F9DE
:105250003821594803F050F92621584803F04CF9F9
:105260002B21574803F048F93021564803F044F900
:105270003121554803F040F93221544803F03CF9FC
:105280003321534803F038F93421524803F034F9FC
:105290003521514803F030F93621504803F02CF9FC
:1052A00037214F4803F028F93F214E4803F024F9F5
:1052B0003E214D4803F020F93D214C4803F01CF9F4
:1052C0003C214B4803F018F94C214A4803F014F9EB
:1052D0004B21494803F010F94A21484803F00CF9E2
:1052E0004921474803F008F90421464804F0E4FB4B
:1052F0000521454804F0E0FB0621444804F0DCFBAE
:105300000721434804F0D8FB4FF0FF3301934FF0DF
:10531000FF3300931B231A2203213E4806F08EFA26
:1053200003213D4802F0AEFA01213C4802F0AAFAFE
:105330003B48FFF71FFD114A3A4939480CF02CF859
:105340003948FFF755FD0D4A384937480CF024F825
:1053500007A3D3E9002336493648FFF761FD074A22
:10536000354934480CF018F800BF0837BD4680BDF9
:1053700000E1F50500000000500C0020941600200C
:10538000313A00086C71010810150020900C0020C3
:1053900031320008C80C0020755100083415002077
:1053A000200D002080710108600D0020E5620008DA
:1053B000900D0020AC0D0020C80D0020E40D002051
:1053C000000E00201C0E0020380E0020540E00207D
:1053D000700E00208C0E0020A80E0020C40E0020AD
:1053E000E00E0020FC0E0020180F0020340F0020DB
:1053F000500F00206C0F0020880F0020A40F002009
:10540000C00F0020DC0F0020F80F00201410002037
:10541000301000204C100020681000208410002064
:10542000A010002031510008F0100020ED500008BD
:105430008871010840110020A950000880B584B08F
:1054400000AFF860B9607A603B607B68102B04D9CC
:10545000064801F053F8002304E03968F86800F0CA
:1054600007F8012318461037BD4680BD907101082A
:10547000F0B484B000AF786039607B689A6B3B68A9
:1054800014460FCB84E80F007B68DB6BFB607B6806
:105490009A6B7B68DA637B68FA689A637B6893F837
:1054A0004430DBB2002B09D07B689B6BFB607B68D0
:1054B0001A6C7B689A637B68FA681A647B68D3E924
:1054C00012345D1C44F100067B68C3E9125600BF2C
:1054D0001037BD46F0BC704780B500AF4FF6FF7186
:1054E0000120FFF769FE80BD80B582B000AF786013
:1054F000396078684FF4FA63642239680AF0E6FF8D
:10550000034A7B681A607B6818460837BD4680BD31
:10551000607B010880B582B000AF7860FDF7F6FCD3
:105520007B682922A3F8502070210020FDF7FAFCA7
:1055300003461A467B6883F852207B68B3F85020F4
:105540007B68563319461046FDF78FF903461A4615
:105550007B6883F852207B6893F85230002B04D18B
:105560007B684EF6AA32A3F856200123002B0DD0FB
:105570007B6893F8523019467B68B3F856301A4668
:105580007B68B3F85030984800F070FF7B6893F860
:105590005230002B03D0954800F068FF1BE0944880
:1055A00000F064FF7B68B3F850301846FDF776F9D9
:1055B00003461A467B6883F852208E4800F056FF57
:1055C0007B68B3F850301846FDF745FA03461A4693
:1055D0007B6883F8522070210120FDF7A3FC03466D
:1055E0001A467B6883F852207B68B3F850207B68AA
:1055F000563319461046FDF738F903461A467B68BC
:1056000083F852207B6893F85230002B04D17B68DA
:105610004EF6AA32A3F856200123002B0DD07B684A
:1056200093F8523019467B68B3F856301A467B68B7
:10563000B3F850306C4800F019FF7B6893F8523093
:10564000002B03D0694800F011FF1BE0684800F010
:105650000DFF7B68B3F850301846FDF71FF903467D
:105660001A467B6883F85220624800F0FFFE7B6890
:10567000B3F850301846FDF7EEF903461A467B683A
:1056800083F8522070210220FDF74CFC03461A4695
:105690007B6883F852207B68B3F850207B685633D0
:1056A00019461046FDF7E1F803461A467B6883F871
:1056B00052207B6893F85230002B04D17B684EF661
:1056C000AA32A3F856200123002B0DD07B6893F853
:1056D000523019467B68B3F856301A467B68B3F8E7
:1056E0005030414800F0C2FE7B6893F85230002BE6
:1056F00003D03E4800F0BAFE1BE03D4800F0B6FE85
:105700007B68B3F850301846FDF7C8F803461A46D0
:105710007B6883F85220374800F0A8FE7B68B3F816
:1057200050301846FDF797F903461A467B6883F810
:10573000522070210320FDF7F5FB03461A467B68D3
:1057400083F852207B68B3F850207B6856331946A3
:105750001046FDF78AF803461A467B6883F8522004
:105760007B6893F85230002B04D17B684EF6AA3246
:10577000A3F856200123002B0DD07B6893F85230FC
:1057800019467B68B3F856301A467B68B3F8503038
:10579000154800F06BFE7B6893F85230002B03D065
:1057A000124800F063FE1BE0114800F05FFE7B68CA
:1057B000B3F850301846FDF771F803461A467B6877
:1057C00083F852200B4800F051FE7B68B3F850304C
:1057D0001846FDF740F903461A467B6883F85220C5
:1057E00000BF0837BD4680BDA4710108E8710108FB
:1057F00008720108207201082DE9F04F85B000AF52
:10580000F8600B46FB72FB6893F85230002B03D014
:10581000A74800F02BFEC7E1FB7A032B00F2C481FE
:1058200001A252F823F000BF395800080D590008B2
:10583000DF590008D95A00089E4B09221A609D4B77
:105840009D4A5A609B48FCF718FFFB68002283F8CA
:105850005320FB6893F85330042B51D8FB68B3F8FE
:105860005020FB68543319461046FDF73DF90346B6
:105870001A46FB6883F85220FB6893F85430002BDB
:1058800005D0FB68B3F850301846FDF7CDF8FB683B
:10589000B3F85020FB685A3319461046FDF786FAD4
:1058A000FB68B3F85C3019468248FCF760FF03469A
:1058B0001AB2824B1A80814BB3F90030002B05D10C
:1058C000FB68B3F85C301AB27C4B1A80FB6893F823
:1058D00053300133DAB2FB6883F8532001F082F9C8
:1058E0000A460146764B4FF00004C818386042EB78
:1058F00004037B600022D7E900010AF025FFA8E736
:1059000001226E496F4800F091F94DE16E4B09227A
:105910001A606D4B6D4A5A606B48FCF7AEFEFB682F
:10592000002283F85320FB6893F85330042B50D89F
:10593000FB68B3F85020FB68543319461046FDF756
:10594000D3F803461A46FB6883F85220FB6893F8A5
:105950005430002B05D0FB68B3F850301846FDF7E3
:1059600063F8FB68B3F85020FB686A3319461046A9
:10597000FDF71CFAFB68B3F86C3019465248FCF787
:10598000F6FE03461AB24D4B5A804C4BB3F9023027
:10599000002B05D1FB68B3F86C301AB2474B5A8024
:1059A000FB6893F853300133DAB2FB6883F8532075
:1059B00001F018F90A460146414B4FF0000411EB83
:1059C000030A42EB040B0022504659460AF0BCFE83
:1059D000A9E7012239493B4800F028F9E4E03C4BB3
:1059E00009221A603A4B3B4A5A603948FCF745FE97
:1059F000FB68002283F85320FB6893F85330042B94
:105A000050D8FB68B3F85020FB6854331946104651
:105A1000FDF76AF803461A46FB6883F85220FB68D4
:105A200093F85430002B05D0FB68B3F8503018467B
:105A3000FCF7FAFFFB68B3F85020FB687A3319468D
:105A40001046FDF7B3F9FB68B3F87C3019462048DF
:105A5000FCF78DFE03461AB2184B9A80174BB3F928
:105A60000430002B05D1FB68B3F87C301AB2134B1D
:105A70009A80FB6893F853300133DAB2FB6883F8FD
:105A8000532001F0AFF80A4601460D4B4FF00004D9
:105A900011EB030842EB04090022404649460AF094
:105AA00053FEA9E701220549064800F0BFF87BE054
:105AB000E8710108D011002020120020601400209D
:105AC00080841E0034150020E4110020B012002054
:105AD000F811002040130020394B09221A60384B7E
:105AE000384A5A603648FCF7C8FDFB68002283F844
:105AF0005320FB6893F85330042B4FD8FB68B3F85E
:105B00005020FB68543319461046FCF7EDFF03465E
