:020000040800F2
:1000000000000220516D0008F5E00008FBE0000848
:1000100019E100081FE1000825E1000800000000C8
:10002000000000000000000000000000F5D90008FA
:10003000B16D0008000000000DDA000871DD000855
:10004000B16D0008B16D0008B16D0008B16D000818
:10005000B16D0008B16D0008397D00085D7D0008B4
:10006000817D0008A57D0008C97D0008B16D0008EC
:10007000C9A60008B16D0008F1A50008B16D00081F
:1000800081A60008A9A50008B16D0008B16D00089F
:10009000B16D0008B16D0008B16D0008ED7D00087C
:1000A000B16D0008B16D000821DF0008B16D0008D6
:1000B000B16D0008B16D0008B16D0008B16D0008A8
:1000C000B16D0008B16D0008B16D0008B16D000898
:1000D000B16D0008D1A40008E9A4000801A500083A
:1000E0004D7E0008B16D0008B16D0008B16D0008CB
:1000F000B16D0008B16D0008B16D0008B16D000868
:10010000B16D0008B16D000815DB0008B16D000885
:1001100019A5000831A50008B16D0008B16D0008EF
:10012000B16D0008B16D0008B16D0008B16D000837
:10013000B16D0008B16D0008B16D0008B16D000827
:10014000B16D0008B16D0008B16D0008B16D000817
:1001500039A60008B16D000861A5000849A500088E
:10016000B16D0008B16D0008B16D0008B16D0008F7
:10017000B16D0008B16D0008B16D0008B16D0008E7
:0C018000B16D0008B16D0008000000081F
:1001C00001F0FF01102A2BDB10F0070F08D010F808
:1001D000013B013A8B422DD010F0070F42B3F6D10C
:1001E000F0B441EA012141EA014122F007047FF025
:1001F00000070023F0E80256083C85EA010586EA7C
:10020000010685FA47F5A3FA87F586FA47F6A5FAB7
:1002100087F68EB9EED1F0BC01F0FF0102F00702C3
:1002200032B110F8013B013A83EA010313B1F8D16E
:100230000020704701387047002D06BF354603384F
:10024000073815F0010F07D1013015F4807F02BF88
:10025000013015F4C03F0130F0BC0138704700BFD9
:10026000844641EA000313F003036DD1403A41D3C1
:1002700051F8043B40F8043B51F8043B40F8043B80
:1002800051F8043B40F8043B51F8043B40F8043B70
:1002900051F8043B40F8043B51F8043B40F8043B60
:1002A00051F8043B40F8043B51F8043B40F8043B50
:1002B00051F8043B40F8043B51F8043B40F8043B40
:1002C00051F8043B40F8043B51F8043B40F8043B30
:1002D00051F8043B40F8043B51F8043B40F8043B20
:1002E00051F8043B40F8043B51F8043B40F8043B10
:1002F000403ABDD2303211D351F8043B40F8043BB0
:1003000051F8043B40F8043B51F8043B40F8043BEF
:1003100051F8043B40F8043B103AEDD20C3205D3BF
:1003200051F8043B40F8043B043AF9D2043208D0B7
:10033000D2071CBF11F8013B00F8013B01D30B8829
:1003400003806046704700BF082A13D38B078DD007
:1003500010F003038AD0C3F10403D21ADB071CBFD9
:1003600011F8013B00F8013B80D331F8023B20F843
:10037000023B7BE7043AD9D3013A11F8013B00F87C
:10038000013BF9D20B7803704B7843708B78837004
:100390006046704700000000000000000000000000
:1003A000000000000000000000000000000000004D
:1003B000000000000000000000000000000000003D
:1003C00090F800F06DE9024520F007016FF0000C95
:1003D00010F0070491F820F040F049804FF000043D
:1003E0006FF00700D1E9002391F840F000F1080018
:1003F00082FA4CF2A4FA8CF283FA4CF3A2FA8CF350
:100400004BBBD1E9022382FA4CF200F10800A4FAB6
:100410008CF283FA4CF3A2FA8CF3E3B9D1E904230A
:1004200082FA4CF200F10800A4FA8CF283FA4CF341
:10043000A2FA8CF37BB9D1E9062301F1200182FAFB
:100440004CF200F10800A4FA8CF283FA4CF3A2FA01
:100450008CF3002BC6D0002A04BF04301A4612BA0F
:10046000B2FA82F2FDE8024500EBD2007047D1E912
:10047000002304F00305C4F100004FEAC50514F0A1
:10048000040F91F840F00CFA05F562EA05021CBF72
:1004900063EA050362464FF00004A9E781F00041DA
:1004A00002E000BF83F0004330B54FEA41044FEA59
:1004B000430594EA050F08BF90EA020F1FBF54EAF4
:1004C000000C55EA020C7FEA645C7FEA655C00F090
:1004D000E2804FEA5454D4EB5555B8BF6D420CDD61
:1004E0002C4480EA020281EA030382EA000083EAE4
:1004F000010180EA020281EA0303362D88BF30BD84
:1005000011F0004F4FEA01314FF4801C4CEA1131D9
:1005100002D0404261EB410113F0004F4FEA033338
:100520004CEA133302D0524263EB430394EA050FC3
:1005300000F0A780A4F10104D5F1200E0DDB02FA32
:100540000EFC22FA05F2801841F1000103FA0EF2C6
:10055000801843FA05F359410EE0A5F120050EF18C
:10056000200E012A03FA0EFC28BF4CF0020C43FABD
:1005700005F3C01851EBE37101F0004507D54FF0CA
:10058000000EDCF1000C7EEB00006EEB0101B1F51A
:10059000801F1BD3B1F5001F0CD349085FEA300060
:1005A0004FEA3C0C04F101044FEA445212F5800F6B
:1005B00080F09A80BCF1004F08BF5FEA500C50F108
:1005C000000041EB045141EA050130BD5FEA4C0CEB
:1005D000404141EB010111F4801FA4F10104E9D174
:1005E00091F0000F04BF01460020B1FA81F308BF6B
:1005F0002033A3F10B03B3F120020CDA0C3208DD37
:1006000002F1140CC2F10C0201FA0CF021FA02F111
:100610000CE002F11402D8BFC2F1200C01FA02F181
:1006200020FA0CFCDCBF41EA0C019040E41AA2BFA6
:1006300001EB0451294330BD6FEA04041F3C1CDA6E
:100640000C340EDC04F11404C4F1200220FA04F08E
:1006500001FA02F340EA030021FA04F345EA030138
:1006600030BDC4F10C04C4F1200220FA02F001FAFA
:1006700004F340EA0300294630BD21FA04F029467C
:1006800030BD94F0000F83F4801306BF81F4801115
:100690000134013D4EE77FEA645C18BF7FEA655C88
:1006A00029D094EA050F08BF90EA020F05D054EA5A
:1006B000000C04BF1946104630BD91EA030F1EBF5F
:1006C0000021002030BD5FEA545C05D14000494163
:1006D00028BF41F0004130BD14F580043CBF01F556
:1006E000801130BD01F0004545F0FE4141F470013C
:1006F0004FF0000030BD7FEA645C1ABF1946104617
:100700007FEA655C1CBF0B46024650EA013406BF17
:1007100052EA033591EA030F41F4002130BD00BFD6
:1007200090F0000F04BF0021704730B54FF4806493
:1007300004F132044FF000054FF0000150E700BF14
:1007400090F0000F04BF0021704730B54FF4806473
:1007500004F1320410F0004548BF40424FF0000160
:100760003EE700BF42004FEAE2014FEA31014FEAA3
:1007700002701FBF12F07F4393F07F4F81F06051F2
:10078000704732F07F4208BF704793F07F4F04BF3D
:1007900041F40021704730B54FF4607401F000451A
:1007A00021F000411CE700BF50EA010208BF70477A
:1007B00030B54FF000050AE050EA010208BF70476B
:1007C00030B511F0004502D5404261EB41014FF4D4
:1007D000806404F132045FEA915C3FF4D8AE4FF0DC
:1007E00003025FEADC0C18BF03325FEADC0C18BFBF
:1007F000033202EBDC02C2F1200300FA03FC20FA10
:1008000002F001FA03FE40EA0E0021FA02F114445C
:10081000BDE600BF70B54FF0FF0C4CF4E06C1CEA75
:1008200011541DBF1CEA135594EA0C0F95EA0C0FE6
:1008300000F0DEF82C4481EA030621EA4C5123EA59
:100840004C5350EA013518BF52EA033541F4801188
:1008500043F4801338D0A0FB02CE4FF00005E1FB3B
:1008600002E506F00042E0FB03E54FF00006E1FB85
:1008700003569CF0000F18BF4EF0010EA4F1FF04C8
:10088000B6F5007F64F5407404D25FEA4E0E6D4108
:1008900046EB060642EAC62141EA55514FEAC52019
:1008A00040EA5E504FEACE2EB4F1FD0C88BFBCF595
:1008B000E06F1ED8BEF1004F08BF5FEA500E50F146
:1008C000000041EB045170BD06F0004646EA01010C
:1008D00040EA020081EA0301B4EB5C04C2BFD4EB3E
:1008E0000C0541EA045170BD41F480114FF0000E37
:1008F000013C00F3AB8014F1360FDEBF002001F0A5
:10090000004170BDC4F10004203C35DA0C341BDC1E
:1009100004F11404C4F1200500FA05F320FA04F0F0
:1009200001FA05F240EA020001F0004221F0004124
:1009300010EBD37021FA04F642EB06015EEA430E97
:1009400008BF20EAD37070BDC4F10C04C4F12005C7
:1009500000FA04F320FA05F001FA04F240EA02007A
:1009600001F0004110EBD37041F100015EEA430E4B
:1009700008BF20EAD37070BDC4F1200500FA05F26B
:100980004EEA020E20FA04F301FA05F243EA0203EA
:1009900021FA04F001F0004121FA04F220EA0200F9
:1009A00000EBD3705EEA430E08BF20EAD37070BD3F
:1009B00094F0000F0FD101F00046400041EB01011F
:1009C00011F4801F08BF013CF7D041EA060195F001
:1009D000000F18BF704703F00046520043EB0303BB
:1009E00013F4801F08BF013DF7D043EA06037047A8
:1009F00094EA0C0F0CEA135518BF95EA0C0F0CD0B3
:100A000050EA410618BF52EA4306D1D181EA0301F8
:100A100001F000414FF0000070BD50EA410606BFF2
:100A20001046194652EA430619D094EA0C0F02D137
:100A300050EA013613D195EA0C0F05D152EA03367C
:100A40001CBF104619460AD181EA030101F000419A
:100A500041F0FE4141F470014FF0000070BD41F0E3
:100A6000FE4141F4780170BD70B54FF0FF0C4CF4BD
:100A7000E06C1CEA11541DBF1CEA135594EA0C0FDC
:100A800095EA0C0F00F0A7F8A4EB050481EA030E29
:100A900052EA03354FEA013100F088804FEA033310
:100AA0004FF0805545EA131343EA12634FEA0222DE
:100AB00045EA111545EA10654FEA00260EF000419F
:100AC0009D4208BF964244F1FD0404F5407402D2F1
:100AD0005B084FEA3202B61A65EB03055B084FEA82
:100AE00032024FF480104FF4002CB6EB020E75EB7F
:100AF000030E22BFB61A754640EA0C005B084FEAA7
:100B00003202B6EB020E75EB030E22BFB61A754623
:100B100040EA5C005B084FEA3202B6EB020E75EB6E
:100B2000030E22BFB61A754640EA9C005B084FEAE6
:100B30003202B6EB020E75EB030E22BFB61A7546F3
:100B400040EADC0055EA060E18D04FEA051545EAE2
:100B500016754FEA06164FEAC30343EA52734FEA8B
:100B6000C2025FEA1C1CC0D111F4801F0BD141EA04
:100B700000014FF000004FF0004CB6E711F4801F69
:100B800004BF01430020B4F1FD0C88BFBCF5E06F49
:100B90003FF6AFAEB5EB030C04BFB6EB020C5FEA59
:100BA000500C50F1000041EB045170BD0EF0004EAE
:100BB0004EEA113114EB5C04C2BFD4EB0C0541EAE0
:100BC000045170BD41F480114FF0000E013C90E6DD
:100BD00045EA060E8DE60CEA135594EA0C0F08BFA1
:100BE00095EA0C0F3FF43BAF94EA0C0F0AD150EAA0
:100BF00001347FF434AF95EA0C0F7FF425AF104633
:100C000019462CE795EA0C0F06D152EA03353FF45A
:100C1000FDAE1046194622E750EA410618BF52EAD7
:100C200043067FF4C5AE50EA41047FF40DAF52EAAB
:100C300043057FF4EBAE12E74FF0FF3C06E000BF48
:100C40004FF0010C02E000BF4FF0010C4DF804CD55
:100C50004FEA410C7FEA6C5C4FEA430C18BF7FEA15
:100C60006C5C1BD001B050EA410C0CBF52EA430C43
:100C700091EA030F02BF90EA020F0020704710F1C3
:100C8000000F91EA030F58BF994208BF90422CBF52
:100C9000D8176FEAE37040F0010070474FEA410C4B
:100CA0007FEA6C5C02D150EA013C07D14FEA430C69
:100CB0007FEA6C5CD6D152EA033CD3D05DF8040BDA
:100CC000704700BF8446104662468C46194663460C
:100CD00000E000BF01B5FFF7B7FF002848BF10F1E3
:100CE000000F01BD4DF808EDFFF7F4FF0CBF012028
:100CF00000205DF808FB00BF4DF808EDFFF7EAFFA4
:100D000034BF012000205DF808FB00BF4DF808ED5E
:100D1000FFF7E0FF94BF012000205DF808FB00BF53
:100D20004DF808EDFFF7CEFF94BF012000205DF8DD
:100D300008FB00BF4DF808EDFFF7C4FF34BF0120EA
:100D400000205DF808FB00BF4FEA410C7FEA6C5CB5
:100D500002D150EA013C0AD14FEA430C7FEA6C5CB5
:100D600002D152EA033C02D14FF0000070474FF02D
:100D7000010070474FEA410212F5001215D211D559
:100D80006FF47873B3EB625212D94FEAC12343F088
:100D9000004343EA505311F0004F23FA02F018BF0A
:100DA000404270474FF00000704750EA013005D1D3
:100DB00011F0004008BF6FF0004070474FF0000096
:100DC000704700BF4A0011D212F5001211D20DD5A2
:100DD0006FF47873B3EB62520ED44FEAC12343F041
:100DE000004343EA505323FA02F070474FF00000EB
:100DF000704750EA013002D14FF0FF3070474FF09A
:100E0000000070474FEA4102B2F1E04324BFB3F55E
:100E1000001CDCF1FE5C0DD901F0004C4FEAC00271
:100E20004CEA5070B2F1004F40EB830008BF20F055
:100E30000100704711F0804F21D113F13872BCBF0F
:100E400001F00040704741F480114FEA5252C2F164
:100E50001802C2F1200C10FA0CF320FA02F018BFAD
:100E600040F001004FEAC1234FEAD32303FA0CFC00
:100E700040EA0C0023FA02F34FEA4303CCE77FEA8F
:100E8000625307D150EA01331EBF4FF0FE4040F4D9
:100E90004000704701F0004040F0FE4040F4000088
:100EA000704700BF7BB972B90029BEBF00204FF068
:100EB000004106E008BF00281CBF6FF000414FF062
:100EC000FF3000F0F5B9ADF1080C6DE904CE002952
:100ED00009DB002B1ADB00F083F8DDF804E0DDE924
:100EE000022304B07047404261EB4101002B1BDB41
:100EF00000F076F8DDF804E0DDE9022304B04042BA
:100F000061EB4101524263EB43037047524263EB92
:100F1000430300F065F8DDF804E0DDE9022304B0E6
:100F2000404261EB41017047524263EB430300F0E2
:100F300057F8DDF804E0DDE9022304B0524263EB28
:100F40004303704753B94AB9002908BF00281CBFA2
:100F50004FF0FF314FF0FF3000F0AAB9ADF1080CAF
:100F60006DE904CE00F03CF8DDF804E0DDE9022391
:100F700004B0704738B50022002304460D46FFF741
:100F8000BBFE28B920462946BDE8384000F00AB823
:100F9000204605F1004100F005F8404261EB4101B7
:100FA00038BD00BFD0B500220B4B06460F46FFF7F9
:100FB00031FCFFF707FF0446FFF7B2FB0022074BA7
:100FC000FFF728FC02460B4630463946FFF76AFA1F
:100FD000FFF7F8FE2146D0BD0000F03D0000F041D3
:100FE0002DE9F047089E04468846002B40F0858096
:100FF0008A42154648D9B2FA82F24AB1C2F12007B4
:1010000001FA02F320FA07F7954047EA03089440F3
:101010004FEA154E230CB8FBFEF71FFA85FC0EFBBA
:10102000178843EA084307FB0CF1994209D9EB18EA
:1010300007F1FF3080F0E380994240F2E080023F08
:101040002B445B1AA4B2B3FBFEF00EFB103344EA50
:10105000034400FB0CFCA44509D92C1900F1FF3313
:1010600080F0CB80A44540F2C88002382C4440EA8E
:101070000740A4EB0C0400271EB1D4400023C6E9AE
:1010800000433946BDE8F087002A53D0B2FA82F215
:10109000002A40F0B680491B4FEA154E1FFA85F82A
:1010A0000127B1FBFEFC230C0EFB1C1143EA01439C
:1010B00008FB0CF1994207D9EB180CF1FF3002D272
:1010C000994200F2EC808446591AA3B2B1FBFEF0BB
:1010D0000EFB101443EA044408FB00F8A04507D9AE
:1010E0002C1900F1FF3302D2A04500F2DC80184633
:1010F000A4EB080440EA0C40BEE78B4208D9002E5E
:1011000078D00027C6E9000138463946BDE8F087A7
:10111000B3FA83F77FB98B4202D3824200F2BD80DB
:10112000841A61EB030301209846002EA9D0C6E97A
:101130000048A6E7FFDEC7F12005BB4022FA05FC08
:101140004CEA030C01FA07F420FA05F821FA05F33A
:101150004FEA1C4E48EA0404B3FBFEF9210C0EFBD7
:1011600019331FFA8CF841EA034309FB08FA9A4540
:1011700002FA07F200FA07F10BD91CEB030309F19D
:10118000FF3080F088809A4540F28580A9F10209FD
:101190006344A3EB0A03A4B2B3FBFEF00EFB1033CF
:1011A00044EA034400FB08F8A04508D91CEB0404FA
:1011B00000F1FF336BD2A04569D90238644440EA9C
:1011C0000940A4EB0804A0FB02894C45C6464B46E7
:1011D00054D351D0002E69D0B1EB0E0264EB03045E
:1011E00004FA05F522FA07F3FC401D43C6E9005452
:1011F000002746E73746304643E7184637E70746B5
:101200001FE7C2F1200320FA03F7954001FA02F02C
:1012100021FA03F34FEA154E3843010CB3FBFEF7F6
:101220001FFA85F80EFB173341EA034107FB08F369
:101230008B4204FA02F407D9691807F1FF3C28D25F
:101240008B4226D9023F2944CB1A81B2B3FBFEF070
:101250000EFB103341EA034100FB08F38B4207D930
:10126000691800F1FF3C10D28B420ED90238294494
:10127000C91A40EA074714E74145ABD2B8EB020E62
:1012800069EB0C0201381346A4E76046F0E7184604
:1012900095E76746D8E781467BE7384645E7ACF1F6
:1012A000020C2B4410E702382C4421E73746E8E6CD
:1012B000704700BF80B500AF0021034806F070FC06
:1012C0000123184680BD00BF900A002080B582B07F
:1012D00000AF78600121034806F062FC00BF0837C8
:1012E000BD4680BD900A00202DE9F04F87B000AFC9
:1012F000F86004F085FF82468B46FB681D464FF080
:1013000000062B4634464FF000014FF00002620108
:1013100042EAD36259010B4614465B1B64EB060498
:101320004FF000014FF00002620242EAD35259022C
:101330000B4614465B1946EB04044FF000014FF0D6
:101340000002A20142EA93629901C91A62EB040207
:1013500011EB050842EB06091AEB08033B604BEB67
:1013600009037B60D7E90034C7E904340022D7E9D8
:1013700004010DF0B5FB00BF1C37BD46BDE8F08F82
:1013800080B584B000AFF860B9607A603B6000213E
:10139000194806F0AAFB194808F0E2FC034683F05E
:1013A0000103DBB2002B00D0F5E7FA68B9681348F7
:1013B00008F0ECFC114808F0D3FC034683F001036D
:1013C000DBB2002B00D0F5E77A6839680B4808F0EB
:1013D000DDFC0A4808F0C4FC034683F00103DBB2DD
:1013E000002B00D0F5E70121034806F07EFB00BF8B
:1013F0001037BD4680BD00BF740A0020580A002087
:1014000080B584B000AFF860B9607A603B600021BD
:10141000194806F06AFB194808F0A2FC034683F05D
:101420000103DBB2002B00D0F5E7BA68F968134876
:1014300008F0ACFC114808F093FC034683F001036C
:10144000DBB2002B00D0F5E73A6879680B4808F06A
:1014500033FD0A4808F08FFC034683F00103DBB23A
:10146000002B00D0F5E70121034806F03EFB0023E6
:1014700018461037BD4680BD740A0020580A002067
:1014800080B584B000AFB9607A603B600346FB81F1
:10149000F8893B687A68B968FFF772FF002318463D
:1014A0001037BD4680BD80B584B000AFB9607A60AA
:1014B0003B600346FB81F9897B683A68B868FFF7AF
:1014C0009FFF002318461037BD4680BD80B584B00D
:1014D00002AF786039607B68012B14D13B684FF60E
:1014E000FF7293420FD107230093062305220121A7
:1014F000074808F011F90421064806F0C1F928212F
:10150000054806F0BDF900BF0837BD4680BD00BFE5
:10151000580A0020740A0020900A002080B500AF0D
:101520004FF6FF710120FFF7D1FF80BD80B500AFFE
:10153000012301220121074806F0D0F9064808F0EE
:10154000E1FA064B1B6800221946034808F026F909
:1015500000BF80BD740A0020580A0020000000204F
:1015600080B584B000AF0346FB71074B1A68FB7966
:10157000B2FBF3F3FB60FA680021044808F078FB43
:1015800000BF1037BD4680BD00000020580A002073
:1015900080B584B000AF0346FB710B46BB80134699
:1015A000BB71BB79DB01DBB25AB2FB795BB213438F
:1015B0005BB2DBB2FB7100211E4806F096FABB88D5
:1015C000002B2CD0FB7943F04003DBB2BB7307F157
:1015D0000C03023301221946174808F0D7FBBB88D9
:1015E0007F2B11D9BB88DBB263F07F03DBB23B7387
:1015F000BB88DB11DBB27B7307F10C0302221946B7
:101600000D4808F0C3FB10E0BB88DBB23B7307F169
:101610000C0301221946084808F0B8FB05E0FB1D41
:1016200001221946044808F0B1FB00BF1037BD463F
:1016300080BD00BF740A0020580A002080B584B025
:1016400000AFBA607B600346FB730B46BB81B98970
:10165000FB7B00221846FFF79BFF7B681A46B968A0
:10166000054808F029FC0121044806F03EFA00BFB5
:101670001037BD4680BD00BF580A0020740A002004
:1016800080B584B000AF03460A46FB711346BB80A9
:1016900007F10F02B988F8790123FFF7CFFFFB7B31
:1016A00018461037BD4680BD80B584B000AFBA6023
:1016B0007B600346FB730B46BB81B989FB7B012230
:1016C0001846FFF765FF7B681A46B968054808F0B9
:1016D0005DFB0121044806F008FA00BF1037BD4643
:1016E00080BD00BF580A0020740A002080B582B077
:1016F00000AF0346FB710B46BB801346BB71BA1D9E
:10170000B988F8790123FFF7CFFF00BF0837BD463E
:1017100080BD80B500AFFFF709FF00BF80BDF0B509
:1017200085B000AF00213620FFF7AAFF0346FB7308
:10173000FB7B23F00303DBB243F00103FB73FB7B72
:101740001A4600213620FFF7D1FF03213620FFF78C
:1017500097FF0346FB73FB7B03F00F03FB73FB7BDD
:101760001A4603213620FFF7C1FF04F049FD0A465F
:10177000014642F210734FF00004CD1842EB04060C
:10178000C7E9005604F03CFD0A460146D7E900349B
:10179000994272EB0403B4BF01230023DBB2002B98
:1017A00000D0EFE7FB7B63F00F03FB73FB7B1A4674
:1017B00003213620FFF79AFF00BF1437BD46F0BD66
:1017C00080B500AF2020FFF7CBFE00BF80BD80B505
:1017D00000AF0120FFF7C4FE00BF80BD80B586B01A
:1017E00000AF0346FB8004237B730023FB820023AE
:1017F0003B614F4B00225A754D4B00221A634C4BF4
:10180000002283F825204A4B002283F82C20484BE5
:1018100000229A83464B00225A63454B00229A636A
:1018200000F08AF80246424B1A60414B1B68414A5D
:10183000934202D04FF0FF3375E0002000F004FD2A
:1018400007F10D0301220021242000F07DFA1E2063
:1018500000F0C6FB0346FB82FB8A1B0A9BB2DAB28E
:10186000334B9A73042000F0BBFB38613B69DBB259
:10187000002B0FD002233B7307F10C03012212212E
:101880002D2000F061FA2A4B9B8B43F480539AB2CF
:10189000274B9A83062000F0A3FB0246244B5A6094
:1018A000072000F09DFB0246214B9A60FB8ADBB2C9
:1018B00003F01F03DAB21E4B1A751D4B1B7D002B64
:1018C00002D11B4B10221A75194B1B7D184600F0D4
:1018D000B0FEFB8803F00103002B09D000F0F0FB01
:1018E000134B9B8B43F400639AB2114B9A830FE026
:1018F0000521362000F00BFB0346FB81FB8923F416
:101900000073FB81FB891A460521362000F021FB7C
:10191000012000F099FC0021042000F0CCFA0246DE
:10192000034B9A61002318461837BD4680BD00BF9F
:10193000AC0A00203001CADE80B500AF00210020D3
:1019400000F0B9FA0346184680BD000080B586B0A5
:1019500000AF78600023FB750023BB757B681B78A4
:10196000FB747B685B791A46A14B33F81230BB825B
:101970007B685B78013B9F4A13639E4B1B6BBB7478
:10198000FB7C042B02D0FB7C072B01D1012300E060
:1019900000237B747B681A78964B1A737B68DB791B
:1019A000002B09D1934B9B6943F48003914A9361C7
:1019B000BB8ADB08BB8205E08E4B9B6923F4800366
:1019C0008C4A93617B681A7A8A4B5A73894B9A695D
:1019D0007B681B7A1B0403F440331343854A9361ED
:1019E000844B9B691A460021042000F0D0FABB8A80
:1019F0001A4642F604012E2000F0ABFABB7C1846D2
:101A000000F03AFBFB7C7C4AD35C1A4613469B00F1
:101A100013447A4A1344052207212B2000F094F93D
:101A20007B7C774A134401220B21282000F08CF99B
:101A3000FB7C714AD35C1A46724B53F822301A462B
:101A40000C21282000F0A3FA7B68DB7918467B681C
:101A50009B7919466C4A43000B4432F813301A46FE
:101A60000221272000F075FABB7C684A32F8133057
:101A70001A460421272000F06CFA7B68DB79002BE2
:101A800005D164220621272000F063FA20E07B685C
:101A90009B78042B0ED11023FB72102206212720E5
:101AA00000F057FA07F10B0301222621272000F04E
:101AB0004BF90DE02823BB7220220621272000F0DD
:101AC00048FA07F10A0301222621272000F03CF9F9
:101AD000BB7C7A68D27811464D4A9B000B4452F881
:101AE00023301A460821272000F051FA7B68B3F80A
:101AF00009309BB2002B08D17B68002242F04102E2
:101B00005A72002242F010029A727B68B3F80930D0
:101B10009BB21A462021272000F01BFA3D4B1B6880
:101B20001A460C21232000F032FABB7C394A5B00B4
:101B300013449B881A460421232000F00AFA7B688C
:101B40009B79002B0DD07B68DB791A46324B13440E
:101B500001220021212000F0F7F80323FB75012367
:101B6000BB75FB7C03F00F02FB7C1B01DBB21A434D
:101B70007B685B789B0403F440231A43FB7D1B05C1
:101B800003F440131A43BB7D5B0403F400331A4390
:101B90007B681B799B0503F0F86313437A685279DD
:101BA000D2061343FB60FA6800211F2000F0EFF912
:101BB0007B689A787B685B781343DBB21B041A4618
:101BC0000C4B1A610B4B1B697A68D2795203134391
:101BD00043F40043074A1361064B1B691A46002170
:101BE000082000F0D4F9002318461837BD4680BD00
:101BF000A05D0108AC0A0020205D0108405D0108DD
:101C0000605D0108285D0108705D01087C5D0108C8
:101C1000805D0108645D01086C5D010880B582B0DB
:101C200000AF0346FB80FB881A4641F604012E20D4
:101C300000F08FF900BF0837BD4680BD80B582B087
:101C400000AF0346FB80FB881A460021182000F0F5
:101C500080F900BF0837BD4680BD80B582B000AFB7
:101C600003463960FB801346BB80BA88FB88134467
:101C7000B3F5806F02DD4FF0FF3308E0FB88023BD5
:101C80001A46B9883B68092000F05EF80023184620
:101C90000837BD4680BD000080B584B000AF034664
:101CA0000A46FB801346BB80084B1A69FB88134326
:101CB000BA8892051343FB60FA680021082000F0FF
:101CC00066F9002318461037BD4680BDAC0A0020D7
:101CD00080B582B000AF78600B467B8013463B80B6
:101CE0007A8839887B68112000F08BF800BF0837AC
:101CF000BD4680BD80B582B000AF78607B680522AC
:101D00000021172000F07DF800BF0837BD4680BDD8
:101D100080B582B000AF78607B6805220021152075
:101D200000F06FF800BF0837BD4680BD80B582B0B7
:101D300000AF78607B6805220021062000F061F882
:101D400000BF0837BD4680BD80B586B000AFBA6021
:101D50007B600346FB810B46BB8100237B61BB8913
:101D6000002B0DD1FB89DAB27B69591C796162F0D5
:101D70007F02D2B207F118010B4403F8082C33E0BC
:101D8000FB89DAB27B69591C796162F03F02D2B2F9
:101D900007F118010B4403F8082CBB897F2B0AD8E4
:101DA0007B695A1C7A61BA89D2B207F118010B44D7
:101DB00003F8082C18E0BB89DAB27B69591C7961F9
:101DC00062F07F02D2B207F118010B4403F8082C2D
:101DD000BB89DB0999B27B695A1C7A61CAB207F1E7
:101DE00018010B4403F8082C7B6998B207F1100125
:101DF0007B68BA68FFF744FB034618461837BD46B0
:101E000080BD80B586B000AFBA607B600346FB81C1
:101E10000B46BB8100237B61BB89002B0AD17B6908
:101E20005A1C7A61FA89D2B207F118010B4403F8FF
:101E3000082C33E0FB89DAB27B69591C796142F0E6
:101E40004002D2B207F118010B4403F8082CBB89F9
:101E50007F2B0AD87B695A1C7A61BA89D2B207F102
:101E600018010B4403F8082C18E0BB89DAB27B692F
:101E7000591C796162F07F02D2B207F118010B445C
:101E800003F8082CBB89DB0999B27B695A1C7A617B
:101E9000CAB207F118010B4403F8082C7B6998B209
:101EA00007F110017B68BA68FFF7FDFA0346184690
:101EB0001837BD4680BD80B586B000AF7860396008
:101EC0004FF0FF337B617B6898B23B6899B207F1B2
:101ED00008030422FFF795FFF860FB68002B11D17F
:101EE00003233B610BE07B691B0207F108013A69A0
:101EF0000A44127813447B613B69013B3B613B69B7
:101F0000002BF0DA7B6918461837BD4680BD80B5D6
:101F100086B000AF786039604FF6FF73FB827B6854
:101F200098B23B6899B207F10C030222FFF769FFF0
:101F300038613B69002B07D17B7B9BB21B029AB2B5
:101F40003B7B9BB21344FB82FB8A18461837BD4685
:101F500080BD80B586B000AFF860B9601346FB80E5
:101F6000FB88DBB23B74FB881B0A9BB2DBB27B7441
:101F7000FB6898B2BB6899B207F110030222FFF721
:101F8000E3FE78617B6918461837BD4680BD80B591
:101F900088B000AFF860B9607A600023FB610DE0A3
:101FA0007B68D9B207F11402FB6913440A461A7020
:101FB0007B681B0A7B60FB690133FB61FB69032BB8
:101FC000EEDDFB6898B2BB6899B207F114030422F6
:101FD000FFF7BAFEB861BB6918462037BD4680BD21
:101FE00080B584B000AF78607B681B0ADBB27B727F
:101FF0007B68DBB23B7207F10803022204212D202B
:10200000FFF7A2FE03233B7207F10803012206211A
:102010002D20FFF799FE00233B7207F108030122F0
:1020200006212D20FFF790FE0A212D20FFF743FF08
:10203000F860FB6818461037BD4680BD80B584B097
:1020400000AF786004213620FFF735FFF8607B6829
:10205000002B04D0FB6843F40063FB6003E0FB68E3
:1020600023F40063FB60FA6804213620FFF78FFF3A
:1020700000BF1037BD4680BD80B584B000AF78602A
:102080006D23FB7307F10F03012240F606012E209A
:10209000FFF75AFE7B68002B07D040F2076241F63B
:1020A00006012E20FFF755FF06E041F2076241F6D8
:1020B00006012E20FFF74DFF00BF1037BD4680BD43
:1020C00080B582B000AF03237B7101233B713B1DC0
:1020D000022200213620FFF737FE4FF4004206218E
:1020E0002D20FFF736FF0120FFF7FEF8012000F05A
:1020F000ABF800BF0837BD4680BD000080B582B098
:1021000000AF786000210420FFF7D5FE02460E4B99
:102110009A617B68002B06D00B4B9B6923F48023CC
:10212000094A936105E0084B9B6943F48023064A02
:102130009361054B9B691A4600210420FFF727FF96
:1021400000BF0837BD4680BDAC0A002080B584B012
:1021500000AF0346FB71FB7903F00103002B40D075
:1021600007F10C03022200212620FFF74AFE7B7BA9
:1021700023F03C03DBB27B737B7B43F01003DBB2C9
:102180007B733B7B03F03F03DBB23B733B7B43F052
:102190004003DBB23B7307F10C030222002126202F
:1021A000FFF7D2FD07F10C03012202213620FFF7D1
:1021B00028FE3B7B63F07B03DBB23B7307F10C0330
:1021C000012202213620FFF7BFFD10233B730123BC
:1021D0007B7307F10C03022228213620FFF7B4FDA0
:1021E00017E0FB7903F00103002B12D107F10C0378
:1021F000022200212620FFF704FE7B7B23F014033C
:10220000DBB27B7307F10C03022200212620FFF7CB
:102210009BFDFB7903F00203002B11D00F233B73CE
:1022200007F10C0301222A213620FFF78DFD002340
:102230003B7307F10C0301222A213620FFF784FDAE
:1022400000BF1037BD4680BD80B584B000AF786058
:1022500007F10C03022200213620FFF7D2FD7B6834
:102260000D2B6FD801A252F823F000BFB522000851
:10227000A5220008CB2200084523000845230008BA
:102280004523000845230008E12200080123000837
:1022900045230008452300081723000823230008CE
:1022A0002F23000800233B737B7B23F00103DBB269
:1022B0007B7348E03B7B5BB223F003035BB243F0EC
:1022C00001035BB2DBB23B733DE03B7B5BB223F0CF
:1022D00003035BB243F002035BB2DBB23B7332E059
:1022E0003B7B5BB223F04C035BB243F048035BB231
:1022F000DBB23B737B7B63F07F03DBB27B7322E05B
:102300003B7B23F04C03DBB23B737B7B03F07F030F
:10231000DBB27B7317E07B7B43F00203DBB27B73A2
:1023200011E07B7B23F00203DBB27B730BE03B7B92
:102330005BB223F030035BB243F020035BB2DBB24D
:102340003B7300E000BF07F10C030122002136209F
:10235000FFF7FAFC07F10C030133012201213620BB
:10236000FFF7F2FC00BF1037BD4680BD80B582B0DC
:1023700000AF78607A6801210A20FFF708FE00BFED
:102380000837BD4680BD000080B584B000AF03466D
:10239000FB710023FB6000237B7200237B81FB79B0
:1023A00003F00203002B0CD080237B7207F109039A
:1023B000012200210D20FFF7C7FC234B012283F8E7
:1023C0002C20FB7903F00103002B2CD07B7A43F007
:1023D0000603DBB27B7207F10903012200210D2005
:1023E000FFF7B2FC03210F20FFF791FD03467B812D
:1023F0007B8903F48063002B02D10023FB601EE085
:1024000040237B7207F10903012200210D20FFF711
:102410009BFC0020FFF712FE0B4B002283F82C20C0
:102420004FF0FF330CE07B7A43F00203DBB27B72A8
:1024300007F10903012200210D20FFF785FCFB684D
:1024400018461037BD4680BDAC0A002080B584B068
:1024500000AF4023FB7100210E20FFF72CFDF86038
:10246000FEF728FFB860002200210E20FFF78FFD45
:10247000FB1D012200210D20FFF766FC0B4A002105
:102480000F20FFF784FD00F015F8FA6800210E20F8
:10249000FFF77DFDB868FEF719FF054B002283F8B2
:1024A0002C2000BF1037BD4680BD00BFF8FF272499
:1024B000AC0A002080B582B000AFFB1D01220321D1
:1024C0000F20FFF79EFCFB791A46FB795B00534017
:1024D00003F08003002B07D00123BB71BB1D012239
:1024E00003210D20FFF730FC00BF0837BD4680BD3B
:1024F00080B584B000AF786000237B73FFF7DAFF0C
:102500004FF48073FB817B68002B03D0FB8943F47D
:102510000073FB81FB891A4600210D20FFF719FD8E
:102520007B68002B19D007F10D03012203210F2036
:10253000FFF767FC7B7B03F00803002B0DD0FFF750
:1025400085FF4FF48073FB81FB891A4600210D2023
:10255000FFF7FFFC4FF0FF3300E000231846103771
:10256000BD4680BD80B584B000AF0346FB8007F157
:102570000F03012203210420FFF743FCFB88002BFB
:1025800018D0FB881A4600210C20FFF7E2FCFB7BE9
:1025900043F01003DBB2FB73114B9B6943F0805394
:1025A0000F4A936107F10F03012203210420FFF773
:1025B000CBFB11E0FB7B23F01003DBB2FB73084B7A
:1025C0009B6923F08053064A936107F10F030122B0
:1025D00003210420FFF7B8FB00BF1037BD4680BDC4
:1025E000AC0A002080B584B000AF78600B46FB7069
:1025F000FEF760FEB86000210E20FFF75CFCF8607B
:10260000FB78002B04D0FA687B681343FB6004E07E
:102610007B68DB43FA681340FB60FA6800210E20F8
:10262000FFF7B5FCB868FEF751FE00BF1037BD4696
:1026300080BD80B584B000AF0346FB7107F10F0386
:1026400001220E212B20FFF7DCFBFB7B23F01F0375
:10265000DBB2FB73FB7903F01F03DAB2FB7B13439E
:10266000DBB2FB7307F10F0301220E212B20FFF7D2
:102670006BFB00BF1037BD4680BDB0B485B000AF66
:1026800078607B68002B6BD07B685B68002B67D021
:102690007B681B6803F00103002B61D07B681B681B
:1026A000012B5DD90023FB6042E07B685A68FB6820
:1026B0001B01134400221A607B685968FB680133D0
:1026C0007A681268B3FBF2F002FB00F29B1A1A015F
:1026D0007B685868FB681B0103440A445A607B68A6
:1026E0005968FB6801337A681268B3FBF2F002FBA9
:1026F00000F29B1A1A017B685868FB681B010344AF
:102700000A449A607B685868FB6819017B685C68BA
:10271000FB6801337A681268B3FBF2F502FB05F23D
:102720009B1A1B0123444218DA60FB680133FB60EB
:102730007B681B68FA689A42B7D37B685A687B68E3
:102740009A607B685A687B68DA607B685A687B6845
:102750001B685B081B011A447B681A61002301E0B7
:102760004FF0FF3318461437BD46B0BC704780B4F5
:1027700087B000AF786039607B689A687B68DB68F7
:102780009A4204D17B68DB689A687B68DA607B6870
:102790009A687B681B699A4207D07B689B681A68B5
:1027A0007B681B691B689A4204DD7B681B69DA68D9
:1027B0007B681A617B689B68FB60FB683A681A60FB
:1027C0007B689A687B689B689B68D268DA607B68E4
:1027D0009A687B689B68DB6892689A607B689B68F4
:1027E0005A687B689A607B68DB683B6100237B6189
:1027F00011E03B691B683A689A4206DA7B69002B54
:1028000010D17B68FA68DA600CE03B699B683B6139
:102810007B6901337B617B681B68013B7A699A4263
:10282000E7D300E000BF3B69DB68FA689A603B6968
:10283000DA68FB68DA603B69FA68DA60FB683A6973
:102840009A607B681B685B087A699A4204D37B684C
:102850001B699A687B681A617B681B691B6818464C
:102860001C37BD465DF8047B704780B584B000AF6F
:1028700003463960FB800023FB73FB883A6840F213
:102880000F11184600F0B8FB03461A46FB7B1343B2
:10289000FB73FB7B18461037BD4680BD80B584B006
:1028A00000AF0346FB800023FB7301237B730023EF
:1028B0007B8107F10902FB88E521184600F0D8FB6F
:1028C00003461A46FB7B1343FB737B7A032B02D12F
:1028D00000237B730BE07B89B3F57A7F03D27B897E
:1028E00001337B8103E000237B73FF23FB73FB88B1
:1028F0000121184600F06AFC7B7B012B00D1D8E750
:102900002D23BB73BB7B872B12D8BB7B99B2BB7BC0
:102910002D3B444AD25CFB88184600F0D3FB0346AB
:102920001A46FB7B1343FB73BB7B0133BB73E9E7A5
:10293000FB8840228721184600F0C4FB03461A4654
:10294000FB7B1343FB7300237B8101237B7307F124
:102950000902FB881146184600F0C6F803461A46DD
:10296000FB7B1343FB737B7A012B02D100237B7328
:102970000BE07B89B3F57A7F03D27B8901337B81BE
:1029800003E000237B73FF23FB73FB8801211846C0
:1029900000F01CFC7B7B012B00D1D8E7FB8818469C
:1029A00000F042F803461A46FB7B1343FB73FB8897
:1029B000184600F082F803461A46FB7B1343FB736C
:1029C000FB8809220821184600F07CFB03461A46C2
:1029D000FB7B1343FB73FB8800220B21184600F09E
:1029E00071FB03461A46FB7B1343FB73FB884FF4D2
:1029F000A0622421184600F093FB03461A46FB7B95
:102A00001343FB73FB8800223221184600F0B0F814
:102A100003461A46FB7B1343FB73FB7B18461037B8
:102A2000BD4680BDD45D010880B584B000AF0346CB
:102A3000FB800023FB73FB8801228621184600F0EF
:102A400041FB03461A46FB7B1343FB73FB7B184693
:102A50001037BD4680BD80B584B000AF0346FB8013
:102A60000023FB7307F10802FB886C21184600F075
:102A700085FA03461A46FB7B1343FB73BB68002BA6
:102A80000BD1FB8821228721184600F01BFB03464F
:102A90001A46FB7B1343FB730AE0FB884022872125
:102AA000184600F00FFB03461A46FB7B1343FB73EB
:102AB000FB7B18461037BD4680BD80B584B000AFA3
:102AC0000346FB800023FB73FB8800228721184606
:102AD00000F0F8FA03461A46FB7B1343FB73FB7BBB
:102AE00018461037BD4680BD80B584B000AF0346A0
:102AF0003960FB800023BB7307F10D02FB88302196
:102B0000184600F0B5FA03461A46BB7B1343BB7365
:102B10007B7B03F01003DBB27B737B7B1B11DBB28F
:102B20007B737B7B012B02D10023FB7301E001232C
:102B3000FB7307F10D02FB883121184600F098FA6B
:102B400003461A46BB7B1343BB737B7B03F0010236
:102B5000FB7B9A4203D13B6801221A7002E03B687A
:102B600000221A70BB7B18461037BD4680BD00009E
:102B700080B58CB000AF0346B9607A60FB8100235A
:102B800087F82F300023BB6200237B62864BFB61FA
:102B900007F11402FB890621184600F02DFA0346BE
:102BA0001A4697F82F30134387F82F30BB8A002B33
:102BB00012D0BB684FF47A7202FB03F37B62BB8ACC
:102BC0001A464FF08043B3FBF2F21346DB00134486
:102BD0001B029B09BB6205E097F82F3063F00103ED
:102BE00087F82F30BB68092B06D9BB68C82B03D8E0
:102BF00097F82F30002B06D097F82F3063F00103A1
:102C000087F82F305EE07B68002B11D1FB89002212
:102C10006C21184600F0AEFA03461A4697F82F309A
:102C2000134387F82F307B6AA3F6C4137B6249E015
:102C30007A68BB689A423FD907F11602FB89DE2108
:102C4000184600F0D9F903461A4697F82F30134377
:102C500087F82F30FB8AC3F309039BB2FB827B68A2
:102C600007EE903AB8EE677AD7ED077A27EE277A23
:102C7000FB8A07EE903AF8EE677A67EE277AC7ED9F
:102C8000077AD7ED077AFCEEE77AFB8917EE902AF0
:102C90006C21184600F06EFA03461A4697F82F305A
:102CA000134387F82F307B6AA3F586530C3B7B6276
:102CB0007B6A5B087B6205E097F82F3063F00103C5
:102CC00087F82F3097F82F30FE2B67D00023BB8575
:102CD0007B6A1B037B62BB6A1B01BB61BB69DA09B0
:102CE0007B6A1A44BB699B09B2FBF3F3013B3B626D
:102CF0003B6A23F0FF03002B06D03B6A5B083B6274
:102D0000BB8D0133BB85F3E7BB8D1B029AB23B6AD7
:102D10009BB2DBB29BB21344BB85BA8DFB895E21AB
:102D2000184600F0FDF903461A4697F82F30134372
:102D300087F82F300023BB85BA6A13465B00134423
:102D40009B00BB61BB69DA097B6A1A44BB699B09BA
:102D5000B2FBF3F3013B3B623B6A23F0FF03002B22
:102D600006D03B6A5B083B62BB8D0133BB85F3E752
:102D7000BB8D1B029AB23B6A9BB2DBB29BB213447F
:102D8000BB85BA8DFB896121184600F0C9F903465D
:102D90001A4697F82F30134387F82F3097F82F30C3
:102DA00018463037BD4680BD3D0A873FB0B58AB072
:102DB00000AF03463960FB80002387F82730524B71
:102DC00007F108041D460FCD0FC495E8030084E801
:102DD000030007F12302FB888921184600F048F917
:102DE00003461A4697F82730134387F8273097F899
:102DF000233003F01F03DBB287F8233097F823302A
:102E0000172B08D897F8233007F12802134413F83A
:102E1000203C87F8233097F823203B681A7007F18D
:102E20002402FB888C21184600F0E6F803461A4677
:102E300097F82730134387F82730BB8C1B0A9AB2C8
:102E40003B689A8107F12402FB888E21184600F026
:102E5000D3F803461A4697F82730134387F82730EC
:102E6000BB8CDB009AB23B681A8107F12402FB8815
:102E70009021184600F0C0F803461A4697F827300C
:102E8000134387F82730BB8CDB009AB23B689A80EB
:102E900007F12402FB889221184600F0ADF80346A2
:102EA0001A4697F82730134387F82730BB8C9B08C6
:102EB0009AB23B68DA8107F12402FB889621184612
:102EC00000F09AF803461A4697F82730134387F81C
:102ED0002730BA8C3B685A803B681A893B689B89CB
:102EE000B2FBF3F39AB23B685A813B689A883B681D
:102EF0009B89B2FBF3F39AB23B68DA8097F82730EC
:102F000018462837BD46B0BDFC50010880B500AF5B
:102F10000249034805F02EF800BF80BDA0860100DD
:102F2000E80A002080B584B000AF03460A46FB7172
:102F30001346BB800023FB73BB88BB73FB79032B59
:102F400001D9FF2314E0FB79012202FA03F3DBB27B
:102F50003B7307F10C02B97B0123074805F060F9C8
:102F60000346012B01D1002300E0FF23FB73FB7B11
:102F700018461037BD4680BDE80A002080B588B0ED
:102F800002AF03463A60FB800B46BB80FB88FB75B3
:102F90000023BB7500233B610023BB81BB88DBB2F0
:102FA0007B7307F10C02F97D0423019307F11003F1
:102FB000009302230F4805F065F90346042B01D165
:102FC000002300E0FF23BB75BB7D002B0DD1FB7CF4
:102FD0001A46BB7C1B021A437B7C1B041A433B7CB6
:102FE0001B0613431A463B681A60BB7D1846183708
:102FF000BD4680BDE80A002080B586B002AF03461A
:103000003A60FB800B46BB80FB88FB730023BB73DD
:1030100000233B7300237B7300233B81BB88DBB21F
:103020007B7207F10802F97B0223019307F10C037D
:10303000009302230D4805F025F90346022B01D128
:10304000002300E0FF23BB73BB7B002B09D17B7BFC
:103050001AB23B7B1B021BB213431BB29AB23B68F2
:103060001A80BB7B18461037BD4680BDE80A002099
:1030700080B586B002AF03463A60FB800B46BB804A
:10308000FB88FB730023BB730023BB81BB88DBB2CF
:103090007B7307F10C02F97B012301933B680093DA
:1030A0000223074805F0EEF80346012B01D1002367
:1030B00000E0FF23BB73BB7B18461037BD4680BDC5
:1030C000E80A002080B584B000AF0346FB800B46C1
:1030D000BB801346FB70FB88FB730023BB7307F1B7
:1030E000080300210A461A800A469A70BB88DBB2A0
:1030F0007B72FB78BB7207F10802F97B0323074858
:1031000005F08EF80346032B01D1002300E0FF23D6
:10311000BB73BB7B18461037BD4680BDE80A002054
:1031200080B584B000AF0346FB800B46BB801346DE
:103130007B80FB88FB730023BB730023BB60BB88D1
:10314000DBB27B727B88DBB2FB7207F10802F97B92
:103150000423074805F064F80346042B01D100233B
:1031600000E0FF23BB73BB7B18461037BD4680BD14
:10317000E80A002080B584B000AF03463A60FB80C7
:103180000B46BB80FB88FB730023BB7307F108036E
:1031900000221A609A80BB88DBB27B723B68DBB28C
:1031A0007B7307F10802F97B0623074805F038F81E
:1031B0000346062B01D1002300E0FF23BB73BB7B3A
:1031C00018461037BD4680BDE80A002080B485B09F
:1031D00000AF03463960FB800023FB73FB7B18467E
:1031E0001437BD465DF8047B7047000080B582B09F
:1031F00000AF786039607B68012B0AD13B684FF6DD
:10320000FF72934205D1172316220121034804F0CF
:1032100069FE00BF0837BD4680BD00BFE80A002038
:1032200080B500AF4FF6FF710120FFF7DFFF80BDD3
:1032300080B582B000AF7860074A7B681A600748A3
:1032400002F06AFC7B680433184602F017FE7B68C4
:1032500018460837BD4680BDB45F01081451010807
:1032600080B582B000AF78607868FFF7E1FF302169
:10327000786802F086FE7B6818460837BD4680BD38
:1032800080B483B000AF7860044A7B681A607B68C2
:1032900018460C37BD465DF8047B70478C5E01080C
:1032A00080B582B000AF78607868FFF7E9FF04214D
:1032B000786802F066FE7B6818460837BD4680BD18
:1032C00080B584B000AFF860B9607A603B600448B4
:1032D00002F022FC002318461037BD4680BD00BF17
:1032E0002851010880B483B000AF786000BF0C376C
:1032F000BD465DF8047B704780B483B000AF786052
:1033000000BF0C37BD465DF8047B704780B483B0C6
:1033100000AF786000BF0C37BD465DF8047B704796
:1033200080B483B000AF7860044A7B681A607B6821
:1033300018460C37BD465DF8047B7047785E01087F
:1033400080B582B000AF7860396078684FF4FA6376
:103350004FF47A7239680BF085FA7B68503318465F
:10336000FFF7DEFF054A7B681A60054A7B681A652D
:103370007B6818460837BD4680BD00BF4C5E01081B
:10338000645E010880B584B000AF786002F022FD71
:10339000F860FB680A4A934204D0FB68094A9342EA
:1033A00005D009E07B68002283F8902004E07B6868
:1033B000012283F8902000BF00BF1037BD4680BDBA
:1033C00055002B0052004B002DE9F04F85B000AFA7
:1033D00078607B6893F8903019463B4802F054FBC4
:1033E0003A4801F0A9FF02F00BFF03460C467A6849
:1033F000C2E922340020FEF781FE354A00211E205A
:10340000FEF7C5FD7B6893F89030002B20D17B68D8
:10341000D3E922AB02F0F4FE03460C46534574EBAD
:103420000B03ACBF01230023DBB2002B10D0012122
:10343000786800F071F802F0E3FE0A4601461EA427
:10344000D4E90034CD1842EB04067B68C3E9225668
:1034500002211920FEF75BFD0346FB81FB8903F087
:103460000403002B02D10020FFF742F87B6893F899
:103470009030002B08D17B68D3E922341A462346CA
:10348000144802F01FFC0FE002F0BAFE0A460146A3
:103490000BA4D4E9003411EB030842EB04094246C3
:1034A0004B460C4802F00EFC0A4804F037FC7868E2
:1034B00000F014FAA6E700BF80B2E60E000000009C
:1034C00000CA9A3B00000000B0510108040000202F
:1034D000009A9A00900A002080B586B002AFF8608A
:1034E000B9601346FB7107F1080304221946084826
:1034F00002F012FDFB6893F89000F9790023009325
:103500000E23044A02F054F800BF1037BD4680BDB8
:103510004C0000204400002090B585B002AF7860D8
:103520000B46FB707B6893F89000F97800230093BA
:103530000A23074A02F03CF801F02AFF03460C4632
:103540007A68C2E9163400BF0C37BD4690BD00BF93
:103550001000002090B585B002AF78600B46FB707C
:103560007B6893F89000F978002300930A23074AB8
:1035700002F01EF801F00CFF03460C467A68C2E91F
:103580001A3400BF0C37BD4690BD00BF1C000020A0
:103590002DE9F04389B002AF78600B46FB7001F073
:1035A000CAFF0A46014626A4D4E9003411EB0308F9
:1035B00042EB0409C7E90489D7E904124FF000037C
:1035C0004FF000040B0A43EA0263140A1846FEF7A0
:1035D000CDFED7E9043444F234014FF000025D1807
:1035E00044EB0206C7E902567B68D3E916341A4653
:1035F00023460F4801F03CFF7B68D3E91C341A4690
:1036000023460C4801F034FFD7E902230A4801F0B1
:103610002FFF7B6893F89000F9780123009319231A
:10362000064A01F0C5FF00BF1C37BD46BDE8F08368
:1036300030000020350000203A0000202800002043
:1036400001006D0B000000002DE9F04FA1B000AFAC
:10365000F86301F0D5FE0A460146FB6BC3E9201270
:10366000FB6B583319469A4801F027FFFB6B703308
:103670001946984801F021FFFB6B783319469648AC
:1036800001F01BFF4FF0FF334FF0FF04C7E91E347A
:10369000FB6BD3E91C12FB6BD3E91634A24208BFC3
:1036A000994213D2FB6BD3E91C3413F1FF3544F17B
:1036B000FF06FB6BC3E91C56FB6BD3E91E3413F109
:1036C000FF3844F1FF09FB6BC3E91E89FB6BD3E9AB
:1036D0001E12FB6BD3E91C34A24208BF994209D2E7
:1036E000FB6BD3E91E3413F1FF3A44F1FF0BFB6B84
:1036F000C3E91EABFB6BD3E91A12FB6BD3E9183499
:10370000A24208BF99421BD2FB6BD3E91A3413F1D2
:10371000FF323A6344F1FF037B63FB6BD7E90C1282
:10372000C3E91A12FB6BD3E9203413F1FF32BA62FA
:1037300044F1FF03FB62FB6BD7E90A12C3E92012D5
:10374000FB6BD3E92012FB6BD3E91A34A24208BF0A
:1037500099420DD2FB6BD3E9203413F1FF323A6268
:1037600044F1FF037B62FB6BD7E90812C3E9201227
:10377000FB6BD3E91C12FB6BD3E91634C81AB86192
:1037800062EB0403FB61D7E90601FDF70DF8034680
:103790000C46C7E91C34FB6BD3E92012FB6BD3E961
:1037A0001A34C81A386162EB04037B61D7E904015B
:1037B000FCF7FAFF03460C46C7E91A34FB6BD3E962
:1037C0001E12FB6BD3E91C34C81AB86062EB040309
:1037D000FB60D7E90201FCF7E7FF03460C46C7E9A7
:1037E0001834FB6BD3E91A12FB6BD3E91834C81AEF
:1037F000386062EB04037B60D7E90001FCF7D4FF7B
:1038000003460C46C7E91634D7E91A23D7E91C0149
:10381000FDF700F803460C4625461C46D7E916235B
:10382000D7E91801FCF7F6FF02460B462046294669
:10383000FCF738FE03460C4625461C46D7E91A23FA
:10384000D7E91C01FCF730FE02460B46104619462C
:10385000D7E91823FCF728FE02460B461046194606
:10386000D7E91623FCF720FE02460B4620462946E0
:10387000FDF7FAF803460C46C7E9143410A3D3E960
:103880000023D7E91401FCF7C5FF03460C46C7E93E
:1038900012340DA3D3E90023D7E91201FCF7BAFFD4
:1038A00003460C46C7E91034D7E91001FDF7AAFA20
:1038B000034618468437BD46BDE8F08FAFF300805D
:1038C000FA48CE3B1835B13D3333331319DDB141DE
:1038D000280B00202D0B0020320B002090B587B064
:1038E00000AF7860424801F0B3FE0346002B7AD067
:1038F0003F4B5B79FB753E4B9B79BB753C4B9B7893
:103900007B753B4BDB79203B032B63D801A252F83C
:1039100023F000BF253900084B3900087139000831
:10392000933900087B6893F89030BA7D9A4253D15E
:1039300001F066FD03460C467A68C2E91834FB7D47
:1039400019467868FFF706FE46E07B6893F89030EA
:10395000BA7D9A4242D101F053FD03460C467A6883
:10396000C2E91C34FB7D19467868FFF711FE35E08B
:103970007B6893F89030BA7D9A4231D17868FFF72E
:1039800063FE3861FB7D1A4639697868FFF7A4FD4C
:1039900026E07B6893F89030BA7D9A4222D107F1F5
:1039A0000C0304221349184602F0B6FAFB68124AC7
:1039B000536001221049114800F066F8FB68184670
:1039C000FCF7D0FE03460C461A4623460C4802F08C
:1039D0005BF807E000BF06E000BF04E000BF02E0C4
:1039E00000BF00E000BF00BF1C37BD4690BD00BF58
:1039F000200B0020280B0020B00B002070120020AC
:103A0000C051010880B483B000AF7860044A7B687D
:103A10001A607B6818460C37BD465DF8047B70471A
:103A20008C5E010890B583B000AF78607B68184663
:103A3000FFF7E8FF134A7B681A607B681A1D7B68F2
:103A4000DA617B6803F10C027B681A627B6803F120
:103A500014027B685A627B68002283F828207A6807
:103A60004FF000034FF00004C2E90E347B68D3E945
:103A70000E347A68C2E90C347B6818460C37BD46B0
:103A800090BD00BF385E010880B584B000AFF8601B
:103A9000B9601346FB71F868FA790023B96802F03F
:103AA0008DFC034618461037BD4680BD80B582B0F8
:103AB00000AF7860054A7B681A607B681846FFF79C
:103AC000DFFB7B6818460837BD4680BD385E0108BD
:103AD00080B582B000AF78607868FFF7E7FF4021DB
:103AE000786802F04EFA7B6818460837BD4680BDFC
:103AF00080B582B000AF7860074A7B681A60074AD9
:103B00007B681A657B6818460AF01AFF7B681846BE
:103B10000837BD4680BD00BF4C5E0108645E0108E9
:103B200080B582B000AF78607868FFF7E1FF982138
:103B3000786802F026FA7B6818460837BD4680BDD3
:103B400080B584B002AF786039607B68012B2DD1DD
:103B50003B684FF6FF72934228D140F2D17215496B
:103B6000154801F0ADFE154A154913480BF0E0FD6C
:103B70001448FFF757FF114A134912480BF0D8FDBC
:103B800000230093114B0F4A1149124802F006FA24
:103B90000A4A11490F480BF0CBFD10491048FFF7B6
:103BA000CFFB064A0F490E480BF0C2FD00BF083795
:103BB000BD4680BDD0510108040B0020F413002045
:103BC00001590008400B0020AD3A0008F4510108EB
:103BD00070120020800B00203132000808520108CA
:103BE000B80B0020F13A000880B584B000AFF8604F
:103BF000B9607A603B607B68082B04D9064801F005
:103C00008BFF002304E03968F86800F007F801230F
:103C100018461037BD4680BD34520108F0B484B058
:103C200000AF786039607B68DB693A6892E803002E
:103C300083E803007B681B6AFB607B68DA697B684A
:103C40001A627B68FA68DA617B6893F82830DBB225
:103C5000002B09D07B68DB69FB607B685A6A7B6854
:103C6000DA617B68FA685A627B68D3E90C345D1CC0
:103C700044F100067B68C3E90C5600BF1037BD460F
:103C8000F0BC704780B500AF4FF6FF710120FFF721
:103C900057FF80BD90B583B000AF78603960386859
:103CA000FCF760FD03460C461A462346114801F016
:103CB000EBFED7ED007AF5EEC07AF1EE10FA12DBEA
:103CC000D7ED007A9FED0C7AF4EEC77AF1EE10FA98
:103CD00009D5D7ED007AFCEEE77A17EE901A7868EE
:103CE00005F0FCF902E0054801F0CEFE00BF0C37FC
:103CF000BD4690BDE452010800008044F052010826
:103D000080B582B000AF786039603B68012B02D08B
:103D10003B68002B05D13B681946786803F0E5FE47
:103D200002E0034801F0B0FE00BF0837BD4680BD89
:103D3000105301080000000090B589B000AF786012
:103D400039603968924801F09FFE02F059FA034643
:103D50000C4618462146FCF72FFD8BA3D3E9002320
:103D6000FCF782FE03460C46C7E9023402F048FA2B
:103D700003460C4618462146FCF71EFD82A3D3E9F4
:103D80000023FCF771FE03460C46C7E9063402F037
:103D900037FA03460C4618462146FCF70DFD7AA378
:103DA000D3E90023FCF760FE03460C461846214683
:103DB000D7E90223FCF776FB03460C46184621465A
:103DC000FCF7D8FF03461946724801F05DFE02F089
:103DD00017FA03460C4618462146FCF7EDFC6AA389
:103DE000D3E90023FCF740FE03460C461846214663
:103DF000D7E90223FCF756FB03460C46184621463A
:103E0000FCF7B8FF03467B617A693B689A4200F38E
:103E1000B08002F0F5F903460C4618462146FCF73F
:103E2000CBFC59A3D3E90023FCF71EFE03460C4646
:103E300018462146D7E90623FCF734FB03460C4617
:103E40001846214601231C464FF000024FF08043E4
:103E5000FCF75CFF0346002B01D100231C46E3B2B4
:103E6000002B07D00121786803F03FFE4A4801F09B
:103E70000BFE60E002F0C4F903460C4618462146EA
:103E8000FCF79AFC40A3D3E90023FCF7EDFD0346C1
:103E90000C4618462146D7E90623FCF703FB0346E8
:103EA0000C46184621464FF000024FF08043FCF7C5
:103EB00041FF0346002B22D002F0A2F903460C4634
:103EC00018462146FCF778FC2FA3D3E90023FCF722
:103ED000CBFD03460C4618462146D7E90623FCF7DE
:103EE000E1FA03460C46184621464FF000022B4BE0
:103EF000FCF70CFF0346002B01D0012300E0002358
:103F0000002B07D0264801F0BFFD0021786803F0A0
:103F1000ECFD10E002F074F903460C461846214609
:103F2000FCF74AFC18A3D3E90023FCF79DFD0346E8
:103F30000C46C7E9063402F063F903460C461846FE
:103F40002146FCF739FC10A3D3E90023FCF78CFDD4
:103F500003460C4618462146D7E90223FCF7A2FA8D
:103F600003460C4618462146FCF704FF03467B61D6
:103F70004AE70021786803F0B8FD00BF2437BD464A
:103F800090BD00BFAFF300800000000065CDCD41C3
:103F90001C53010838530108485301080000104021
:103FA0005053010880B483B000AF786039600F4A85
:103FB0007B681A603B685A687B685A603B689A68FD
:103FC0007B689A603B68DA687B68DA603B681A69EC
:103FD0007B681A613B685A697B685A617B6818463E
:103FE0000C37BD465DF8047B704700BF785F010861
:103FF00080B582B000AF786039607B683A6811465E
:104000001846FFF7CFFF064A7B681A603B689A693B
:104010007B689A617B6818460837BD4680BD00BF43
:10402000B460010880B5F2B000AF3B1D18603B469C
:1040300019603B1D1B68013B032B00F21B8101A291
:1040400052F823F055400008DD40000865410008A3
:10405000ED4100083B46D3ED007AF5EEC07AF1EE73
:1040600010FA20D507F1080385491846FFF7C0FF6D
:104070003B46D3ED007AF1EE677A17EE902A07F10E
:10408000080311461846FFF705FE07F124037D4992
:104090001846FFF7ADFF07F124034FF00001184663
:1040A000FFF7F8FDE6E007F1400375491846FFF712
:1040B0009FFF07F140034FF000011846FFF7EAFDAC
:1040C00007F15C036F491846FFF792FF3B4607F183
:1040D0005C0219681046FFF7DDFDCBE03B46D3EDEF
:1040E000007AF5EEC07AF1EE10FA20D507F17803E8
:1040F00065491846FFF77CFF3B46D3ED007AF1EEA9
:10410000677A17EE902A07F1780311461846FFF7F1
:10411000C1FD07F194035D491846FFF769FF07F1F8
:1041200094034FF000011846FFF7B4FDA2E007F139
:10413000B00355491846FFF75BFF07F1B0034FF096
:1041400000011846FFF7A6FD07F1CC034F491846BA
:10415000FFF74EFF3B4607F1CC0219681046FFF708
:1041600099FD87E03B46D3ED007AF5EEC07AF1EE9B
:1041700010FA20D507F1E80345491846FFF738FF44
:104180003B46D3ED007AF1EE677A17EE902A07F1FD
:10419000E80311461846FFF77DFD07F582733D4998
:1041A0001846FFF725FF07F582734FF00001184608
:1041B000FFF770FD5EE007F5907335491846FFF78D
:1041C00017FF07F590734FF000011846FFF762FDE7
:1041D00007F59E732F491846FFF70AFF3B4607F580
:1041E0009E7219681046FFF755FD43E03B46D3ED3C
:1041F000007AF5EEC07AF1EE10FA20D507F5AC732F
:1042000025491846FFF7F4FE3B46D3ED007AF1EE60
:10421000677A17EE902A07F5AC7311461846FFF738
:1042200039FD07F5BA731D491846FFF7E1FE07F59A
:10423000BA734FF000011846FFF72CFD19E007F59F
:10424000C87315491846FFF7D3FE07F5C8734FF03A
:1042500000011846FFF71EFD07F5D6730F491846F3
:10426000FFF7C6FE3B4607F5D67219681046FFF702
:1042700011FD00BF00BF07F5E477BD4680BD00BF5C
:10428000D00E0020EC0E0020080F0020240F00208C
:10429000400F00205C0F0020780F0020940F0020BA
:1042A00080B584B000AF0346FB710023FB73614B04
:1042B0001B78012B15D0022B2BD0002B40F0AF80A8
:1042C0005D4B00221A705D4B00221A705C4B00227D
:1042D0001A70FB79242B40F0A680564B01221A70ED
:1042E000A1E0554B00221A70544B00221A70544B17
:1042F00000221A70FB79242B03D14E4B01221A7035
:1043000092E097F907204F4B1A704A4B02221A701D
:104310008AE0FB792B2B02D0FB792D2B1FD1464B4A
:104320001B78002B17D1464B1B78002B13D1424B27
:1043300001221A70424B1B781A4697F90710424B1C
:1043400099543F4B1B780133DAB23D4B1A70394B0D
:1043500002221A7062E0374B00221A705EE0FB798D
:104360002E2B1BD1354B1B78002B13D1334B012245
:104370001A70334B1B781A4697F90710324B995431
:104380002F4B1B780133DAB22D4B1A70294B0222C6
:104390001A7049E0274B00221A7045E0FB792F2B59
:1043A0001BD9FB79392B18D8254B1B781A4697F95E
:1043B0000710254B9954224B1B780133DAB2204B5E
:1043C0001A701F4B1B780C2B03D91A4B00221A7042
:1043D00024E0184B02221A7020E0FB79242B03D131
:1043E000144B01221A701FE0FB79232B12D1144BBE
:1043F0001B781A46144B00219954124B93F9003044
:10440000DBB2184600F03CF80346FB73094B002270
:104410001A7009E0074B00221A7005E004E0054B12
:1044200000221A7000E000BFFB7B18461037BD4623
:1044300080BD00BF6C0D00206D0D00206E0D0020B2
:104440006F0D0020700D0020740D002080B582B02B
:1044500000AF786039607B683A6811461846FFF70C
:10446000A1FD064A7B681A603B689A697B689A617D
:104470007B6818460837BD4680BD00BF3C60010818
:1044800090B5B5B000AF0346FB71CF4801F0FCFA20
:104490000922CD49CD4806F013FBFB79443B282B7C
:1044A00000F28D8101A252F823F000BF7B46000884
:1044B000BF470008BF470008BF4700088345000802
:1044C000BF470008BF470008BF470008BF470008B4
:1044D000BF470008BF470008BF470008BF470008A4
:1044E000BF470008BF470008BF4700085145000804
:1044F000BF470008BF470008BF470008BF47000884
:10450000BF470008BF470008BF470008BF47000873
:10451000BF470008BF470008BF470008BF47000863
:10452000BF470008BF470008AB470008BF47000867
:10453000BF470008BF470008BF47000813460008F0
:10454000BB460008F7460008334700086F470008DD
:104550009F480BF0F3F803460C4618462146FCF73B
:1045600051FC0346C7F8CC30D7F8CC00FCF7FAF87A
:1045700003460C461A462346964801F085FA012365
:104580001EE193480BF0DAF803460C461846214624
:10459000FCF7F0FB0346C7F8C830D7F8C8108E48C0
:1045A00001F072FAD7F8C830B3F1FF3F23D18B483E
:1045B00001F06AFA4FF000010120FFF733FD4FF0E0
:1045C00000010220FFF72EFD4FF000010320FFF74E
:1045D00029FD4FF000010420FFF724FD07F130030F
:1045E0007F491846FFF732FF07F1300300211846D4
:1045F000FFF786FB0BE007F14C0379491846FFF7FC
:1046000025FF07F14C0301211846FFF779FB012331
:10461000D6E06F480BF092F803460C461846214648
:10462000FCF7A8FB0346C7F8C430D7F8C4106A48A3
:1046300001F02AFAD7F8C430B3F1FF3F0FD169482F
:1046400001F022FA07F1680367491846FFF7FEFEFA
:1046500007F1680300211846FFF752FB0BE007F152
:10466000840361491846FFF7F1FE07F18403012135
:104670001846FFF745FB0123A2E055480BF05EF812
:1046800003460C4618462146FCF774FB0346C7F860
:10469000C030D7F8C010504801F0F6F907F1A00378
:1046A00052491846FFF7D2FE07F1A003D7F8C01011
:1046B0001846FFF741FB012382E045480BF03EF826
:1046C00003460C4618462146FCF79CFB0346C7F8F8
:1046D000BC30D7F8BC100120FFF7A4FCD7F8BC0011
:1046E000FCF740F803460C461A462346394801F0C9
:1046F000CBF9012364E036480BF020F803460C4662
:1047000018462146FCF77EFB0346C7F8BC30D7F8B5
:10471000BC100220FFF786FCD7F8BC00FCF722F89B
:1047200003460C461A4623462A4801F0ADF90123F8
:1047300046E027480BF002F803460C46184621468F
:10474000FCF760FB0346C7F8BC30D7F8BC10032069
:10475000FFF768FCD7F8BC00FCF704F803460C46EA
:104760001A4623461B4801F08FF9012328E0184818
:104770000AF0E4FF03460C4618462146FCF742FBCC
:104780000346C7F8BC30D7F8BC100420FFF74AFC3A
:10479000D7F8BC00FBF7E6FF03460C461A46234653
:1047A0000C4801F071F901230AE0114801F06CF99D
:1047B0000A221049054806F083F9012300E000238E
:1047C0001846D437BD4690BD80530108B00F002075
:1047D000740D00208C5301089C530108AC53010850
:1047E000B80D0020C05301089C0D0020D40D0020FE
:1047F000D8530108F053010880B582B000AF78604B
:10480000002301220121184803F068F80023012247
:104810000121164803F062F8012301220121144806
:1048200003F05CF8012301220121124803F056F83D
:10483000002301220121104803F050F80023012237
:1048400001210E4803F04AF80123012201210C48FE
:1048500003F044F80123012201210A4803F03EF845
:1048600000BF0837BD4680BDF00D00200C0E0020B3
:10487000280E0020440E0020600E00207C0E002038
:10488000980E0020B40E00202DE9F0439DB000AF3B
:104890007860354801F0F8F8344801F0F5F834480C
:1048A00001F0F2F80121334803F01FF901213248E9
:1048B00003F01BF90121314803F017F901213048B9
:1048C00003F013F901F09CFC0A46014624A4D4E944
:1048D000003411EB030842EB04090022404649462C
:1048E0000AF0FEF80021234803F0FFF800212248D7
:1048F00003F0FBF80021214803F0F7F800212048DD
:1049000003F0F3F801F07CFC0A46014614A4D4E954
:104910000034CD1842EB04060022284631460AF046
:10492000DFF8184B5B681846FBF71CFF03460C4684
:1049300007F10C001A46234613490AF003FF07F15A
:104940000C03184601F0A8FA03461A4607F10C03B7
:1049500019460E4806F0B4F8A4E700BFAFF3008094
:104960000094357700000000FC530108145401083E
:1049700034540108280E0020440E0020980E002018
:10498000B40E0020C00C002058540108B00F0020C5
:1049900080B582B000AF786078684FF4FA63642223
:1049A000054909F05FFF054A7B681A607B68184675
:1049B0000837BD4680BD00BF6C540108D05E0108B9
:1049C00080B483B000AF786000BF0C37BD465DF89F
:1049D000047B704780B584B000AF78604FF0FF3241
:1049E0006FF00043084801F06DF907F10F03012251
:1049F0001946054805F0F9FF97F90F30DBB2184664
:104A0000FFF74EFCEAE700BF9C26002080B582B08D
:104A100000AF786078684FF4FA636422054909F0C2
:104A200021FF054A7B681A607B6818460837BD4637
:104A300080BD00BF6C540108B85E010890B585B018
:104A400000AFF860B960C7E90023F8684FF4FA6373
:104A50006422B96809F006FF064AFB681A60FA6822
:104A6000D7E90034C2E91434FB6818461437BD4650
:104A700090BD00BFA05E010880B582B000AF786035
:104A80004FF4E131034805F043FE00BF0837BD464F
:104A900080BD00BFB00F0020B0B588B000AF786017
:104AA000134B07F108041D460FCD0FC495E8030012
:104AB00020600434217007F1080314221946786835
:104AC00000F01AF84FF0FF326FF00043094801F090
:104AD000F9F807F11F0301221946064805F085FF82
:104AE00097F91F30DBB21846FFF7DAFBEAE700BFA1
:104AF0007C540108B00F002080B586B000AFF8608C
:104B0000B9607A6000237B617A697B689A4216DA21
:104B10007B69BA68D1187A687B69D31A1A460A4841
:104B200005F0CEFF38613B69002B03DA074800F03F
:104B3000ABFFE9E77A693B6913447B61E4E700BFB7
:104B40001837BD4680BD00BFB00F00209454010847
:104B500090B583B000AF78607B681846FEF752FFCF
:104B6000134A7B681A607B6803F108027B689A63CA
:104B70007B6803F118027B68DA637B6803F1280223
:104B80007B681A647B68002283F844207A684FF0BF
:104B900000034FF00004C2E914347B68D3E91434F5
:104BA0007A68C2E912347B6818460C37BD4690BD5E
:104BB000E85E010880B582B000AF7860054A7B6886
:104BC0001A607B68184609F0BBFE7B6818460837F8
:104BD000BD4680BDA05E010880B582B000AF7860A0
:104BE0007868FFF7E7FF5821786801F0CAF97B6819
:104BF00018460837BD4680BD80B582B000AF7860EA
:104C0000054A7B681A607B68184609F099FE7B6844
:104C100018460837BD4680BDB85E010880B582B031
:104C200000AF78607868FFF7E7FF5021786801F0FF
:104C3000A8F97B6818460837BD4680BD80B582B0AC
:104C400000AF7860054A7B681A607B68184609F0F7
:104C500077FE7B6818460837BD4680BDD05E0108E8
:104C600080B582B000AF78607868FFF7E7FF502129
:104C7000786801F086F97B6818460837BD4680BD24
:104C800080B582B000AF7860054A7B681A607B68A7
:104C90001846FEF7F5FA7B6818460837BD4680BD12
:104CA000E85E010880B582B000AF78607868FFF7F1
:104CB000E7FF5821786801F064F97B6818460837E7
:104CC000BD4680BD0000000080B584B002AF7860B2
:104CD00039607B68012B40F0B7803B684FF6FF726C
:104CE000934240F0B1805C48FEF79CFE5B4A5C4911
:104CF00059480AF01DFD002300935A4B564A5A4961
:104D00005A4801F04BF9554A594958480AF010FDE4
:104D10005848FFF71DFF514A574956480AF008FD09
:104D2000002300934F4B534A5449554801F036F93C
:104D30004A4A4F4952480AF0FBFC40F2D1725149AD
:104D4000514800F0BDFD454A50494F480AF0F0FC7B
:104D50003A214F4802F094FD3B214E4802F090FD6D
:104D600038214D4802F08CFD2B214C4802F088FD83
:104D700030214B4802F084FD31214A4802F080FD89
:104D80003221494802F07CFD3321484802F078FD89
:104D90003421474802F074FD3521464802F070FD89
:104DA0003621454802F06CFD3721444802F068FD89
:104DB0000F21434804F044F80E21424804F040F823
:104DC0000D21414804F03CF80C21404804F038F82B
:104DD00003213F4804F034F802213E4804F030F843
:104DE00001213D4804F02CF800213C4804F028F84B
:104DF0004FF0FF3301934FF0FF3300931B231A2230
:104E00000321374805F01EFB0321364802F048F81D
:104E10003548FFF7BDFD114A344933480AF088FC94
:104E20003348FFF7F3FD0D4A324931480AF080FC60
:104E300007A3D3E9002330493048FFF7FFFD074AB5
:104E40002F492E480AF074FC00BF0837BD4680BDCC
:104E500000E1F50500000000500C0020F4130020D4
:104E6000AD3A0008A854010870120020900C0020F0
:104E700031320008C80C0020814C00089412002038
:104E8000200D0020BC540108500D002001590008DD
:104E9000800D00209C0D0020B80D0020D40D0020B6
:104EA000F00D00200C0E0020280E0020440E0020E3
:104EB000600E00207C0E0020980E0020B40E002012
:104EC000D00E0020EC0E0020080F0020240F002040
:104ED000400F00205C0F0020780F0020940F00206E
:104EE000B00F0020CC0F0020E80F00203D4C000840
:104EF00038100020F94B0008C45401088810002025
:104F0000B54B000880B584B000AFF860B9607A6036
:104F10003B607B68102B04D9064800F0FDFD0023A0
:104F200004E03968F86800F007F8012318461037E4
:104F3000BD4680BDCC540108F0B484B000AF7860A9
:104F400039607B689A6B3B6814460FCB84E80F008E
:104F50007B68DB6BFB607B689A6B7B68DA637B68E2
:104F6000FA689A637B6893F84430DBB2002B09D06F
:104F70007B689B6BFB607B681A6C7B689A637B68C1
:104F8000FA681A647B68D3E912345D1C44F10006A8
:104F90007B68C3E9125600BF1037BD46F0BC7047AE
:104FA00080B500AF4FF6FF710120FFF78DFE80BD89
:104FB00080B582B000AF7860396078684FF4FA63EA
:104FC0006422396809F04EFC034A7B681A607B68EA
:104FD00018460837BD4680BDFC5E010880B582B02A
:104FE00000AF7860FDF792FF7B682922A3F850207C
:104FF00000BF0837BD4680BDF0B583B000AF786014
:105000005B4B09221A605A4B5A4A5A605848FDF7BE
:1050100034FB7B68B3F850207B6856331946104642
:10502000FDF723FC03461A467B6883F852207B6811
:1050300093F85230002B04D17B684EF6AA32A3F8C5
:1050400056200123002B0DD07B6893F8523019466F
:105050007B68B3F856301A467B68B3F85030464840
:1050600000F012FD7B6893F85230002B03D04348C8
:1050700000F00AFD74E0424800F006FD7B68B3F8DA
:1050800050301846FDF70AFC03461A467B6883F841
:1050900052203C4800F0F8FC7B68B3F850301846CA
:1050A000FDF7D9FC03461A467B6883F852207B68DB
:1050B000002283F853207B68B3F850207B68543378
:1050C00019461046FDF710FD03461A467B6883F823
:1050D00052207B6893F85430002B05D07B68B3F8DE
:1050E00050301846FDF7A0FC7B68B3F850207B6871
:1050F0005A3319461046FDF759FE7B68B3F85C3009
:1051000019461B48FDF733FB03461AB21E4B1A80A3
:105110001D4BB3F90030002B05D17B68B3F85C3030
:105120001AB2194B1A8001221749184800F08CF85E
:105130007B6893F853300133DAB27B6883F85320ED
:1051400001F05EF80A46014607A4D4E90034CD1800
:1051500042EB040600222846314609F0C1FCAAE7CA
:105160000C37BD46F0BD00BF00C2EB0B00000000D5
:10517000181100202C110020E054010824550108CA
:10518000445501085C550108C0110020941200200C
:1051900080B582B000AF78600B46FB70FB78702161
:1051A0001846FDF7BFFE03461A467B6883F8522077
:1051B0007B6893F85230002B02D01A4800F064FC50
:1051C0007B68B3F850300022C8211846FDF7D0FCA8
:1051D00003461A467B6883F852207B6893F8523066
:1051E000002B02D0104800F04FFC7B68B3F8503021
:1051F0000022C8211846FDF7BBFC03461A467B680F
:1052000083F852207B6893F85230002B02D0074875
:1052100000F03AFC7868FFF7EFFE00BF0837BD46A4
:1052200080BD00BF7855010890550108B4550108AC
:1052300080B582B000AF786001217868FFF7A8FFE1
:1052400000BF0837BD4680BD80B584B000AFF860B0
:10525000B9601346FB71F868FA790023B96801F068
:10526000ADF8034618461037BD4680BD80B582B004
:1052700000AF7860054A7B681A607B68184609F0C1
:105280005FFB7B6818460837BD4680BDFC5E0108A1
:1052900080B582B000AF78607868FFF7E7FFA021A3
:1052A000786800F06EFE7B6818460837BD4680BD02
:1052B00080B582B000AF786039607B68012B1ED169
:1052C0003B684FF6FF72934219D117231622012132
:1052D0000D4802F007FE40F2D1720C490C4800F074
:1052E000EFFA0C4A0C490A480AF022FA0B490C481A
:1052F000FFF75EFE074A0B4909480AF019FA00BF9A
:105300000837BD4680BD00BFE0100020D855010819
:10531000FC100020F413002001590008E05501089A
:10532000D01100206D52000880B500AF4FF6FF711C
:105330000120FFF7BDFF80BD80B582B000AF78606F
:10534000FCF7E7F9FCF7EBF9FCF73AFA0120FCF778
:1053500045FAFCF73CFA7868FCF7F8FA44F23400B6
:10536000FCF75CFC44F23400FCF768FC0120FCF71D
:10537000EDFE01210548FDF735F94EF66020FDF7F9
:10538000F1F800BF0837BD4680BD00BF00D0232420
:10539000F0B587B000AF4FF000034FF00004C7E94D
:1053A00004343B1D1846FCF7A5FC0423FB60FB6896
:1053B000002B1EDBD7E904124FF000034FF000046E
:1053C000140244EA11640B02C7E904343A1DFB6875
:1053D00013441B78DBB24FF00004D7E9041241EA12
:1053E000030542EA0406C7E90456FB68013BFB607B
:1053F000DDE7D7E90434184621461C37BD46F0BD29
:10540000F0B587B000AF4FF000034FF00004C7E9DC
:1054100004343B1D1846FCF77BFC0423FB60FB684F
:10542000002B1EDBD7E904124FF000034FF00004FD
:10543000140244EA11640B02C7E904343A1DFB6804
:1054400013441B78DBB24FF00004D7E9041241EAA1
:10545000030542EA0406C7E90456FB68013BFB600A
:10546000DDE7D7E90434184621461C37BD46F0BDB8
:1054700090B486B000AFF860C7E900230023FB7545
:10548000FB7D042B14D8FB7DFA6813443A781A701C
:10549000D7E900124FF000034FF000040B0A43EA73
:1054A0000263140AC7E90034FB7D0133FB75E7E7AB
:1054B00000BF1837BD4690BC70472DE9F04385B05A
:1054C00000AF7860396038684FF000014FF000029B
:1054D000C0E900120022FA73FA7B042A26D83A683F
:1054E000D2E90089FA7B79680A441278D1B24FF088
:1054F0000002F87BC000A0F1200EC0F1200C02FADF
:1055000000F401FA0EFE44EA0E0421FA0CFC44EA0F
:105510000C0401FA00F348EA030549EA04063A6874
:10552000C2E90056FA7B0132FA73D5E700BF14379F
:10553000BD46BDE8F083F0B585B000AF3B461846E8
:10554000FCF7F4FB4FF000034FF00004C7E902340E
:105550000423FB7197F90730002B22DBD7E90212F5
:105560004FF000034FF00004140244EA11640B02F0
:10557000C7E9023497F9073007F11002134413F812
:10558000103CDBB24FF00004D7E9021241EA0305F8
:1055900042EA0406C7E90256FB79013BDBB2FB7124
:1055A000D8E7D7E90234184621461437BD46F0BD86
:1055B00080B586B000AFBA607B600346FB730B46D4
:1055C000BB73FCF743FFBB680533FA7B1A70BB68FB
:1055D0000633BA7B1A707B689BB20022B968184602
:1055E000FCF73BFB7B689BB200211846FCF754FBA1
:1055F00097F820301846FCF7C7FE786100210F208D
:10560000FCF759FC034603F08003002B0CBF012379
:105610000023DBB2002B00D0F0E7FCF717FF1022CD
:1056200000210F20FCF7B3FC202200210F20FCF703
:10563000AEFC402200210F20FCF7A9FC80220021B3
:105640000F20FCF7A4FC00BF1837BD4680BD00004A
:1056500080B584B000AF786000210F20FCF72BFCF0
:10566000F860FB6803F48043002B19D04FF48042AC
:1056700000210F20FCF78BFC00211020FCF71BFC05
:105680000346C3F30903BB60BB68192B06D8BB688C
:105690009BB2002219467868FCF71AFB012305E04B
:1056A000044A00210F20FCF772FC00231846103733
:1056B000BD4680BD0090272480B582B000AF7860E1
:1056C000074A7B681A60074800F026FA7B680433B3
:1056D000184600F0D3FB7B6818460837BD4680BDEE
:1056E000345F0108E855010880B582B000AF7860EA
:1056F0007868FFF7E1FF2421786800F042FC7B68BE
:1057000018460837BD4680BD80B584B000AFF8604C
:10571000B9607A60F8687B680822B96800F0E0FD3B
:10572000034AFB681A60FB6818461037BD4680BD07
:10573000245F010880B584B000AFF860B9607A607A
:10574000F8687B681022B96800F0CAFD034AFB685C
:105750001A60FB6818461037BD4680BD145F01080B
:1057600080B582B000AF786039607B68012B1AD1B8
:105770003B684FF6FF72934215D10D4A4FF0FF314F
:105780000C48FFF7C1FF0C4A0C490A4809F0D0FF4A
:105790000B4A4FF0FF310B48FFF7CCFF064A0A498E
:1057A000084809F0C5FF00BF0837BD4680BD00BFEF
:1057B000F855010870120020F41300201D5800084D
:1057C0000C56010894120020CD57000880B582B015
:1057D00000AF7860074A7B681A60074800F09CF9C0
:1057E0007B681846FFF768FF7B6818460837BD4698
:1057F00080BD00BF145F01081856010880B582B053
:1058000000AF78607868FFF7E1FF2421786800F046
:10581000B8FB7B6818460837BD4680BD80B582B0AE
:1058200000AF7860074A7B681A60074800F074F997
:105830007B681846FFF740FF7B6818460837BD466F
:1058400080BD00BF245F01081856010880B582B0F2
:1058500000AF78607868FFF7E1FF2421786800F0F6
:1058600090FB7B6818460837BD4680BD80B500AF09
:105870004FF6FF710120FFF773FF80BD80B483B046
:1058800000AF78607B681B6818460C37BD465DF832
:10589000047B704780B483B000AF78607B685B683E
:1058A00018460C37BD465DF8047B704780B483B062
:1058B00000AF786000BF0C37BD465DF8047B7047D1
:1058C00080B584B000AFF860B9607A60FB68181DDD
:1058D0000023BA68084900F089FA084AFB681A6090
:1058E000FB687A685A61FB6801221A76FB681846E1
:1058F0001037BD4680BD00BFB8120020445F0108CC
:1059000080B582B000AF7860074A7B681A600748AC
:1059100000F002F97B680433184600F0AFFA7B68A8
:1059200018460837BD4680BD445F01082856010867
:1059300080B582B000AF78607868FFF7E1FF1C2186
:10594000786800F01EFB7B6818460837BD4680BDAE
:1059500080B483B000AF78607B6801221A7600BF04
:105960000C37BD465DF8047B704780B483B000AF50
:1059700078607B6800221A7600BF0C37BD465DF860
:10598000047B704780B485B000AFF860B9607A607E
:105990003B604FF0FF3318461437BD465DF8047B7B
:1059A0007047000090B583B000AF154B1B68002B0B
:1059B00003D0134B1B68043B00E000237B607B6833
:1059C000002B19D07B685C697B6804331846FFF7AD
:1059D00061FF03461A4621460A4800F055F87B68E5
:1059E00004331846FFF74AFF0346002B01D0043B5F
:1059F00000E000237B60E2E700BF0C37BD4690BDAE
:105A0000B81200203C56010880B483B000AF786023
:105A1000044A7B681A607B6818460C37BD465DF8FF
:105A2000047B7047645F010880B582B000AF786086
:105A30007868FFF7E9FF0821786800F0A2FA7B6830
:105A400018460837BD4680BD80B582B000AF78608B
:105A50000B46FB7097F90330184608F0AFFB00BF08
:105A60000837BD4680BD000080B483B000AF7860C9
:105A7000044A7B681A607B6818460C37BD465DF89F
:105A8000047B7047645F01080FB480B582B000AF3B
:105A90001D4B1B68002B30D03B461846FFF7E4FF38
:105AA00007F114037B60194B1B68002B05D0174BC3
:105AB0001B681946164801F0F7F808F0D9FD0346AF
:105AC00083F00103DBB2002B05D03B463969184651
:105AD00000F06CFE0AE00F4808F015FE3B463969FD
:105AE000184600F063FE0B4808F06CFE08F0A9FBB6
:105AF0003B461846FFF788FF00E000BF0837BD4669
:105B0000BDE8804004B070475C000020BC1200205B
