:020000040800F2
:10000000000002208D770008B5FD0008BBFD000848
:10001000D9FD0008DFFD0008E5FD00080000000034
:10002000000000000000000000000000B5F600081D
:10003000ED77000800000000CDF6000831FA000856
:10004000ED770008ED770008ED770008ED77000800
:10005000ED770008ED770008098A00082D8A00086E
:10006000518A0008758A0008998A0008ED7700080F
:1000700019BB0008ED77000841BA0008ED770008C9
:10008000D1BA0008F9B90008ED770008ED7700084B
:10009000ED770008ED770008ED770008BD8A0008CD
:1000A000ED770008ED770008E1FB0008ED77000828
:1000B000ED770008ED770008ED770008ED77000890
:1000C000ED770008ED770008ED770008ED77000880
:1000D000ED77000821B9000839B9000851B90008C6
:1000E0001D8B0008ED770008ED770008ED7700081C
:1000F000ED770008ED770008ED770008ED77000850
:10010000ED770008ED770008D5F70008ED770008D7
:1001100069B9000881B90008ED770008ED7700089B
:10012000ED770008ED770008ED770008ED7700081F
:10013000ED770008ED770008ED770008ED7700080F
:10014000ED770008ED770008ED770008ED770008FF
:1001500089BA0008ED770008B1B9000899B900081C
:10016000ED770008ED770008ED770008ED770008DF
:10017000ED770008ED770008ED770008ED770008CF
:0C018000ED770008ED7700080000000893
:1001C00001F0FF01102A2BDB10F0070F08D010F808
:1001D000013B013A8B422DD010F0070F42B3F6D10C
:1001E000F0B441EA012141EA014122F007047FF025
:1001F00000070023F0E80256083C85EA010586EA7C
:10020000010685FA47F5A3FA87F586FA47F6A5FAB7
:1002100087F68EB9EED1F0BC01F0FF0102F00702C3
:1002200032B110F8013B013A83EA010313B1F8D16E
:100230000020704701387047002D06BF354603384F
:10024000073815F0010F07D1013015F4807F02BF88
:10025000013015F4C03F0130F0BC0138704700BFD9
:10026000844641EA000313F003036DD1403A41D3C1
:1002700051F8043B40F8043B51F8043B40F8043B80
:1002800051F8043B40F8043B51F8043B40F8043B70
:1002900051F8043B40F8043B51F8043B40F8043B60
:1002A00051F8043B40F8043B51F8043B40F8043B50
:1002B00051F8043B40F8043B51F8043B40F8043B40
:1002C00051F8043B40F8043B51F8043B40F8043B30
:1002D00051F8043B40F8043B51F8043B40F8043B20
:1002E00051F8043B40F8043B51F8043B40F8043B10
:1002F000403ABDD2303211D351F8043B40F8043BB0
:1003000051F8043B40F8043B51F8043B40F8043BEF
:1003100051F8043B40F8043B103AEDD20C3205D3BF
:1003200051F8043B40F8043B043AF9D2043208D0B7
:10033000D2071CBF11F8013B00F8013B01D30B8829
:1003400003806046704700BF082A13D38B078DD007
:1003500010F003038AD0C3F10403D21ADB071CBFD9
:1003600011F8013B00F8013B80D331F8023B20F843
:10037000023B7BE7043AD9D3013A11F8013B00F87C
:10038000013BF9D20B7803704B7843708B78837004
:100390006046704700000000000000000000000000
:1003A000000000000000000000000000000000004D
:1003B000000000000000000000000000000000003D
:1003C00090F800F06DE9024520F007016FF0000C95
:1003D00010F0070491F820F040F049804FF000043D
:1003E0006FF00700D1E9002391F840F000F1080018
:1003F00082FA4CF2A4FA8CF283FA4CF3A2FA8CF350
:100400004BBBD1E9022382FA4CF200F10800A4FAB6
:100410008CF283FA4CF3A2FA8CF3E3B9D1E904230A
:1004200082FA4CF200F10800A4FA8CF283FA4CF341
:10043000A2FA8CF37BB9D1E9062301F1200182FAFB
:100440004CF200F10800A4FA8CF283FA4CF3A2FA01
:100450008CF3002BC6D0002A04BF04301A4612BA0F
:10046000B2FA82F2FDE8024500EBD2007047D1E912
:10047000002304F00305C4F100004FEAC50514F0A1
:10048000040F91F840F00CFA05F562EA05021CBF72
:1004900063EA050362464FF00004A9E781F00041DA
:1004A00002E000BF83F0004330B54FEA41044FEA59
:1004B000430594EA050F08BF90EA020F1FBF54EAF4
:1004C000000C55EA020C7FEA645C7FEA655C00F090
:1004D000E2804FEA5454D4EB5555B8BF6D420CDD61
:1004E0002C4480EA020281EA030382EA000083EAE4
:1004F000010180EA020281EA0303362D88BF30BD84
:1005000011F0004F4FEA01314FF4801C4CEA1131D9
:1005100002D0404261EB410113F0004F4FEA033338
:100520004CEA133302D0524263EB430394EA050FC3
:1005300000F0A780A4F10104D5F1200E0DDB02FA32
:100540000EFC22FA05F2801841F1000103FA0EF2C6
:10055000801843FA05F359410EE0A5F120050EF18C
:10056000200E012A03FA0EFC28BF4CF0020C43FABD
:1005700005F3C01851EBE37101F0004507D54FF0CA
:10058000000EDCF1000C7EEB00006EEB0101B1F51A
:10059000801F1BD3B1F5001F0CD349085FEA300060
:1005A0004FEA3C0C04F101044FEA445212F5800F6B
:1005B00080F09A80BCF1004F08BF5FEA500C50F108
:1005C000000041EB045141EA050130BD5FEA4C0CEB
:1005D000404141EB010111F4801FA4F10104E9D174
:1005E00091F0000F04BF01460020B1FA81F308BF6B
:1005F0002033A3F10B03B3F120020CDA0C3208DD37
:1006000002F1140CC2F10C0201FA0CF021FA02F111
:100610000CE002F11402D8BFC2F1200C01FA02F181
:1006200020FA0CFCDCBF41EA0C019040E41AA2BFA6
:1006300001EB0451294330BD6FEA04041F3C1CDA6E
:100640000C340EDC04F11404C4F1200220FA04F08E
:1006500001FA02F340EA030021FA04F345EA030138
:1006600030BDC4F10C04C4F1200220FA02F001FAFA
:1006700004F340EA0300294630BD21FA04F029467C
:1006800030BD94F0000F83F4801306BF81F4801115
:100690000134013D4EE77FEA645C18BF7FEA655C88
:1006A00029D094EA050F08BF90EA020F05D054EA5A
:1006B000000C04BF1946104630BD91EA030F1EBF5F
:1006C0000021002030BD5FEA545C05D14000494163
:1006D00028BF41F0004130BD14F580043CBF01F556
:1006E000801130BD01F0004545F0FE4141F470013C
:1006F0004FF0000030BD7FEA645C1ABF1946104617
:100700007FEA655C1CBF0B46024650EA013406BF17
:1007100052EA033591EA030F41F4002130BD00BFD6
:1007200090F0000F04BF0021704730B54FF4806493
:1007300004F132044FF000054FF0000150E700BF14
:1007400090F0000F04BF0021704730B54FF4806473
:1007500004F1320410F0004548BF40424FF0000160
:100760003EE700BF42004FEAE2014FEA31014FEAA3
:1007700002701FBF12F07F4393F07F4F81F06051F2
:10078000704732F07F4208BF704793F07F4F04BF3D
:1007900041F40021704730B54FF4607401F000451A
:1007A00021F000411CE700BF50EA010208BF70477A
:1007B00030B54FF000050AE050EA010208BF70476B
:1007C00030B511F0004502D5404261EB41014FF4D4
:1007D000806404F132045FEA915C3FF4D8AE4FF0DC
:1007E00003025FEADC0C18BF03325FEADC0C18BFBF
:1007F000033202EBDC02C2F1200300FA03FC20FA10
:1008000002F001FA03FE40EA0E0021FA02F114445C
:10081000BDE600BF70B54FF0FF0C4CF4E06C1CEA75
:1008200011541DBF1CEA135594EA0C0F95EA0C0FE6
:1008300000F0DEF82C4481EA030621EA4C5123EA59
:100840004C5350EA013518BF52EA033541F4801188
:1008500043F4801338D0A0FB02CE4FF00005E1FB3B
:1008600002E506F00042E0FB03E54FF00006E1FB85
:1008700003569CF0000F18BF4EF0010EA4F1FF04C8
:10088000B6F5007F64F5407404D25FEA4E0E6D4108
:1008900046EB060642EAC62141EA55514FEAC52019
:1008A00040EA5E504FEACE2EB4F1FD0C88BFBCF595
:1008B000E06F1ED8BEF1004F08BF5FEA500E50F146
:1008C000000041EB045170BD06F0004646EA01010C
:1008D00040EA020081EA0301B4EB5C04C2BFD4EB3E
:1008E0000C0541EA045170BD41F480114FF0000E37
:1008F000013C00F3AB8014F1360FDEBF002001F0A5
:10090000004170BDC4F10004203C35DA0C341BDC1E
:1009100004F11404C4F1200500FA05F320FA04F0F0
:1009200001FA05F240EA020001F0004221F0004124
:1009300010EBD37021FA04F642EB06015EEA430E97
:1009400008BF20EAD37070BDC4F10C04C4F12005C7
:1009500000FA04F320FA05F001FA04F240EA02007A
:1009600001F0004110EBD37041F100015EEA430E4B
:1009700008BF20EAD37070BDC4F1200500FA05F26B
:100980004EEA020E20FA04F301FA05F243EA0203EA
:1009900021FA04F001F0004121FA04F220EA0200F9
:1009A00000EBD3705EEA430E08BF20EAD37070BD3F
:1009B00094F0000F0FD101F00046400041EB01011F
:1009C00011F4801F08BF013CF7D041EA060195F001
:1009D000000F18BF704703F00046520043EB0303BB
:1009E00013F4801F08BF013DF7D043EA06037047A8
:1009F00094EA0C0F0CEA135518BF95EA0C0F0CD0B3
:100A000050EA410618BF52EA4306D1D181EA0301F8
:100A100001F000414FF0000070BD50EA410606BFF2
:100A20001046194652EA430619D094EA0C0F02D137
:100A300050EA013613D195EA0C0F05D152EA03367C
:100A40001CBF104619460AD181EA030101F000419A
:100A500041F0FE4141F470014FF0000070BD41F0E3
:100A6000FE4141F4780170BD70B54FF0FF0C4CF4BD
:100A7000E06C1CEA11541DBF1CEA135594EA0C0FDC
:100A800095EA0C0F00F0A7F8A4EB050481EA030E29
:100A900052EA03354FEA013100F088804FEA033310
:100AA0004FF0805545EA131343EA12634FEA0222DE
:100AB00045EA111545EA10654FEA00260EF000419F
:100AC0009D4208BF964244F1FD0404F5407402D2F1
:100AD0005B084FEA3202B61A65EB03055B084FEA82
:100AE00032024FF480104FF4002CB6EB020E75EB7F
:100AF000030E22BFB61A754640EA0C005B084FEAA7
:100B00003202B6EB020E75EB030E22BFB61A754623
:100B100040EA5C005B084FEA3202B6EB020E75EB6E
:100B2000030E22BFB61A754640EA9C005B084FEAE6
:100B30003202B6EB020E75EB030E22BFB61A7546F3
:100B400040EADC0055EA060E18D04FEA051545EAE2
:100B500016754FEA06164FEAC30343EA52734FEA8B
:100B6000C2025FEA1C1CC0D111F4801F0BD141EA04
:100B700000014FF000004FF0004CB6E711F4801F69
:100B800004BF01430020B4F1FD0C88BFBCF5E06F49
:100B90003FF6AFAEB5EB030C04BFB6EB020C5FEA59
:100BA000500C50F1000041EB045170BD0EF0004EAE
:100BB0004EEA113114EB5C04C2BFD4EB0C0541EAE0
:100BC000045170BD41F480114FF0000E013C90E6DD
:100BD00045EA060E8DE60CEA135594EA0C0F08BFA1
:100BE00095EA0C0F3FF43BAF94EA0C0F0AD150EAA0
:100BF00001347FF434AF95EA0C0F7FF425AF104633
:100C000019462CE795EA0C0F06D152EA03353FF45A
:100C1000FDAE1046194622E750EA410618BF52EAD7
:100C200043067FF4C5AE50EA41047FF40DAF52EAAB
:100C300043057FF4EBAE12E74FF0FF3C06E000BF48
:100C40004FF0010C02E000BF4FF0010C4DF804CD55
:100C50004FEA410C7FEA6C5C4FEA430C18BF7FEA15
:100C60006C5C1BD001B050EA410C0CBF52EA430C43
:100C700091EA030F02BF90EA020F0020704710F1C3
:100C8000000F91EA030F58BF994208BF90422CBF52
:100C9000D8176FEAE37040F0010070474FEA410C4B
:100CA0007FEA6C5C02D150EA013C07D14FEA430C69
:100CB0007FEA6C5CD6D152EA033CD3D05DF8040BDA
:100CC000704700BF8446104662468C46194663460C
:100CD00000E000BF01B5FFF7B7FF002848BF10F1E3
:100CE000000F01BD4DF808EDFFF7F4FF0CBF012028
:100CF00000205DF808FB00BF4DF808EDFFF7EAFFA4
:100D000034BF012000205DF808FB00BF4DF808ED5E
:100D1000FFF7E0FF94BF012000205DF808FB00BF53
:100D20004DF808EDFFF7CEFF94BF012000205DF8DD
:100D300008FB00BF4DF808EDFFF7C4FF34BF0120EA
:100D400000205DF808FB00BF4FEA410C7FEA6C5CB5
:100D500002D150EA013C0AD14FEA430C7FEA6C5CB5
:100D600002D152EA033C02D14FF0000070474FF02D
:100D7000010070474FEA410212F5001215D211D559
:100D80006FF47873B3EB625212D94FEAC12343F088
:100D9000004343EA505311F0004F23FA02F018BF0A
:100DA000404270474FF00000704750EA013005D1D3
:100DB00011F0004008BF6FF0004070474FF0000096
:100DC000704700BF4A0011D212F5001211D20DD5A2
:100DD0006FF47873B3EB62520ED44FEAC12343F041
:100DE000004343EA505323FA02F070474FF00000EB
:100DF000704750EA013002D14FF0FF3070474FF09A
:100E0000000070474FEA4102B2F1E04324BFB3F55E
:100E1000001CDCF1FE5C0DD901F0004C4FEAC00271
:100E20004CEA5070B2F1004F40EB830008BF20F055
:100E30000100704711F0804F21D113F13872BCBF0F
:100E400001F00040704741F480114FEA5252C2F164
:100E50001802C2F1200C10FA0CF320FA02F018BFAD
:100E600040F001004FEAC1234FEAD32303FA0CFC00
:100E700040EA0C0023FA02F34FEA4303CCE77FEA8F
:100E8000625307D150EA01331EBF4FF0FE4040F4D9
:100E90004000704701F0004040F0FE4040F4000088
:100EA000704700BF7BB972B90029BEBF00204FF068
:100EB000004106E008BF00281CBF6FF000414FF062
:100EC000FF3000F0F5B9ADF1080C6DE904CE002952
:100ED00009DB002B1ADB00F083F8DDF804E0DDE924
:100EE000022304B07047404261EB4101002B1BDB41
:100EF00000F076F8DDF804E0DDE9022304B04042BA
:100F000061EB4101524263EB43037047524263EB92
:100F1000430300F065F8DDF804E0DDE9022304B0E6
:100F2000404261EB41017047524263EB430300F0E2
:100F300057F8DDF804E0DDE9022304B0524263EB28
:100F40004303704753B94AB9002908BF00281CBFA2
:100F50004FF0FF314FF0FF3000F0AAB9ADF1080CAF
:100F60006DE904CE00F03CF8DDF804E0DDE9022391
:100F700004B0704738B50022002304460D46FFF741
:100F8000BBFE28B920462946BDE8384000F00AB823
:100F9000204605F1004100F005F8404261EB4101B7
:100FA00038BD00BFD0B500220B4B06460F46FFF7F9
:100FB00031FCFFF707FF0446FFF7B2FB0022074BA7
:100FC000FFF728FC02460B4630463946FFF76AFA1F
:100FD000FFF7F8FE2146D0BD0000F03D0000F041D3
:100FE0002DE9F047089E04468846002B40F0858096
:100FF0008A42154648D9B2FA82F24AB1C2F12007B4
:1010000001FA02F320FA07F7954047EA03089440F3
:101010004FEA154E230CB8FBFEF71FFA85FC0EFBBA
:10102000178843EA084307FB0CF1994209D9EB18EA
:1010300007F1FF3080F0E380994240F2E080023F08
:101040002B445B1AA4B2B3FBFEF00EFB103344EA50
:10105000034400FB0CFCA44509D92C1900F1FF3313
:1010600080F0CB80A44540F2C88002382C4440EA8E
:101070000740A4EB0C0400271EB1D4400023C6E9AE
:1010800000433946BDE8F087002A53D0B2FA82F215
:10109000002A40F0B680491B4FEA154E1FFA85F82A
:1010A0000127B1FBFEFC230C0EFB1C1143EA01439C
:1010B00008FB0CF1994207D9EB180CF1FF3002D272
:1010C000994200F2EC808446591AA3B2B1FBFEF0BB
:1010D0000EFB101443EA044408FB00F8A04507D9AE
:1010E0002C1900F1FF3302D2A04500F2DC80184633
:1010F000A4EB080440EA0C40BEE78B4208D9002E5E
:1011000078D00027C6E9000138463946BDE8F087A7
:10111000B3FA83F77FB98B4202D3824200F2BD80DB
:10112000841A61EB030301209846002EA9D0C6E97A
:101130000048A6E7FFDEC7F12005BB4022FA05FC08
:101140004CEA030C01FA07F420FA05F821FA05F33A
:101150004FEA1C4E48EA0404B3FBFEF9210C0EFBD7
:1011600019331FFA8CF841EA034309FB08FA9A4540
:1011700002FA07F200FA07F10BD91CEB030309F19D
:10118000FF3080F088809A4540F28580A9F10209FD
:101190006344A3EB0A03A4B2B3FBFEF00EFB1033CF
:1011A00044EA034400FB08F8A04508D91CEB0404FA
:1011B00000F1FF336BD2A04569D90238644440EA9C
:1011C0000940A4EB0804A0FB02894C45C6464B46E7
:1011D00054D351D0002E69D0B1EB0E0264EB03045E
:1011E00004FA05F522FA07F3FC401D43C6E9005452
:1011F000002746E73746304643E7184637E70746B5
:101200001FE7C2F1200320FA03F7954001FA02F02C
:1012100021FA03F34FEA154E3843010CB3FBFEF7F6
:101220001FFA85F80EFB173341EA034107FB08F369
:101230008B4204FA02F407D9691807F1FF3C28D25F
:101240008B4226D9023F2944CB1A81B2B3FBFEF070
:101250000EFB103341EA034100FB08F38B4207D930
:10126000691800F1FF3C10D28B420ED90238294494
:10127000C91A40EA074714E74145ABD2B8EB020E62
:1012800069EB0C0201381346A4E76046F0E7184604
:1012900095E76746D8E781467BE7384645E7ACF1F6
:1012A000020C2B4410E702382C4421E73746E8E6CD
:1012B000704700BF80B500AF0021034807F0D8FA9F
:1012C0000123184680BD00BF900A002080B582B07F
:1012D00000AF78600121034807F0CAFA00BF083761
:1012E000BD4680BD900A00202DE9F04F87B000AFC9
:1012F000F86005F0A3FC82468B46FB681D464FF064
:1013000000062B4634464FF000014FF00002620108
:1013100042EAD36259010B4614465B1B64EB060498
:101320004FF000014FF00002620242EAD35259022C
:101330000B4614465B1946EB04044FF000014FF0D6
:101340000002A20142EA93629901C91A62EB040207
:1013500011EB050842EB06091AEB08033B604BEB67
:1013600009037B60D7E90034C7E904340022D7E9D8
:1013700004010FF015FA00BF1C37BD46BDE8F08F21
:1013800080B584B000AFF860B9607A603B6000213E
:10139000194807F012FA194809F00AFF034683F0CA
:1013A0000103DBB2002B00D0F5E7FA68B9681348F7
:1013B00009F014FF114809F0FBFE034683F0010316
:1013C000DBB2002B00D0F5E77A6839680B4809F0EA
:1013D00005FF0A4809F0ECFE034683F00103DBB287
:1013E000002B00D0F5E70121034807F0E6F900BF24
:1013F0001037BD4680BD00BF740A0020580A002087
:1014000080B584B000AFF860B9607A603B600021BD
:10141000194807F0D2F9194809F0CAFE034683F0CB
:101420000103DBB2002B00D0F5E7BA68F968134876
:1014300009F0D4FE114809F0BBFE034683F0010316
:10144000DBB2002B00D0F5E73A6879680B4809F069
:101450005BFF0A4809F0B7FE034683F00103DBB2E5
:10146000002B00D0F5E70121034807F0A6F900237F
:1014700018461037BD4680BD740A0020580A002067
:1014800080B584B000AFB9607A603B600346FB81F1
:10149000F8893B687A68B968FFF772FF002318463D
:1014A0001037BD4680BD80B584B000AFB9607A60AA
:1014B0003B600346FB81F9897B683A68B868FFF7AF
:1014C0009FFF002318461037BD4680BD80B584B00D
:1014D00002AF786039607B68012B14D13B684FF60E
:1014E000FF7293420FD107230093062305220121A7
:1014F000074809F039FB0421064807F029F828219C
:10150000054807F025F800BF0837BD4680BD00BF7D
:10151000580A0020740A0020900A002080B500AF0D
:101520004FF6FF710120FFF7D1FF80BD80B500AFFE
:10153000012301220121074807F038F8064809F085
:1015400009FD064B1B6800221946034809F04EFBB3
:1015500000BF80BD740A0020580A0020000000204F
:1015600080B584B000AF0346FB71074B1A68FB7966
:10157000B2FBF3F3FB60FA680021044809F0A0FD18
:1015800000BF1037BD4680BD00000020580A002073
:1015900080B584B000AF0346FB710B46BB80134699
:1015A000BB71BB79DB01DBB25AB2FB795BB213438F
:1015B0005BB2DBB2FB7100211E4807F0FEF8BB886E
:1015C000002B2CD0FB7943F04003DBB2BB7307F157
:1015D0000C03023301221946174809F0FFFDBB88AE
:1015E0007F2B11D9BB88DBB263F07F03DBB23B7387
:1015F000BB88DB11DBB27B7307F10C0302221946B7
:101600000D4809F0EBFD10E0BB88DBB23B7307F13E
:101610000C0301221946084809F0E0FD05E0FB1D16
:1016200001221946044809F0D9FD00BF1037BD4614
:1016300080BD00BF740A0020580A002080B584B025
:1016400000AFBA607B600346FB730B46BB81B98970
:10165000FB7B00221846FFF79BFF7B681A46B968A0
:10166000054809F051FE0121044807F0A6F800BF23
:101670001037BD4680BD00BF580A0020740A002004
:1016800080B584B000AF03460A46FB711346BB80A9
:1016900007F10F02B988F8790123FFF7CFFFFB7B31
:1016A00018461037BD4680BD80B584B000AFBA6023
:1016B0007B600346FB730B46BB81B989FB7B012230
:1016C0001846FFF765FF7B681A46B968054809F0B8
:1016D00085FD0121044807F070F800BF1037BD46B2
:1016E00080BD00BF580A0020740A002080B582B077
:1016F00000AF0346FB710B46BB801346BB71BA1D9E
:10170000B988F8790123FFF7CFFF00BF0837BD463E
:1017100080BD80B500AFFFF709FF00BF80BDF0B509
:1017200085B000AF00213620FFF7AAFF0346FB7308
:10173000FB7B23F00303DBB243F00103FB73FB7B72
:101740001A4600213620FFF7D1FF03213620FFF78C
:1017500097FF0346FB73FB7B03F00F03FB73FB7BDD
:101760001A4603213620FFF7C1FF05F067FA0A4643
:10177000014642F210734FF00004CD1842EB04060C
:10178000C7E9005605F05AFA0A460146D7E900347F
:10179000994272EB0403B4BF01230023DBB2002B98
:1017A00000D0EFE7FB7B63F00F03FB73FB7B1A4674
:1017B00003213620FFF79AFF00BF1437BD46F0BD66
:1017C00080B500AF2020FFF7CBFE00BF80BD80B505
:1017D00000AF0120FFF7C4FE00BF80BD80B586B01A
:1017E00000AF0346FB8004237B730023FB820023AE
:1017F0003B614F4B00225A754D4B00221A634C4BF4
:10180000002283F825204A4B002283F82C20484BE5
:1018100000229A83464B00225A63454B00229A636A
:1018200000F08AF80246424B1A60414B1B68414A5D
:10183000934202D04FF0FF3375E0002000F004FD2A
:1018400007F10D0301220021242000F07DFA1E2063
:1018500000F0C6FB0346FB82FB8A1B0A9BB2DAB28E
:10186000334B9A73042000F0BBFB38613B69DBB259
:10187000002B0FD002233B7307F10C03012212212E
:101880002D2000F061FA2A4B9B8B43F480539AB2CF
:10189000274B9A83062000F0A3FB0246244B5A6094
:1018A000072000F09DFB0246214B9A60FB8ADBB2C9
:1018B00003F01F03DAB21E4B1A751D4B1B7D002B64
:1018C00002D11B4B10221A75194B1B7D184600F0D4
:1018D000B0FEFB8803F00103002B09D000F0F0FB01
:1018E000134B9B8B43F400639AB2114B9A830FE026
:1018F0000521362000F00BFB0346FB81FB8923F416
:101900000073FB81FB891A460521362000F021FB7C
:10191000012000F099FC0021042000F0CCFA0246DE
:10192000034B9A61002318461837BD4680BD00BF9F
:10193000AC0A00203001CADE80B500AF00210020D3
:1019400000F0B9FA0346184680BD000080B586B0A5
:1019500000AF78600023FB750023BB757B681B78A4
:10196000FB747B685B791A46A14B33F81230BB825B
:101970007B685B78013B9F4A13639E4B1B6BBB7478
:10198000FB7C042B02D0FB7C072B01D1012300E060
:1019900000237B747B681A78964B1A737B68DB791B
:1019A000002B09D1934B9B6943F48003914A9361C7
:1019B000BB8ADB08BB8205E08E4B9B6923F4800366
:1019C0008C4A93617B681A7A8A4B5A73894B9A695D
:1019D0007B681B7A1B0403F440331343854A9361ED
:1019E000844B9B691A460021042000F0D0FABB8A80
:1019F0001A4642F604012E2000F0ABFABB7C1846D2
:101A000000F03AFBFB7C7C4AD35C1A4613469B00F1
:101A100013447A4A1344052207212B2000F094F93D
:101A20007B7C774A134401220B21282000F08CF99B
:101A3000FB7C714AD35C1A46724B53F822301A462B
:101A40000C21282000F0A3FA7B68DB7918467B681C
:101A50009B7919466C4A43000B4432F813301A46FE
:101A60000221272000F075FABB7C684A32F8133057
:101A70001A460421272000F06CFA7B68DB79002BE2
:101A800005D164220621272000F063FA20E07B685C
:101A90009B78042B0ED11023FB72102206212720E5
:101AA00000F057FA07F10B0301222621272000F04E
:101AB0004BF90DE02823BB7220220621272000F0DD
:101AC00048FA07F10A0301222621272000F03CF9F9
:101AD000BB7C7A68D27811464D4A9B000B4452F881
:101AE00023301A460821272000F051FA7B68B3F80A
:101AF00009309BB2002B08D17B68002242F04102E2
:101B00005A72002242F010029A727B68B3F80930D0
:101B10009BB21A462021272000F01BFA3D4B1B6880
:101B20001A460C21232000F032FABB7C394A5B00B4
:101B300013449B881A460421232000F00AFA7B688C
:101B40009B79002B0DD07B68DB791A46324B13440E
:101B500001220021212000F0F7F80323FB75012367
:101B6000BB75FB7C03F00F02FB7C1B01DBB21A434D
:101B70007B685B789B0403F440231A43FB7D1B05C1
:101B800003F440131A43BB7D5B0403F400331A4390
:101B90007B681B799B0503F0F86313437A685279DD
:101BA000D2061343FB60FA6800211F2000F0EFF912
:101BB0007B689A787B685B781343DBB21B041A4618
:101BC0000C4B1A610B4B1B697A68D2795203134391
:101BD00043F40043074A1361064B1B691A46002170
:101BE000082000F0D4F9002318461837BD4680BD00
:101BF000587A0108AC0A0020D8790108F879010860
:101C0000187A0108E0790108287A0108347A010875
:101C1000387A01081C7A0108247A010880B582B05C
:101C200000AF0346FB80FB881A4641F604012E20D4
:101C300000F08FF900BF0837BD4680BD80B582B087
:101C400000AF0346FB80FB881A460021182000F0F5
:101C500080F900BF0837BD4680BD80B582B000AFB7
:101C600003463960FB801346BB80BA88FB88134467
:101C7000B3F5806F02DD4FF0FF3308E0FB88023BD5
:101C80001A46B9883B68092000F05EF80023184620
:101C90000837BD4680BD000080B584B000AF034664
:101CA0000A46FB801346BB80084B1A69FB88134326
:101CB000BA8892051343FB60FA680021082000F0FF
:101CC00066F9002318461037BD4680BDAC0A0020D7
:101CD00080B582B000AF78600B467B8013463B80B6
:101CE0007A8839887B68112000F08BF800BF0837AC
:101CF000BD4680BD80B582B000AF78607B680522AC
:101D00000021172000F07DF800BF0837BD4680BDD8
:101D100080B582B000AF78607B6805220021152075
:101D200000F06FF800BF0837BD4680BD80B582B0B7
:101D300000AF78607B6805220021062000F061F882
:101D400000BF0837BD4680BD80B586B000AFBA6021
:101D50007B600346FB810B46BB8100237B61BB8913
:101D6000002B0DD1FB89DAB27B69591C796162F0D5
:101D70007F02D2B207F118010B4403F8082C33E0BC
:101D8000FB89DAB27B69591C796162F03F02D2B2F9
:101D900007F118010B4403F8082CBB897F2B0AD8E4
:101DA0007B695A1C7A61BA89D2B207F118010B44D7
:101DB00003F8082C18E0BB89DAB27B69591C7961F9
:101DC00062F07F02D2B207F118010B4403F8082C2D
:101DD000BB89DB0999B27B695A1C7A61CAB207F1E7
:101DE00018010B4403F8082C7B6998B207F1100125
:101DF0007B68BA68FFF744FB034618461837BD46B0
:101E000080BD80B586B000AFBA607B600346FB81C1
:101E10000B46BB8100237B61BB89002B0AD17B6908
:101E20005A1C7A61FA89D2B207F118010B4403F8FF
:101E3000082C33E0FB89DAB27B69591C796142F0E6
:101E40004002D2B207F118010B4403F8082CBB89F9
:101E50007F2B0AD87B695A1C7A61BA89D2B207F102
:101E600018010B4403F8082C18E0BB89DAB27B692F
:101E7000591C796162F07F02D2B207F118010B445C
:101E800003F8082CBB89DB0999B27B695A1C7A617B
:101E9000CAB207F118010B4403F8082C7B6998B209
:101EA00007F110017B68BA68FFF7FDFA0346184690
:101EB0001837BD4680BD80B586B000AF7860396008
:101EC0004FF0FF337B617B6898B23B6899B207F1B2
:101ED00008030422FFF795FFF860FB68002B11D17F
:101EE00003233B610BE07B691B0207F108013A69A0
:101EF0000A44127813447B613B69013B3B613B69B7
:101F0000002BF0DA7B6918461837BD4680BD80B5D6
:101F100086B000AF786039604FF6FF73FB827B6854
:101F200098B23B6899B207F10C030222FFF769FFF0
:101F300038613B69002B07D17B7B9BB21B029AB2B5
:101F40003B7B9BB21344FB82FB8A18461837BD4685
:101F500080BD80B586B000AFF860B9601346FB80E5
:101F6000FB88DBB23B74FB881B0A9BB2DBB27B7441
:101F7000FB6898B2BB6899B207F110030222FFF721
:101F8000E3FE78617B6918461837BD4680BD80B591
:101F900088B000AFF860B9607A600023FB610DE0A3
:101FA0007B68D9B207F11402FB6913440A461A7020
:101FB0007B681B0A7B60FB690133FB61FB69032BB8
:101FC000EEDDFB6898B2BB6899B207F114030422F6
:101FD000FFF7BAFEB861BB6918462037BD4680BD21
:101FE00080B584B000AF78607B681B0ADBB27B727F
:101FF0007B68DBB23B7207F10803022204212D202B
:10200000FFF7A2FE03233B7207F10803012206211A
:102010002D20FFF799FE00233B7207F108030122F0
:1020200006212D20FFF790FE0A212D20FFF743FF08
:10203000F860FB6818461037BD4680BD80B584B097
:1020400000AF786004213620FFF735FFF8607B6829
:10205000002B04D0FB6843F40063FB6003E0FB68E3
:1020600023F40063FB60FA6804213620FFF78FFF3A
:1020700000BF1037BD4680BD80B584B000AF78602A
:102080006D23FB7307F10F03012240F606012E209A
:10209000FFF75AFE7B68002B07D040F2076241F63B
:1020A00006012E20FFF755FF06E041F2076241F6D8
:1020B00006012E20FFF74DFF00BF1037BD4680BD43
:1020C00080B582B000AF03237B7101233B713B1DC0
:1020D000022200213620FFF737FE4FF4004206218E
:1020E0002D20FFF736FF0120FFF7FEF8012000F05A
:1020F000ABF800BF0837BD4680BD000080B582B098
:1021000000AF786000210420FFF7D5FE02460E4B99
:102110009A617B68002B06D00B4B9B6923F48023CC
:10212000094A936105E0084B9B6943F48023064A02
:102130009361054B9B691A4600210420FFF727FF96
:1021400000BF0837BD4680BDAC0A002080B584B012
:1021500000AF0346FB71FB7903F00103002B40D075
:1021600007F10C03022200212620FFF74AFE7B7BA9
:1021700023F03C03DBB27B737B7B43F01003DBB2C9
:102180007B733B7B03F03F03DBB23B733B7B43F052
:102190004003DBB23B7307F10C030222002126202F
:1021A000FFF7D2FD07F10C03012202213620FFF7D1
:1021B00028FE3B7B63F07B03DBB23B7307F10C0330
:1021C000012202213620FFF7BFFD10233B730123BC
:1021D0007B7307F10C03022228213620FFF7B4FDA0
:1021E00017E0FB7903F00103002B12D107F10C0378
:1021F000022200212620FFF704FE7B7B23F014033C
:10220000DBB27B7307F10C03022200212620FFF7CB
:102210009BFDFB7903F00203002B11D00F233B73CE
:1022200007F10C0301222A213620FFF78DFD002340
:102230003B7307F10C0301222A213620FFF784FDAE
:1022400000BF1037BD4680BD80B584B000AF786058
:1022500007F10C03022200213620FFF7D2FD7B6834
:102260000D2B6FD801A252F823F000BFB522000851
:10227000A5220008CB2200084523000845230008BA
:102280004523000845230008E12200080123000837
:1022900045230008452300081723000823230008CE
:1022A0002F23000800233B737B7B23F00103DBB269
:1022B0007B7348E03B7B5BB223F003035BB243F0EC
:1022C00001035BB2DBB23B733DE03B7B5BB223F0CF
:1022D00003035BB243F002035BB2DBB23B7332E059
:1022E0003B7B5BB223F04C035BB243F048035BB231
:1022F000DBB23B737B7B63F07F03DBB27B7322E05B
:102300003B7B23F04C03DBB23B737B7B03F07F030F
:10231000DBB27B7317E07B7B43F00203DBB27B73A2
:1023200011E07B7B23F00203DBB27B730BE03B7B92
:102330005BB223F030035BB243F020035BB2DBB24D
:102340003B7300E000BF07F10C030122002136209F
:10235000FFF7FAFC07F10C030133012201213620BB
:10236000FFF7F2FC00BF1037BD4680BD80B582B0DC
:1023700000AF78607A6801210A20FFF708FE00BFED
:102380000837BD4680BD000080B584B000AF03466D
:10239000FB710023FB6000237B7200237B81FB79B0
:1023A00003F00203002B0CD080237B7207F109039A
:1023B000012200210D20FFF7C7FC234B012283F8E7
:1023C0002C20FB7903F00103002B2CD07B7A43F007
:1023D0000603DBB27B7207F10903012200210D2005
:1023E000FFF7B2FC03210F20FFF791FD03467B812D
:1023F0007B8903F48063002B02D10023FB601EE085
:1024000040237B7207F10903012200210D20FFF711
:102410009BFC0020FFF712FE0B4B002283F82C20C0
:102420004FF0FF330CE07B7A43F00203DBB27B72A8
:1024300007F10903012200210D20FFF785FCFB684D
:1024400018461037BD4680BDAC0A002080B584B068
:1024500000AF4023FB7100210E20FFF72CFDF86038
:10246000FEF728FFB860002200210E20FFF78FFD45
:10247000FB1D012200210D20FFF766FC0B4A002105
:102480000F20FFF784FD00F015F8FA6800210E20F8
:10249000FFF77DFDB868FEF719FF054B002283F8B2
:1024A0002C2000BF1037BD4680BD00BFF8FF272499
:1024B000AC0A002080B582B000AFFB1D01220321D1
:1024C0000F20FFF79EFCFB791A46FB795B00534017
:1024D00003F08003002B07D00123BB71BB1D012239
:1024E00003210D20FFF730FC00BF0837BD4680BD3B
:1024F00080B584B000AF786000237B73FFF7DAFF0C
:102500004FF48073FB817B68002B03D0FB8943F47D
:102510000073FB81FB891A4600210D20FFF719FD8E
:102520007B68002B19D007F10D03012203210F2036
:10253000FFF767FC7B7B03F00803002B0DD0FFF750
:1025400085FF4FF48073FB81FB891A4600210D2023
:10255000FFF7FFFC4FF0FF3300E000231846103771
:10256000BD4680BD80B584B000AF0346FB8007F157
:102570000F03012203210420FFF743FCFB88002BFB
:1025800018D0FB881A4600210C20FFF7E2FCFB7BE9
:1025900043F01003DBB2FB73114B9B6943F0805394
:1025A0000F4A936107F10F03012203210420FFF773
:1025B000CBFB11E0FB7B23F01003DBB2FB73084B7A
:1025C0009B6923F08053064A936107F10F030122B0
:1025D00003210420FFF7B8FB00BF1037BD4680BDC4
:1025E000AC0A002080B584B000AF78600B46FB7069
:1025F000FEF760FEB86000210E20FFF75CFCF8607B
:10260000FB78002B04D0FA687B681343FB6004E07E
:102610007B68DB43FA681340FB60FA6800210E20F8
:10262000FFF7B5FCB868FEF751FE00BF1037BD4696
:1026300080BD80B584B000AF0346FB7107F10F0386
:1026400001220E212B20FFF7DCFBFB7B23F01F0375
:10265000DBB2FB73FB7903F01F03DAB2FB7B13439E
:10266000DBB2FB7307F10F0301220E212B20FFF7D2
:102670006BFB00BF1037BD4680BDB0B485B000AF66
:1026800078607B68002B6BD07B685B68002B67D021
:102690007B681B6803F00103002B61D07B681B681B
:1026A000012B5DD90023FB6042E07B685A68FB6820
:1026B0001B01134400221A607B685968FB680133D0
:1026C0007A681268B3FBF2F002FB00F29B1A1A015F
:1026D0007B685868FB681B0103440A445A607B68A6
:1026E0005968FB6801337A681268B3FBF2F002FBA9
:1026F00000F29B1A1A017B685868FB681B010344AF
:102700000A449A607B685868FB6819017B685C68BA
:10271000FB6801337A681268B3FBF2F502FB05F23D
:102720009B1A1B0123444218DA60FB680133FB60EB
:102730007B681B68FA689A42B7D37B685A687B68E3
:102740009A607B685A687B68DA607B685A687B6845
:102750001B685B081B011A447B681A61002301E0B7
:102760004FF0FF3318461437BD46B0BC704780B4F5
:1027700087B000AF786039607B689A687B68DB68F7
:102780009A4204D17B68DB689A687B68DA607B6870
:102790009A687B681B699A4207D07B689B681A68B5
:1027A0007B681B691B689A4204DD7B681B69DA68D9
:1027B0007B681A617B689B68FB60FB683A681A60FB
:1027C0007B689A687B689B689B68D268DA607B68E4
:1027D0009A687B689B68DB6892689A607B689B68F4
:1027E0005A687B689A607B68DB683B6100237B6189
:1027F00011E03B691B683A689A4206DA7B69002B54
:1028000010D17B68FA68DA600CE03B699B683B6139
:102810007B6901337B617B681B68013B7A699A4263
:10282000E7D300E000BF3B69DB68FA689A603B6968
:10283000DA68FB68DA603B69FA68DA60FB683A6973
:102840009A607B681B685B087A699A4204D37B684C
:102850001B699A687B681A617B681B691B6818464C
:102860001C37BD465DF8047B704780B584B000AF6F
:1028700003463960FB800023FB73FB883A6840F213
:102880000F11184600F0B8FB03461A46FB7B1343B2
:10289000FB73FB7B18461037BD4680BD80B584B006
:1028A00000AF0346FB800023FB7301237B730023EF
:1028B0007B8107F10902FB88E521184600F0D8FB6F
:1028C00003461A46FB7B1343FB737B7A032B02D12F
:1028D00000237B730BE07B89B3F57A7F03D27B897E
:1028E00001337B8103E000237B73FF23FB73FB88B1
:1028F0000121184600F06AFC7B7B012B00D1D8E750
:102900002D23BB73BB7B872B12D8BB7B99B2BB7BC0
:102910002D3B444AD25CFB88184600F0D3FB0346AB
:102920001A46FB7B1343FB73BB7B0133BB73E9E7A5
:10293000FB8840228721184600F0C4FB03461A4654
:10294000FB7B1343FB7300237B8101237B7307F124
:102950000902FB881146184600F0C6F803461A46DD
:10296000FB7B1343FB737B7A012B02D100237B7328
:102970000BE07B89B3F57A7F03D27B8901337B81BE
:1029800003E000237B73FF23FB73FB8801211846C0
:1029900000F01CFC7B7B012B00D1D8E7FB8818469C
:1029A00000F042F803461A46FB7B1343FB73FB8897
:1029B000184600F082F803461A46FB7B1343FB736C
:1029C000FB8809220821184600F07CFB03461A46C2
:1029D000FB7B1343FB73FB8800220B21184600F09E
:1029E00071FB03461A46FB7B1343FB73FB884FF4D2
:1029F000A0622421184600F093FB03461A46FB7B95
:102A00001343FB73FB8800223221184600F0B0F814
:102A100003461A46FB7B1343FB73FB7B18461037B8
:102A2000BD4680BD8C7A010880B584B000AF0346F6
:102A3000FB800023FB73FB8801228621184600F0EF
:102A400041FB03461A46FB7B1343FB73FB7B184693
:102A50001037BD4680BD80B584B000AF0346FB8013
:102A60000023FB7307F10802FB886C21184600F075
:102A700085FA03461A46FB7B1343FB73BB68002BA6
:102A80000BD1FB8821228721184600F01BFB03464F
:102A90001A46FB7B1343FB730AE0FB884022872125
:102AA000184600F00FFB03461A46FB7B1343FB73EB
:102AB000FB7B18461037BD4680BD80B584B000AFA3
:102AC0000346FB800023FB73FB8800228721184606
:102AD00000F0F8FA03461A46FB7B1343FB73FB7BBB
:102AE00018461037BD4680BD80B584B000AF0346A0
:102AF0003960FB800023BB7307F10D02FB88302196
:102B0000184600F0B5FA03461A46BB7B1343BB7365
:102B10007B7B03F01003DBB27B737B7B1B11DBB28F
:102B20007B737B7B012B02D10023FB7301E001232C
:102B3000FB7307F10D02FB883121184600F098FA6B
:102B400003461A46BB7B1343BB737B7B03F0010236
:102B5000FB7B9A4203D13B6801221A7002E03B687A
:102B600000221A70BB7B18461037BD4680BD00009E
:102B700080B58CB000AF0346B9607A60FB8100235A
:102B800087F82F300023BB6200237B62864BFB61FA
:102B900007F11402FB890621184600F02DFA0346BE
:102BA0001A4697F82F30134387F82F30BB8A002B33
:102BB00012D0BB684FF47A7202FB03F37B62BB8ACC
:102BC0001A464FF08043B3FBF2F21346DB00134486
:102BD0001B029B09BB6205E097F82F3063F00103ED
:102BE00087F82F30BB68092B06D9BB68C82B03D8E0
:102BF00097F82F30002B06D097F82F3063F00103A1
:102C000087F82F305EE07B68002B11D1FB89002212
:102C10006C21184600F0AEFA03461A4697F82F309A
:102C2000134387F82F307B6AA3F6C4137B6249E015
:102C30007A68BB689A423FD907F11602FB89DE2108
:102C4000184600F0D9F903461A4697F82F30134377
:102C500087F82F30FB8AC3F309039BB2FB827B68A2
:102C600007EE903AB8EE677AD7ED077A27EE277A23
:102C7000FB8A07EE903AF8EE677A67EE277AC7ED9F
:102C8000077AD7ED077AFCEEE77AFB8917EE902AF0
:102C90006C21184600F06EFA03461A4697F82F305A
:102CA000134387F82F307B6AA3F586530C3B7B6276
:102CB0007B6A5B087B6205E097F82F3063F00103C5
:102CC00087F82F3097F82F30FE2B67D00023BB8575
:102CD0007B6A1B037B62BB6A1B01BB61BB69DA09B0
:102CE0007B6A1A44BB699B09B2FBF3F3013B3B626D
:102CF0003B6A23F0FF03002B06D03B6A5B083B6274
:102D0000BB8D0133BB85F3E7BB8D1B029AB23B6AD7
:102D10009BB2DBB29BB21344BB85BA8DFB895E21AB
:102D2000184600F0FDF903461A4697F82F30134372
:102D300087F82F300023BB85BA6A13465B00134423
:102D40009B00BB61BB69DA097B6A1A44BB699B09BA
:102D5000B2FBF3F3013B3B623B6A23F0FF03002B22
:102D600006D03B6A5B083B62BB8D0133BB85F3E752
:102D7000BB8D1B029AB23B6A9BB2DBB29BB213447F
:102D8000BB85BA8DFB896121184600F0C9F903465D
:102D90001A4697F82F30134387F82F3097F82F30C3
:102DA00018463037BD4680BD3D0A873FB0B58AB072
:102DB00000AF03463960FB80002387F82730524B71
:102DC00007F108041D460FCD0FC495E8030084E801
:102DD000030007F12302FB888921184600F048F917
:102DE00003461A4697F82730134387F8273097F899
:102DF000233003F01F03DBB287F8233097F823302A
:102E0000172B08D897F8233007F12802134413F83A
:102E1000203C87F8233097F823203B681A7007F18D
:102E20002402FB888C21184600F0E6F803461A4677
:102E300097F82730134387F82730BB8C1B0A9AB2C8
:102E40003B689A8107F12402FB888E21184600F026
:102E5000D3F803461A4697F82730134387F82730EC
:102E6000BB8CDB009AB23B681A8107F12402FB8815
:102E70009021184600F0C0F803461A4697F827300C
:102E8000134387F82730BB8CDB009AB23B689A80EB
:102E900007F12402FB889221184600F0ADF80346A2
:102EA0001A4697F82730134387F82730BB8C9B08C6
:102EB0009AB23B68DA8107F12402FB889621184612
:102EC00000F09AF803461A4697F82730134387F81C
:102ED0002730BA8C3B685A803B681A893B689B89CB
:102EE000B2FBF3F39AB23B685A813B689A883B681D
:102EF0009B89B2FBF3F39AB23B68DA8097F82730EC
:102F000018462837BD46B0BDBC6D010880B500AF7E
:102F10000249034805F096FE00BF80BDA08601006F
:102F2000E80A002080B584B000AF03460A46FB7172
:102F30001346BB800023FB73BB88BB73FB79032B59
:102F400001D9FF2314E0FB79012202FA03F3DBB27B
:102F50003B7307F10C02B97B0123074805F0C8FF5A
:102F60000346012B01D1002300E0FF23FB73FB7B11
:102F700018461037BD4680BDE80A002080B588B0ED
:102F800002AF03463A60FB800B46BB80FB88FB75B3
:102F90000023BB7500233B610023BB81BB88DBB2F0
:102FA0007B7307F10C02F97D0423019307F11003F1
:102FB000009302230F4805F0CDFF0346042B01D1F7
:102FC000002300E0FF23BB75BB7D002B0DD1FB7CF4
:102FD0001A46BB7C1B021A437B7C1B041A433B7CB6
:102FE0001B0613431A463B681A60BB7D1846183708
:102FF000BD4680BDE80A002080B586B002AF03461A
:103000003A60FB800B46BB80FB88FB730023BB73DD
:1030100000233B7300237B7300233B81BB88DBB21F
:103020007B7207F10802F97B0223019307F10C037D
:10303000009302230D4805F08DFF0346022B01D1BA
:10304000002300E0FF23BB73BB7B002B09D17B7BFC
:103050001AB23B7B1B021BB213431BB29AB23B68F2
:103060001A80BB7B18461037BD4680BDE80A002099
:1030700080B586B002AF03463A60FB800B46BB804A
:10308000FB88FB730023BB730023BB81BB88DBB2CF
:103090007B7307F10C02F97B012301933B680093DA
:1030A0000223074805F056FF0346012B01D10023F8
:1030B00000E0FF23BB73BB7B18461037BD4680BDC5
:1030C000E80A002080B584B000AF0346FB800B46C1
:1030D000BB801346FB70FB88FB730023BB7307F1B7
:1030E000080300210A461A800A469A70BB88DBB2A0
:1030F0007B72FB78BB7207F10802F97B0323074858
:1031000005F0F6FE0346032B01D1002300E0FF2368
:10311000BB73BB7B18461037BD4680BDE80A002054
:1031200080B584B000AF0346FB800B46BB801346DE
:103130007B80FB88FB730023BB730023BB60BB88D1
:10314000DBB27B727B88DBB2FB7207F10802F97B92
:103150000423074805F0CCFE0346042B01D10023CD
:1031600000E0FF23BB73BB7B18461037BD4680BD14
:10317000E80A002080B584B000AF03463A60FB80C7
:103180000B46BB80FB88FB730023BB7307F108036E
:1031900000221A609A80BB88DBB27B723B68DBB28C
:1031A0007B7307F10802F97B0623074805F0A0FEB0
:1031B0000346062B01D1002300E0FF23BB73BB7B3A
:1031C00018461037BD4680BDE80A002080B485B09F
:1031D00000AF03463960FB800023FB73FB7B18467E
:1031E0001437BD465DF8047B7047000080B582B09F
:1031F00000AF786039607B68012B0AD13B684FF6DD
:10320000FF72934205D1172316220121034805F0CE
:10321000D1FC00BF0837BD4680BD00BFE80A0020D2
:1032200080B500AF4FF6FF710120FFF7DFFF80BDD3
:1032300080B582B000AF7860074A7B681A600748A3
:1032400003F088F97B680433184603F035FB7B688C
:1032500018460837BD4680BD6C7C0108D46D010856
:1032600080B582B000AF78607868FFF7E1FF302169
:10327000786803F0A4FB7B6818460837BD4680BD1C
:1032800080B483B000AF7860044A7B681A607B68C2
:1032900018460C37BD465DF8047B7047447B010837
:1032A00080B582B000AF78607868FFF7E9FF04214D
:1032B000786803F084FB7B6818460837BD4680BDFC
:1032C00080B584B000AFF860B9607A603B600448B4
:1032D00003F040F9002318461037BD4680BD00BFFB
:1032E000E86D010880B483B000AF786000BF0C3790
:1032F000BD465DF8047B704780B483B000AF786052
:1033000000BF0C37BD465DF8047B704780B483B0C6
:1033100000AF786000BF0C37BD465DF8047B704796
:1033200080B483B000AF7860044A7B681A607B6821
:1033300018460C37BD465DF8047B7047307B0108AA
:1033400080B582B000AF7860396078684FF4FA6376
:103350004FF47A7239680DF0E5F87B6850331846FF
:10336000FFF7DEFF054A7B681A60054A7B681A652D
:103370007B6818460837BD4680BD00BF047B010846
:103380001C7B010880B584B000AF786003F040FA80
:10339000F860FB680A4A934204D0FB68094A9342EA
:1033A00005D009E07B68002283F8902004E07B6868
:1033B000012283F8902000BF00BF1037BD4680BDBA
:1033C00054002C0052004B002DE9F04F85B000AFA7
:1033D00078607B6893F8903019463B4803F072F8A8
:1033E0003A4802F0C7FC03F029FC03460C467A6811
:1033F000C2E922340020FEF781FE354A00211E205A
:10340000FEF7C5FD7B6893F89030002B20D17B68D8
:10341000D3E922AB03F012FC03460C46534574EB90
:103420000B03ACBF01230023DBB2002B10D0012122
:10343000786800F071F803F001FC0A4601461EA40A
:10344000D4E90034CD1842EB04067B68C3E9225668
:1034500002211920FEF75BFD0346FB81FB8903F087
:103460000403002B02D10020FFF742F87B6893F899
:103470009030002B08D17B68D3E922341A462346CA
:10348000144803F03DF90FE003F0D8FB0A4601466B
:103490000BA4D4E9003411EB030842EB04094246C3
:1034A0004B460C4803F02CF90A4805F09FFA78685F
:1034B00000F014FAA6E700BF80B2E60E000000009C
:1034C00000CA9A3B00000000706E01080400002052
:1034D000009A9A00900A002080B586B002AFF8608A
:1034E000B9601346FB7107F1080304221946084826
:1034F00003F030FAFB6893F89000F9790023009309
:103500000E23044A02F072FD00BF1037BD4680BD95
:103510004C0000204400002090B585B002AF7860D8
:103520000B46FB707B6893F89000F97800230093BA
:103530000A23074A02F05AFD02F048FC03460C46F3
:103540007A68C2E9163400BF0C37BD4690BD00BF93
:103550001000002090B585B002AF78600B46FB707C
:103560007B6893F89000F978002300930A23074AB8
:1035700002F03CFD02F02AFC03460C467A68C2E9E0
:103580001A3400BF0C37BD4690BD00BF1C000020A0
:103590002DE9F04389B002AF78600B46FB7002F072
:1035A000E8FC0A46014626A4D4E9003411EB0308DE
:1035B00042EB0409C7E90489D7E904124FF000037C
:1035C0004FF000040B0A43EA0263140A1846FEF7A0
:1035D000CDFED7E9043444F234014FF000025D1807
:1035E00044EB0206C7E902567B68D3E916341A4653
:1035F00023460F4802F05AFC7B68D3E91C341A4674
:1036000023460C4802F052FCD7E902230A4802F094
:103610004DFC7B6893F89000F978012300931923FF
:10362000064A02F0E3FC00BF1C37BD46BDE8F0834C
:1036300030000020350000203A0000202800002043
:1036400001006D0B000000002DE9F04FA1B000AFAC
:10365000F86302F0F3FB0A460146FB6BC3E9201254
:10366000FB6B583319469A4802F045FCFB6B7033EC
:103670001946984802F03FFCFB6B78331946964890
:1036800002F039FC4FF0FF334FF0FF04C7E91E345E
:10369000FB6BD3E91C12FB6BD3E91634A24208BFC3
:1036A000994213D2FB6BD3E91C3413F1FF3544F17B
:1036B000FF06FB6BC3E91C56FB6BD3E91E3413F109
:1036C000FF3844F1FF09FB6BC3E91E89FB6BD3E9AB
:1036D0001E12FB6BD3E91C34A24208BF994209D2E7
:1036E000FB6BD3E91E3413F1FF3A44F1FF0BFB6B84
:1036F000C3E91EABFB6BD3E91A12FB6BD3E9183499
:10370000A24208BF99421BD2FB6BD3E91A3413F1D2
:10371000FF323A6344F1FF037B63FB6BD7E90C1282
:10372000C3E91A12FB6BD3E9203413F1FF32BA62FA
:1037300044F1FF03FB62FB6BD7E90A12C3E92012D5
:10374000FB6BD3E92012FB6BD3E91A34A24208BF0A
:1037500099420DD2FB6BD3E9203413F1FF323A6268
:1037600044F1FF037B62FB6BD7E90812C3E9201227
:10377000FB6BD3E91C12FB6BD3E91634C81AB86192
:1037800062EB0403FB61D7E90601FDF70DF8034680
:103790000C46C7E91C34FB6BD3E92012FB6BD3E961
:1037A0001A34C81A386162EB04037B61D7E904015B
:1037B000FCF7FAFF03460C46C7E91A34FB6BD3E962
:1037C0001E12FB6BD3E91C34C81AB86062EB040309
:1037D000FB60D7E90201FCF7E7FF03460C46C7E9A7
:1037E0001834FB6BD3E91A12FB6BD3E91834C81AEF
:1037F000386062EB04037B60D7E90001FCF7D4FF7B
:1038000003460C46C7E91634D7E91A23D7E91C0149
:10381000FDF700F803460C4625461C46D7E916235B
:10382000D7E91801FCF7F6FF02460B462046294669
:10383000FCF738FE03460C4625461C46D7E91A23FA
:10384000D7E91C01FCF730FE02460B46104619462C
:10385000D7E91823FCF728FE02460B461046194606
:10386000D7E91623FCF720FE02460B4620462946E0
:10387000FDF7FAF803460C46C7E9143410A3D3E960
:103880000023D7E91401FCF7C5FF03460C46C7E93E
:1038900012340DA3D3E90023D7E91201FCF7BAFFD4
:1038A00003460C46C7E91034D7E91001FDF7AAFA20
:1038B000034618468437BD46BDE8F08FAFF300805D
:1038C000FA48CE3B1835B13D3333331319DDB141DE
:1038D000280B00202D0B0020320B002090B587B064
:1038E00000AF78603C4802F0D1FB0346002B6FD05C
:1038F000394B5B79FB75384B9B79BB75364B9B78A5
:103900007B75354BDB79203B032B58D801A252F84D
:1039100023F000BF253900084B3900087139000831
:10392000933900087B6893F89030BA7D9A4248D169
:1039300002F084FA03460C467A68C2E91834FB7D2B
:1039400019467868FFF706FE3BE07B6893F89030F5
:10395000BA7D9A4237D102F071FA03460C467A6872
:10396000C2E91C34FB7D19467868FFF711FE2AE096
:103970007B6893F89030BA7D9A4226D17868FFF739
:1039800063FE3861FB7D1A4639697868FFF7A4FD4C
:103990001BE07B6893F89030BA7D9A4217D107F10B
:1039A0000C0304220D49184602F0D4FFFB680C4AB0
:1039B000536001220A490B4800F058F807E000BFA5
:1039C00006E000BF04E000BF02E000BF00E000BF6F
:1039D00000BF1C37BD4690BD200B0020280B0020E7
:1039E000B00B00201015002080B483B000AF7860C9
:1039F000044A7B681A607B6818460C37BD465DF840
:103A0000047B7047447B010890B583B000AF7860B9
:103A10007B681846FFF7E8FF134A7B681A607B68EB
:103A20001A1D7B68DA617B6803F10C027B681A62FD
:103A30007B6803F114027B685A627B68002283F87A
:103A400028207A684FF000034FF00004C2E90E34DA
:103A50007B68D3E90E347A68C2E90C347B68184677
:103A60000C37BD4690BD00BFF07A010880B584B028
:103A700000AFF860B9601346FB71F868FA7900236B
:103A8000B96803F0B9F9034618461037BD4680BD42
:103A900080B582B000AF7860054A7B681A607B68A9
:103AA0001846FFF7EDFB7B6818460837BD4680BD1A
:103AB000F07A010880B582B000AF78607868FFF7CF
:103AC000E7FF4021786802F07AFF7B6818460837E4
:103AD000BD4680BD80B582B000AF7860074A7B6884
:103AE0001A60074A7B681A657B6818460CF088FDE7
:103AF0007B6818460837BD4680BD00BF047B0108BF
:103B00001C7B010880B582B000AF78607868FFF751
:103B1000E1FF9821786802F052FF7B681846083769
:103B2000BD4680BD80B584B002AF786039607B68E7
:103B3000012B2DD13B684FF6FF72934228D140F202
:103B4000D1721549154802F0D9FB154A1549134899
:103B50000DF04EFC1448FFF757FF114A1349124865
:103B60000DF046FC00230093114B0F4A11491248F7
:103B700002F032FF0A4A11490F480DF039FC104992
:103B80001048FFF7DDFB064A0F490E480DF030FCE8
:103B900000BF0837BD4680BD806E0108040B0020C1
:103BA000941600203D630008400B0020913A000865
:103BB000A46E010810150020800B0020313200088F
:103BC000B86E0108B80B0020D53A000880B584B063
:103BD00000AFF860B9607A603B607B68082B04D95D
:103BE000064802F0B7FC002304E03968F86800F0EA
:103BF00007F8012318461037BD4680BDE46E010862
:103C0000F0B484B000AF786039607B68DB693A68F3
:103C100092E8030083E803007B681B6AFB607B6813
:103C2000DA697B681A627B68FA68DA617B6893F804
:103C30002830DBB2002B09D07B68DB69FB607B6836
:103C40005A6A7B68DA617B68FA685A627B68D3E9F2
:103C50000C345D1C44F100067B68C3E90C5600BFC0
:103C60001037BD46F0BC704780B500AF4FF6FF710E
:103C70000120FFF757FF80BD90B583B000AF78609B
:103C800039603868FCF76EFD03460C461A46234639
:103C9000114802F017FCD7ED007AF5EEC07AF1EE8C
:103CA00010FA12DBD7ED007A9FED0C7AF4EEC77AAA
:103CB000F1EE10FA09D5D7ED007AFCEEE77A17EEAF
:103CC000901A786806F0AEFB02E0054802F0FAFBB5
:103CD00000BF0C37BD4690BD946F010800008044C2
:103CE000A06F010880B582B000AF786039603B6892
:103CF000012B02D03B68002B05D13B681946786840
:103D000004F05BFD02E0034802F0DCFB00BF083773
:103D1000BD4680BDC06F010890B589B000AF786026
:103D200039603968924802F0CDFB02F087FF034604
:103D30000C4618462146FCF73FFD8BA3D3E9002330
:103D4000FCF792FE03460C46C7E9023402F076FF08
:103D500003460C4618462146FCF72EFD82A3D3E904
:103D60000023FCF781FE03460C46C7E9063402F047
:103D700065FF03460C4618462146FCF71DFD7AA355
:103D8000D3E90023FCF770FE03460C461846214693
:103D9000D7E90223FCF786FB03460C46184621466A
:103DA000FCF7E8FF03461946724802F08BFB02F06D
:103DB00045FF03460C4618462146FCF7FDFC6AA366
:103DC000D3E90023FCF750FE03460C461846214673
:103DD000D7E90223FCF766FB03460C46184621464A
:103DE000FCF7C8FF03467B617A693B689A4200F39F
:103DF000B08002F023FF03460C4618462146FCF72C
:103E0000DBFC59A3D3E90023FCF72EFE03460C4646
:103E100018462146D7E90623FCF744FB03460C4627
:103E20001846214601231C464FF000024FF0804304
:103E3000FCF76CFF0346002B01D100231C46E3B2C4
:103E4000002B07D00121786804F0B7FC4A4802F043
:103E500039FB60E002F0F2FE03460C4618462146AC
:103E6000FCF7AAFC40A3D3E90023FCF7FDFD0346C1
:103E70000C4618462146D7E90623FCF713FB0346F8
:103E80000C46184621464FF000024FF08043FCF7E5
:103E900051FF0346002B22D002F0D0FE03460C4611
:103EA00018462146FCF788FC2FA3D3E90023FCF732
:103EB000DBFD03460C4618462146D7E90623FCF7EE
:103EC000F1FA03460C46184621464FF000022B4BF0
:103ED000FCF71CFF0346002B01D0012300E0002368
:103EE000002B07D0264802F0EDFA0021786804F094
:103EF00064FC10E002F0A2FE03460C461846214680
:103F0000FCF75AFC18A3D3E90023FCF7ADFD0346E8
:103F10000C46C7E9063402F091FE03460C461846EB
:103F20002146FCF749FC10A3D3E90023FCF79CFDD4
:103F300003460C4618462146D7E90223FCF7B2FA9D
:103F400003460C4618462146FCF714FF03467B61E6
:103F50004AE70021786804F030FC00BF2437BD46F2
:103F600090BD00BFAFF300800000000065CDCD41E3
:103F7000CC6F0108E86F0108F86F010800001040DD
:103F80000070010880B483B000AF786039600F4AD8
:103F90007B681A603B685A687B685A603B689A681D
:103FA0007B689A603B68DA687B68DA603B681A690C
:103FB0007B681A613B685A697B685A617B6818465E
:103FC0000C37BD465DF8047B704700BF307C0108AC
:103FD00080B582B000AF786039607B683A6811467E
:103FE0001846FFF7CFFF064A7B681A603B689A695C
:103FF0007B689A617B6818460837BD4680BD00BF64
:104000006C7D010880B5BAB000AF786039607B681C
:10401000013B032B00F2E88001A252F823F000BF1D
:10402000314000089F4000080D4100087B41000816
:10403000D7ED007AF5EEC07AF1EE10FA1AD507F155
:1040400008036B491846FFF7C3FFD7ED007AF1EE7E
:10405000677A17EE902A07F1080311461846FFF712
:104060000BFE0121634804F0A8FB0021624804F024
:10407000A4FBB9E007F124035D491846FFF7A8FF48
:1040800007F1240339681846FFF7F6FD0021594867
:1040900004F093FB0121584804F08FFBA4E0D7ED16
:1040A000007AF5EEC07AF1EE10FA1AD507F1400366
:1040B00052491846FFF78CFFD7ED007AF1EE677A88
:1040C00017EE902A07F1400311461846FFF7D4FD7A
:1040D00001214B4804F071FB00214A4804F06DFBBC
:1040E00082E007F15C0345491846FFF771FF07F1CD
:1040F0005C0339681846FFF7BFFD0021404804F013
:104100005CFB01213F4804F058FB6DE0D7ED007ADD
:10411000F5EEC07AF1EE10FA1AD507F178033A49B4
:104120001846FFF755FFD7ED007AF1EE677A17EEE4
:10413000902A07F1780311461846FFF79DFD0121EB
:10414000324804F03AFB0021314804F036FB4BE0E2
:1041500007F194032C491846FFF73AFF07F194033F
:1041600039681846FFF788FD0021284804F025FB30
:104170000121274804F021FB36E0D7ED007AF5EE67
:10418000C07AF1EE10FA1AD507F1B00321491846AA
:10419000FFF71EFFD7ED007AF1EE677A17EE902A4F
:1041A00007F1B00311461846FFF766FD01211A48D2
:1041B00004F003FB0021194804F0FFFA13E007F1B3
:1041C000CC0314491846FFF703FF07F1CC03396805
:1041D0001846FFF751FD00210F4804F0EEFA0121C7
:1041E0000E4804F0EAFA00BF00BFE837BD4680BDC4
:1041F000DC0F0020FC0E0020180F0020F80F00201C
:10420000340F0020500F0020141000206C0F0020ED
:10421000880F002030100020A40F0020C00F0020C5
:104220002DE9B04FA8B006AF0A215B4803F09CFC13
:1042300007EE900AB8EEE77ADFED586AC7EE267A05
:104240009FED577A67EE877AC7ED217A0B215248A6
:1042500003F08AFC07EE900AB8EEE77ADFED4F6ACA
:10426000C7EE267A9FED4E7A67EE877AC7ED207A01
:104270000C21494803F078FC07EE900AB8EEE77A83
:10428000DFED466AC7EE267A9FED457A67EE877ABC
:10429000C7ED1F7A0D21404803F066FC07EE900A37
:1042A000B8EEE77ADFED3D6AC7EE267A9FED3C7AFD
:1042B00067EE877AC7ED1E7A97ED217ADFED396ACE
:1042C000C7EE267AC7ED1D7A97ED207ADFED356AC5
:1042D000C7EE267AC7ED1C7A97ED1F7ADFED316ABB
:1042E000C7EE267AC7ED1B7A97ED1E7ADFED2D6AB1
:1042F000C7EE267AC7ED1A7A786FFCF733FA824652
:104300008B46386FFCF72EFA04460D46F86EFCF724
:1043100029FA80468946B86EFCF724FA02460B4615
:10432000CDE90423CDE90289CDE9004552465B463B
:104330001D4802F0C7F8786FFCF714FA82468B46E6
:10434000386FFCF70FFA04460D46F86EFCF70AFAD0
:1043500080468946B86EFCF705FA02460B46381DC2
:10436000CDE90423CDE90289CDE9004552465B46FB
:104370000D490DF047F83B1D184602F0ABFA034615
:104380001A463B1D1946094807F0C2FD00BF883791
:10439000BD46BDE8B08F00BF68100020000080451A
:1043A00000A04D4500000C43087001084C1000208F
:1043B00090B583B000AF0E21254803F0D5FB07EE82
:1043C000900AF8EEE77A9FED237AC7EE876A16EE39
:1043D000900AFCF7C7F91AA3D3E90023FCF71AFAED
:1043E00003460C4618462146FCF70CFD03467B604D
:1043F0007868FCF7B7F903460C461A462346164878
:1044000002F060F87868FCF7ADF90FA3D3E9002358
:10441000FCF700FA03460C4618462146FCF7F2FC6E
:1044200003463B603868FCF79DF903460C461A4684
:1044300023460A4802F046F800BF0C37BD4690BD3F
:104440006666666666660A40C3F5285C8FC21240DF
:10445000841000200000804530700108447001087D
:1044600080B584B000AF0346FB710023FB73614B42
:104470001B78012B15D0022B2BD0002B40F0AF80E6
:104480005D4B00221A705D4B00221A705C4B0022BB
:104490001A70FB79242B40F0A680564B01221A702B
:1044A000A1E0554B00221A70544B00221A70544B55
:1044B00000221A70FB79242B03D14E4B01221A7073
:1044C00092E097F907204F4B1A704A4B02221A705C
:1044D0008AE0FB792B2B02D0FB792D2B1FD1464B89
:1044E0001B78002B17D1464B1B78002B13D1424B66
:1044F00001221A70424B1B781A4697F90710424B5B
:1045000099543F4B1B780133DAB23D4B1A70394B4B
:1045100002221A7062E0374B00221A705EE0FB79CB
:104520002E2B1BD1354B1B78002B13D1334B012283
:104530001A70334B1B781A4697F90710324B99546F
:104540002F4B1B780133DAB22D4B1A70294B022204
:104550001A7049E0274B00221A7045E0FB792F2B97
:104560001BD9FB79392B18D8254B1B781A4697F99C
:104570000710254B9954224B1B780133DAB2204B9C
:104580001A701F4B1B780C2B03D91A4B00221A7080
:1045900024E0184B02221A7020E0FB79242B03D16F
:1045A000144B01221A701FE0FB79232B12D1144BFC
:1045B0001B781A46144B00219954124B93F9003082
:1045C000DBB2184600F03CF80346FB73094B0022AF
:1045D0001A7009E0074B00221A7005E004E0054B51
:1045E00000221A7000E000BFFB7B18461037BD4662
:1045F00080BD00BF7C0D00207D0D00207E0D0020C1
:104600007F0D0020800D0020840D002080B582B039
:1046100000AF786039607B683A6811461846FFF74A
:10462000B1FC064A7B681A603B689A697B689A61AC
:104630007B6818460837BD4680BD00BFF47C010882
:1046400090B5C5B000AF0246FB1D1A70D44801F00A
:1046500039FF0922D249D34807F05AFCFB1D1B78C9
:10466000423B2A2B00F2DC8101A252F823F000BF6A
:1046700047480008214A0008AD480008214A0008C0
:10468000214A0008214A00084F470008214A000833
:10469000214A0008214A0008214A0008214A00084E
:1046A000214A0008214A0008214A0008214A00083E
:1046B000214A0008214A00081D470008214A000835
:1046C000214A0008214A0008214A0008214A00081E
:1046D000214A0008214A0008214A0008214A00080E
:1046E000214A0008214A0008214A0008214A0008FE
:1046F000214A00080D4A0008214A0008214A000802
:10470000214A0008214A0008DF470008ED48000858
:104710002949000865490008D1490008A2480CF061
:104720006DFE03460C4618462146FCF76BFB03461C
:10473000C7F80C31D7F80C01FCF714F803460C4607
:104740001A462346994801F0BDFE012369E19648C7
:104750000CF054FE03460C4618462146FCF70AFBB3
:104760000346C7F80831D7F80811914801F0AAFEAE
:10477000D7F80831B3F1FF3F23D18E4801F0A2FEF4
:104780004FF000010120FFF73DFC4FF00001022037
:10479000FFF738FC4FF000010320FFF733FC4FF028
:1047A00000010420FFF72EFC07F13403824918466C
:1047B000FFF72CFF07F1340300211846FFF792FAA8
:1047C0000BE007F150037C491846FFF71FFF07F184
:1047D000500301211846FFF785FA012321E17248B1
:1047E0000CF00CFE03460C4618462146FCF7C2FAB4
:1047F0000346C7F80431D7F804116D4801F062FE92
:10480000D7F80431B3F1FF3F0FD16C4801F05AFEE5
:1048100007F16C036A491846FFF7F8FE07F16C03CD
:1048200000211846FFF75EFA0BE007F188036449A0
:104830001846FFF7EBFE07F1880301211846FFF742
:1048400051FA0123EDE058480CF0D8FD03460C4620
:1048500018462146FCF78EFA0346C7F80031D7F810
:104860000011534801F02EFED7F80031012B0FD173
:10487000544801F027FE07F1A40353491846FFF7F7
:10488000C5FE07F1A40300211846FFF72BFA0BE041
:1048900007F1C0034C491846FFF7B8FE07F1C00303
:1048A00001211846FFF71EFA0123BAE03E480CF03A
:1048B000A5FD03460C4618462146FCF75BFA034665
:1048C000C7F8FC30D7F8FC10394801F0FBFD07F1C0
:1048D000DC033E491846FFF799FE07F1DC03D7F8E1
:1048E000FC101846FFF718FA01239AE02E480CF046
:1048F00085FD03460C4618462146FCF783FA03461D
:10490000C7F8F830D7F8F8100120FFF77BFBD7F88D
:10491000F800FBF727FF03460C461A4623462348B8
:1049200001F0D0FD01237CE01F480CF067FD034639
:104930000C4618462146FCF765FA0346C7F8F830DE
:10494000D7F8F8100220FFF75DFBD7F8F800FBF767
:1049500009FF03460C461A462346144801F0B2FDEF
:1049600001235EE010480CF049FD03460C46184652
:104970002146FCF747FA0346C7F8F830D7F8F81095
:104980000320FFF73FFBD7F8F800FBF7EBFE0346E9
:104990000C461A462346054801F094FD012340E0E9
:1049A000507001084C100020840D00205C7001083C
:1049B0006C7001087C700108C80D0020907001081F
:1049C000AC0D0020A8700108E40D0020000E0020AE
:1049D00016480CF013FD03460C4618462146FCF71A
:1049E00011FA0346C7F8F830D7F8F8100420FFF79B
:1049F00009FBD7F8F800FBF7B5FE03460C461A464C
:104A000023460B4801F05EFD01230AE0094801F04E
:104A100059FD0A220849094807F07AFA012300E003
:104A20000023184607F58A77BD4690BD840D002007
:104A30005C700108C8700108E07001084C1000208B
:104A400080B582B000AF78600023012201215A486E
:104A500003F0ACFD002301220121584803F0A6FD1C
:104A6000002301220121564803F0A0FD002301226A
:104A70000121544803F09AFD0023012201215248EC
:104A800003F094FD002301220121504803F08EFD24
:104A90000023012201214E4803F088FD002301225A
:104AA00001214C4803F082FD0023012201214A48E4
:104AB00003F07CFD012301220121484803F076FD2B
:104AC000002301220121464803F070FD0A214548D8
:104AD00002F036FF0B21434802F032FF0C2141481F
:104AE00002F02EFF0D213F4802F02AFF0C22002188
:104AF0003D4802F08FFF0E213B4802F021FF0023CA
:104B000001220121394803F051FD00230122012136
:104B1000374803F04BFD002301220121354803F003
:104B200045FD002301220121334803F03FFD00230E
:104B300001220121314803F039FD00230122012126
:104B40002F4803F033FD0023012201212D4803F0FB
:104B50002DFD0023012201212B4803F027FD002316
:104B600001220121294803F021FD00230122012116
:104B7000274803F01BFD4FF47A7242F2107125486A
:104B800004F0EAFF4FF47A7242F21071224804F006
:104B9000E3FF4FF47A7242F21071204804F0DCFF18
:104BA0004FF47A7242F210711D4804F0D5FF00BF35
:104BB0000837BD4680BD00BF1C0E0020380E002007
:104BC000540E0020700E00208C0E0020A80E002035
:104BD000C40E0020E00E0020C80D0020900D002023
:104BE000E40D00206810002084100020AC0D00208F
:104BF000000E0020FC0E0020180F0020340F0020B3
:104C0000500F00206C0F0020880F0020A40F002000
:104C1000C00F0020DC0F0020F80F0020141000202F
:104C200030100020000000002DE9F04383B000AFF9
:104C30007860514801F046FC504801F043FC504870
:104C400001F040FC01214F4803F0B7FD01214E481F
:104C500003F0B3FD01214D4803F0AFFD01214C48A5
:104C600003F0ABFD01214B4803F0A7FD01214A48A9
:104C700003F0A3FD0121494803F09FFD01214848AD
:104C800003F09BFD01F0DAFF0A46014638A4D4E99F
:104C9000003411EB030842EB040900224046494668
:104CA0000BF07EFD0021374803F087FD00213648D8
:104CB00003F083FD0021354803F07FFD00213448D7
:104CC00003F07BFD0021334803F077FD00213248DB
:104CD00003F073FD0021314803F06FFD00213048DF
:104CE00003F06BFD01F0AAFF0A46014620A4D4E9B7
:104CF0000034CD1842EB04060022284631460BF062
:104D00004FFD2849284800F071F92849284800F04B
:104D10008DF9FFF785FA234B5B681846FBF722FDF8
:104D200003460C461A462346224801F0CBFB1F4B94
:104D3000B3F900301946204801F0C4FB1B4BB3F90E
:104D4000023019461D4801F0BDFB184BB3F9043081
:104D500019461B4801F0B6FB144BB3F9063019464F
:104D6000184801F0AFFBFFF723FB6BE7AFF30080C0
:104D700000CA9A3B00000000EC70010804710108B1
:104D8000247101081C0E0020380E0020540E002053
:104D9000700E00208C0E0020A80E0020C40E0020F3
:104DA000E00E0020C00C0020500C0020500D002010
:104DB000C80C0020487101085C7101086C71010881
:104DC000747101087C71010880B582B000AF786011
:104DD00078684FF4FA63642205490BF0A3FB054A97
:104DE0007B681A607B6818460837BD4680BD00BFE7
:104DF00084710108887B010880B483B000AF7860BB
:104E000000BF0C37BD465DF8047B704780B584B0A9
:104E100000AF78604FF0FF326FF00043084801F0B8
:104E20006FFC07F10F0301221946054807F005F84A
:104E300097F90F30DBB21846FFF712FBEAE700BF25
:104E40004429002080B582B000AF786078684FF4C4
:104E5000FA63642205490BF065FB054A7B681A601A
:104E60007B6818460837BD4680BD00BF84710108C5
:104E7000707B010890B585B000AFF860B960C7E9F4
:104E80000023F8684FF4FA636422B9680BF04AFB18
:104E9000064AFB681A60FA68D7E90034C2E914349C
:104EA000FB6818461437BD4690BD00BF587B01080B
:104EB00080B582B000AF78604FF4E131034806F06E
:104EC0004FFE00BF0837BD4680BD00BF4C1000201C
:104ED000B0B588B000AF7860134B07F108041D46E9
:104EE0000FCD0FC495E8030020600434217007F152
:104EF000080314221946786800F01AF84FF0FF32C0
:104F00006FF00043094801F0FBFB07F11F0301228A
:104F10001946064806F091FF97F91F30DBB2184694
:104F2000FFF79EFAEAE700BF947101084C100020D9
:104F300080B586B000AFF860B9607A6000237B610D
:104F40007A697B689A4216DA7B69BA68D1187A68FE
:104F50007B69D31A1A460A4806F0DAFF38613B69C2
:104F6000002B03DA074801F0ADFAE9E77A693B69FB
:104F700013447B61E4E700BF1837BD4680BD00BF26
:104F80004C100020AC71010890B583B000AF786080
:104F90007B681846FEF728FD134A7B681A607B6819
:104FA00003F108027B689A637B6803F118027B684F
:104FB000DA637B6803F128027B681A647B6800224D
:104FC00083F844207A684FF000034FF00004C2E9F0
:104FD00014347B68D3E914347A68C2E912347B68EC
:104FE00018460C37BD4690BDA07B010890B583B034
:104FF00000AF786039607B68D3E90C347A68D2E915
:105000000E12A24208BF99420BD23968786800F0AC
:105010002DF87B68D3E90C347A68C2E90E34012399
:1050200000E0002318460C37BD4690BD90B583B014
:1050300000AF786039607B68D3E912347A68D2E9CE
:105040001412A24208BF99420BD23968786800F066
:1050500031F87B68D3E912347A68C2E91434012349
:1050600000E0002318460C37BD4690BDF0B484B074
:1050700000AF786039607B68012283F828207B6864
:105080001B6AFB603B68FA6892E8030083E8030050
:105090007B68002283F828207B68D3E90E345D1CEE
:1050A00044F100067B68C3E90E5600BF1037BD46C9
:1050B000F0BC7047F0B484B000AF786039607B68B2
:1050C000012283F844207B68DB6BFB603A68FB6855
:1050D00014460FCB84E80F007B68002283F844203D
:1050E0007B68D3E914345D1C44F100067B68C3E996
:1050F000145600BF1037BD46F0BC704780B582B073
:1051000000AF7860054A7B681A607B6818460BF030
:1051100077FA7B6818460837BD4680BD587B010882
:1051200080B582B000AF78607868FFF7E7FF58215C
:10513000786801F044FC7B6818460837BD4680BD9E
:1051400080B582B000AF7860054A7B681A607B68E2
:1051500018460BF055FA7B6818460837BD4680BDE7
:10516000707B010880B582B000AF78607868FFF787
:10517000E7FF5021786801F022FC7B681846083769
:10518000BD4680BD80B582B000AF7860054A7B68BF
:105190001A607B6818460BF033FA7B6818460837AC
:1051A000BD4680BD887B010880B582B000AF7860C5
:1051B0007868FFF7E7FF5021786801F000FC7B6812
:1051C00018460837BD4680BD80B582B000AF786014
:1051D000054A7B681A607B681846FEF751F87B68C1
:1051E00018460837BD4680BDA07B010880B582B057
:1051F00000AF78607868FFF7E7FF5821786801F022
:10520000DEFB7B6818460837BD4680BD0000000005
:1052100080B584B002AF786039607B68012B40F0C4
:10522000CF803B684FF6FF72934240F0C9806848D8
:10523000FEF7EAFB674A684965480CF0D9F8002395
:105240000093664B624A6649664801F0C5FB614AB5
:10525000654964480CF0CCF86448FFF795FE5D4A58
:10526000634962480CF0C4F8002300935B4B5F4A2B
:105270006049614801F0B0FB564A5B495E480CF05A
:10528000B7F840F2D1725D495D4801F037F8514AF4
:105290005C495B480CF0ACF83A215B4803F058F9E4
:1052A0003B215A4803F054F93821594803F050F98A
:1052B0002621584803F04CF92B21574803F048F9B0
:1052C0003021564803F044F93121554803F040F9A4
:1052D0003221544803F03CF93321534803F038F9A4
:1052E0003421524803F034F93521514803F030F9A4
:1052F0003621504803F02CF937214F4803F028F9A4
:105300003F214E4803F024F93E214D4803F020F997
:105310003D214C4803F01CF93C214B4803F018F99F
:105320004C214A4803F014F94B21494803F010F985
:105330004A21484803F00CF94921474803F008F98D
:105340000421464804F0E4FB0521454804F0E0FB55
:105350000621444804F0DCFB0721434804F0D8FB55
:105360004FF0FF3301934FF0FF3300931B231A22BA
:1053700003213E4806F08EFA03213D4802F0AEFAC2
:1053800001213C4802F0AAFA3B48FFF71DFD114AF3
:105390003A4939480CF02CF83948FFF753FD0D4ACB
:1053A000384937480CF024F807A3D3E900233649DD
:1053B0003648FFF75FFD074A354934480CF018F8C6
:1053C00000BF0837BD4680BD00E1F50500000000C4
:1053D000500C002094160020913A0008C07101087A
:1053E00010150020900C002031320008C80C00205D
:1053F000C951000834150020200D0020D471010887
:10540000600D00203D630008900D0020AC0D0020D1
:10541000C80D0020E40D0020000E00201C0E00200E
:10542000380E0020540E0020700E00208C0E00203C
:10543000A80E0020C40E0020E00E0020FC0E00206C
:10544000180F0020340F0020500F00206C0F002098
:10545000880F0020A40F0020C00F0020DC0F0020C8
:10546000F80F002014100020301000204C100020F5
:105470006810002084100020A01000208551000832
:10548000F010002041510008DC710108401100209B
:10549000FD50000880B584B000AFF860B9607A6054
:1054A0003B607B68102B04D9064801F053F80023B9
:1054B00004E03968F86800F007F80123184610374F
:1054C000BD4680BDE4710108F0B484B000AF7860DF
:1054D00039607B689A6B3B6814460FCB84E80F00F9
:1054E0007B68DB6BFB607B689A6B7B68DA637B684D
:1054F000FA689A637B6893F84430DBB2002B09D0DA
:105500007B689B6BFB607B681A6C7B689A637B682B
:10551000FA681A647B68D3E912345D1C44F1000612
:105520007B68C3E9125600BF1037BD46F0BC704718
:1055300080B500AF4FF6FF710120FFF769FE80BD17
:1055400080B582B000AF7860396078684FF4FA6354
:10555000642239680AF0E6FF034A7B681A607B68B8
:1055600018460837BD4680BDB47B010880B582B0BF
:1055700000AF7860FDF7CAFC7B682922A3F85020B1
:1055800070210020FDF7CEFC03461A467B6883F8A5
:1055900052207B68B3F850207B685633194610467A
:1055A000FDF763F903461A467B6883F852207B684F
:1055B00093F85230002B04D17B684EF6AA32A3F840
:1055C00056200123002B0DD07B6893F852301946EA
:1055D0007B68B3F856301A467B68B3F85030984869
:1055E00000F070FF7B6893F85230002B03D0954891
:1055F00000F068FF1BE0944800F064FF7B68B3F89C
:1056000050301846FDF74AF903461A467B6883F87E
:1056100052208E4800F056FF7B68B3F85030184691
:10562000FDF719FA03461A467B6883F85220702169
:105630000120FDF777FC03461A467B6883F8522069
:105640007B68B3F850207B68563319461046FDF747
:105650000CF903461A467B6883F852207B6893F85E
:105660005230002B04D17B684EF6AA32A3F85620A4
:105670000123002B0DD07B6893F8523019467B68CC
:10568000B3F856301A467B68B3F850306C4800F0D7
:1056900019FF7B6893F85230002B03D0694800F063
:1056A00011FF1BE0684800F00DFF7B68B3F8503035
:1056B0001846FDF7F3F803461A467B6883F8522034
:1056C000624800F0FFFE7B68B3F850301846FDF7E3
:1056D000C2F903461A467B6883F8522070210220E3
:1056E000FDF720FC03461A467B6883F852207B684E
:1056F000B3F850207B68563319461046FDF7B5F8CD
:1057000003461A467B6883F852207B6893F8523030
:10571000002B04D17B684EF6AA32A3F85620012351
:10572000002B0DD07B6893F8523019467B68B3F894
:1057300056301A467B68B3F85030414800F0C2FE3C
:105740007B6893F85230002B03D03E4800F0BAFE3D
:105750001BE03D4800F0B6FE7B68B3F850301846B9
:10576000FDF79CF803461A467B6883F852203748B9
:1057700000F0A8FE7B68B3F850301846FDF76BF9CF
:1057800003461A467B6883F8522070210320FDF7F8
:10579000C9FB03461A467B6883F852207B68B3F83E
:1057A00050207B68563319461046FDF75EF80346D5
:1057B0001A467B6883F852207B6893F85230002B9E
:1057C00004D17B684EF6AA32A3F856200123002BA1
:1057D0000DD07B6893F8523019467B68B3F8563089
:1057E0001A467B68B3F85030154800F06BFE7B68B2
:1057F00093F85230002B03D0124800F063FE1BE0F8
:10580000114800F05FFE7B68B3F850301846FDF792
:1058100045F803461A467B6883F852200B4800F08F
:1058200051FE7B68B3F850301846FDF714F9034673
:105830001A467B6883F8522000BF0837BD4680BDFA
:10584000F87101083C7201085C7201087472010869
:105850002DE9F04F85B000AFF8600B46FB72FB6896
:1058600093F85230002B03D0A74800F02BFEC7E17D
:10587000FB7A032B00F2C48101A252F823F000BF8F
:105880009158000865590008375A0008315B000834
:105890009E4B09221A609D4B9D4A5A609B48FCF71B
:1058A000ECFEFB68002283F85320FB6893F853302A
:1058B000042B51D8FB68B3F85020FB6854331946C9
:1058C0001046FDF711F903461A46FB6883F852208B
:1058D000FB6893F85430002B05D0FB68B3F85030C8
:1058E0001846FDF7A1F8FB68B3F85020FB685A335F
:1058F00019461046FDF75AFAFB68B3F85C301946B2
:105900008248FCF734FF03461AB2824B1A80814B5F
:10591000B3F90030002B05D1FB68B3F85C301AB244
:105920007C4B1A80FB6893F853300133DAB2FB6882
:1059300083F8532001F082F90A460146764B4FF076
:105940000004C818386042EB04037B600022D7E9EA
:1059500000010AF025FFA8E701226E496F4800F018
:1059600091F94DE16E4B09221A606D4B6D4A5A60F8
:105970006B48FCF782FEFB68002283F85320FB682B
:1059800093F85330042B50D8FB68B3F85020FB68D1
:10599000543319461046FDF7A7F803461A46FB682C
:1059A00083F85220FB6893F85430002B05D0FB6835
:1059B000B3F850301846FDF737F8FB68B3F85020BD
:1059C000FB686A3319461046FDF7F0F9FB68B3F837
:1059D0006C3019465248FCF7CAFE03461AB24D4BCA
:1059E0005A804C4BB3F90230002B05D1FB68B3F859
:1059F0006C301AB2474B5A80FB6893F8533001332E
:105A0000DAB2FB6883F8532001F018F90A46014620
:105A1000414B4FF0000411EB030A42EB040B002250
:105A2000504659460AF0BCFEA9E7012239493B48D5
:105A300000F028F9E4E03C4B09221A603A4B3B4A5B
:105A40005A603948FCF719FEFB68002283F853209E
:105A5000FB6893F85330042B50D8FB68B3F8502000
:105A6000FB68543319461046FDF73EF803461A46C4
:105A7000FB6883F85220FB6893F85430002B05D064
:105A8000FB68B3F850301846FCF7CEFFFB68B3F85C
:105A90005020FB687A3319461046FDF787F9FB68FA
:105AA000B3F87C3019462048FCF761FE03461AB271
:105AB000184B9A80174BB3F90430002B05D1FB68C3
:105AC000B3F87C301AB2134B9A80FB6893F85330CA
:105AD0000133DAB2FB6883F8532001F0AFF80A46CD
:105AE00001460D4B4FF0000411EB030842EB040993
:105AF0000022404649460AF053FEA9E70122054923
:105B0000064800F0BFF87BE03C720108D01100208D
